:100000000C94AF020C94F6020C94F6020C94F602D7
:100010000C94F6020C94F6020C94F6020C94F60280
:100020000C94F6020C94F6020C94F6020C94AF2792
:100030000C945E280C94411D0C94F6020C94F6026C
:100040000C94F6020C94F6020C94F6020C948E1D9D
:100050000C94F6020C94F6020C94F6020C94F60240
:100060000C94F6020C94F6020C94F6020C94F60230
:100070000C94F6024A07640753075B077707830768
:10008000A407CC07DB070B082208500858082208F1
:100090007E137E13B013B013FD131B146615661583
:1000A0005D14F61407150715FB15FB150D160D1637
:1000B00004160D160D160D16FB15FB1509160D165B
:1000C0000D160916CB28F228EA29F228EA293E293A
:1000D0006129EA29B829C72900001B0007000A0086
:1000E0000E000F00380000000000E2001D000600B6
:1000F000050011003700E600E5000000E1001600F1
:1001000009000B000D0033003400280000000251EC
:10011000E30019002C4110003600000053000000DD
:100120003500140020002200240026002D000000CD
:1001300000002B001A0015001C000C0013002F00FB
:10014000300000001E001F002100230025002700B2
:100150002E002A0000002961040008001700180082
:10016000120000003100000000000000000000004C
:1001700052004F00000000000000000000000000DE
:10018000000000000000000000000000000000006F
:10019000000050005100000000000000000003516A
:1001A000000000000100000000000000000000004E
:1001B000000000003C003E004000420044000000FF
:1001C000000000000000000000000000000000002F
:1001D000000000003A003B003D003F0041004300AA
:1001E00045004C000000000000000000000000007E
:1001F00000000000000000000000000000000000FF
:1002000000000000000000000000000000000000EE
:1002100000000000000000000000000000000000DE
:1002200000000000000000000000000000000100CD
:10023000000000000351000000000000000000006A
:100240000000000000000000AC00AB00AA000000AD
:10025000000000000000000000000000000000009E
:1002600000000000BE00BD0000000000AE00A800BD
:10027000A9000000000000000000000000000000D5
:10028000000000000000000000000000000000006E
:10029000000000000000000000000000000000005E
:1002A000000000000000000000000000000000004E
:1002B000000000000000000000000000000001003D
:1002C000000000000100000000000000000000002D
:1002D000000000000000000000000000000000001E
:1002E000000000000000005C0000000000000000B2
:1002F00000000000000000000000000000000000FE
:1003000000000000000000000000000000000000ED
:1003100000000000000000000403300000008E0315
:100320006D006F00640065006C0066006B00650086
:10033000790062006F0061007200640073002E009B
:1003400063006F006D0020004200720061006E00CB
:10035000640020004E006500770020004600360053
:1003600032002F0046003700370020004D006F009C
:10037000640065006C002000460020004B00650012
:10038000790062006F00610072006400200062006A
:10039000790020004D006F00640065006C002000B3
:1003A000460020004C0061006200730000005A0308
:1003B00054006F006D00200057006F006E00670052
:1003C0002D0043006F0072006E0061006C006C0035
:1003D0002F0045006C006C00690070007300650020
:1003E0002F00770063006100730073002F0050003E
:1003F00075007200640065006100200041006E001D
:100400006400720065006900000004030904090229
:100410005B00030100A0FA090400000103010100D0
:100420000921110100012240000705810308000A8B
:10043000090401000203000000092111010001224A
:1004400022000705820320000107050303200001A5
:10045000090402000103000000092111010001222A
:1004600081000705840320000A120110010000002A
:1004700008810402000100010203010660FF096116
:10048000A1010962150026FF009520750881020967
:1004900063150026FF00952075089102C00501092B
:1004A00002A10185020901A100050919012905150B
:1004B00000250195057501810295017503810105EE
:1004C00001093009311581257F95027508810609DA
:1004D000381581257F950175088106050C0A3802BB
:1004E0001581257F950175088106C0C00501098029
:1004F000A101850319012AB700150126B70095014E
:1005000075108100C0050C0901A101850419012A9B
:10051000A002150126A002950175108100C00501F9
:100520000906A101050719E029E71500250195082D
:10053000750181029501750881010507190029FFE0
:10054000150026FF00950675088100050819012988
:1005500005950575019102950175039101C011245E
:100560001FBECFEFD4E0DEBFCDBF04B603FE27C071
:100570008091330390913403A0913503B0913603F9
:100580008730904BA740B04BD1F4109233031092B8
:100590003403109235031092360314BE84B7877F5C
:1005A00084BF0FB6F894A89580916000886180930D
:1005B0006000109260000FBEE0E0F8E3099511E0E2
:1005C000A0E0B1E0EAE9F5E502C005900D92AE3C8D
:1005D000B107D9F723E0AEECB1E001C01D92A3331F
:1005E000B207E1F70E9481240C94CB2A0C940000FE
:1005F000219A229A209A289A2998299A2998089526
:10060000880F991F880F991F289820E130E097FFE5
:1006100002C02A9A01C02A98880F991F299A2998FE
:1006200021503109A1F7289A299A29988AE28A95B6
:10063000F1F700C008955C9880E190E05F9A5F98C0
:100640000197E1F75E9A5E9808950F931F935F9864
:100650005E98EFE0F0E077FF02C05C9A01C05C9822
:100660005F9A309719F42115310509F45F98660FE8
:10067000771F881F991F319770F75E9A012B09F435
:100680005E98452B11F05C9A01C05C981F910F9108
:1006900008952FE030E090E08217930711F45C9A00
:1006A00001C05C985F9A5F9821503109A8F70895BE
:1006B000549A559A569A579A5D985E985F980E94F8
:1006C0001B038AE28A95F1F700C00895EF92FF922A
:1006D0000F931F93CF93DF9300D01F92CDB7DEB758
:1006E0008B017A010E944903B8016F5F7F4FFE01C1
:1006F000319680E090E0F89416B109B1119301931E
:100700005E9A16B109B11083008301968617970788
:10071000C0F378945E980E941B038AE28A95F1F7F1
:1007200000C012951F70802F8295807F812BE1146D
:10073000F10451F09981292F22952F709A81929579
:10074000907F922BF70190830F900F900F90DF9185
:10075000CF911F910F91FF90EF9008956F927F922C
:100760008F929F92AF92BF92CF92DF92EF92FF92C1
:100770000F931F93CF93DF93782E662E822E922EA7
:100780009694EE24EA9493E0F92E00E010E0C42E53
:10079000D12CE701C00FD11FD695C795CE010E947D
:1007A0000003A12CB12CA81491F040E050E0B60158
:1007B000872D0E94660390E0062C02C095958795D0
:1007C0000A94E2F781709927B80EA394ECCFB9147C
:1007D00028F47E0181E0E81AF10805C09B1440F47A
:1007E0008E010F5F1F4F0E151F0598F2C80101C043
:1007F000CE01DF91CF911F910F91FF90EF90DF908D
:10080000CF90BF90AF909F908F907F906F90089502
:1008100097E0961B692F883009F48FE00C94AE03A3
:100820003F924F925F926F927F928F929F92AF9280
:10083000BF92CF92DF92EF92FF920F931F93CF93CD
:10084000DF93662E742EAA24AA9433E0B32E00E020
:1008500010E044244394512C882E912CE501C00FC4
:10086000D11F711001C02196D695C795CE010E9467
:100870000003C12CD12CEC2CB601660F771F27E0AA
:1008800030E080E090E0F12CFC01E60FF71FE85229
:10089000FF4F45915491452B39F0A201022E01C022
:1008A000440F0A94EAF7F42A42962150310980391C
:1008B000910551F788E0E81202C09FE0E92E312C43
:1008C0003614D1F040E050E0B4018E2D772041F095
:1008D0000E9466038F2171F08E010F5F1F4F19C0B8
:1008E0000E9466038F21F81629F05E0181E0A81AA4
:1008F000B1080FC03394E4CF8FEFC81AD80A89E04B
:10090000C816D10409F0B7CF711002C08E0101C022
:100910005E010A151B0508F4A1CFC801DF91CF9134
:100920001F910F91FF90EF90DF90CF90BF90AF900D
:100930009F908F907F906F905F904F903F90089521
:100940005F926F927F928F929F92AF92BF92CF925F
:10095000DF92EF92FF920F931F93CF93DF93CDB768
:10096000DEB764970FB6F894DEBF0FBECDBF4AE086
:1009700050E06FEF70E0CE010B960E947C2A4AE0B7
:1009800050E06FEF70E0CE0101960E947C2A41E0BA
:1009900060E184E00E9410049093A5028093A40279
:1009A00040E060E184E00E94100490939302809301
:1009B00092022091A4023091A5022115310519F06F
:1009C0002150310902C020E030E0FC0131962E17A1
:1009D0003F0708F49F012E1B3F0B6901CC0CDD1C67
:1009E00008E812E078018AE0A82EB12CC901B5010F
:1009F0000E94382A6E0F7F1FD7016D937D937D0172
:100A00002C0D3D1DB2E9EB16B2E0FB0679F7E12CA7
:100A1000F12C712C512CAA24A394B12C45010E2C3D
:100A200002C0880C991C0A94E2F7E7E06E2EC12CF4
:100A3000D12CC60169E070E00E94272A8E0D9F1D0F
:100A4000FC01EE0FFF1FE852FF4F85919491892B17
:100A500009F46CC020E144E0662D852D0E94AE03B0
:100A60002091880230918902AC01421B530B57FF41
:100A700003C0519541955109EAE8F2E020E031E0E8
:100A800061917191DC01A61BB70BBD01B7FF03C0DB
:100A90007195619571096417750710F4AB01232FE7
:100AA0003F5F353069F730E0F90143E0EE0FFF1F9B
:100AB0004A95E1F7EC0DFD1DEE0FFF1FEA55FD4FC6
:100AC000408151814829592951834083220F331F86
:100AD000E1E0F0E0EC0FFD1FE20FF31F42855385CC
:100AE0004F3FBFEF5B0719F04817590740F4E1E0AB
:100AF000F0E0EC0FFD1FE20FF31F93878287E1E028
:100B0000F0E0EC0FFD1FE20FF31F408151814F3FDA
:100B1000EFEF5E0719F08417950740F4E1E0F0E08D
:100B2000EC0FFD1FE20FF31F91838083FFEFCF1ABD
:100B3000DF0A6A942FEF62127CCF739469E0761615
:100B400059F0E8E07E1611F0572C02C0FFE05F2E4E
:100B5000FFEFEF1AFF0A62CFDE011B96CE0101966E
:100B60006C017E0195E1E90EF11C4FEF53E06D91B0
:100B70007D916F3FEFEF7E0739F0F6018081918123
:100B80008F3FFFEF9F0721F4F8018081918104C01E
:100B9000860F971F9695879548968115F4E09F07D5
:100BA00020F0F8015183408303C0F80191838083D2
:100BB0000E5F1F4FF2E0CF0ED11CEA16FB06B9F60E
:100BC00064960FB6F894DEBF0FBECDBFDF91CF9114
:100BD0001F910F91FF90EF90DF90CF90BF90AF905B
:100BE0009F908F907F906F905F900895892B11F068
:100BF0002C9A01C02C98672B11F02D9A08952D98EE
:100C00000895249A259A40E050E060E070E080E08A
:100C100090E00E94F6050E9458030E94F80288B1F5
:100C2000806F88B98BB18F608BB90E94731D9093D0
:100C3000F7028093F6020E94A0040E94731D209187
:100C4000F6023091F702821B930B9093F702809388
:100C5000F6020895CF93DF93C82F0E94D608D82FAD
:100C6000882369F0C2FB442740F9C1FB662760F97D
:100C700050E070E08C2F817090E00E94F6058D2F7F
:100C8000DF91CF9108950C940106DC01E4E9F2E0D4
:100C900080E02D913D91408151814217530709F029
:100CA00081E02193319392E0E43AF90791F70895B6
:100CB0002F923F924F925F926F927F928F929F926C
:100CC000AF92BF92CF92DF92EF92FF920F931F935A
:100CD000CF93DF9300D000D0CDB7DEB74C0180E1D9
:100CE000F40111928A95E9F738E8C32E32E0D32E49
:100CF00046EAA42E42E0B42EF601819191916F0153
:100D00000E94000300E010E0512C312C0C8366247B
:100D10006394712C002E02C0660C771C0A94E2F7D3
:100D20007401BB82AA8297E0492E80E0EA81FB81B0
:100D300021913191FB83EA8326213721232B69F10D
:100D4000811109C0AE014F5F5F4F64E070E0832DF9
:100D50000E946603282E898190E0042C02C095959C
:100D600087950A94E2F780FD17C0822D90E0042C4D
:100D700002C0959587950A94E2F7817099270C80B7
:100D800002C0880F991F0A94E2F7F7012081318190
:100D9000822B932B9183808381E04A94F2E0EF0EC3
:100DA000F11C9FEF4912C2CF5394E9E05E1651F057
:100DB000F8E05F1611F0352C02C02FE0322E0F5FE5
:100DC0001F4FA4CFF0E1AF0EB11C82E9C81682E03C
:100DD000D80609F091CF0F900F900F900F90DF91F0
:100DE000CF911F910F91FF90EF90DF90CF90BF9028
:100DF000AF909F908F907F906F905F904F903F90BB
:100E00002F900895CF93DF93EC0180910001882308
:100E100021F0CE010E94580605C080E1FE0111922A
:100E20008A95E9F7CE01DF91CF910C944506AF92F8
:100E3000BF92CF92DF92EF92FF920F931F93CF93C7
:100E4000DF93CDB7DEB7E0970FB6F894DEBF0FBEE5
:100E5000CDBF8C0142E050E069E171E00E94662A5A
:100E6000892B09F034C18091190190911A019A835C
:100E7000898383E28B83D80112962C91822F90E094
:100E8000FC017197EE30F10508F01CC1E65CFF4FE4
:100E90000C94602A82E28B8382E08C831D821E8206
:100EA00085E08F830FC182E28B83809100018C8368
:100EB0001092000107C182E28B83809100018C8334
:100EC00081E080930001FEC010920001EFE3FCE995
:100ED0003197F1F700C000000E94B41D8FE39CE938
:100EE0000197F1F700C0000082E28B83EBC082E241
:100EF0008B83CE0181960E94580680E1FE01B19657
:100F0000DE0114961CC082E28B8385E08C83D801BD
:100F10001396EC91F0E0DF01AA0FBB1FA857BD4F5D
:100F20009C9111968C919D838E8394E0EE0FFF1F10
:100F30009A95E1F7EA55FD4F80E1DE0117960190A1
:100F40000D928A95E1F7BEC082E28B83F80163813E
:100F500070E0E0910101F0910201DF010D900020AD
:100F6000E9F7CD018E1B9F0B6817790710F01C82E3
:100F7000A9C06E0F7F1FFB0101900020E9F7AF01B0
:100F8000461B570B4E31510510F04DE150E0CE019C
:100F900004960E94732A96C082E28B8300E010E0E0
:100FA0006FEFC8010E94972A0F5F1F4F0F3FF3E0BA
:100FB0001F07B1F787C082E28B83D8011396FC909C
:100FC00013971496EC9014971596CC908E010F5FA2
:100FD0001F4FA12CB12CD12CAC14BD040CF072C04D
:100FE00028E044E06E2D8F2D0E940804F8018383D1
:100FF000948381E08F0D893018F088EF8F0DE39492
:101000000E5F1F4FF7E0FE1508F45CC09FEFA91AB2
:10101000B90AF82EE1CF82E28B8389E08C8388E0E5
:101020008D8392E09E838F83888794E0998791E0F7
:101030009A879FEF9B8793E09C878D871E861F86EC
:10104000188A40C082E28B83D80113966D917D91FE
:101050008D919C9116972E3161F417964C911797AC
:1010600050E018962C91189730E019960C9110E0EA
:1010700006C000E010E020E030E040E050E00E94D8
:10108000250389B1829581708C8389B1881F882757
:10109000881F8D8389B186FB882780F98E8312C0D3
:1010A00082E28B83F801838194810E9400030AC04D
:1010B00082E28B8340E050E060E070E08FEF0E94BE
:1010C00066038C8360E2CE0101960E946A23E0965B
:1010D0000FB6F894DEBF0FBECDBFDF91CF911F9149
:1010E0000F91FF90EF90DF90CF90BF90AF90089559
:1010F000089581E0089581E008950C947B08089597
:101100000C947F081F93CF93DF9300D000D01F92E1
:10111000CDB7DEB749835A836B832091F001898173
:101120009A81211112C0662349F00E94C41A182F17
:10113000682F89819A810E94641A03C00E94951ABF
:10114000182F69817A81812F04C00E94C41A698195
:101150007A810F900F900F900F900F90DF91CF91A9
:101160001F910C943509FC0140815181628173818A
:1011700084810C948208CF93DF93EC010E94B30822
:10118000BE01DF91CF910C9480080E94E91B811170
:1011900002C00E948B1C0E94410C0C945E0B0E94AA
:1011A000CD0B0C945A0B08950C94D30881E008954C
:1011B000CF93C82F0E94D4088C2F0E942A06CF916B
:1011C000089508950E94E9150E94E1082FEF84E335
:1011D0009CE0215080409040E1F700C000000E9458
:1011E000530E0C94B41D0F931F93CF93DF93EC0118
:1011F0000E94B3088C01BE010E94B20D882379F1D0
:10120000BE01C8010E947D08882349F1BE01C801C2
:101210000E94240F882319F1BE01C8010E94650FA6
:101220008823E9F0BE01C8010E9490108823B9F01C
:101230008A81882369F001158CE5180731F00E3D8D
:101240001C4531F40E948B1C0AC00E94E20807C0B2
:10125000CE01DF91CF911F910F910C94790880E01E
:10126000DF91CF911F910F910895382F262F872F4F
:1012700090E069E070E00E94272AFC01832F90E053
:1012800068E470E00E94272A8E0F9F1FFC01E20F86
:10129000F11DEE0FFF1FE852FF4F859194910895C5
:1012A000CF93DF930E9435090E945A0AEC01811501
:1012B000914508F044C0C11580E5D80708F08BC0FF
:1012C000C83ED10528F5C03ED10508F0EFC0C83AA8
:1012D000D10578F4C53AD10508F075C0C130D10503
:1012E00009F4E4C008F4E0C0C430D10508F0DEC061
:1012F000DBC0CF3BD10508F0D7C0C85AD0E0CC0F37
:10130000DD1FCE5ADE4F0990D881C02DD464CEC0E7
:10131000C11520E2D20758F4C11581E0D80708F0C2
:10132000C5C0C03FD10508F4BFC0D065BFC0C1155E
:1013300020E4D20708F4B8C0DF70D06AB7C0C11586
:1013400085E5D807A0F4C11524E5D20708F092C0BE
:10135000C11583E5D80708F075C0C11522E5D2078D
:1013600008F058C0DC2FCC27C16FD06A9FC0C115D0
:1013700089E5D807A0F4C11528E5D20708F07FC099
:10138000C11586E5D80708F08FC08C2F0E94EE0AA1
:101390008F71C82FD0E0DC2FCC27D06287C0C11559
:1013A0002AE5D20708F470C0CE019056811590420C
:1013B00008F07AC08D2F8F710E94EE0ADD27D0626F
:1013C0008F71D82B73C0C55AD0E0C058DE4FC8818A
:1013D000D0E0D0646BC0CE01F4E096958795FA9585
:1013E000E1F7282F23703C2F337081E090E002C09A
:1013F000880F991F3A95E2F79C68922BCF70C6959B
:10140000C695D0E0A5E0CC0FDD1FAA95E1F7C82B6B
:10141000D92B4CC0CE018370992721E030E002C067
:10142000220F331F8A95E2F78C2F86958695C82F59
:10143000D0E075E0CC0FDD1F7A95E1F7C22BD32BFE
:10144000DC6834C0CE018370992721E030E002C00F
:10145000220F331F8A95E2F78C2F86958695C82F29
:10146000D0E065E0CC0FDD1F6A95E1F7C22BD32BEE
:10147000DA681CC0DC2FCC27C46FD06A17C0DC2F01
:10148000CC27C06FD06A12C08C2F8F700E94EE0ADA
:1014900094E0D695C7959A95E1F7CF70D0E0DC2F10
:1014A000CC27D069C82B02C0C0E0D0E0CE01DF91CC
:1014B000CF9108958238910569F1B0F48133910597
:1014C00009F46DC048F48932910509F463C08A3289
:1014D000910509F469C008958533910509F455C053
:1014E00089339105B9F00895833E910569F138F487
:1014F000803E9105B1F0823E910509F10895863E46
:101500009105A9F1873E9105B9F1843E910509F055
:1015100064C023C02091240320FD4FC021FD4DC095
:1015200008958091240380FD44C08091250380FFAD
:1015300044C08091240384FD42C083EE4DC080915D
:10154000240382FF38C0F5CF8091240382FD33C08D
:101550008091250380FD31C0ECCF8091250381FF70
:1015600032C08091240384FD2AC087EE35C080916B
:10157000240383FF26C0F5CF8091240383FD21C07F
:101580008091250381FD1FC0ECCF8091240385FD50
:101590001CC01DC08091240385FD19C016C0809118
:1015A000240386FD16C017C08091240386FD13C056
:1015B00010C089E311C082EE0FC080EE0DC080E044
:1015C0000BC086EE09C084EE07C089E205C085E342
:1015D00003C08AE201C081E390E008959091240362
:1015E00092FF0DC0282F2871283019F4877F84605E
:1015F00006C0282F2471243011F48B7F886093FF5C
:101600000DC0282F2871283119F4877E846106C007
:10161000282F2471243111F48B7E886120912503B9
:1016200020FF0DC0382F3871383019F4877F816062
:1016300006C0382F3171313011F48E7F886021FF60
:101640000DC0282F2871283119F4877E816106C0CA
:10165000282F2171213111F48E7E886194FD877EBF
:10166000089508958093F8020E94550E0C94310B52
:1016700082E08093F8020E94550E0C94310B809307
:10168000F8020E94550E0C94310B1092F8020E9441
:10169000550E0C94310B0C94450BE82FF0E0EE0F37
:1016A000FF1FE75FFC4F80819181089508950895A1
:1016B0000C94570B0C94580B0C94570B0C945C0B1C
:1016C0000E944306E9EFF2E0A9E0B3E01192119223
:1016D0001D921D9283E0E930F807C1F788E00E946F
:1016E000860B0C94C508CF9389EF92E00E94020705
:1016F000C82F282F48E069E073E089EF92E00E944C
:10170000870B0E94CF088C2FCF9108950895FF92E8
:101710000F931F93CF93DF93F82E092F162FD72FF8
:10172000C42F222349F081E08093D0010E94731DD1
:101730009093CF018093CE018091D0018823D9F07E
:101740008091CE019091CF010E947F1D069798F065
:10175000EF2DF02FA12FBD2F80E090E04C2F50E017
:101760008417950734F4219131912D933D9301967F
:10177000F7CF1092D001DF91CF911F910F91FF9081
:1017800008958091190380FF06C08091F80281308E
:1017900011F42F9A08952F9808950C947C0ECF93EE
:1017A000DF93C9E1D3E08881816088830E94C10B07
:1017B000688179818A819B81DF91CF910C94911C02
:1017C000CF93DF93C9E1D3E088818E7F88830E9425
:1017D000C10B688179818A819B81DF91CF910C94C3
:1017E000911C8091190380FF03C00E94E00B02C08E
:1017F0000E94CF0B6091190370911A0380911B0313
:1018000090911C030C94911C90911903892F86953B
:101810008F5F8370997F833029F0880F892B8093A5
:10182000190302C0909319036091190370911A0370
:1018300080911B0390911C030C94911CCF93DF9318
:10184000C9E1D3E08881816088830E94C10B8881CF
:10185000897F8883EAE1F3E080818770ABE1B3E0C0
:101860009C919C7F9C9380628B7F808384E00E940C
:10187000590E688179818A819B81DF91CF910C9487
:10188000911C80916B02816080936B020E94E91B26
:10189000811102C00E948B1C0E948D1C6093190351
:1018A00070931A0380931B0390931C0390911A0367
:1018B00096959695969580911B0383708295880FD7
:1018C000807E892B0E94590E8091190390911A03F2
:1018D000A0911B03B0911C03892B8A2B8B2B71F0D9
:1018E00080911A03982F96959695969580911B0353
:1018F00083708295880F807E892B19F40E941E0CBC
:1019000002C00E94C10B0E94A50E279A0895E9E12A
:10191000F3E0282F220F220F220F90819770922B35
:101920009083829586958370AAE1B3E09C919C7F19
:10193000892B8C9360817181828193810C94911C9D
:1019400080911903982F96959695969580911A03F4
:1019500083708295880F807E892B8F5F0C94870C13
:1019600080911903982F96959695969580911A03D4
:1019700083708295880F807E892B81500C94870C10
:10198000EBE1F3E0282F220F220F220F90819770B6
:10199000922B9083ECE1F3E082958695877090819D
:1019A000987F892B80836091190370911A0380912D
:1019B0001B0390911C030C94911C91E0811101C0B8
:1019C00090E080911A0390FB82F980931A03609152
:1019D000190370911A0380911B0390911C030C94BE
:1019E000911CEAE1F3E0908192FB222720F981E04B
:1019F000822780FB92F990830C94DD0CEAE1F3E0FE
:101A0000282F220F220F220F90819770922B908304
:101A1000829586958370EBE1F3E090819C7F892B22
:101A200080836091190370911A0380911B03909138
:101A30001C030C94911CCF93DF93C0911A038C2F3D
:101A4000869586958695C0911B03C370C295CC0F71
:101A5000C07EC82BD0E0C436D1053CF42196C536F3
:101A6000D1052CF0C4E6D0E002C0C4E0D0E08C2F59
:101A70000E94590E8C2FDF91CF910C94FE0CCF93C6
:101A8000DF93C0911A038C2F869586958695C09119
:101A90001B03C370C295CC0FC07EC82BD0E0C530ED
:101AA000D10514F0219702C0C4E6D0E08C2F0E942B
:101AB000590E8C2FDF91CF910C94FE0C80911B035B
:101AC000982F96959695969580911C038295880FF0
:101AD000807E892B883710F4865F01C088E70C94DC
:101AE000C00C80911B03982F9695969596958091A2
:101AF0001C038295880F807E892B843110F08A50D8
:101B000001C084E10C94C00CFB01811522E5920711
:101B100078F4811521E5920718F5803E9105A0F033
:101B2000883E9105E8F0905481159041A8F00CC0D2
:101B3000811528E5920740F0811529E5920730F0DC
:101B400090568115904240F081E008959581907FF4
:101B500081E0903529F405C09581907F81E009F4FA
:101B600080E008950F931F93CF93DF938C01EB01D7
:101B7000063E8CE5180731F48A81882361F10E94C2
:101B8000CF0B29C0073E8CE5180731F48A818823E2
:101B900011F10E94E00B1FC0083E8CE5180731F4DC
:101BA0008A81882319F10E94F10B20C0093E8CE53F
:101BB000180731F48A81882321F10E941E0C21C06C
:101BC0000A3E8CE5180739F48A81882309F447C056
:101BD0000E94040C44C00B3E8CE5180739F48A813E
:101BE000882309F446C00E94F10C43C00C3E8CE5EA
:101BF000180739F48A81882309F445C00E94A00C93
:101C000042C00D3E8CE5180731F48A81882359F0D3
:101C10000E94B00C08C0013F8CE5180701F58A81CD
:101C200081110E941B0D8091190380FF36C0909195
:101C3000F802913091F59A8186958370992361F02D
:101C400090E0029754F5BE01C8010E94840D8823DC
:101C500021F10E94620E21C08111F5CF1EC0023F0A
:101C60008CE5180731F48A818823E9F20E943F0D40
:101C7000DACF0F3E8CE5180731F48A81882399F278
:101C80000E945E0DD0CF003F8CE5180761F68A8177
:101C9000882349F20E94710DC6CF81E0DF91CF9178
:101CA0001F910F9108950C94AE0E0E94C10B279ABC
:101CB00008958093030108952E981092D4011092F4
:101CC000D301089580911A0382FD05C08091D4014B
:101CD000882329F008958091D30181110CC081E0FF
:101CE0008093D4018093D3010E94731D9093D201FD
:101CF0008093D1012E9A08958091D401882321F1F7
:101D00008091D1019091D2010E947F1D2091030109
:101D100030E02817390710F40C945C0E20911A0358
:101D200022FF12C0877099272091D301049738F4BD
:101D300021110AC081E08093D3012E9A08952223B5
:101D400019F01092D3012E9808952E98269A80911A
:101D5000F802813011F40C94620E08952E980895C3
:101D60000F931F93CF93DF93C62FD42F122FFC0115
:101D700082818823C9F06093D7010E94731D9093DC
:101D8000D6018093D50180E28C0F883008F057C0CF
:101D9000C77081E001C0880FCA95EAF7DF91CF9143
:101DA0001F910F910C943A138091D701681330C0A2
:101DB0008091D5019091D6010E947F1D883C9105AC
:101DC00038F500E20D0FCD17B9F080E28C0F8830A6
:101DD00040F4C77081E001C0880FCA95EAF70E94FD
:101DE0004113083028F581E09D2F977001C0880FBE
:101DF0009A95EAF70E943A13812F0E942713083020
:101E0000F0F4D77081E001C0880FDA95EAF70AC0D4
:101E100080E28C0F883098F4C77081E001C0880F91
:101E2000CA95EAF7DF91CF911F910F910C9441135E
:101E3000812FDF91CF911F910F910C942713DF9188
:101E4000CF911F910F9108959C01CB01233F4CE549
:101E50003407F9F078F4283DFCE53F07B9F0293D57
:101E60004CE5340711F1273D3C4531F526E241EEC2
:101E700061EE1EC0253FFCE53F0799F070F0263F5C
:101E80003C45D1F427E245EE66EE12C027E245EE6E
:101E90000EC026E241EE60EE0BC027E245EE64EE96
:101EA00007C026E241EE62EE03C028E241E065EEA3
:101EB0000E94B00E80E00895FC018281882319F011
:101EC0001092D701089581E00895CF93DF93EC013C
:101ED000FB018281882309F41FC1C230FCE5DF07C2
:101EE00008F41BC1C6319CE5D90738F09E012A5F72
:101EF0003C452930310508F010C10E94FC1B90932D
:101F0000250380932403C031ECE5DE0709F4C3C048
:101F100008F041C0C8308CE5D80709F49AC0F0F445
:101F2000C430ECE5DE0709F487C068F4C2308CE504
:101F3000D80709F477C0C330DC4509F0E3C08091CD
:101F40002403826076C0C630ECE5DE0709F46EC07B
:101F500008F07BC08091240388606BC0CC308CE596
:101F6000D80709F485C068F4CA30ECE5DE0709F447
:101F700074C008F079C00E94E9158091240380683C
:101F800058C0CE308CE5D80709F476C008F07FC081
:101F9000809124038BC0CB3FECE5DE0709F44FC0F2
:101FA00018F5C3318CE5D80709F47DC078F4C13148
:101FB000ECE5DE0709F473C0C231DC4509F0A2C0CC
:101FC0000E94E915809124038F7733C0C5318CE5D9
:101FD000D80709F472C008F486C0CA3FDC4509F08E
:101FE00091C0809125033EC0CF3FFCE5DF0709F497
:101FF0005FC058F4CD3F9CE5D90709F444C008F40C
:102000003FC08091250382602DC0C130FDE5DF0710
:1020100009F475C008F45DC0C230DD4509F072C036
:1020200080E06EC080912403816003C0809124030E
:1020300080618093240366C08091240311C0809145
:1020400025038260809325035DC080912403806214
:10205000F0CF809124038064ECCF809124038860CA
:102060008460E7CF8160EECF809124038E7FE1CF43
:10207000809124038D7FDDCF80912403877FD9CF8A
:102080008091250318C0809125038D7FDBCF80913F
:1020900024038F7ECECF809124038F7DCACF809181
:1020A00024038F7BC6CF80912403877F8B7FC1CF92
:1020B000809125038D7F8E7FC5CF8091240382FB85
:1020C000222720F991E0922790FB82F990FB83F977
:1020D000B0CF80912503982F909591708E7F892B9A
:1020E00090FB81F9AFCF0E94E9158091240387FB13
:1020F000222720F991E0922790FB87F99ACF81E07F
:102100000E94971C80912403909125030E940D1C2E
:102110000E94E91580E001C081E0DF91CF91089530
:10212000CF93DF9386319C4541F5EB010E94451B1F
:10213000982F8A812091040130910501882379F03C
:102140009A7A81E009F480E08093D801911102C06D
:1021500069E201C065E3C9010E94DE1C0AC08091EA
:10216000D801811102C069E201C065E3C9010E9482
:10217000E01C0E94861B80E001C081E0DF91CF91CE
:1021800008959093DE018093DD010895E091DD01D3
:10219000F091DE01309721F00190F081E02D09945B
:1021A00080E00895E091DD01F091DE01309721F0AB
:1021B0000280F381E02D09940895E091DD01F09112
:1021C000DE01309739F022E0DC012C930480F581A8
:1021D000E02D099408952091DB013091DC0128174E
:1021E000390771F09093DC018093DB01E091DD0110
:1021F000F091DE01309721F00680F781E02D0994FF
:1022000008952091D9013091DA012817390771F02A
:102210009093DA018093D901E091DD01F091DE0124
:10222000309721F00084F185E02D099408950895F8
:102230000C9417110C9418110C9417110E941C1176
:102240000C941A1181E008950E946A1D0E94600B8F
:102250000E94D81D0C9478087F928F929F92AF9223
:10226000BF92CF92DF92EF92FF920F931F93CF9383
:10227000DF93CDB7DEB72A970FB6F894DEBF0FBE57
:10228000CDBF0E94730B0E942211811111C08FEFEC
:1022900089838A831B820E94731D8160782F9D83AE
:1022A0008C8349815A816B818D810E94DC114FC0E2
:1022B00040EEA42E41E0B42E00E010E0702E802FFE
:1022C0000E944D0B6C01F501819091905F01882671
:1022D00099268114910431F40F5F1F4F08301105C6
:1022E00069F7D5CF80916B0281FD0E94560B80E08B
:1022F000EE24E394F12C94012E213F21232B09F1AC
:102300008E837F82CE20DF2081E0CD2809F480E01B
:1023100088870E94731D8160782F9A8789874E81F4
:102320005F8168858A850E94DC11000F111FF8010A
:10233000E052FE4F80819181E826F926F182E08209
:1023400006C08F5FEE0CFF1C8930A9F6C5CF0E9436
:102350006E1F0E94C6109091DF018917C9F00E947C
:10236000C6108093DF012A960FB6F894DEBF0FBE29
:10237000CDBFDF91CF911F910F91FF90EF90DF9034
:10238000CF90BF90AF909F908F907F900C94D80883
:102390002A960FB6F894DEBF0FBECDBFDF91CF9166
:1023A0001F910F91FF90EF90DF90CF90BF90AF9073
:1023B0009F908F907F900895CF93DF93CDB7DEB736
:1023C0002B970FB6F894DEBF0FBECDBF4F83588753
:1023D00069877A878B87DE01119686E0FD0111926D
:1023E0008A95E9F785E0FE01379601900D928A956E
:1023F000E1F749815A816B817C818D819E810E94A8
:10240000A1182B960FB6F894DEBF0FBECDBFDF919B
:10241000CF910895FC01808191810E94061B08954F
:10242000CF93882309F4A9C0C82F8238C1F40E9431
:10243000C61081FDA2C069E380910401909105015D
:102440000E94DE1C0E94861B2FEF81EE94E021503B
:1024500080409040E1F700C0000069E319C0833874
:1024600001F50E94C61080FD88C063E580910401DB
:10247000909105010E94DE1C0E94861B2FEF81EEC9
:1024800094E0215080409040E1F700C0000063E5F7
:1024900080910401909105010E94E01CCF910C9461
:1024A000861B8438C1F40E94C61082FD66C067E4B2
:1024B00080910401909105010E94DE1C0E94861B00
:1024C0002FEF81EE94E0215080409040E1F700C072
:1024D000000067E4DDCF8CEF8C0F813AF8F48C2F8D
:1024E0000E943022811149C06C2F8091040190918B
:1024F00005010E94A81C882349F06C2F80910401DB
:10250000909105010E94E01C0E94861B6C2F809117
:102510000401909105010E94DE1CC0CF80E28C0F67
:10252000883048F4C77081E001C0880FCA95EAF787
:102530000E94481BB3CFEBE5EC0FE33040F4F0E032
:10254000EF54FE4F808190E0CF910C94EB10E8E5C2
:10255000EC0FE73150F4F0E0EE0FFF1FED57FE4FA8
:1025600080819181CF910C940111C03F30F08C2F6C
:102570000E94761ECF910C94631FCF9108958823FB
:1025800009F464C0823879F40E94C61081FF5EC0ED
:1025900069E380910401909105010E94DE1C0E9474
:1025A000861B69E310C08338B1F40E94C61080FF17
:1025B0004DC063E580910401909105010E94DE1CED
:1025C0000E94861B63E580910401909105010E94A1
:1025D000E01C0C94861B843879F40E94C61082FF9C
:1025E00035C067E480910401909105010E94DE1CD2
:1025F0000E94861B67E4E7CF9CEF980F913A10F496
:10260000682FE1CF90E2980F983050F4877091E0F6
:1026100001C0990F8A95EAF7892F0E944E1BD9CFE6
:102620009BE5980F933020F480E090E00C94EB1041
:1026300098E5980F973120F480E090E00C94011118
:10264000803F20F00E94DE1E0C94631F0895CF93FC
:10265000C82F0E941012C93349F42FEF87EE93E080
:10266000215080409040E1F700C000008C2FCF91B6
:102670000C94BF12882321F00E94481B0C94861BE7
:102680000895882321F00E944E1B0C94861B089508
:10269000CF92DF92EF92FF920F931F93CF93DF932E
:1026A0007C01D62FC72FFC01058102950F70128186
:1026B00011110E94651B0E943E1B882379F0112393
:1026C00069F080E28D0F883048F082E00E94D01BD4
:1026D0000E943E1B91E0D82ED92601C0D12CCC2ED1
:1026E000C2948FE0C8228C2D90E08C30910508F0C8
:1026F000EDC1FC01E85BFF4F0C94602A8C2F807FBA
:10270000CF70882311F0C295C07F112399F0CC239C
:1027100009F4C8C180E28D0F883010F0D11104C0D7
:102720008C2F0E94481B03C08C2F0E94581B0E94B4
:10273000861BB8C18D2F0E94BF12CC2309F4C6C1DD
:1027400080E28D0F883010F0D11104C08C2F0E94D0
:102750004E1B03C08C2F0E945E1B0E94861BB6C1BD
:102760008C2F807FCF70803211F0C295C07FDD2327
:1027700019F0D130C9F022C0112371F0002341F0CB
:10278000013031F40E946B1B8C2B0E94731B9EC185
:102790000E946B1B8C2B1DC0002319F0013009F423
:1027A00095C10E947C1B25C0112321F0063008F042
:1027B0008DC10EC0053008F089C11BC0112361F026
:1027C000002331F0F701858180FF6CC18F70858314
:1027D0008C2F0E943A137AC1002359F0D93309F0A3
:1027E00072C1FFEF07EE13E0F15000401040E1F737
:1027F00068C18C2F0E94411369C18C2F86958695E4
:10280000837019F0813061F061C1112321F08D2FA7
:102810009C2F937002C080E090E00E94EB105EC19C
:10282000112321F08D2F9C2F937002C080E090E047
:102830000E94011153C11123F9F0D53F51F0D63F49
:1028400071F0D43FA9F480911E0390911F03816021
:102850000BC080911E0390911F03826005C0809180
:102860001E0390911F03846090931F0380931E03A7
:102870008D2F0E94761E1EC0D53F51F0D63F71F0BD
:10288000D43FA9F480911E0390911F038E7F0BC04B
:1028900080911E0390911F038D7F05C080911E03C0
:1028A00090911F038B7F90931F0380931E038D2FA6
:1028B0000E94DE1E0E94631F11C18C2F837009F0DD
:1028C00047C0111107C12D2F229526952770220F81
:1028D000220F6D2F6F70862F90E0A0E0B0E0022EE7
:1028E00004C0880F991FAA1FBB1F0A94D2F7D4FFF8
:1028F00010C04FE050E060E070E004C0440F551F8E
:10290000661F771F2A95D2F7409550956095709570
:1029100003C040E050E0BA01C695C695C3708A0175
:102920009B01082B192B2A2B3B2BC901B801C23064
:1029300049F058F4C13019F00E947A19CBC00E94B6
:102940006819C8C00E948C19C5C00E946619C2C00F
:10295000112319F08C2F817001C08695882309F40A
:10296000B9C02D2F229526952770220F220F6D2F8B
:102970006F70862F90E0A0E0B0E0022E04C0880FB8
:10298000991FAA1FBB1F0A94D2F7D4FF10C04FE0B3
:1029900050E060E070E004C0440F551F661F771FD1
:1029A0002A95D2F7409550956095709503C040E008
:1029B00050E0BA01C695C695C3708A019B01082BE9
:1029C000192B2A2B3B2BC901B801C23049F058F40E
:1029D000C13019F00E943F1A7DC00E942D1A7AC0A2
:1029E0000E94511A77C00E94A01974C0CF701123A1
:1029F00039F08C2F0E94C6198D2F0E943A136AC09D
:102A00008D2F0E9441138C2F0E94E71963C0D23F83
:102A100001F128F4D03F41F0D13FA1F03FC0D33FB6
:102A2000F9F0D43F39F13AC0112341F0053008F0F4
:102A30004DC08C2F8F710E940C1A48C0063008F0D0
:102A400045C0F7CF112339F08C2F8F710E94C61922
:102A50003DC01123C9F38C2F8F710E94E71936C036
:102A6000112329F08C2F8F710E94B1192FC00E9461
:102A7000AC192CC0112349F0CF718C2F0E94C619BC
:102A800063E08C2F0E94BB1B21C081E00E94D01B01
:102A90000230E0F082E00E94D01B18C0112331F018
:102AA000002391F28D2F0E94101210C0002399F282
:102AB000D93349F41FEF27EE33E011502040304066
:102AC000E1F700C000008D2F0E94BF1288EF8C0D2F
:102AD000843020F40E94C6100E94D808DD20C9F07E
:102AE0000E943A1B80FD15C0F70112820E94341B20
:102AF0000E94C619C7010E94AA150E94341BDF91CB
:102B0000CF911F910F91FF90EF90DF90CF900C9499
:102B1000E719DF91CF911F910F91FF90EF90DF9018
:102B2000CF9008950F931F93CF93DF93EC016881AB
:102B300079818A810E94111B8C010E94631A0E9474
:102B40005419B801CE010E944813DF91CF911F9113
:102B50000F910895CF93DF93FC01908181812381B0
:102B60003481232B31F08F3F31F481E09F3F19F402
:102B700003C081E001C080E080FD0EC0EF01CF0105
:102B80000E94F308882341F0CE010E949215CE01E5
:102B9000DF91CF910C94BB08DF91CF9108950E94F3
:102BA000651B0E94681B0E94861B0E949B200E943E
:102BB000631F80E090E00E94EB1080E090E00C94B6
:102BC000011180910401909105010E94E21C0C9476
:102BD000CF150E94551B0C94E115E92FE295EF707B
:102BE0004E2F50E0FA013297EE30F105B0F4EC5A76
:102BF000FF4F0C94602A803F91F018F4883E68F4EF
:102C00000EC0843F51F40BC0883E48F0813F29F448
:102C100006C093FB882780F9089580E0089581E03D
:102C200008950E94061B0E94ED150895CF93DF932F
:102C300000D000D01F92CDB7DEB70F900F900F904D
:102C40000F900F90DF91CF910895CF93DF9300D035
:102C500000D000D0CDB7DEB726960FB6F894DEBF11
:102C60000FBECDBFDF91CF910895CF93DF93C09179
:102C7000F1018091F201C817A1F0D0E0CE0166E029
:102C800070E00E94272AFC01ED50FE4F40815181E7
:102C900062817381848195810E9425162196C77077
:102CA000E8CFDF91CF910895409123025091240203
:102CB000609125027091260280912702909128024E
:102CC0000C9425161F93CF93DF9380912802829551
:102CD0008F7009F05CC080912502882309F457C0E9
:102CE0002091F1011091F201C0912302D0912402B0
:102CF000A0912602B091270281E0CF3F09F080E049
:102D0000482F211709F443C0109721F0DF3F21F02D
:102D100080E003C081E001C0842F30E080FD33C03B
:102D2000C90166E070E00E94272AFC01ED50FE4FC9
:102D300081818D1328C080818C1325C082818111EF
:102D400022C0838194818A1B9B0B883C9105D8F417
:102D5000809128028F70806180932802C90166E00B
:102D600070E00E94272AFC01E850FE4F90819F707E
:102D70009061908383E292E00E94AA15DF91CF9147
:102D80001F910C9435162F5F3F4F2770BACFDF91FC
:102D9000CF911F9108959F92AF92BF92CF92DF92F1
:102DA000EF92FF920F931F93CF93DF93CDB7DEB7D0
:102DB00061970FB6F894DEBF0FBECDBF8C0185E0E2
:102DC000F801DE011D9601900D928A95E1F7F80158
:102DD00040812181E2809091230230912402609110
:102DE0002602709127026115710531F03F3F31F4E1
:102DF00081E09F3F19F403C081E001C080E0F82F1B
:102E0000F1709F2E80FD4AC1F801A380B48083E257
:102E1000C82E82E0D82EF0902502F501E61BF70BB4
:102E2000FF2009F4E2C080912802582F507FE83C2F
:102E3000F10508F09CC0511155C0231313C049136C
:102E400011C0FE2CE1100EC08F70806180932802AB
:102E50000E945416C6010E94AA1580912802F8010A
:102E600085835CC1AB2831F02F3F31F481E04F3FC7
:102E700019F403C081E001C080E080FD03C081E05F
:102E80008E2502C080E090E0F82FF170FF2E80FFC9
:102E90001FC0E091F1013091F201E31709F41CC168
:102EA000F0E0CF0166E070E00E94272ADC01AD501F
:102EB000BE4F11968C911197281307C08C9148131F
:102EC00004C012968C91E81203C03196E770E5CFEA
:102ED000FE2CEE2009F422C18091280281608093AB
:102EE00028025AC0231306C0491304C0E11002C0CF
:102EF000F8019FC04D872E878D859E850E941116F3
:102F0000882379F1EE2069F120912802822F8295A1
:102F10008F7090E0029774F08091230290912402C8
:102F200098878F831986BB86AA862C87CE01079641
:102F30000E94AA1586E0F801A3E2B2E001900D928A
:102F40008A95E1F70E9462160E9454160DC023175D
:102F500029F14D872E878D859E850E94111681113E
:102F60002CC0C8010E94AA15FF24F394D7C05111A8
:102F7000EECF7A2DB98AA88A522F6E2D89890E94A8
:102F8000161683E292E00E94AA1586E0F6011192DD
:102F90008A95E9F70E945416F12CC0C04913D9CF85
:102FA000E110D7CFF8018583C8010E94AA1586E0F9
:102FB000F60111928A95E9F7B1C0EE2091F22091C5
:102FC0002802822F82958F7090E002970CF4B2CF86
:102FD00080912302909124029A8389831B82BD826F
:102FE000AC822E83CE010196A3CFE83CF10508F018
:102FF00047C0FE2CEE2009F4B4CF231330C0491390
:103000002EC02091280220FD21C0822F82958F7032
:10301000482F50E041155105C9F0F80125834F3084
:10302000510541F08F5F982F9295907F822F8F707E
:10303000892B8583C8010E94AA1586E0F801A3E2C6
:10304000B2E001900D928A95E1F743C086E0F80165
:10305000A3E2B2E001900D928A95E1F75FC04D873F
:103060002E878D859E850E941116811163CF8091D8
:103070002802816080932802C8010E94AA154EC0D0
:103080007A2DB98AA88A522F6E2D89890E94161628
:1030900086E0F60111928A95E9F71BC0EE2009F44B
:1030A00060CF4D872E878D859E850E941116F82E44
:1030B000882309F456CF86E0F801A3E2B2E001903C
:1030C0000D928A95E1F783E292E00E940A120E9433
:1030D00062160E94541622C04D872E878D859E85CC
:1030E0000E94061B292F22952F70223028F49F70F2
:1030F00039F0811105C00BC0243028F49F7049F4C9
:10310000805E883020F0C8010E94AA159F2CF92CFF
:1031100005C0F8019581907F99F7F9CF8F2D6196C1
:103120000FB6F894DEBF0FBECDBFDF91CF911F91D8
:103130000F91FF90EF90DF90CF90BF90AF909F9056
:103140000895CF93DF93CDB7DEB72C970FB6F894E1
:10315000DEBF0FBECDBF4F83588769877A878B87C5
:103160009C87CE0107960E94CB168823D1F09F81C1
:1031700088852A853B85232B31F08F3F31F481E010
:103180009F3F19F403C081E001C080E080FD6FC063
:103190004F81588569857A858B859C850E94251687
:1031A00066C086E0FE013796DE01119601900D9211
:1031B0008A95E1F7FF81E8856A857B856115710550
:1031C00031F0EF3F31F481E0FF3F19F403C081E0BB
:1031D00001C080E080FD4BC08091F20190E09C0135
:1031E0002F5F3F4F277033274091F10150E02417A4
:1031F000350709F443C0F983EA837D836C8366E075
:1032000070E00E94272ADC01AD50BE4F96E0FE011F
:10321000319601900D929A95E1F72093F2010E9468
:10322000351625C090E066E070E00E94272A8D5098
:103230009E4F0E94CB16882371F18091F10190E09E
:1032400066E070E00E94272AFC01ED50FE4F4081AD
:10325000518162817381848195810E9425168091BC
:10326000F10190E00196877099278093F101809198
:10327000F1019091F2018913D5CF0DC00E94E9159B
:103280001092F2011092F101E3E2F2E086E0DF0138
:103290001D928A95E9F72C960FB6F894DEBF0FBE03
:1032A000CDBFDF91CF910895089508950C945519DD
:1032B0000C9456190E94581960935A0270935B023D
:1032C00080935C0290935D020C94CF150C945A1974
:1032D0000F931F9300915A0210915B0220915C02A0
:1032E00030915D02602B712B822B932B1F910F91DC
:1032F0000C945A190F931F9300915A0210915B027C
:1033000020915C0230915D0260237123822393231C
:103310001F910F910C945A190F931F9300915A0209
:1033200010915B0220915C0230915D026027712751
:10333000822793271F910F910C945A190C945519B9
:103340000E949E1960935602709357028093580210
:10335000909359020C94CF1560E070E0CB010C946F
:10336000A0190F931F9341E050E060E070E08A01E4
:103370009B0104C0000F111F221F331F8A95D2F733
:10338000C901B8011F910F910C94A0190F931F93BD
:1033900041E050E060E070E004C0440F551F661F3C
:1033A000771F8A95D2F78091560290915702A0918B
:1033B0005802B09159028A019B01082B192B2A2B24
:1033C0003B2BC901B8011F910F910C94A0190F93C9
:1033D0001F9341E050E060E070E004C0440F551FCF
:1033E000661F771F8A95D2F7409550956095709526
:1033F0008091560290915702A0915802B0915902C3
:103400008A019B01082319232A233B23C901B80100
:103410001F910F910C94A0190F931F9341E050E05E
:1034200060E070E004C0440F551F661F771F8A9547
:10343000D2F78091560290915702A0915802B09114
:1034400059028A019B01082719272A273B27C9010E
:10345000B8011F910F910C94A0190F931F93009125
:103460005602109157022091580230915902602B58
:10347000712B822B932B1F910F910C94A0190F93FA
:103480001F930091560210915702209158023091DB
:10349000590260237123822393231F910F910C946F
:1034A000A0190F931F93009156021091570220917B
:1034B00058023091590260277127822793271F9164
:1034C0000F910C94A0190895282F362F892F69E0A9
:1034D0000E941E2A820F982F9770A1E001C0AA0FA8
:1034E0009A95EAF786958695869590E065E070E076
:1034F0000E94272AFC01E75DFD4F40E050E0632F6A
:1035000070E090819B01042E02C0369527950A94A5
:10351000E2F72170219529272A23292721934F5F3C
:103520005F4F4530510569F70895282F892F69E0CD
:103530000E941E2A820FA82FA770869586958695D1
:1035400090E065E070E00E94272ABC0140E050E076
:1035500080E0FB01E40FF51FE75DFD4F208130E0C7
:103560000A2E02C0369527950A94E2F72170332778
:10357000042E01C0220F0A94EAF7822B4F5F5F4F9F
:103580004530510531F70895BF92CF92DF92EF9207
:10359000FF920F931F93CF93DF938C01C09056023D
:1035A000D0905702E0905802F090590280915A0250
:1035B00090915B02A0915C02B0915D02C82AD92A69
:1035C000EA2AFB2ACFE1D0E0D701C6010C2E04C0C5
:1035D000B695A795979587950A94D2F780FD04C074
:1035E000219790F7B12C07C0BC2EB8018C2F0E94F8
:1035F00050090197A9F38B2DDF91CF911F910F9166
:10360000FF90EF90DF90CF90BF900895CF93DF931E
:10361000EC010E94C41ABE010E945009DF91CF91B3
:1036200008951F93CF93DF93EB019091F0019923BD
:1036300021F0CB010E94061B13C0882349F0CB0167
:103640000E94C41A182F682FCE010E94641A04C069
:10365000CB010E94951A182FBE01812F0E9450099C
:10366000DF91CF911F91089580915E028595859598
:103670008595089580915E028770089590915E020D
:10368000977081E009F480E0089580916A020895BE
:1036900090916A02892B80936A0208958095909197
:1036A0006A02892380936A02089510926A0208953B
:1036B00090916902892B8093690208958095909179
:1036C000690289238093690208951092690208951E
:1036D00010926802089580915F02089508950C94F5
:1036E0006E1B0C946F1B90915F02981721F08093D2
:1036F0005F020C94711B089580915F02882329F06A
:1037000010925F0280E00C94711B0895E091040117
:10371000F091050180916A028083E0910401F091AB
:103720000501908180916902892B8083E0910401D9
:10373000F0910501908180916802892B80838091AE
:103740005F02882381F0E0910401F09105019081EE
:10375000892B808380910401909105010E949C1C1B
:1037600081110E947C1B80910401909105010C94B1
:10377000D2100C946E1B982F990F990F990F692BEB
:1037800060935E020E94C61980915E0285958595C0
:1037900085950C94B91B10925E0280E00C94B91BC5
:1037A00020915E028095822380935E02982F97700D
:1037B00079F430E0482F082E000C550B24173507FC
:1037C00039F08595859585950E94E7190C94CB1B5A
:1037D000089580E090E00E94912A21E08C3E9E4F67
:1037E00009F020E0822F089582E090E00C94832A73
:1037F00083E090E00C94832ACF9384E090E00E94D1
:10380000832AC82F81E290E00E94832A2C2F30E087
:10381000A901582BCA01CF910895CF93C92F682FC2
:1038200084E090E00E94972A6C2F81E290E0CF9193
:103830000C94972AAB01BC018FE090E00C94A92A6C
:10384000AB01BC0183E190E00C94A92A60E070E038
:10385000CB010C94201C60E070E0CB010E941A1C8C
:103860000C94261C6CEE7EEF80E090E00E94B52A5E
:1038700060E082E090E00E94972A60E083E090E0C0
:103880000E94972A10925A0210925B0210925C02D8
:1038900010925D0260E084E090E00E94972A60E070
:1038A00081E290E00E94972A60E085E090E00E942B
:1038B000972A60E086E090E00E94972A6FEF87E009
:1038C00090E00E94972A40E050E0BA0188E090E042
:1038D0000E94A92A60E08DE090E00E94972A40E0D3
:1038E00050E0BA0188E190E00E94A92A60E087E1F7
:1038F00090E00E94972A40E050E0BA018CE190E00D
:103900000E94A92A60E080E290E00E94972A0E942B
:103910001E0C0C942B1C0C94321C88E190E00C942F
:103920008B2AAB01BC0188E190E00C94A92A682F96
:103930008EE090E00C94972AFC01329697E080E0AC
:10394000915029F021912223D9F38F5FF9CF089567
:10395000662349F0FC01329608962191621729F0FE
:10396000E817F907D1F780E0089581E008959C01F8
:10397000FC0132969FEF80E04191461789F09F3F0E
:1039800019F4411101C0982F8F5F8630A9F79F3F2E
:1039900039F0F901E90FF11D97FDFA956283089559
:1039A00008959C012A5F3F4FFC014281461301C0EC
:1039B0001282019682179307B9F708950C94B71CE9
:1039C0000C94D11C029626E0FC0111922A95E9F78D
:1039D000089508950C94E91C0C94E91CCF930E945F
:1039E000EC1C0E94730B0E94EA1CC0E08C2F0E940A
:1039F0004D0B892B29F4CF5FC830C1F780E001C09F
:103A000081E0CF9108950C94E91C0C94031D0E9451
:103A1000051D80912A03843049F110926C0220E444
:103A200088E190E00FB6F894A895809360000FBEEF
:103A30002093600080E00E94D8080E94051D83B793
:103A4000817F846083BF83B7816083BF78948895CA
:103A500083B78E7F83BF0FB6F894A89580916000DE
:103A6000886180936000109260000FBE08950C94EE
:103A7000E91C0E94E9150E94C6100E94D8080C9407
:103A8000371D1F920F920FB60F9211248F939F93A1
:103A9000AF93BF9380916C02811113C0809120037A
:103AA00090912103A0912203B09123034196A11D7F
:103AB000B11D8093200390932103A0932203B09320
:103AC0002303BF91AF919F918F910F900FBE0F90E5
:103AD0001F90189582E084BD93E095BD9AEF97BD45
:103AE00080936E0008952FB7F894809120039091F1
:103AF0002103A0912203B09123032FBF08959C01BD
:103B00004FB7F8948091200390912103A091220354
:103B1000B09123034FBF821B930B089578941F929B
:103B20000F920FB60F9211248F939F93AF93BF9371
:103B30008091200390912103A0912203B09123034F
:103B40000196A11DB11D8093200390932103A093A2
:103B50002203B0932303BF91AF919F918F910F9058
:103B60000FBE0F901F90189581E08093E00080E2D7
:103B70008093D8001092C9008FE19EE40197F1F77D
:103B800000C0000087E090EBDC018093330390934A
:103B90003403A0933503B09336039CE088E10FB65D
:103BA000F894A895809360000FBE90936000FFCFBB
:103BB0000E94E91B811102C00E948B1C0E94F41B11
:103BC00080936B020E94FC1B909325038093240337
:103BD0000E94F81B682F70E080E090E00C9466195A
:103BE0008091740280FF0CC080910B0190E065E031
:103BF00070E00E94272A95958795959587952EC008
:103C000081FF0AC080910B0190E065E070E00E94A6
:103C1000272A9595879522C082FF08C080910B01C5
:103C200090E065E070E00E94272A18C0209173029E
:103C30002223D9F030910A01231780F780910B01DC
:103C400090E065E070E00E94272A622F70E00E94F9
:103C5000272A632F70E00E944C2ACB0180389105FF
:103C600038F4009739F481E005C085E090E00895CC
:103C70008FE7089508958091740280FF08C06091D5
:103C8000070170E0759567957595679523C081FF6D
:103C900006C06091070170E0759567951BC082FFB3
:103CA00004C06091070170E012C060917302662346
:103CB000A9F0209106016217A0F78091070170E03A
:103CC00090E00E94272A622F70E00E944C2A603800
:103CD000710540F46115710519F406C061E070E0EA
:103CE000862F08958FE7089581E00895803F21F49D
:103CF0000E94F01D819504C0813F29F40E94F01DAF
:103D0000809378020895823F21F40E94F01D8195EE
:103D100004C0833F29F40E94F01D80937702089528
:103D2000893F19F40E943B1E05C08A3F31F40E946E
:103D30003B1E81958093790208958B3F21F40E9468
:103D40003B1E819504C08C3F29F40E943B1E80934A
:103D50007A020895843F21F480917602816017C031
:103D6000853F21F480917602826011C0863F21F464
:103D70008091760284600BC0873F21F480917602A7
:103D8000886005C0883F31F480917602806180931D
:103D9000760208958D3F21F48091740281600BC0FA
:103DA0008E3F21F480917402826005C08F3F29F418
:103DB000809174028460809374020895803F39F486
:103DC0008091780287FF6CC01092780269C0813FB1
:103DD00029F4809178021816BCF362C090917702A2
:103DE000823F29F497FF5CC01092770259C0833F4D
:103DF00019F41916CCF354C0893F41F4809179022B
:103E000018160CF04DC0109279024AC08A3F29F46E
:103E10008091790287FF44C0F6CF8B3F39F48091BF
:103E20007A0287FF3DC010927A023AC08C3F29F493
:103E300080917A021816BCF333C0843F21F480913C
:103E400076028E7F17C0853F21F4809176028D7FA8
:103E500011C0863F21F4809176028B7F0BC0873F93
:103E600021F480917602877F05C0883F31F48091EC
:103E700076028F7E8093760213C08D3F21F480916D
:103E800074028E7F0BC08E3F21F4809174028D7F6F
:103E900005C08F3F29F4809174028B7F8093740258
:103EA0008091770281110EC08091780281110AC041
:103EB00080917902811106C080917A02811102C03D
:103EC00010927302089585E792E00E94DD100E942F
:103ED000731D90937202809371020895CF93DF93C4
:103EE00000D000D000D0CDB7DEB786E0E5E7F2E045
:103EF000DE01119601900D928A95E1F7809177028B
:103F0000811105C080917802882309F481C08091D5
:103F10006F02909170020E947F1DFC01209173023C
:103F2000222339F080910C0190E08E179F0760F0FA
:103F30006FC080910D0190E06AE070E00E94272A36
:103F40008E179F0718F064C02F3F19F02F5F209342
:103F500073021092790210927A02809177021816F9
:103F600024F40E94F01D809377028091770287FFEE
:103F700005C00E94F01D81958093770280917802A0
:103F8000181624F40E94F01D809378028091780224
:103F900087FF05C00E94F01D819580937802809173
:103FA0007702882311F1209178022223F1F0082E64
:103FB000000C990B65EB70E00E94272A992319F0F9
:103FC0009093770203C081E080937702822F220FC3
:103FD000990B65EB70E00E94272A992319F09093C2
:103FE000780203C081E0809378020E94631F809171
:103FF0007102909172029093700280936F0286E03A
:10400000FE013196A5E7B2E001900D928A95E1F7A5
:1040100080917902811105C080917A02882309F488
:1040200081C080916D0290916E020E947F1DFC0103
:1040300020917302222339F08091080190E08E17BD
:104040009F0760F06FC08091090190E06AE070E026
:104050000E94272A8E179F0718F064C02F3F19F07F
:104060002F5F209373021092770210927802809152
:104070007902181624F40E943B1E809379028091E5
:10408000790287FF05C00E943B1E819580937902CB
:1040900080917A02181624F40E943B1E80937A02C3
:1040A00080917A0287FF05C00E943B1E8195809314
:1040B0007A0280917902882311F120917A022223D9
:1040C000F1F0082E000C990B65EB70E00E94272A96
:1040D000992319F09093790203C081E080937902CB
:1040E000822F220F990B65EB70E00E94272A9923FB
:1040F00019F090937A0203C081E080937A020E94C3
:10410000631F809171029091720290936E0280936E
:104110006D0286E0FE013196A5E7B2E001900D92B6
:104120008A95E1F726960FB6F894DEBF0FBECDBF95
:10413000DF91CF910895E5E7F2E086E0DF011D927F
:104140008A95E9F7109273021092740208958330F1
:1041500081F128F4813059F08230D1F00895853012
:1041600009F449C0B8F1863009F456C00895809129
:104170000D01262F30E0280F311D2F3F310524F48B
:10418000680F60930D0108958FEF80930D010895DE
:1041900080910C01262F30E0280F311D2F3F310573
:1041A00024F4680F60930C0108958FEF80930C0145
:1041B000089580910B01262F30E0280F311D2F3FED
:1041C000310524F4680F60930B0108958FEF8093FD
:1041D0000B01089580910A01262F30E0280F311D30
:1041E0002F3F310524F4680F60930A0108958FEF83
:1041F00080930A01089580910701262F30E0280F4F
:10420000311D2F3F310524F4680F60930701089595
:104210008FEF80930701089580910601262F30E0EB
:10422000280F311D2F3F310524F4680F60930601DC
:1042300008958FEF809306010895833011F128F4DB
:10424000813049F0823091F00895853081F120F17C
:104250008630C1F1089580910D01681720F4861B06
:1042600080930D01089510920D01089580910C0125
:10427000681720F4861B80930C01089510920C019E
:10428000089580910B01681720F4861B80930B0121
:10429000089510920B01089580910A01681720F487
:1042A000861B80930A01089510920A010895809157
:1042B0000701681720F4861B809307010895109268
:1042C0000701089580910601681720F4861B8093EA
:1042D000060108951092060108950F931F9341E07F
:1042E00050E060E070E08A019B0104C0000F111FE4
:1042F000221F331F8A95D2F7C901B8010E9466199F
:104300001F910F910C94E9158B3109F474C058F585
:104310008B3009F492C078F4863009F446C020F45A
:10432000853009F44CC08BC0873009F456C0883002
:1043300009F483C084C0803109F470C068F48E3001
:1043400009F07DC080916B0282FB222720F991E069
:10435000922790FB82F958C0863109F46EC08931EA
:1043600009F46BC06CC08A32E9F060F4873209F45A
:1043700061C028F48E3108F462C08D515CC089326E
:10438000F1F05DC0833450F48A3308F051C08533B6
:1043900009F450C0883309F450C051C0833409F483
:1043A00049C04DC00E948B1C48C080916B02817F28
:1043B0008E7F80936B0281E080937C0208950E943F
:1043C000E9152FEF83ED90E3215080409040E1F715
:1043D00000C000000E94B41D30C080916B02982F75
:1043E0009095917090FB80F980936B02911125C09C
:1043F000897F877F10C080916B0281FB222720F983
:1044000091E0922790FB81F980936B029923A9F0A8
:1044100080916B02816080936B020FC080916B0270
:1044200083FB222720F991E0922790FB83F9ECCFC0
:10443000895301C080E00E946D2181E0089580E0F1
:10444000089580E008950C9421228E518A3030F432
:10445000E82FF0E0EC54FE4F8081089580E008954D
:10446000CF93C82F80917C02813051F018F08230B8
:1044700099F17DC00E94451B823209F07AC004C0C8
:104480000E94451B823261F48C2F0E9423228111ED
:1044900004C08C2F0E9484211DC081E090E01AC0CE
:1044A0008C2F0E942122811114C0C43179F048F46C
:1044B000CB3079F0C03109F060C082E080937C029B
:1044C00008C0C93219F0C83321F057C010927C02DD
:1044D00054C081E0817053C0C93289F118F5C431EC
:1044E00071F1B0F4C73009F046C08EE180930D0140
:1044F00082E380930C018AE080930B0184E1809336
:104500000A0188E08093070188E28093060133C0A6
:1045100082EE8C0F863078F58C2F0E9425228093B6
:104520007B0229C0CE34E9F020F4CB3421F56AE0D7
:1045300013C0C13579F0C235F1F461E00DC080914E
:104540007B02882319F010927B0215C081E08093D2
:104550007C0215C061E006C080917B020E94A7200A
:104560000AC06AE080917B020E941D2104C0109263
:104570007C0280E004C081E002C080E0ABCFCF913C
:104580000895809185020895CF93DF9300D01F9204
:10459000CDB7DEB790912A03943011F589837B83E0
:1045A0006A839093E9008FEF9091E800815095FD28
:1045B00006C095ED9A95F1F700008111F5CF809135
:1045C000E80085FF0DC040E050E063E070E0CE0100
:1045D00001960E9476258091E8008E778093E8000E
:1045E0000F900F900F90DF91CF910895CF93DF93AD
:1045F000EC010E945925823011F0843031F4BE0163
:1046000084E0DF91CF910C94C422DF91CF91089583
:10461000BC0183E00C94C422CF93DF93EC010E9491
:104620005925823011F08430F9F484E08093E90058
:104630008FEF9091E800815095FD06C095ED9A9519
:10464000F1F700008111F5CF8091E80085FF0CC0E3
:1046500040E050E066E070E0CE010E947625809157
:10466000E8008E778093E800DF91CF910895CF9393
:10467000DF93EC010E945925823011F0843039F526
:1046800081E08093E9008FEF9091E800815095FDE3
:1046900006C095ED9A95F1F700008111F5CF809154
:1046A000E80085FF14C040E050E068E070E0CE0113
:1046B0000E9476258091E8008E778093E80088E05C
:1046C000FE01ADE7B2E001900D928A95E1F7DF912E
:1046D000CF910895CF93603219F520912A032430A9
:1046E000F9F4C091E900CF703091EC00232F2170D4
:1046F00030FD20E8C22B22E02093E9002091E80061
:1047000020FF0BC040E050E060E270E00E947625A0
:104710008091E8008E778093E800CF70C093E90025
:10472000CF9108950C944B0B6091260381E06111A9
:1047300001C080E00C94380B0E94391D90912A032F
:1047400081E0943009F080E0609126030C943F0BE7
:1047500042E061EC81E00E94C52642E261EC84E027
:104760000E94C52642E261EC82E00E94C52642E238
:1047700060EC83E00E94C52690912A0381E094308A
:1047800009F080E0609126030C94320B80912C0399
:10479000833009F45EC030F4813071F0823009F466
:1047A00097C008958A3009F483C08B3009F469C03A
:1047B000893009F0A5C020C080912B03813A09F00F
:1047C0009FC08091E800877F8093E80080912F034D
:1047D00090913003892B21F468E08DE792E003C0CB
:1047E00060E080E090E070E00E940C268091E8009C
:1047F0008B778093E800089580912B03813209F034
:104800007FC080912F0390913003009719F0029799
:1048100009F076C08091E800877F8093E80080915E
:10482000E80082FD05C080912A038111F8CF68C09D
:104830008091F200823029F48091F1008B7F8130E9
:1048400021F48091F100809385028091E8008B77BC
:1048500053C080912B03813A09F052C080912F03FD
:1048600090913003892B09F04BC08091E800877F3D
:104870008093E8008091E80080FFFCCF80911801D0
:1048800036C080912B038132D9F580912F0390910E
:104890003003892BA9F58091E800877F8093E80099
:1048A0000E94FA2680912D03809318010C94E9153B
:1048B00080912B03813221F58091E800877F8093DE
:1048C000E8000E94FA2680912E03809386020895C4
:1048D00080912B03813AA1F48091E800877F809337
:1048E000E8008091E80080FFFCCF809186028093F1
:1048F000F1008091E8008E778093E8000C94FA260E
:1049000008951F93CF93DF93CDB7DEB7A0970FB66F
:10491000F894DEBF0FBECDBF84B7877F84BF0FB6CC
:10492000F894A8958091600088618093600010924F
:1049300060000FBE90E080E80FB6F89480936100AD
:10494000909361000FBE0E94450B0E941E110E94B1
:104950004C270E949F278091E20084608093E200B0
:1049600078940E94032A0E9424118EE091E00E9414
:10497000C11013E080912A03853069F40E94071D5D
:10498000809128038823B1F30E94EE1C882391F3C1
:104990000E946025EFCF0E942C1180912A03843061
:1049A00049F71093E9008091E80082FFE3CF8091FE
:1049B000E80085FF0AC040E050E060E270E0CE0110
:1049C00001960E94C12591E001C090E08091E8002D
:1049D0008B778093E800992369F260E2CE0101961B
:1049E0000E941707C7CF0C94F524292F33272330B3
:1049F0003105C9F060F42130310581F022303105F4
:104A000009F047C08BE590E02EE034E046C021324B
:104A1000310511F12232310561F13BC082E190E0B4
:104A200029E634E03AC099278130910561F040F0E1
:104A30008230910559F0039761F5E8E1F3E008C091
:104A4000EAE0F4E005C0EEEAF3E002C0EEE1F3E0F4
:104A5000849190E09F0121C063307105D0F4660F0E
:104A6000771FFB01E953FE4F2081318189E090E0FF
:104A700014C06330710568F4FB01EE0FFF1FEF53A4
:104A8000FE4F20813181FB01E254FE4F808190E096
:104A900004C080E090E020E030E0FA013183208320
:104AA000089580912A03843011F081E0089582E016
:104AB000089580918702811102C00C9451250895B8
:104AC00084E089BD86E089BD09B400FEFDCF8091F8
:104AD000D8008F7D8093D8008091E0008260809321
:104AE000E0008091E00081FDFCCF0895CF92DF923D
:104AF000EF92FF920F931F93CF93DF93EC018B0103
:104B00007A010E941927811133C0E114F10439F0B0
:104B1000F70180819181081B190BC80FD91FC12C87
:104B2000D12C0115110519F18091E80085FD16C001
:104B30008091E8008E778093E800E114F10449F059
:104B4000F70180819181C80ED91ED182C08285E093
:104B50000FC00E941927882321F30AC089918093EE
:104B6000F10001501109FFEFCF1ADF0ADACF80E020
:104B7000DF91CF911F910F91FF90EF90DF90CF9039
:104B80000895CF92DF92EF92FF920F931F93CF93EE
:104B9000DF93EC018B017A010E941927811133C048
:104BA000E114F10439F0F70180819181081B190BA0
:104BB000C80FD91FC12CD12C0115110519F18091F5
:104BC000E80085FD16C08091E8008B778093E800AF
:104BD000E114F10449F0F70180819181C80ED91EDA
:104BE000D182C08285E00FC00E941927882321F35B
:104BF0000AC08091F100899301501109FFEFCF1A8B
:104C0000DF0ADACF80E0DF91CF911F910F91FF9003
:104C1000EF90DF90CF9008952091310330913203CF
:104C20002617370748F06115710539F42091E8001F
:104C30002E772093E80001C0B901FC0120E0611546
:104C4000710561F180912A038823D9F18530D9F16A
:104C50008091E80083FD39C08091E80082FD2BC07F
:104C60008091E80080FFEBCF8091F20090E0611529
:104C7000710551F08830910538F421912093F100AD
:104C8000615071090196F3CF21E0089709F020E007
:104C90008091E8008E778093E800D1CF2111D2CFA8
:104CA0000AC080912A03882361F0853061F08091E9
:104CB000E80083FD0AC08091E80082FFF2CF80E027
:104CC000089582E0089583E0089581E00895209199
:104CD0003103309132032617370748F0611571050B
:104CE00039F42091E8002E772093E80001C0B90143
:104CF000FC0120E06115710579F180912A03882378
:104D000009F43DC0853009F43CC08091E80083FD82
:104D10003AC08091E80082FD2CC08091E80080FFBD
:104D2000E9CF8091F20090E06115710559F088306B
:104D3000910540F424912093F1003196615071095E
:104D40000196F2CF21E0089709F020E08091E80079
:104D50008E778093E800CECF2111CFCF0AC080910B
:104D60002A03882361F0853061F08091E80083FD9B
:104D70000AC08091E80082FFF2CF80E0089582E0CF
:104D8000089583E0089581E00895982F953068F59F
:104D90009093E900981739F07091EC002091ED00A4
:104DA0005091F00003C0242F762F50E021FD02C067
:104DB0009F5FECCF3091EB003E7F3093EB00309162
:104DC000ED003D7F3093ED003091EB00316030938A
:104DD000EB007093EC002093ED005093F0002091D5
:104DE000EE0027FDE5CF80E008958F708093E90005
:104DF00081E0089580912B0387FF11C08091E80026
:104E000082FD05C080912A038111F8CF11C08091E5
:104E1000E8008B770BC080912A03882349F08091AA
:104E2000E80080FFF8CF8091E8008E778093E8005B
:104E300008952091E4003091E50095E64091EC0062
:104E4000842F817040FF23C08091E80080FD1DC049
:104E500080912A03882399F0853099F08091EB00A6
:104E600085FD11C04091E4005091E50024173507FD
:104E700029F3915011F09A01E1CF84E0089582E086
:104E8000089583E0089581E0089580E008954091B9
:104E9000E80042FFDDCF08950E94A9270E94AC27B9
:104EA000E0EEF0E0808181608083E8EDF0E08081D9
:104EB0008F77808319BCE3E6F0E080818160808396
:104EC0001092290308950E94A9270E94AC2780917F
:104ED000D8008F778093D8008091D8008068809325
:104EE000D8008091D8008F7D8093D80084E089BD60
:104EF00086E089BD09B400FEFDCF10922A0310920E
:104F00002603109228031092270342E060E080E01D
:104F10000E94C5268091E1008E7F8093E100809100
:104F2000E20081608093E2008091E20088608093DB
:104F3000E2008091E0008E7F8093E0000895E3E638
:104F4000F0E080818E7F808381E0809329030C9440
:104F500063271092E20008951092E10008951F92D5
:104F60000F920FB60F9211242F933F934F935F939D
:104F70006F937F938F939F93AF93BF93EF93FF9321
:104F80008091E10082FF0BC08091E20082FF07C0A8
:104F90008091E1008B7F8093E1000E94022A809142
:104FA000E10080FF19C08091E20080FF15C0809170
:104FB000E2008E7F8093E2008091E2008061809326
:104FC000E2008091D80080628093D80019BC85E00F
:104FD00080932A030E9494238091E10084FF30C0D3
:104FE0008091E20084FF2CC084E089BD86E089BD09
:104FF00009B400FEFDCF8091D8008F7D8093D8004A
:105000008091E1008F7E8093E1008091E2008F7EAD
:105010008093E2008091E20081608093E2008091C1
:105020002603882311F084E007C08091E30087FD08
:1050300002C081E001C083E080932A030E949C2388
:105040008091E10083FF29C08091E20083FF25C0A9
:105050008091E100877F8093E10082E080932A03C2
:10506000109226038091E1008E7F8093E100809171
:10507000E2008E7F8093E2008091E2008061809365
:10508000E20042E060E080E00E94C5268091F000EE
:1050900088608093F0000E949223FF91EF91BF916E
:1050A000AF919F918F917F916F915F914F913F91C0
:1050B0002F910F900FBE0F901F9018951F920F9277
:1050C0000FB60F9211242F933F934F935F936F93DB
:1050D0007F938F939F93AF93BF93CF93DF93EF9380
:1050E000FF93C091E900CF708091EC00D82FD17070
:1050F00080FDD0E81092E9008091F000877F8093D6
:10510000F00078940E94A2281092E9008091F000AB
:1051100088608093F000CD2BCF70C093E900FF91A1
:10512000EF91DF91CF91BF91AF919F918F917F913F
:105130006F915F914F913F912F910F900FBE0F9004
:105140001F9018951F93CF93DF93CDB7DEB7AA9723
:105150000FB6F894DEBF0FBECDBFEBE2F3E0809157
:10516000F100819323E0E333F207C9F70E94C623DD
:105170008091E80083FF2EC180912B0390912C0336
:10518000492F50E04A30510508F024C1FA01EE5988
:10519000FF4F0C94602A803821F0823809F01AC140
:1051A00008C08091270390912803992389F0826099
:1051B0000FC080912F038F70853008F00BC1809352
:1051C000E9008091EB0085FB882780F91092E900C7
:1051D0009091E800977F9093E8008093F1001092FF
:1051E000F100D1C0282F2D7F09F0F4C0882319F0D9
:1051F000823061F0EFC080912D03813009F0EAC068
:10520000933009F080E0809328032EC080912D0315
:1052100081112AC080912F038F702FEF280F243027
:1052200008F0D8C08093E9002091EB0020FF1CC05B
:10523000933021F48091EB00806214C09091EB00D8
:1052400090619093EB0021E030E0A90102C0440F8F
:10525000551F8A95E2F74093EA001092EA00809188
:10526000EB0088608093EB001092E9008091E800E9
:10527000877F8093E8000E94FA26ACC08111AAC003
:1052800010912D031F778091E3008078812B80930C
:10529000E3008091E800877F8093E8000E94FA266F
:1052A0008091E80080FFFCCF8091E30080688093CC
:1052B000E300111102C082E001C083E080932A0361
:1052C00089C08058823008F085C080912D0390916C
:1052D0002E038C3D53E0950779F583E08A838AE2BB
:1052E00089834FB7F894DE01139620E03EE051E247
:1052F000E32FF0E050935700E49120FF03C0E295C4
:10530000EF703F5FEF708E2F90E0EA3010F0C7969D
:1053100001C0C0968D939D932F5F243149F74FBFF5
:105320008091E800877F8093E8006AE270E0CE0118
:1053300001960E940C2616C060912F0370913003D5
:10534000AE014F5F5F4F0E94F324BC01892B09F42B
:1053500041C09091E800977F9093E80089819A81FD
:105360000E9467268091E8008B778093E80032C026
:10537000803881F58091E800877F8093E8008091F4
:1053800026038093F1008091E8008E7772CF81111F
:1053900021C080912D0390912E0399270297D4F478
:1053A0008091E800877F8093E80080912D038093AF
:1053B00026030E94FA2680912603811106C080915F
:1053C000E30087FD02C081E001C084E080932A03EE
:1053D0000E94A8238091E80083FF0AC08091E80022
:1053E000877F8093E8008091EB0080628093EB00E0
:1053F000AA960FB6F894DEBF0FBECDBFDF91CF9156
:105400001F9108950895CF9380912A038823A1F0D6
:10541000C091E900CF709091EC00892F817090FDD0
:1054200080E8C82B1092E9008091E80083FD0E947B
:10543000A228CF70C093E900CF910895002480FD89
:10544000060E660F11F08695D1F7802D0895002481
:10545000552704C0080E591F880F991F009729F07F
:1054600076956795B8F37105B9F7802D952F089556
:10547000AA1BBB1B51E107C0AA1FBB1FA617B7077A
:1054800010F0A61BB70B881F991F5A95A9F7809596
:105490009095BC01CD01089597FB072E16F400945A
:1054A00007D077FD09D00E94382A07FC05D03EF4CA
:1054B000909581959F4F0895709561957F4F0895C0
:1054C000EE0FFF1F0590F491E02D0994FB01DC0124
:1054D00004C08D910190801921F441505040C8F7CB
:1054E000881B990B0895FB01DC0102C001900D920D
:1054F00041505040D8F70895DC0101C06D934150F0
:105500005040E0F70895F999FECF92BD81BDF89A19
:10551000992780B50895A6E1B0E044E050E00C94EE
:10552000BD2AA8E1B0E042E050E00C94BD2A262F4D
:10553000F999FECF92BD81BDF89A019700B4021689
:1055400039F01FBA20BD0FB6F894FA9AF99A0FBE37
:1055500008950396272F0E94982A0E94972A252FA4
:105560000E94982A242F0C94982A0196272F0E9493
:10557000982A0C94972ADC01CB01FC01F999FECF03
:1055800006C0F2BDE1BDF89A319600B40D924150CB
:0A5590005040B8F70895F894FFCFDB
:10559A00011B010460022808641E140A321EC1227B
:1055AA0037230C230823F6220155AA6B6579626F0B
:1055BA00617264732F78776861747369742F627289
:1055CA00616E645F6E65775F6D6F64656C5F662F91
:1055DA006636322F77636173732F77636173732E25
:1055EA006300E200E900EA00B500B600B700CD00AA
:1055FA008301CC008A019201940121022302240230
:10560A002502260227022A02B300B4006F007000A6
:10561A00818283E200E900EA00B500B600B700CD56
:10562A00008301CC008A0192019401210223022401
:10563A00022502260227022A02B300B4006F007074
:10564A00008182830102030405060708090040223B
:0E565A00811E057B049D0420043904590400C0
:00000001FF
