:100000000C94D5070C941C080C941C080C941C0828
:100010000C941C080C941C080C941C080C941C08D0
:100020000C941C080C941C080C9469300C943B3103
:100030000C94EC2A0C941C080C941C080C941C08BE
:100040000C941C080C941C080C941C080C941C08A0
:100050000C941C080C94452B0C941C080C941C0844
:100060000C941C080C941C080C941C080C941C0880
:100070000C941C080C941C080C941C080C941C0870
:100080000C941C080C941C080C941C080C941C0860
:100090000C941C080C941C080C941C080C941C0850
:1000A0000C941C080C941C080C941C08AB0BAB0B98
:1000B000DD0BDD0B2A0C5E0D5E0D5E0D480CDD0CBC
:1000C000EE0CEE0C4E0D5E0D5E0D570DFA0DFA0D99
:1000D0000C0E0C0E030E0C0E0C0E0C0EFA0DFA0D7F
:1000E000080E0C0E0C0E080E4D1B3B1B541BAA1ABF
:1000F000011C011C381B011C011C811B011C951BD0
:10010000E11B011C011C011C011CB51B011C011C75
:10011000B21B011C6D1B011C011CFB1BFB1BFB1BF1
:10012000FB1BFB1BFB1BFB1BFB1BFB1BFD1B011C16
:100130004D1B301B011C011C011C011C011C011C5E
:10014000011C011C011C011CFD1B011C011C381B96
:10015000011CF91BF91BF91BF91BF91BF91BF91BF6
:10016000F91BF91BFD1BA831CF31C732CF31C73284
:100170001B323E32C7329532A43235001E001F00BA
:100180002000210022002300240025002600270053
:100190002D002E002A002B0014001A000800150064
:1001A00017001C0018000C00120013002F00300074
:1001B0003100296104001600070009000A000B0045
:1001C0000D000E000F003300340000002800E10095
:1001D00000001D001B0006001900050011001000A2
:1001E0003600370038000000E500E000E200E300E0
:1001F000000000002C410000000000000000E300AF
:10020000E2000151E40035003A003B003C003D00B3
:100210003E003F00400041004200430044004500D2
:100220004C0001000100010001000100010001007B
:10023000010001000100010000000000C05C01009D
:1002400001000100010001000100500051005200B6
:100250004F0001000100000001000100000001004A
:100260000100010001000100010001000100010086
:100270000100000001000100010001000000000079
:10028000010000000000000000000100010001006A
:10029000010044454255473A2064697361626C65C8
:1002A000642E0A0044454255473A20656E61626CEF
:1002B00065642E0A004F6E6573686F743A2061633F
:1002C000746976653A2025640A000A0025303258A0
:1002D000006B6579626F6172645F7365745F6C65F2
:1002E000643A20000A002530313662003A200025A9
:1002F000303258000A722F632030313233343536B1
:100300003738394142434445460A003F00433E20C6
:10031000004C25640A000A092D205374617475731A
:10032000202D0A686F73745F6B6579626F61726408
:100330005F6C65647328293A20253032580A6B6552
:1003400079626F6172645F70726F746F636F6C3A21
:1003500020253032580A6B6579626F6172645F697B
:10036000646C653A20253032580A6B65796D61708E
:100370005F636F6E6669672E6E6B726F3A20253011
:1003800032580A74696D65725F7265616433322830
:10039000293A202530386C580A000A092D20566564
:1003A0007273696F6E202D0A5649443A20307834B2
:1003B00033333528534154414E29205049443A2083
:1003C00030783030303228474836302053617461FD
:1003D0006E29205645523A203078303030330A4268
:1003E00055494C443A2020284E6F76203136203231
:1003F000303231290A4F5054494F4E533A204C5510
:1004000046412045585452414B455920434F4E5385
:100410004F4C4520434F4D4D414E44204E4B524F83
:1004200020343039360A4743433A20352E342E30B3
:10043000204156522D4C4942433A20322E302E3024
:10044000204156525F415243483A20617672350A44
:10045000000A092D20436F6E736F6C65202D0A45CD
:1004600053432F713A09717569740A000A092D20E6
:100470004D61676963202D0A443A094465627567D6
:10048000204D65737361676520546F67676C650AFB
:10049000583A094D61747269782044656275672025
:1004A0004D6F646520546F67676C65202D2053681D
:1004B0006F77206B65797072657373657320696EF1
:1004C000206D617472697820677269640A4B3A0919
:1004D0004B6579626F617264204465627567205470
:1004E0006F67676C65202D2053686F77206B657987
:1004F0007072657373207265706F72740A4D3A0979
:100500004465627567204D6F75736520546F67672A
:100510006C650A563A0956657273696F6E0A533AEA
:10052000095374617475730A433A094163746976B7
:1005300061746520436F6E736F6C65204D6F6465E9
:100540000A46312D4631303A095377697463682081
:10055000746F204C6179657220302D392028463126
:1005600030203D204C30290A302D393A0953776923
:1005700074636820746F204C6179657220302D3966
:100580000A47524156453A095377697463682074A3
:100590006F204C6179657220302028616C7465721F
:1005A0006E617465290A423A094A756D7020746F4C
:1005B00020426F6F746C6F616465720A4553433AF1
:1005C000094A756D7020746F20426F6F746C6F6193
:1005D0006465722028616C7465726E617465290AA5
:1005E000453A095072696E7420454550524F4D206E
:1005F00053657474696E67730A4253504143453AB8
:1006000009436C65617220454550524F4D0A4E3A80
:10061000094E4B524F20546F67676C650A00626148
:10062000636B6C696768745F636F6E6669672E726F
:1006300061773A20253032580A2E656E61626C650A
:100640003A2025750A2E6C6576656C3A2025750A68
:10065000006B65796D61705F636F6E6669672E729E
:1006600061773A20253032580A2E737761705F63C4
:100670006F6E74726F6C5F636170736C6F636B3AF3
:100680002025750A2E636170736C6F636B5F746FE6
:100690005F636F6E74726F6C3A2025750A2E7377E4
:1006A00061705F6C63746C5F6C6775693A20257567
:1006B0000A2E737761705F7263746C5F726775691D
:1006C0003A2025750A2E737761705F6C616C745FD8
:1006D0006C6775693A2025750A2E737761705F72B1
:1006E000616C745F726775693A2025750A2E6E6FAA
:1006F0005F6775693A2025750A2E737761705F67A9
:10070000726176655F6573633A2025750A2E73778B
:1007100061705F6261636B736C6173685F62616378
:100720006B73706163653A2025750A2E6E6B726F6C
:100730003A2025750A0064656275675F636F6E66AF
:1007400069672E7261773A20253032580A2E656E1D
:1007500061626C653A2025750A2E6D617472697844
:100760003A2025750A2E6B6579626F6172643A20B2
:1007700025750A2E6D6F7573653A2025750A00651B
:1007800065636F6E6669673A0A64656661756C7465
:100790005F6C617965723A2025750A003F004E4B07
:1007A000524F3A206F66660A004E4B524F3A206F06
:1007B0006E0A000A6D6F7573653A206F66660A00EF
:1007C0000A6D6F7573653A206F6E0A000A6B657962
:1007D000626F6172643A206F66660A000A6B65791F
:1007E000626F6172643A206F6E0A000A6D61747202
:1007F00069783A206F66660A000A6D6174726978DA
:100800003A206F6E0A000A64656275673A206F6667
:10081000660A000A64656275673A206F6E0A000A0C
:100820000A4A756D70696E6720746F20626F6F740D
:100830006C6F616465722E2E2E2000433E200043B3
:100840006C656172696E6720454550524F4D0A00D4
:100850007267626C696768742074696D6572206480
:10086000697361626C652E0A007267626C69676801
:10087000742074696D657220656E61626C65642EAA
:100880000A007267626C6967687420736574206817
:100890007376205B4E4F454550524F4D5D3A2025B3
:1008A000752C25752C25750A007267626C6967685E
:1008B000742073657420687376205B454550524FF1
:1008C0004D5D3A2025752C25752C25750A0072671B
:1008D000626C69676874207261696E626F772073F9
:1008E0006574206873763A2025642C25642C256471
:1008F0002C25750A007267626C69676874206469E8
:100900007361626C65205B454550524F4D5D3A20E6
:100910007267626C696768745F636F6E6669672E81
:10092000656E61626C65203D2025750A0072676204
:100930006C6967687420656E61626C65205B454513
:1009400050524F4D5D3A207267626C696768745F00
:10095000636F6E6669672E656E61626C65203D200F
:1009600025750A007267626C6967687420746F6726
:10097000676C65205B454550524F4D5D3A2072676C
:10098000626C696768745F636F6E6669672E656E17
:1009900061626C65203D2025750A007267626C6992
:1009A000676874206D6F6465205B4E4F45455052FB
:1009B0004F4D5D3A2025750A007267626C69676861
:1009C00074206D6F6465205B454550524F4D5D3A14
:1009D0002025750A007267626C696768745F696ECA
:1009E0006974207267626C696768745F636F6E66B2
:1009F00069672E6D6F6465203D20302E2057726927
:100A000074652064656661756C742076616C7565CB
:100A10007320746F20454550524F4D2E0A00726767
:100A2000626C696768745F696E6974206565636F7D
:100A30006E666967206973206E6F7420656E6162EF
:100A40006C65642E0A007267626C696768745F691E
:100A50006E6974207374617274210A007267626C2B
:100A6000696768745F696E69742063616C6C656442
:100A70002E0A007267626C696768745F636F6E66E6
:100A800069672E7370656564203D2025640A0072D5
:100A900067626C696768745F636F6E6669672E76FC
:100AA000616C203D2025640A007267626C6967688A
:100AB000745F636F6E6669672E736174203D2025D5
:100AC000640A007267626C696768745F636F6E6660
:100AD00069672E687565203D2025640A0072676885
:100AE0006C696768745F636F6E6669672E6D6F64AB
:100AF00065203D2025640A007267626C696768742E
:100B00005F636F6E6669672E656E61626C65203D1E
:100B10002025640A007267626C696768745F636F9E
:100B20006E66696720454550524F4D3A0A000004F1
:100B30007F3F1F643214643214783C1E1E140A0571
:100B40002223252628292A2C2D2F303233353638DA
:100B50003A3B3D3E4042434547494A4C4E50515333
:100B60005557595A5C5E6062646668696B6D6F7157
:100B7000737577797B7D7F81838587898A8C8E9059
:100B8000929496989A9C9E9FA1A3A5A7A8AAACAE62
:100B9000AFB1B3B4B6B8B9BBBCBEBFC1C2C3C5C6A2
:100BA000C7C9CACBCCCDCED0D1D2D2D3D4D5D6D74B
:100BB000D7D8D9D9DADADBDBDBDCDCDCDCDCDDDD89
:100BC000DDDDDCDCDCDCDCDBDBDBDADAD9D9D8D779
:100BD000D7D6D5D4D3D2D2D1D0CECDCCCBCAC9C71B
:100BE000C6C5C3C2C1BFBEBCBBB9B8B6B4B3B1AF52
:100BF000AEACAAA8A7A5A3A19F9E9C9A98969492F2
:100C0000908E8C8A89878583817F7D7B79777573C8
:100C1000716F6D6B6968666462605E5C5A595755A6
:100C20005351504E4C4A4947454342403E3D3B3A62
:100C30003836353332302F2D2C2A292826252322E9
:100C4000FFAA7F55406261636B6C696768742073AB
:100C50007465703A2025750A006261636B6C696780
:100C600068742064697361626C650A006261636B19
:100C70006C6967687420656E61626C650A00626108
:100C8000636B6C6967687420746F67676C653A2082
:100C900025750A006261636B6C696768742064651E
:100CA0006372656173653A2025750A006261636B42
:100CB0006C6967687420696E6372656173653A2058
:100CC00025750A0000010101010101010101020273
:100CD00002020202020202030303030303030304EA
:100CE00004040404040405050505050606060606B5
:100CF000070707070708080808090909090A0A0A6F
:100D00000B0B0B0C0C0C0D0D0D0E0E0E0F0F0F1010
:100D1000101111111212131314141515161617179A
:100D2000181819191A1A1B1B1C1D1D1E1E1F202006
:100D3000212222232424252626272829292A2B2C50
:100D40002D2D2E2F30313232333435363738393A73
:100D50003B3C3D3E3F404142434445464748494A6B
:100D60004C4D4E4F50515354555658595A5B5D5E39
:100D70005F616264656668696B6C6D6F70727375D4
:100D800077787A7B7D7E8082838587888A8C8E8F38
:100D900091939596989A9C9EA0A2A3A5A7A9ABAD66
:100DA000AFB1B3B5B7BABCBEC0C2C4C6C9CBCDCF54
:100DB000D1D4D6D8DBDDDFE2E4E7E9EBEEF0F3F502
:100DC000F8FAFDFF0A002530325820006B65796281
:100DD0006F6172645F7265706F72743A200064654F
:100DE0006C5F6B65795F6269743A2063616E27742A
:100DF0002064656C3A20253032580A006164645FD3
:100E00006B65795F6269743A2063616E2774206153
:100E100064643A20253032580A005B735D004B65EC
:100E200079626F6172642073746172742E0A005B60
:100E3000575D005B535D005B525D005B445D005B92
:100E4000435D001603470048003600300020005381
:100E5000006100740061006E0000000C035300414B
:100E600000540041004E0000000403090409025B25
:100E700000030100A0FA09040000010301010009B8
:100E800021110100012240000705810308000A0921
:100E90000401000103000000092111010001226D7D
:100EA000000705820320000A090402000203000073
:100EB00000092111010001222200070583032000FF
:100EC00001070503032000011201000200000008D1
:100ED000354302000300010200010631FF0974A13D
:100EE000010975150026FF00952075088102097615
:100EF000150026FF00952075089102C005010980A4
:100F0000A101850319012AB700150126B700950133
:100F100075108100C0050C0901A101850419012A81
:100F2000A002150126A002950175108100C00501DF
:100F30000906A1018505050719E029E71500250126
:100F40009508750181020507190029EF1500250193
:100F500095F07501810205081901290595057501AE
:100F60009102950175039101C005010906A10105D2
:100F70000719E029E71500250195087501810295FB
:100F800001750881010507190029FF150026FF00DA
:100F90009506750881000508190129059505750153
:100FA0009102950175039101C00011241FBECFEF7E
:100FB000DAE0DEBFCDBF04B603FE27C08091FB029E
:100FC0009091FC02A091FD02B091FE028730904BFF
:100FD000A740B04BD1F41092FB021092FC02109289
:100FE000FD021092FE0214BE84B7877F84BF0FB645
:100FF000F894A895809160008861809360001092B9
:1010000060000FBEE0E0F8E3099511E0A0E0B1E078
:10101000E6EFF7E602C005900D92AA3CB107D9F7BA
:1010200022E0AAECB1E001C01D92AB3FB207E1F7AC
:101030000E946C1A0C94F9330C940000FF93EF9308
:10104000E091CA01F091CB01309709F00995EF9139
:10105000FF910895FC018591803011F0EFDFFBCF07
:101060000895FF27E0E230E247FF0CC0419597FF6B
:1010700009C0EDE26095709580959095611D711D98
:10108000811D911D27FF02C0219530E350E2AA2760
:10109000660F771F881F991FAA1FA41710F0A41BA3
:1010A00063955A95A9F7AA3008F0A95FA05DAF93A0
:1010B000F395611571058105910541F7ED3211F444
:1010C000EF93F395F21718F43F93F395FBCF8F91BD
:1010D000B5DFFA95E1F70895E991F99185918030AE
:1010E00021F0853219F0AADFF9CF089520E0E894C5
:1010F00055915532C1F3503311F4689455915A33D8
:1011000048F4505390F3220F022E220F220F200D8D
:10111000250FF4CF0EF4219589919991533619F347
:10112000533729F1533559F1BC0188279927E894A1
:101130005C3621F48991999168945591543639F42B
:1011400046EF7EF077FF0DC08FEF9FEF0AC0553757
:101150004AE039F0583540E121F0523642E009F0DA
:101160000895FF93EF937DDFEF91FF91B7CFFF934A
:10117000EF93FC0181918030B9F360DFFBCFFF93E7
:10118000EF9368DFF1CFDF93CF93CDB7DEB725962E
:10119000A3DFCF91DF91089581E0089581E0089564
:1011A0000C94CE0808950C94D2081F93CF93DF932C
:1011B00000D000D01F92CDB7DEB749835A836B832E
:1011C0003091CC0189819A81311114C0662359F084
:1011D000222349F00E949E0F182F682F89819A813F
:1011E0000E94470F03C00E94720F182F69817A81F5
:1011F000812F04C00E949E0F69817A810F900F9009
:101200000F900F900F90DF91CF911F910C947B1650
:10121000FC01262F408151816281738184810C946D
:10122000D50881E00895CF93DF93EC0160E00E9440
:101230000809BE01DF91CF910C94D3080E949F183A
:101240000E94E8090E94BB260C9422190C941E19D6
:1012500008950E94E80D0E9428092FEF84E39CE086
:10126000215080409040E1F700C000000C946B2BAF
:101270000F931F93CF93DF938C0161E00E940809C5
:10128000EC01B8010E94D008882369F1B801CE01B1
:101290000E942426882339F1B801CE010E946927D3
:1012A000882309F1B801CE010E94BB278823D9F019
:1012B000B801CE010E94ED288823A9F0B801CE0123
:1012C0000E94FF23882379F0F80182818823E1F1CD
:1012D000CF3D8CE5D80781F160F4C115FCE5DF074F
:1012E00021F40E942909C0E036C0C130DC4579F004
:1012F0002BC0CC35EDE5DE0729F1CD35FDE5DF0767
:10130000F1F0CB35DD4501F50E94DA131DC0809167
:101310007202C82FC095C170C0FB80F98093720221
:10132000CC2329F084EA92E00E942A08DCCF82E9EB
:1013300092E00E942A080FC00E944D15D4CF0E944F
:10134000D11302C00E94DD13C801DF91CF911F911C
:101350000F910C94CC088C2FDF91CF911F910F919E
:1013600008958295982F937344E0949F90011124DF
:101370008C7C86958695282B822F8575880F2A7AF6
:101380002695822B0895CF93DF93D92F0E94B10920
:10139000C82F8D2F0E94B1092C2F30E0322F222729
:1013A000A901482BCA01DF91CF91089508950C94AB
:1013B000D60981E00895CF93C82F0E94D9098823C8
:1013C00029F0C1FD02C02A9A01C02A98CF91089540
:1013D000229A2A9A0895CF93C82F0E94D7098C2F5A
:1013E0000E94DB09CF910895CF93DF93CDB7DEB78D
:1013F0002B970FB6F894DEBF0FBECDBF4F83588733
:1014000069877A878B8761110E9400149E012F5F84
:101410003F4F86E0F90111928A95E9F785E0FE01D8
:101420003796D90101900D928A95E1F789819A81C9
:101430004C815D81452B31F09F3F31F491E08F3F2E
:1014400019F403C091E001C090E090FF09C0498108
:101450005A816B817C818D819E810E94EC1205C036
:10146000C9010E9411098111F2CF2B960FB6F89491
:10147000DEBF0FBECDBFDF91CF910895FC0180810B
:1014800091810E94E00F0895CF93882309F4A1C0B1
:10149000C82F8238C1F40E94232981FD9AC069E3D4
:1014A00080910001909101010E94682A0E943214EB
:1014B0002FEF81EE94E0215080409040E1F700C092
:1014C000000069E319C0833801F50E94232980FDDB
:1014D00080C063E580910001909101010E94682A1B
:1014E0000E9432142FEF81EE94E021508040904012
:1014F000E1F700C0000063E58091000190910101D7
:101500000E94732ACF910C9432148438C1F40E9443
:10151000232982FD5EC067E4809100019091010162
:101520000E94682A0E9432142FEF81EE94E021502D
:1015300080409040E1F700C0000067E4DDCF8CEF11
:101540008C0F813AF8F48C2F0E94131C811141C03A
:101550006C2F80910001909101010E94C62988237F
:1015600049F06C2F80910001909101010E94732A33
:101570000E9432146C2F80910001909101010E9411
:10158000682AC0CF80E28C0F883048F4C77081E0B1
:1015900001C0880FCA95EAF70E94E313B3CFEBE5C9
:1015A000EC0FE33040F4F0E0E25BFE4F808190E02E
:1015B000CF910C948429C85AC73158F4EC2FF0E02D
:1015C000EE0FFF1FE05EFE4F80819181CF910C9462
:1015D0009A29CF910895882309F45BC0682F823837
:1015E00079F40E94232981FF54C069E380910001AE
:1015F000909101010E94682A0E94321469E310C090
:101600008338B1F40E94232980FF43C063E58091B1
:101610000001909101010E94682A0E94321463E542
:1016200080910001909101010E94732A0C94321460
:10163000843879F40E94232982FF2BC067E48091CB
:101640000001909101010E94682A0E94321467E40F
:10165000E7CF8CEF860F813A18F380E2860F88304F
:1016600048F4677081E001C0880F6A95EAF70E942C
:10167000E913DCCF8BE5860F833020F480E090E027
:101680000C948429685A673120F480E090E00C942F
:101690009A2908951F93CF93DF93182FEB010E948F
:1016A000440A209741F08FE99FE00197F1F700C0CD
:1016B00000002197F6CF812FDF91CF911F910C94DD
:1016C000EB0A893319F060E070E002C060E570E079
:1016D0000C944A0B882321F00E94E3130C943214DB
:1016E0000895882321F00E94E9130C943214089580
:1016F000CF92DF92EF92FF920F931F93CF93DF93DE
:101700007C01062FC72FFC01D281158112951F7015
:101710000E94A413882399F0DD2389F08C2F807F09
:10172000803421F080E2800F883048F082E00E940F
:1017300082140E94A41391E0D82ED92601C0D12C86
:10174000CC2EC2948FE0C8228C2D90E0FC01EA5A86
:10175000FF4F0C9460338C2F807FCF70882311F063
:10176000C295C07FDD2399F0CC2309F482C180E2C9
:10177000800F883010F0011104C08C2F0E94E313F9
:1017800003C08C2F0E94F3130E94321472C1802F69
:101790000E94EB0ACC2309F491C180E2800F8830CB
:1017A00010F0011104C08C2F0E94E91303C08C2F8C
:1017B0000E94F9130E94321481C18C2F807FCF7058
:1017C000803211F0C295C07F002319F00130C9F0BA
:1017D00022C0DD2371F0112341F0113031F40E9459
:1017E00013148C2B0E941B1469C10E9413148C2BA0
:1017F0001DC0112319F0113009F460C10E94281492
:1018000025C0DD2321F0163008F058C10EC0153078
:1018100008F054C11BC0DD2361F0112331F0F70142
:10182000858180FF26C18F7085838C2F0E946A0B73
:1018300045C1112359F0093309F02CC1FFEF27EE00
:1018400083E0F15020408040E1F722C18C2F0E94BC
:10185000710B34C18C2F86958695837019F0813079
:1018600061F02CC1DD2321F0802F9C2F937002C0EA
:1018700080E090E00E94842929C1DD2321F0802F9F
:101880009C2F937002C080E090E00E949A291EC1B4
:101890008C2F837009F045C0D11114C1402F42959F
:1018A00046954770440F440F602F6F70862F90E06D
:1018B000A0E0B0E0042E04C0880F991FAA1FBB1F30
:1018C0000A94D2F704FF10C00FE010E020E030E0EF
:1018D00004C0000F111F221F331F4A95D2F7009535
:1018E00010952095309503C000E010E09801C69552
:1018F000C695C370BC01CD01602B712B822B932B3D
:10190000C23049F058F4C13019F00E945D0EDAC0BF
:101910000E944B0ED7C00E946F0ED4C00E94490E89
:10192000D1C0DD2319F08C2F817001C086958823EA
:1019300009F4C8C0402F429546954770440F440FA4
:10194000602F6F70862F90E0A0E0B0E0042E04C0FE
:10195000880F991FAA1FBB1F0A94D2F704FF10C05B
:101960000FE010E020E030E004C0000F111F221F44
:10197000331F4A95D2F7009510952095309503C0F6
:1019800000E010E09801C695C695C370BC01CD017A
:10199000602B712B822B932BC23049F058F4C1304D
:1019A00019F00E94220F8EC00E94100F8BC00E945F
:1019B000340F88C00E94830E85C0CF70DD2339F0BC
:1019C0008C2F0E94A90E802F0E946A0B7BC0802F53
:1019D0000E94710B8C2F0E94CA0E74C0023F01F14D
:1019E00028F4003F41F0013FA1F03FC0033FF9F070
:1019F000043F39F13AC0DD2341F0153008F05EC0F4
:101A00008C2F8F710E94EF0E59C0163008F056C00F
:101A1000F7CFDD2339F08C2F8F710E94A90E4EC0B5
:101A2000DD23C9F38C2F8F710E94CA0E47C0DD23BE
:101A300029F08C2F8F710E94940E40C00E948F0E4F
:101A40003DC0DD2349F0CF718C2F0E94A90E63E0C9
:101A50008C2F0E94671432C081E00E9482141230E1
:101A600068F182E00E94821429C0DD2331F0112345
:101A700091F2802F0E94440A21C0112399F2093368
:101A800049F49FEFE7EEF3E09150E040F040E1F7DA
:101A900000C00000802F0E94EB0A10C04C2F4F7036
:101AA000602FC7010E9477160E940E100FC04C2FA6
:101AB0004F70602FC7010E947A1608C088EF8C0D06
:101AC000843020F40E9423290E94EB09DD20C9F014
:101AD0000E94A01380FD15C0F70112820E949A1384
:101AE0000E94A90EC7010E94A20D0E949A13DF91C5
:101AF000CF911F910F91FF90EF90DF90CF900C94BA
:101B0000CA0EDF91CF911F910F91FF90EF90DF9060
:101B1000CF9008950F931F93CF93DF93EC016881CB
:101B200079818A810E94EB0F8C010E94460F0E94EE
:101B3000370EB801CE010E94780BDF91CF911F9133
:101B40000F910895CF93DF93EC01988189812B81C8
:101B50003C81232B31F08F3F31F481E09F3F19F41A
:101B600003C081E001C080E080FD19C0CE010E9469
:101B7000380981110CC00E94A413882381F08A8146
:101B8000882369F082E0DF91CF910C948214CE011A
:101B90000E948A0DCE01DF91CF910C941309DF9141
:101BA000CF91089580E090E00E94842980E090E049
:101BB0000E949A290E9400140E9410140C9432145E
:101BC00080910001909101010E947E2A0C94D20D17
:101BD0000E94F0130C94E00DE92FE295EF704E2F68
:101BE00050E0FA013297EE30F105B0F4EA59FF4FB8
:101BF0000C946033803F91F018F4883E68F40EC076
:101C0000843F51F40BC0883E48F0813F29F406C060
:101C100093FB882780F9089580E0089581E0089576
:101C2000FC01808191810E94E00F0E94EC0D0895DB
:101C3000CF93DF9300D000D01F92CDB7DEB70F90C7
:101C40000F900F900F900F90DF91CF910895CF9349
:101C5000DF9300D000D000D0CDB7DEB726960FB608
:101C6000F894DEBF0FBECDBFDF91CF9108950895E8
:101C700008950C94380E0C94390E0E943B0E60931C
:101C8000FE017093FF0180930002909301020C9477
:101C9000D20D0C943D0E0F931F930091FE011091F5
:101CA000FF012091000230910102602B712B822BE9
:101CB000932B1F910F910C943D0E0F931F93009146
:101CC000FE011091FF01209100023091010260237A
:101CD0007123822393231F910F910C943D0E0F9338
:101CE0001F930091FE011091FF012091000230919D
:101CF000010260277127822793271F910F910C946F
:101D00003D0E0C94380E0E94810E6093FA01709380
:101D1000FB018093FC019093FD010C94D20D60E0D7
:101D200070E0CB010C94830E0F931F9341E050E0C1
:101D300060E070E08A019B0104C0000F111F221FA8
:101D4000331F8A95D2F7C901B8011F910F910C94E6
:101D5000830E0F931F9341E050E060E070E004C0F9
:101D6000440F551F661F771F8A95D2F78091FA019D
:101D70009091FB01A091FC01B091FD018A019B01B2
:101D8000082B192B2A2B3B2BC901B8011F910F914E
:101D90000C94830E0F931F9341E050E060E070E0DD
:101DA00004C0440F551F661F771F8A95D2F74095D0
:101DB0005095609570958091FA019091FB01A091EA
:101DC000FC01B091FD018A019B01082319232A23FC
:101DD0003B23C901B8011F910F910C94830E0F93FF
:101DE0001F9341E050E060E070E004C0440F551FD5
:101DF000661F771F8A95D2F78091FA019091FB01B7
:101E0000A091FC01B091FD018A019B0108271927CF
:101E10002A273B27C901B8011F910F910C94830E0B
:101E20000F931F930091FA011091FB012091FC0187
:101E30003091FD01602B712B822B932B1F910F9101
:101E40000C94830E0F931F930091FA011091FB01E4
:101E50002091FC013091FD016023712382239323A3
:101E60001F910F910C94830E0F931F930091FA0111
:101E70001091FB012091FC013091FD016027712739
:101E8000822793271F910F910C94830E08952EE0C3
:101E9000929F800D1124E82FE695E695E6958770D0
:101EA00051E001C0550F8A95EAF785E0E89FF001FF
:101EB0001124E353FE4F20E030E070E04081CB017D
:101EC000022E02C0969587950A94E2F7817081955B
:101ED00084278523842781932F5F3F4F2530310549
:101EE00069F708952EE0929F800D1124682F669562
:101EF00066956695982F977085E0689FB0011124CC
:101F000040E050E080E0FB01E40FF51FE353FE4F9B
:101F1000208130E0092E02C0369527950A94E2F719
:101F200021703327042E01C0220F0A94EAF7822B76
:101F30004F5F5F4F4530510531F70895BF92CF9203
:101F4000DF92EF92FF920F931F93CF93DF938C0159
:101F5000C090FA01D090FB01E090FC01F090FD01EF
:101F60008091FE019091FF01A0910002B0910102C9
:101F7000C82AD92AEA2AFB2ACFE1D0E0D701C60134
:101F80000C2E04C0B695A795979587950A94D2F71D
:101F900080FD04C0219790F7B12C07C0BC2EB8017A
:101FA0008C2F0E94AB170197A9F38B2DDF91CF9156
:101FB0001F910F91FF90EF90DF90CF90BF90089509
:101FC000CF93DF93EC010E949E0FBE010E94AB17DE
:101FD000DF91CF9108951F93CF93DF93EB01909101
:101FE000CC01992321F0CB010E94E00F13C088237C
:101FF00049F0CB010E949E0F182F682FCE010E943E
:10200000470F04C0CB010E94720F182FBE01812F11
:102010000E94AB17DF91CF911F910895EF92FF922D
:102020000F931F93CF93DF938C01892B09F46CC01E
:10203000F12CEE24E394E8012196F8018491843791
:1020400040F4843008F051C0813081F0823019F1C1
:102050005BC0853709F444C0A8F19CE7980F90371E
:1020600008F052C08F770E94EB0A41C00E5F1F4FED
:10207000FE01849190E2980F983050F48770FE2D05
:1020800001C0FF0F8A95EAF78F2F0E94031414C036
:102090000E94440A2DC00E5F1F4FFE01849190E202
:1020A000980F983060F48770FE2D01C0FF0F8A955D
:1020B000EAF78F2F0E9409140E94321419C00E945F
:1020C000EB0A16C00E5F1F4FFE01C491CC2381F0B6
:1020D0008FE99FE00197F1F700C00000C150F6CFF3
:1020E0000E5F1F4FFE01F49003C00E94440A8E0150
:1020F0008F2D882309F49FCFEFE9FFE03197F1F7A7
:1021000000C000008150F5CFDF91CF911F910F915A
:10211000FF90EF9008951F93CF93DF93C091020239
:1021200016E080910302C81799F0D0E01C9FF001DF
:102130001D9FF00D1124EC5FFD4F408151816281A4
:102140007381848195810E94270E2196C770E9CF03
:10215000DF91CF911F910895409134025091350243
:102160006091360270913702809138029091390265
:102170000C94270E0F931F93CF93DF938091390216
:1021800082958F7009F05DC080913602882309F432
:1021900058C0809102021091030260913402709144
:1021A0003502C0913702D091380291E06F3F09F0BB
:1021B00090E0292F06E0811709F443C0209721F011
:1021C0007F3F21F030E003C031E001C0322F90E0CA
:1021D00030FD34C0089FF001099FF00D1124DF018C
:1021E000AC5FBD4F11963C911197371327C03C91BE
:1021F000361324C012963C91129731111FC01396CA
:102200004D915C9114974C1B5D0B483C5105B0F40B
:10221000809139028F70806180933902E75FFD4FB2
:1022200080818F708061808384E392E00E94A20DA0
:10223000DF91CF911F910F910C948B1001968770B5
:10224000BACFDF91CF911F910F9108959F92AF92D6
:10225000BF92CF92DF92EF92FF920F931F93CF9393
:10226000DF93CDB7DEB761970FB6F894DEBF0FBE30
:10227000CDBF8C0185E0F801DE011D9601900D9225
:102280008A95E1F7F801E28090913402609135027D
:1022900020913702309138022115310531F06F3F1E
:1022A00031F481E09F3F19F403C081E001C080E078
:1022B000F82FF1709F2E80FD3FC1F80140815181C0
:1022C000A380B48084E3C82E82E0D82EF09036023A
:1022D000F501E21BF30BFF2009F4D9C0809139020C
:1022E000E83CF10508F095C0282F207F09F052C086
:1022F000561313C0491311C0FE2CE1100EC08F708D
:102300008061809339020E94AC10C6010E94A20D28
:1023100080913902F80185834CC1AB2831F05F3FD1
:1023200031F481E04F3F19F403C081E001C080E047
:1023300080FD03C081E08E2502C080E090E0F82F90
:10234000F170FF2E80FF1CC08091020220910302D9
:1023500036E0821709F40BC190E0389FF001399FF5
:10236000F00D1124EC5FFD4F6181561306C06081B2
:10237000461303C06281E61203C001968770E9CF5D
:10238000FE2CEE2009F415C1809139028160809302
:10239000390254C0561306C0491304C0E11002C0EC
:1023A000F80199C0C8010E94100E882361F1EE2047
:1023B00051F120913902822F82958F7090E002971F
:1023C00074F0809134029091350298878F8319863A
:1023D000BB86AA862C87CE0107960E94A20D86E0B6
:1023E000F801A4E3B2E001900D928A95E1F70E9412
:1023F000BA100E94AC100AC0561711F1C8010E9411
:10240000100E81112CC0C8010E94A20DFF24F3946C
:10241000D0C0282F207F81F77A2DB98AA88A6E2D07
:1024200089890E94180E84E392E00E94A20D86E042
:10243000F60111928A95E9F70E94AC10F12CB9C00F
:102440004913DCCFE110DACFF8018583C8010E947F
:10245000A20D86E0F60111928A95E9F7AAC0EE2056
:1024600091F220913902822F82958F7090E002972D
:102470000CF4B5CF80913402909135029A83898310
:102480001B82BD82AC822E83CE010196A6CFE83C92
:10249000F10508F044C0FE2CEE2009F4B4CF561329
:1024A00030C049132EC02091390220FD21C0822F57
:1024B00082958F70482F50E041155105C9F0F80101
:1024C00025834F30510541F08F5F982F9295907F73
:1024D000822F8F70892B8583C8010E94A20D86E010
:1024E000F801A4E3B2E001900D928A95E1F73CC0B7
:1024F00086E0F801A4E3B2E001900D928A95E1F73D
:1025000058C0C8010E94100E811169CF8091390214
:10251000816080933902C8010E94A20D4AC07A2DC1
:10252000B98AA88A6E2D89890E94180E86E0F60164
:1025300011928A95E9F718C0EE2009F464CFC8011A
:102540000E94100EF82E882309F45DCF86E0F80172
:10255000A4E3B2E001900D928A95E1F784E392E062
:102560000E943E0A0E94BA100E94AC1022C04D8701
:102570005E878D859E850E94E00F292F22952F7002
:10258000223028F49F7039F0811105C00BC024302F
:1025900028F49F7049F4805E883020F0C8010E94C2
:1025A000A20D9F2CF92C05C0F8019581907F99F719
:1025B000F9CF8F2D61960FB6F894DEBF0FBECDBF59
:1025C000DF91CF911F910F91FF90EF90DF90CF900F
:1025D000BF90AF909F9008951F93CF93DF93CDB797
:1025E000DEB72C970FB6F894DEBF0FBECDBF4F837A
:1025F000588769877A878B879C87CE0107960E94C8
:1026000026118823D1F09F8188852A853B85232B3D
:1026100031F08F3F31F481E09F3F19F403C081E036
:1026200001C080E080FD47C04F81588569857A856B
:102630008B859C850E94270E3EC086E0FE01379662
:10264000DE01119601900D928A95E1F7FF81E885F0
:102650006A857B856115710531F0EF3F31F481E0CA
:10266000FF3F19F403C081E001C080E080FD23C07A
:102670002091030230E0C9010196877099274091AB
:10268000020250E084179507F1F1F983EA837D8314
:102690006C8396E0929FD001939FB00D1124AC5FA4
:1026A000BD4FFE01319601900D929A95E1F780930E
:1026B00003020E948B1016E08091020290910302A7
:1026C000891771F1189FC00111248C5F9D4F0E94E2
:1026D0002611882329F1E09102021E9FF0011124A6
:1026E000EC5FFD4F408151816281738184819581CE
:1026F0000E94270E8091020290E001968770992730
:1027000080930202D9CF0E94E80D1092030210922A
:102710000202E4E3F2E086E0DF011D928A95E9F728
:102720002C960FB6F894DEBF0FBECDBFDF91CF91D0
:102730001F91089580913A02859585958595089514
:1027400080913A028770089590913A02977081E0E3
:1027500009F480E00895CF939091B70292FB22276D
:1027600020F92817E1F0C82F892FC0FB82F9809348
:10277000B7028091B6029091B7020E94C91480916D
:10278000720280FF0CC01F92CF9385EB92E09F9363
:102790008F930E94C3080F900F900F900F90CF91CE
:1027A00008958091B70282FB882780F991E08927FC
:1027B0000C94AB1381E00C94AB1380E00C94AB133E
:1027C00080915E02089590915E02892B80935E0253
:1027D0000895809590915E02892380935E0208950A
:1027E00010925E02089590915D02892B80935D02A4
:1027F0000895809590915D02892380935D020895EC
:1028000010925D02089590915C02892B80935C0286
:102810000895809590915C02892380935C020895CD
:1028200010925C02089580913B02089508950C94E3
:1028300016140C9417149091B70292FD08C0909151
:102840003B02981721F080933B020C9419140895D1
:1028500080913B02882329F010923B0280E00C9487
:1028600019140895E0910001F091010180915E0238
:102870008083E0910001F0910101908180915D02DF
:10288000892B8083E0910001F0910101908180917A
:102890005C02892B808380913B02882381F0E09148
:1028A0000001F09101019081892B808380910001CA
:1028B000909101010E94B02981110E9428148091F9
:1028C0000001909101010C942F290C941614909101
:1028D000B70292FD10C098E0899F90011124262B29
:1028E00020933A020E94A90E80913A02859585951F
:1028F00085950C9465140C94A90E10923A0280E010
:102900000C94651420913A028095822380933A02B8
:10291000982F977041F430E0482F082E000C550B8B
:102920002417350721F49091B70292FF07C08595CF
:10293000859585950E94CA0E0C947D1408956FEFBD
:102940007FEF80E090E00C94E33380E090E00E9421
:10295000BF3321E0893E9E4F09F020E0822F089589
:1029600082E090E00C94B13383E090E00C94B133BA
:10297000CF9384E090E00E94B133C82F82E290E0D0
:102980000E94B1332C2F30E0A901582BCA01CF91FE
:102990000895CF93C92F682F84E090E00E94C5333B
:1029A0006C2F82E290E0CF910C94C533AB01BC0157
:1029B0008FE090E00C94D733AB01BC0183E190E051
:1029C0000C94D73360E070E0CB010C94DC1460E031
:1029D00070E0CB010E94D6140C94E21469EE7EEFF5
:1029E00080E090E00E94E33360E082E090E00E94AB
:1029F000C53360E083E090E00E94C5331092FE0191
:102A00001092FF01109200021092010260E084E037
:102A100090E00E94C53360E082E290E00E94C533FE
:102A200060E085E090E00E94C53360E086E090E0E1
:102A30000E94C5336FEF87E090E00E94C53340E00D
:102A400050E0BA0188E090E00E94D73360E08DE06A
:102A500090E00E94C53340E050E0BA0188E190E088
:102A60000E94D73360E087E190E00E94C53340E0E8
:102A700050E0BA018CE190E00E94D73360E070E052
:102A800080E290E00E94E33340E050E0BA0188E148
:102A900090E00E94D7330C94E7140C94EE14682F46
:102AA0008EE090E00C94C5330E942A2B60936E0256
:102AB00070936F02809370029093710260936A0228
:102AC00070936B0280936C0290936D02089585B7AA
:102AD000806885BF85B7806885BF089581E00895C7
:102AE0000C946E1508950C9472150C9472150C9438
:102AF00075150C9472150C9479150C9472150E942E
:102B000067158EE39DE20E948F2B0E947D150C9429
:102B10007B150E9473150C9472150E94152B0E9450
:102B2000D3190E94DC240E94A2220C947715CF9323
:102B3000C82F8091720282FF1EC080FF04C081ED09
:102B400092E00E942A088091720280FF0CC01F92BE
:102B5000CF938CEC92E09F938F930E94C3080F90C9
:102B60000F900F900F908091720280FF04C08AEC4A
:102B700092E00E942A088C2FCF910C94EB096F925F
:102B80007F928F929F92AF92BF92CF92DF92EF92FD
:102B9000FF920F931F93CF93DF93CDB7DEB72A97A2
:102BA0000FB6F894DEBF0FBECDBF0E94E6198111AB
:102BB0000E94541530E6832E32E0932E00E010E0A0
:102BC000C02E802F0E94C3185C01F40161907190A7
:102BD0004F016826792661147104B1F40F5F1F4F0D
:102BE0000530110569F78FEF89838A831B820E9464
:102BF0001E2B8160782F9D838C8349815A816B8144
:102C00008D810E94F4093AC08091720281FD0E9478
:102C1000CC18D12CEE24E394F12CC3018E219F21FA
:102C2000892B29F10E9470158823A9F0DE82CF82BA
:102C3000AE20BF2081E0AB2809F480E088870E94A5
:102C40001E2B8160782F9A8789874E815F816885E6
:102C50008A850E94F409000F111FF801E05AFD4F08
:102C600080819181E826F926F182E08207C0D39421
:102C7000EE0CFF1CFEE0DF12D0CFB0CF0E9451233C
:102C80000E94BA260E94232990915F028917D1F0F1
:102C90000E94232980935F022A960FB6F894DEBF24
:102CA0000FBECDBFDF91CF911F910F91FF90EF909D
:102CB000DF90CF90BF90AF909F908F907F906F905C
:102CC0000C9497152A960FB6F894DEBF0FBECDBFB1
:102CD000DF91CF911F910F91FF90EF90DF90CF90F8
:102CE000BF90AF909F908F907F906F90089580E0FD
:102CF00090E00895089526E4829FC0011124FC010C
:102D00002EE0729FE00DF11D1124E60FF11DEE0F74
:102D1000FF1FE658FE4F859194910895880F991FE3
:102D2000FC01EC51FD4F859194910895CF93DF9371
:102D30000E94B017EC01811520E5920708F041C010
:102D4000811540E4940708F0CBC0803E910520F542
:102D5000803C910508F0B8C0883A910570F4853A36
:102D6000910508F0A8C08130910509F4A1C008F4CC
:102D7000EBC0049708F0EBC0E7C08F3B910508F06B
:102D8000E3C0885AC82FD0E0CC0FDD1FCF5ADE4FEA
:102D9000888199819464DCC0811550E2950750F4D4
:102DA000C11581E0D80708F0D2C0C83ED10508F4AB
:102DB000CEC0CAC0811520E3920708F08AC09F7078
:102DC00085C0811545E5940708F046C0811554E596
:102DD000950708F09DC0C11582E5D80718F5C11503
:102DE00021E5D20708F07FC0CE01F4E096958795E3
:102DF000FA95E1F7282F23703C2F337081E090E0A3
:102E000002C0880F991F3A95E2F79C68922B2C2FED
:102E10002F702695269540E2249F90011124822B45
:102E2000932B96C09E01237033279C2F96959695E1
:102E3000C115D34508F05CC041E050E002C0440F2A
:102E4000551F2A95E2F780E2989F90011124CA014C
:102E5000822B932B9C687CC0811559E5950798F4CB
:102E6000C11588E5D80708F058C0C11526E5D20776
:102E700008F06AC08C2F0E9444188F7190E0982F40
:102E80008827906265C081154AE5940708F44AC016
:102E900090568115904208F057C08D2F8F710E9477
:102EA00044189E01332730628F71A901582B4AC004
:102EB00081E090E04DC0855AC82FD0E0C158DE4F68
:102EC000888190E0906444C0805C91090E948E16D5
:102ED0003FC09927D3FF02C0986C3AC0906C38C0AD
:102EE0009F70906A35C09C2F8827816F906A30C090
:102EF00041E050E002C0440F551F2A95E2F780E2FE
:102F0000989F90011124CA01822B932B9A6820C0AC
:102F1000982F8827846F906A1BC09C2F8827806F0A
:102F2000906A16C08F700E9444189E0194E03695F6
:102F300027959A95E1F72F7030E0322F22273069DC
:102F4000A901482BCA0104C080E090E001C0CE0175
:102F5000DF91CF9108950E947B160E9496160895E6
:102F60008238910569F1B0F48133910509F46DC09F
:102F700048F48932910509F463C08A32910509F455
:102F800069C008958533910509F455C089339105C9
:102F9000B9F00895833E910569F138F4803E9105BA
:102FA000B1F0823E910509F10895863E9105A9F19F
:102FB000873E9105B9F1843E910509F064C023C0B4
:102FC0002091B60220FD4FC021FD4DC00895809193
:102FD000B60280FD44C08091B70280FF44C080915A
:102FE000B60284FD42C083EE4DC08091B60282FFDE
:102FF00038C0F5CF8091B60282FD33C08091B70210
:1030000080FD31C0ECCF8091B70281FF32C080914A
:10301000B60284FD2AC087EE35C08091B60283FFD8
:1030200026C0F5CF8091B60283FD21C08091B70202
:1030300081FD1FC0ECCF8091B60285FD1CC01DC074
:103040008091B60285FD19C016C08091B60286FD3A
:1030500016C017C08091B60286FD13C010C089E368
:1030600011C082EE0FC080EE0DC080E00BC086EE76
:1030700009C084EE07C089E205C085E303C08AE287
:1030800001C081E390E008959091B60292FF0DC0D7
:10309000282F2871283019F4877F846006C0282FD4
:1030A0002471243011F48B7F886093FF0DC0282F8A
:1030B0002871283119F4877E846106C0282F247175
:1030C000243111F48B7E88612091B70220FF0DC05E
:1030D000382F3871383019F4877F816006C0382F57
:1030E0003171313011F48E7F886021FF0DC0282F9F
:1030F0002871283119F4877E816106C0282F21713B
:10310000213111F48E7E886194FD877E08950C94A0
:103110009F140E94E6198FE39CE90197F1F700C024
:1031200000000E94E61980E00E94C31880FF04C0DE
:103130000E9487180C946B2B08950C9489180E9498
:10314000A514811102C00E944D150E94B0148093F5
:1031500072020E94B8149093B7028093B6020E9444
:103160009D180E94B414682F70E080E090E00E94E7
:10317000490E6091FA017091FB018091FC019091E0
:10318000FD010C94810EE82FF0E0EE0FFF1FEE53CF
:10319000FD4F808191810895CF92DF92EF92FF924F
:1031A0000F931F93CF93DF9384EF92E00E942A083E
:1031B00082ECE82E82E0F82EC0E0D0E09FEEC92E2F
:1031C00092E0D92E06EE12E0DF93CF93DF92CF92FA
:1031D0000E94C3088CEE92E00E942A08F7018191B8
:1031E00091917F010E94C3099F938F931F930F9327
:1031F0000E94C30884EE92E00E942A0821968DB7AF
:103200009EB708960FB6F8949EBF0FBE8DBFC5300F
:10321000D105D1F6DF91CF911F910F91FF90EF90E3
:10322000DF90CF90089580EA8A95F1F7089500C065
:1032300008950C94131908950C941B190C941C19DF
:103240000C941B190C942019F894E82FE295EF7058
:10325000F0E031A1282F2F7081E090E001C0880FAD
:103260002A95EAF7982F9095932391A392A1892B01
:1032700082A3789408950F931F93CF93DF93C0E9AF
:10328000D1E089918F3F11F00E94241981E0C53966
:10329000D807B9F7C2E8D1E000E911E089918F3F82
:1032A00011F00E9424190C171D07C1F7DF91CF916F
:1032B0001F910F910895AF92BF92CF92DF92EF923C
:1032C000FF920F931F93CF93DF938C01C62FD0E013
:1032D000CE0180579E4F6C01DC019C919F3F09F409
:1032E00057C0B62EF894E92FE295EF70F0E081A177
:1032F0009F7021E030E001C0220F9A95EAF7822BFF
:1033000081A382A12095282322A378940E941719D3
:10331000E2E8F1E020E030E0E12CF12C41E050E087
:1033200081918F3FC1F0A82FA295AF70B0E0909629
:103330006C9170E08F70DB0102C0B595A7958A95FE
:10334000E2F7A0FD08C0CA01022E02C0880F991F33
:103350000A94E2F702C080E090E0E82AF92A2F5FA1
:103360003F4F2E303105E1F6F60180818F3F11F09D
:103370000E94241961E0E114F10409F460E08B2D4E
:103380000E941919CC0FDD1FC00FD11FF982E882EE
:10339000DF91CF911F910F91FF90EF90DF90CF9031
:1033A000BF90AF9008950E943B19E8EBF2E0A2ECC9
:1033B000B2E0119211921D921D9282E0E23CF80758
:1033C000C1F785E00E94311A0C941E09FF920F93F9
:1033D0001F93CF93DF93CDB7DEB72A970FB6F8943C
:1033E000DEBF0FBECDBF8E010F5F1F4F8AE0F80119
:1033F00011928A95E9F7F12C6F2DC8010E945B1993
:10340000F394F5E0FF12F8CF4AE050E0B80188EB02
:1034100092E00E94A433FF24F394009709F4F12C66
:10342000892B41F08AE0F801A8EBB2E001900D92FF
:103430008A95E1F72F2D45E062EC72E088EB92E08F
:103440000E94321A0E9426098F2D2A960FB6F894F0
:10345000DEBF0FBECDBFDF91CF911F910F91FF90C7
:1034600008950895FF920F931F93CF93DF93F82E43
:10347000092F162FD72FC42F222349F081E08093E4
:1034800075020E941E2B90937402809373028091A8
:1034900075028823D9F080917302909174020E9482
:1034A000362B059798F0EF2DF02FA12FBD2F80E040
:1034B00090E04C2F50E08417950734F4219131911E
:1034C0002D933D930196F7CF10927502DF91CF9126
:1034D0001F910F91FF9008950E94902A0E94A12DA4
:1034E0000E94BA2D0E94D02D0E948915FBCFCF9348
:1034F000C82F1F928F9381E193E09F938F930E9437
:10350000C30881E090E0A0E0B0E0BC01CD0104C0C0
:10351000660F771F881F991FCA95D2F70E94490E20
:103520000F900F900F900F90CF910C94E80DDF92B9
:10353000EF92FF920F931F93CF93DF93482F50E0AA
:10354000FA013597EF33F10508F05BC1EC58FF4FF6
:103550000C9460330E94B4141F928F938FE797E00E
:103560009F938F930E94C3080E94B01483FB9927F6
:1035700090F91F929F9382FB992790F91F929F9336
:1035800081FB992790F91F929F93982F91701F921A
:103590009F931F928F9386E397E09F938F930E9450
:1035A000C3080E94B81487FB222720F91F922F938B
:1035B00086FB222720F91F922F9385FB222720F9D3
:1035C0001F922F9384FB222720F91F922F9383FBB6
:1035D000222720F91F922F9382FB222720F91F9286
:1035E0002F9391FB222720F91F922F93292F2170CF
:1035F0001F922F9381FB222720F91F922F93282FB0
:1036000021701F922F939F938F9381E596E09F9354
:103610008F930E94C3088DB79EB788960FB6F89413
:103620009EBF0FBE8DBF0E94CB24982F9695969576
:1036300096951F929F93982F91701F929F931F9220
:103640008F938EE196E09F938F930E94C3088DB76E
:103650009EB708960FB6F8949EBF0FBE8DBF06C0EA
:103660008FE398E00E942A080E944D15C1E0CEC069
:103670008CE694E074C080917202817F8E7F80938B
:10368000720281E594E00E942A088BE398E00E9490
:103690002A0881E080937602E9CF8FE198E00E94CA
:1036A0002A080E942909E2CF80917202C82FC09592
:1036B000C170C0FB80F980937202CC2319F083E1C2
:1036C00098E091C086E098E00E942A0880917202FA
:1036D000897F877F80937202C9CF9091720291FB9C
:1036E000CC27C0F981E0C827892FC0FB81F98093DE
:1036F0007202CC2319F089EF97E027C08BEE97E098
:103700002EC09091720292FBCC27C0F981E0C827AD
:10371000892FC0FB82F980937202CC2319F08CEDC3
:1037200097E013C08CEC97E01AC09091720293FB63
:10373000CC27C0F981E0C827892FC0FB83F980938B
:103740007202CC2351F080EC97E00E942A0880910D
:10375000720281608093720259C083EB97E00E94ED
:103760002A0884CF8AE993E0FACF0E942A2B062FF9
:10377000F72EE82ED92EC091B602C7FBCC27C0F990
:103780001091B502D0911F010E942329DF92EF9280
:10379000FF920F931F92CF931F921F931F92DF935D
:1037A0001F928F9386E193E09F938F930E94C308AB
:1037B0008DB79EB70E960FB6F8949EBF0FBE8DBF05
:1037C00055CF0E94E80D9091B60297FBCC27C0F927
:1037D00081E0C827892FC0FB87F98093B602CC23EC
:1037E00029F089EA97E00E942A0810C08EE997E044
:1037F000B6CF895303C08D5101C080E00E94771A73
:1038000035CF8CE997E00E942A08C0E08C2FDF9129
:10381000CF911F910F91FF90EF90DF90089580E07E
:1038200008950C940F1CCF93C82F809176028823A3
:1038300019F0813031F038C00E94E0138232B1F5C6
:1038400004C00E94E013823261F48C2F0E94111C8C
:10385000811104C08C2F0E94971A24C081E090E04F
:1038600021C08C2F0E940F1C81111BC0C43189F014
:1038700018F4CB3029F010C0C93259F0C83361F4C4
:1038800081E594E00E942A088DE093E00E942A08D6
:1038900008C0109276020CC08BE093E00E942A08C8
:1038A00007C081E0817006C01092760280E002C0FD
:1038B00080E0F8CFCF910895EF92FF920F931F937E
:1038C000CF93DF938B01682F11110AC0442329F095
:1038D000E82FF0E0EC53F34F6491762F862F75C0FC
:1038E000212F30E0E82FF0E0442321F0EC53F34F98
:1038F000E491F0E046E0049FC0011124CFEFD0E056
:10390000BE010E9416334BEA4603C001479F900D4B
:103910001124800F911D800F911D982F990F890FF1
:10392000AE01421B530B4E9FD0014F9FB00D5E9FC7
:10393000B00D11249B2F189FA0011124452F55274E
:103940008E01041B150B0E9FA0010F9F500D1E9F93
:10395000500D11247E01E81AF108E29E8001E39ED9
:10396000100DF29E100D1124212F3327C21BD30BF3
:10397000CE9F9001CF9F300DDE9F300D112462301D
:103980007105A9F048F46115710569F061307105A0
:10399000C9F48B2F752F0DC06430710581F058F07C
:1039A0006630710579F47E2F8B2F932F0DC0832FF6
:1039B0007B2F9E2F09C08E2F7B2F952F05C08E2F1A
:1039C000732F02C07E2F852F692FDF91CF911F911A
:1039D0000F91FF90EF90089541E00E945C1C0895C4
:1039E00008950E94EC1C0895CF93DF93762FE90190
:1039F000682F842F0E94F11C798368838A83DF916A
:103A0000CF9108958091CC02282F269530E0211582
:103A1000310519F48170826005C02532310524F02A
:103A2000817088648093CC02089588E090E00C94C3
:103A3000B933CF92DF92EF92FF926B017C010E942B
:103A4000021DB701A60188E090E0FF90EF90DF90A3
:103A5000CF900C94D733ECECF2E083E080831182BA
:103A60008FEF82838383148260817181828193814D
:103A70000C94191D8091720280FF08C085E19BE0C3
:103A80009F938F930E94C3080F900F9080917202B2
:103A900080FF0FC08091CC0281701F928F9388EFBE
:103AA0009AE09F938F930E94C3080F900F900F90FE
:103AB0000F908091720280FF0FC08091CC0286959A
:103AC0001F928F938DED9AE09F938F930E94C3086E
:103AD0000F900F900F900F908091720280FF0EC098
:103AE0008091CD021F928F9383EC9AE09F938F93E6
:103AF0000E94C3080F900F900F900F908091720258
:103B000080FF0EC08091CE021F928F9389EA9AE0C7
:103B10009F938F930E94C3080F900F900F900F9068
:103B20008091720280FF0EC08091CF021F928F930E
:103B30008FE89AE09F938F930E94C3080F900F9095
:103B40000F900F908091720280FF0EC08091D00282
:103B50001F928F9383E79AE09F938F930E94C308ED
:103B60000F900F900F900F9008958091CC0280FFDE
:103B700002C08695089580E008959091D002933018
:103B800018F49F5F9093D002882351F06091CC028B
:103B90007091CD028091CE029091CF020C94191DAC
:103BA000089581E00C94BD1D9091D002992319F0E5
:103BB00091509093D002882351F06091CC02709183
:103BC000CD028091CE029091CF020C94191D0895E0
:103BD00081E00C94D41D70E00C94CB26609106011A
:103BE0008091CC0280FF0AC08091050123E0829F72
:103BF000C00111248F529D4F0C94EB1D8091070141
:103C000090910801891780F7E82FF0E09F01220FBB
:103C1000331FE20FF31FEF52FD4F11821082128209
:103C20008F5FF0CF9091CC0290FF16C0909107016A
:103C300020910801921770F4E92FF0E0DF01AA0F3C
:103C4000BB1FEA0FFB1FEF52FD4F8183608342834E
:103C50009F5FF0CF0C94EE1D0895CF93DF9300D0BB
:103C60001F92CDB7DEB79091CC0290FF0AC09E01A3
:103C70002F5F3F4F0E94F41C4B8169818A810E9413
:103C8000121E0F900F900F90DF91CF910895CF9358
:103C9000DF93EC01EC81F0E0E05CF44F4491ECEC5C
:103CA000F2E0628181810E942D1E8C818F5F8C8366
:103CB000DF91CF910895CF93DF93EC01ECECF2E02C
:103CC000438162818C810E942D1E8C818F5F8C8349
:103CD000DF91CF9108950F931F93CF93DF9300D07F
:103CE0001F92CDB7DEB78C018091770281110AC097
:103CF0009E012F5F3F4F4FEF6FEF0E94F41C8A81B0
:103D000080937702F8018481813051F028F082306D
:103D100061F4409177020AC08091770240E007C0C9
:103D20006091770240E080E003C040E080E060E026
:103D30000E94121EF801848190E0019663E070E019
:103D40000E942A3384830F900F900F90DF91CF91C0
:103D50001F910F9108954F925F926F927F928F9271
:103D60009F92AF92BF92CF92DF92EF92FF920F930A
:103D70001F93CF93DF9300D01F92CDB7DEB7F82EFD
:103D8000B62EE42E622E9091CC0290FFB4C0E92FA3
:103D9000E695AE2FB0E0AB56BE4F8C91809381027A
:103DA0009E7F923061F49E012F5F3F4F8F2D0E94C6
:103DB000F41C4B8169818A810E94121E62C082308C
:103DC00019F4E090CF025DC0863019F4F090CD0276
:103DD00058C08930D9F3893109F053C0E9518E2F89
:103DE0008170782E81E0A72CA826E695F0E0E05CB3
:103DF000F34FC590D490412CDD249EEC892E98E0A1
:103E0000992E609109014616D0F5042D10E00C9D05
:103E1000C0010D9D900D1C9D900D112470E00E941D
:103E200016335F2C711002C0560E01C0561A8091D5
:103E3000720280FF11C0DF92CF921F92AF921F9249
:103E40005F921F924F929F928F920E94C3080FB66B
:103E5000F894DEBF0FBECDBF80910701080F111D82
:103E60009801220F331F020F131F98012F523D4F4D
:103E70004E2D6B2D852D0E94F41C4394C2CF0E94C1
:103E8000EE1DF092CD02B092CE02E092CF026620FB
:103E9000E9F06091CC027091CD028091CE029091B8
:103EA000CF020E94191D8091720280FF24C0809170
:103EB000CF021F928F938091CE021F928F93809199
:103EC000CD021F928F9389EA98E00CC08091720214
:103ED00080FF11C01F92EF921F92BF921F92FF921C
:103EE00082E898E09F938F930E94C3080FB6F894DE
:103EF000DEBF0FBECDBF0F900F900F90DF91CF911F
:103F00001F910F91FF90EF90DF90CF90BF90AF90F7
:103F10009F908F907F906F905F904F900895ECEC02
:103F2000F2E09181282F438162818AE0890F0C940D
:103F3000AB1E81E00C948F1FECECF2E09181282FF6
:103F40004381628186EF890F0C94AB1E81E00C9453
:103F50009C1FECECF2E0628121E1620F08F46FEF4C
:103F6000282F438181810C94AB1E81E00C94A91F02
:103F7000ECECF2E0628121E1621B08F460E0282FA2
:103F8000438181810C94AB1E81E00C94B81FECEC52
:103F9000F2E0438121E1420F08F44FEF282F6281C4
:103FA00081810C94AB1E81E00C94C71FECECF2E015
:103FB000438121E1421B08F440E0282F6281818186
:103FC0000C94AB1E81E00C94D61F20E00C94AB1E29
:103FD000FF920F931F93CF93DF93EC01F12C0FEF20
:103FE00010E060910901F616F0F4809107012F2D81
:103FF00030E0280F311DC901880F991F280F391F84
:104000002F523D4F70E0C8010E942A33962F8C81B9
:104010004091CF026091CE02F99E800D11240E9442
:10402000F41CF394DECF0E94EE1D9A818C8190FFE8
:1040300002C08F5F01C081508C83DF91CF911F91AF
:104040000F91FF900895BF92CF92DF92EF92FF926F
:104050000F931F93CF93DF93FC01828180FF02C0F7
:104060000FEF01C001E010E080910901181708F07E
:1040700040C080910701C12ED12CE601C80FD11D8F
:10408000CE01880F991FC80FD91FCF52DD4F19825B
:1040900018821A8234E0E32EF12CB12C809179023F
:1040A0008B0D893014F0877005C087FF03C0909195
:1040B0000901890F082E000C990BC816D90691F436
:1040C0008091CF028E9DA0018F9D500D112455959A
:1040D0004795559547959E016091CE028091CD02FE
:1040E0000E94F41CB00EF1E0EF1AF108B9F61F5F60
:1040F000BBCF0E94EE1D80917902013031F4811115
:1041000002C080910901815007C090E00196609142
:10411000090170E00E942A3380937902DF91CF91E8
:104120001F910F91FF90EF90DF90CF90BF90089577
:10413000CF938091070190910801891770F4E82FBF
:10414000F0E09F01220F331FE20FF31FEF52FD4FEC
:104150001182108212828F5FF0CFC0E0609109015E
:10416000C617C0F5EC2FF0E070E0CF010E942A33B3
:1041700020910701820F20917802022E000C330B50
:1041800090E0E217F307CCF020910401022E000C1E
:10419000330B2E173F078CF09C01220F331F820F29
:1041A000931F9C012F523D4F4091CF026091CE0250
:1041B0008091CD020E94F41C0BC0FC01EE0FFF1F8A
:1041C0008E0F9F1FFC01EF52FD4F11821082128251
:1041D000CF5FC4CF0E94EE1D209103018091780231
:1041E000820F8093780290910401920F90930401C2
:1041F00019165CF4082E000C990B4091090150E04F
:1042000041505109841795071CF021952093030113
:10421000CF9108958F929F92AF92BF92CF92DF92EB
:10422000EF92FF920F931F93CF93DF938C01FC01CA
:104230004481C42FD0E09E01DE010E946E339B01B9
:10424000AC010E9484336B017C01E0E2F0E0EC1BE6
:10425000FD0BA5E5B0E09B01AC010E9484334B014E
:104260005C019F01DF010E9466339B01AC010E944B
:104270008F339B01AC012C0D3D1D4E1D5F1DC501F3
:10428000B4010E943E33C22FD22F2A3228F4F3E029
:104290002F9F900111240DC025E530E02C1B310922
:1042A000C901880F991F280F391F37FF02C02F5FE0
:1042B0003F4F35952795C22FC095F12C85E5E82E07
:1042C000ED1A80910901F816C8F4F1FC02C08E2D98
:1042D00001C08D2F909107012F2D30E0290F311D46
:1042E000A901440F551F240F351F2F523D4F4C2F4E
:1042F0006091CE020E94F41CF394E3CF0E94EE1D65
:10430000F8018481811102C091E003C0803219F468
:104310009FEF9093020190910201890FF80184832D
:10432000DF91CF911F910F91FF90EF90DF90CF9091
:10433000BF90AF909F908F9008950F931F93CF934E
:10434000DF93EC0100E010E080910901282F30E0BC
:104350000217130724F5909107019801290F311DC9
:10436000A901440F551F240F351F2F523D4F86952D
:1043700090E04C81081719071CF4442331F002C067
:10438000411103C04091CF0201C040E06091CE02D4
:104390008091CD020E94F41C0F5F1F4FD5CF0E9469
:1043A000EE1D8C8190E00196817099278C83DF91BE
:1043B000CF911F910F9108956091CC02669570E0A6
:1043C0004BE050E08AE091E00E949733892B19F48A
:1043D00081E0809382020E941E2B90937B02809347
:1043E0007A028091720280FF08C089E698E09F936C
:1043F0008F930E94C3080F900F900895109282022D
:104400008091720280FF08C080E598E09F938F93AF
:104410000E94C3080F900F9008959091CC0290FFD6
:1044200054C09170811102C0926006C0853210F0B4
:10443000986402C0880F982B9093CC026623B1F049
:104440006091CC027091CD028091CE029091CF020A
:104450000E94191D8091720280FF1BC08091CC02C6
:1044600086951F928F9389EB99E00BC08091720221
:1044700080FF0FC08091CC0286951F928F938BE9AD
:1044800099E09F938F930E94C3080F900F900F9015
:104490000F906091CC02669570E04BE050E08AE0AE
:1044A00091E00E949733892B19F00E94FE2102C0EF
:1044B0000E94DC2181E080937D024091CF026091D7
:1044C000CE028091CD020C94E51F0895682F909143
:1044D000CC02969581E0890F853208F081E00C943A
:1044E0000D2281E00C946622682F9091CC02969563
:1044F0008FEF890F09F484E20C940D2281E00C9473
:10450000742261E00C940D228091CC028160809332
:10451000CC028091720280FF0DC01F9281E08F93C8
:104520008DE299E09F938F930E94C3080F900F90A4
:104530000F900F908091CC0286950C94812260E0C0
:104540000C940D2280918002811160C080917202D2
:1045500080FF08C08CE59AE09F938F930E94C30868
:104560000F900F908091720280FF08C086E49AE05D
:104570009F938F930E94C3080F900F900E94A514E1
:10458000811110C08091720280FF08C08EE19AE014
:104590009F938F930E94C3080F900F900E944D1518
:1045A0000E942B1D0E94151D6093CC027093CD02BA
:1045B0008093CE029093CF026E7FC1F480917202FD
:1045C00080FF08C085ED99E09F938F930E94C308F8
:1045D0000F900F900E942B1D0E94151D6093CC021E
:1045E0007093CD028093CE029093CF020E94021D61
:1045F0000E943A1D109282028091CC0280FF03C07B
:1046000086950E949F2281E0809380020895809188
:10461000CC028E7F8093CC026091CC027091CD024F
:104620008091CE029091CF020E94191D809172025A
:1046300080FF0FC08091CC0281701F928F9385EF15
:1046400098E09F938F930E94C3080F900F900F9054
:104650000F900E94FE212FEF80E792E021508040D2
:104660009040E1F700C000000C94EE1D80917202B2
:1046700080FF10C08091CC02809581701F928F9333
:1046800084E699E09F938F930E94C3080F900F9048
:104690000F900F908091CC0280FD0C9407230C9416
:1046A00084220F931F93CF93DF93809182028823FC
:1046B00009F485C080918102E091CC02E695E81B67
:1046C000E0937C02823049F4F0E0E45CF44FE49142
:1046D000CE2FD0E007E41EE149C0863049F4F0E077
:1046E000E75CF44FE491CE2FD0E00BE51EE13EC035
:1046F000893051F4E695F0E0EA5CF44FE491CE2F76
:10470000D0E008EE1FE132C08F3051F4E695F0E0C2
:10471000ED5CF44FE491CE2FD0E003E210E226C02E
:10472000853149F4F0E0E05DF44FE491CE2FD0E024
:1047300008E910E21BC0883181F0833239F4EEE2DF
:10474000FBE0C591D4910BE61EE110C0843251F418
:10475000C4EFD1E00DE911E209C0C8E2D0E00AE0FF
:1047600011E204C0C0EDD7E000EF1CE180917D02B2
:10477000882361F010927D020E941E2B90937B0291
:1047800080937A0210927F0210927E020E941E2B6A
:10479000E0917A02F0917B028E1B9F0B8F3F9F4727
:1047A00070F4EC0FFD1FF0937B02E0937A028AE72E
:1047B00092E0F801DF91CF911F910F910994DF9161
:1047C000CF911F910F910895882311F0FA0101C034
:1047D000FB010994CF93DF93C82FD62F0E94B51DFC
:1047E0008C1740F00E94B51D8D1720F4DF91CF91FA
:1047F0000C9471228C2FDF91CF910C9481221F9306
:10480000CF93DF93FB011281112309F4BCC0EC01AB
:104810000E94E0138272CD3CFCE5DF0709F497C0EB
:1048200008F043C0C73CECE5DE0709F47CC0D8F4CF
:10483000C43C9CE5D90709F46AC038F4C33CDC45A4
:1048400009F0A4C00E943623A0C0C53C9CE5D9074E
:1048500009F462C0C63CDC4509F098C046EA5FE155
:1048600069E97FE15DC0CA3CFCE5DF0709F465C08A
:1048700070F4C83CECE5DE0709F45AC0C93CDC45DD
:1048800009F084C045EB5FE164EC7FE149C0CB3CBB
:104890009CE5D90709F456C0CC3CDC4509F076C04C
:1048A00048EE5DE161ED7DE13BC0C23DFCE5DF0727
:1048B00009F45AC098F4CF3C9CE5D90709F44EC0DE
:1048C00008F44AC0C03DFCE5DF0709F44AC0C13D19
:1048D000DC4509F05BC06EE089E04EC0C53D9CE55B
:1048E000D90709F447C050F4C33DFCE5DF07F9F1EF
:1048F000C43DDC4509F04AC088E142C0C63D9CE5A4
:10490000D907E9F1CE35DD4509F43FC03FC04EE798
:1049100052E261E772E204C041E752E26EE772E2FE
:104920000E94E42332C049E95FE166EA7FE1F8CF03
:1049300044EC5FE165EB7FE1F3CF42EE5FE163EDD5
:104940007FE1EECF43ED5FE162EE7FE1E9CF41ED44
:104950005DE168EE7DE1E4CF81E012C065E082E0D8
:104960000BC068E086E008C064E18FE005C067E145
:1049700085E102C062E289E10E94EA2306C083E287
:104980000E94812202C011E001C010E0812FDF915E
:10499000CF911F91089586E090E00C94B133682F79
:1049A00086E090E00C94C5338091E90284708162C6
:1049B0008093E9020C94CF240E94A514811104C0B5
:1049C0000E944D150E94D4240E94CB248093E902BA
:1049D000282F26952695269530E02530310524F0A0
:1049E000877080628093E9028091E90280FF04C0B1
:1049F00086958695869501C080E00C945926209175
:104A0000E902822F869586958695482F50E044309E
:104A1000510554F48F5F982F990F990F990F822F9A
:104A20008770892B8093E9028091E90281608093ED
:104A3000E9020E94CF248091720280FF11C0809110
:104A4000E9028695869586951F928F938CEA9CE065
:104A50009F938F930E94C3080F900F900F900F9019
:104A60008091E9028695869586950C9459268091C9
:104A7000E902982F969596959695A1F0915E990FDB
:104A8000990F990F8770892B8093E902887F91E0B5
:104A900009F490E08091E90290FB80F98093E902AB
:104AA0000E94CF248091720280FF11C08091E902A0
:104AB0008695869586951F928F9384E99CE09F93B7
:104AC0008F930E94C3080F900F900F900F908091CA
:104AD000E9028695869586950C9459268091E9027F
:104AE00080FD1FC081608093E902813019F489E064
:104AF0008093E9028091E9020E94CF2480917202A2
:104B000080FF08C08CE69CE09F938F930E94C308AF
:104B10000F900F908091E9028695869586950C946A
:104B2000592608958091E90280FF14C08E7F8093FA
:104B3000E9020E94CF248091720280FF08C089E5BB
:104B40009CE09F938F930E94C3080F900F9080E08A
:104B50000C9459260895CF93C091E902C1708091B9
:104B6000720280FF0CC01F92CF938EE79CE09F9350
:104B70008F930E94C3080F900F900F900F90CC233B
:104B800019F0CF910C949225CF910C946E259091B1
:104B9000E902892F8695869586958F5F8F7197702C
:104BA000853038F4880F880F880F892B8093E902AD
:104BB00002C09093E9028091E902887F91E009F4B4
:104BC00090E08091E90290FB80F98093E9020E94D5
:104BD000CF248091720280FF11C08091E9028695F6
:104BE000869586951F928F9385E49CE09F938F9383
:104BF0000E94C3080F900F900F900F908091E902D0
:104C00008695869586950C945926853008F084E023
:104C10009091E9029770282F220F220F220F922BDA
:104C20009093E902987F21E009F420E09091E90255
:104C300020FB90F99093E9020C9459260E940526D6
:104C40008091E9020C94CF249C01FB01828188238E
:104C500049F12E3BFCE53F07C9F040F42C3BECE565
:104C60003E0769F02D3B3C4561F00895203C9CE5F2
:104C7000390791F070F0213C3C4589F0089584E0BB
:104C800001C080E00E941E2680E008950E94372522
:104C9000FBCF0E94FF24F8CF0E94AB25F5CF0E94E6
:104CA000C725F2CF81E00895269A2E9808952E9870
:104CB0000895CF92DF92EF92FF92CF93C82F853065
:104CC00050F4811109C0809180008F7D8093800015
:104CD0000E94572606C0C4E08091800080628093C5
:104CE00080002C2F30E0AFEFBFEF0E946E33DC016D
:104CF000CB0142E0B695A795979587954A95D1F750
:104D00008C3744E1940728F469E070E00E94163380
:104D100027C08A50974DAF4FBF4F6627782F892FF6
:104D20009A2F25EF38E241E050E00E943E336901BE
:104D30007A01CA01B9010E94FA329B01AC01C70194
:104D4000B6010E94FA32BB27A92F982F872F009710
:104D500021E0A207B10511F0BC0102C06FEF7FEFA7
:104D600070938B0060938A00CF91FF90EF90DF905B
:104D7000CF90089508950E94542682E28093800087
:104D800089E1809381008FEF9FEF9093870080935C
:104D900086000C94DC246A9A2EB12B7F3EB13460DD
:104DA0004FB7F894FC01CB01880F991F680F791F4A
:104DB0006E0F7F1FE617F70789F0819198E03EB9E3
:104DC000000000C087FF2EB9880F000000C000C09F
:104DD00000C02EB900C09A9591F7ECCF4FBF8FE578
:104DE00094E00197F1F700C0000008950F931F931E
:104DF000CF93DF93C42FD22FFC0182818823C9F087
:104E0000409385020E941E2B90938402809383021C
:104E100080E28C0F883008F057C0C77081E001C075
:104E2000880FCA95EAF7DF91CF911F910F910C94EB
:104E30006A0B80918502481330C080918302909163
:104E400084020E94362B883C910538F510E21D0F34
:104E5000CD17B9F080E28C0F883040F4C77081E044
:104E600001C0880FCA95EAF70E94710B183028F527
:104E700081E09D2F977001C0880F9A95EAF70E94F4
:104E80006A0B802F0E94610B1830F0F4D77081E01C
:104E900001C0880FDA95EAF70AC080E28C0F8830EB
:104EA00098F4C77081E001C0880FCA95EAF7DF91D6
:104EB000CF911F910F910C94710B802FDF91CF91A7
:104EC0001F910F910C94610BDF91CF911F910F9166
:104ED00008950F939C01CB01243F4CE5340731F139
:104EE00088F4293DFCE53F07D9F02A3D4CE534071D
:104EF00079F1283D3C45A9F506E221EE41EE68ED49
:104F00007CE52BC0263FFCE53F07E1F0A8F0273FFA
:104F10003C4539F507E225EE46EE67EF7CE51DC01E
:104F200007E225EE45EE69ED7CE517C006E221EECD
:104F300040EE64EF7CE511C007E225EE44EE65EF3C
:104F40007CE50BC006E221EE42EE66EF7CE505C093
:104F500008E221E045EE6AED7CE50E94F62680E05D
:104F600008C0FC018281882319F01092850201C0DB
:104F700081E00F910895CF93DF93EC01FB018281D3
:104F8000882309F426C1C430FDE5DF0760F4CB3F78
:104F90009CE5D90768F49E0122503C452431310537
:104FA00008F018C105C0C236EDE5DE0709F012C1F0
:104FB0000E94B8149093B7028093B602C031FCE50A
:104FC000DF0709F4CAC008F041C0C8309CE5D90722
:104FD00009F4A4C0F0F4C430FCE5DF0709F48CC088
:104FE00068F4C2309CE5D90709F482C0C330DC45BF
:104FF00009F0E5C08091B6028260DFC0C630FCE5F2
:10500000DF0709F483C008F085C08091B60288608C
:10501000D4C0CC309CE5D90709F490C068F4CA30FC
:10502000FCE5DF0709F47EC008F084C00E94E80DAB
:105030008091B6028068C1C0CE309CE5D90709F4E2
:1050400081C008F086C08091B60294C0CD3FFCE5D7
:10505000DF0709F47BC038F5C4319CE5D90709F4B2
:105060009AC058F4C231FCE5DF0709F47AC008F0B1
:105070007EC08091B6028F7BA0C0CB3F9CE5D90754
:10508000F1F108F03FC0C531DC4509F098C08091CE
:10509000B60282FB222720F991E0922790FB82F949
:1050A00090FB83F98AC0C1308DE5D80709F467C049
:1050B00050F48091B702CF3FECE5DE07C1F108F074
:1050C0005BC08D7F65C0C3308DE5D80709F471C022
:1050D00008F46DC0C236DD4509F071C08091B6029A
:1050E00084FB222720F991E0922790FB84F965C088
:1050F0008091B602816061C08091B60216C0809135
:10510000B70216C08091B702826042C08091B60299
:10511000806153C08091B60280624FC08091B60218
:1051200080644BC08091B6028860846046C0826013
:1051300081602EC08091B6028E7F3FC08091B60202
:105140008D7F3BC08091B602877F37C08091B702C8
:1051500014C08091B6028F7E30C08091B6028F7DE0
:105160002CC00E94E80D8091B6028F7726C08091F6
:10517000B602877F8B7F21C08D7F8E7F09C0809193
:10518000B702982F909591708E7F892B90FB81F9B3
:105190008093B70214C00E94E80D8091B60287FB8D
:1051A000222720F991E0922790FB87F906C081E041
:1051B00001C080E00E944F1502C08093B60280912A
:1051C000B6029091B7020E94C9140E94E80D80E0D7
:1051D00001C081E0DF91CF910895CF93DF938631B5
:1051E0009C4541F5EB010E94E013982F8A812091A4
:1051F000000130910101882379F09A7A81E009F465
:1052000080E080938602911102C069E201C065E3EB
:10521000C9010E94682A0AC080918602811102C0D9
:1052200069E201C065E3C9010E94732A0E94321439
:1052300080E001C081E0DF91CF91089590938C02CE
:1052400080938B020895E0918B02F0918C0230974D
:1052500021F00190F081E02D099480E00895EF9213
:10526000FF921F93CF93DF93FC01A0918B02B0912B
:105270008C02109709F442C080911F01882341F0ED
:105280008091B60287FF04C08081818385E080839E
:10529000EF011296ED91FC911397CE010995809143
:1052A000720282FF2BC080FF04C08CEC9DE00E9444
:1052B0002A0818E086ECE82E8DE0F82E8091720224
:1052C00080FF0BC088811F928F93FF92EF920E9404
:1052D000C3080F900F900F900F901150219611114D
:1052E000EDCF8091720280FF09C084EC9DE0DF91D8
:1052F000CF911F91FF90EF900C942A08DF91CF91EE
:105300001F91FF90EF9008952091890230918A02B9
:105310002817390771F090938A0280938902E091EF
:105320008B02F0918C02309721F00680F781E02DFE
:10533000099408952091870230918802281739072F
:1053400071F09093880280938702E0918B02F09134
:105350008C02309721F00084F185E02D09940895A6
:10536000FC01329680911F01882331F08091B602B2
:1053700087FF02C09EE101C096E080E0915028F0D6
:1053800021912223D9F38F5FF9CF0895662351F13C
:1053900020911F012223E9F02091B60227FF19C0B6
:1053A000462F4695469546954E31E0F4677021E0CC
:1053B00030E002C0220F331F6A95E2F7FC01E40FD0
:1053C000F11D828190E02823392381E0232B69F4A9
:1053D00009C0FC01329608962191621729F0E8175E
:1053E000F907D1F780E0089581E008959C01FC0160
:1053F00032969FEF80E04191461789F09F3F19F464
:10540000411101C0982F8F5F8630A9F79F3F39F077
:10541000F901E90FF11D97FDFA956283089508954A
:105420009C012A5F3F4FFC014281461301C012825A
:10543000019682179307B9F70895262F269526958A
:1054400026952E3170F4FC01E20FF11D677021E00A
:1054500030E001C0220F6A95EAF78281282B22836F
:1054600008958091720280FF0CC01F926F938CEFA1
:105470009DE09F938F930E94C3080F900F900F9011
:105480000F900895262F2695269526952E3178F48F
:10549000FC01E20FF11D677021E030E001C0220F36
:1054A0006A95EAF7209582812823228308958091C6
:1054B000720280FF0CC01F926F938EED9DE09F9350
:1054C0008F930E94C3080F900F900F900F90089534
:1054D00020911F01222329F02091B60227FD0C9470
:1054E0001D2A0C94F62920911F01222329F02091D6
:1054F000B60227FD0C94422A0C94102A20911F0119
:10550000FC013296222331F08091B60287FF02C05F
:105510008EE101C086E0DF011D928A95E9F70895CA
:10552000089508950C94912A0C94912ACF930E9487
:10553000942A0E94E6190E94922AC0E08C2F0E94B1
:10554000C318892B29F4CF5FC530C1F780E001C0B3
:1055500081E0CF9108950C94912A0C94AB2A80910C
:10556000F202843061F10E94AD2A80E00E94592647
:1055700080E00E94EB0910928D0220E488E190E027
:105580000FB6F894A895809360000FBE209360003A
:1055900083B7817F846083BF83B7816083BF789442
:1055A000889583B78E7F83BF0FB6F894A8958091B6
:1055B0006000886180936000109260000FBE0895C3
:1055C0000C94912A0E94E80D0E94DC240E94232959
:1055D0000E94EB090C94E02A1F920F920FB60F92D3
:1055E00011248F939F93AF93BF9380918D0281116C
:1055F00013C08091EA029091EB02A091EC02B0916D
:10560000ED024196A11DB11D8093EA029093EB0239
:10561000A093EC02B093ED02BF91AF919F918F9157
:105620000F900FBE0F901F90189582E084BD93E0FD
:1056300095BD9AEF97BD80936E0008952FB7F894AB
:105640008091EA029091EB02A091EC02B091ED0200
:105650002FBF08952FB7F8946091EA027091EB0282
:105660008091EC029091ED022FBF08959C014FB7FD
:10567000F8948091EA029091EB02A091EC02B09133
:10568000ED024FBF821B930B089578941F920F92E7
:105690000FB60F9211248F939F93AF93BF93809176
:1056A000EA029091EB02A091EC02B091ED0201961A
:1056B000A11DB11D8093EA029093EB02A093EC022E
:1056C000B093ED02BF91AF919F918F910F900FBE5C
:1056D0000F901F90189581E08093E00080E2809306
:1056E000D8001092C9008FE19EE40197F1F700C045
:1056F000000087E090EBDC018093FB029093FC02BA
:10570000A093FD02B093FE029CE088E10FB6F894EE
:10571000A895809360000FBE90936000FFCF909398
:10572000CB018093CA0108958091B40208959091AD
:10573000F202943031F5809390027093920260935C
:10574000910282E08093E9008FEF9091E800815010
:1057500095FD06C095ED9A95F1F700008111F5CF02
:105760008091E80085FF0DC040E050E063E070E00C
:1057700080E992E00E945D2E8091E8008E77809310
:10578000E8000895BC0184E00C94972BBC0183E0F1
:105790000C94972BCF93DF9320911F01222339F094
:1057A0002091B60227FF03C060E222E002C068E059
:1057B00021E02093E9002FEF3091E800215035FDE2
:1057C00006C035ED3A95F1F700002111F5CF209193
:1057D000E80025FF1DC0EC0180911F01811105C06B
:1057E00040E050E068E070E003C070E040E050E06E
:1057F000CE010E945D2E8091E8008E778093E800B4
:1058000080E2FE01A4E9B2E001900D928A95E1F7F1
:10581000DF91CF91089508958FE39EE00E942A08BA
:105820008091F102811109C00E94EE2F0E944B303D
:105830008091E20084608093E20008958BE39EE013
:105840000E942A081092F102089587E39EE00C94CA
:105850002A0883E39EE00C942A088FE29EE00C94D1
:105860002A0820918F022F5F822F62E30E940A3361
:10587000992319F020938F02089510928F0280913E
:105880009302882371F18091F202843041F5809176
:10589000E9008F702091EC00922F917020FD90E82C
:1058A000892B93E09093E9009091EB0090FF14C056
:1058B0009091EE0097FF10C09091E80095FF03C013
:1058C0001092F100F9CF9091E80090FF05C09091FF
:1058D000E8009E779093E8008F708093E900109223
:1058E0009302089542E061EC81E00E94672F42E25A
:1058F00061EC82E00E94672F42E261EC83E00C944D
:10590000672F8091F402833009F460C030F4813055
:1059100071F0823009F499C008958A3009F485C085
:105920008B3009F46BC0893009F0A7C020C080918A
:10593000F302813A09F0A1C08091E800877F80934B
:10594000E8008091F7029091F802892B21F460E23F
:1059500084E992E003C060E080E090E070E00E94A3
:10596000A82E8091E8008B778093E80008958091BD
:10597000F302813209F081C08091F7029091F80220
:10598000029708F07AC08091E800877F8093E80052
:105990008091E80082FD05C08091F2028111F8CF6C
:1059A0006CC02091F3008091F20090E0922B02975E
:1059B00029F48091F1008B7F813021F48091F100F6
:1059C0008093B4028091E8008B7753C08091F302FA
:1059D000813A09F052C08091F7029091F802892B28
:1059E00009F04BC08091E800877F8093E8008091A8
:1059F000E80080FFFCCF80911F0136C08091F30248
:105A00008132D9F58091F7029091F802892BA9F59E
:105A10008091E800877F8093E8000E949C2F80910E
:105A2000F50280931F010C94E80D8091F3028132FE
:105A300021F58091E800877F8093E8000E949C2FE9
:105A40008091F6028093B50208958091F302813A25
:105A5000A1F48091E800877F8093E8008091E800BE
:105A600080FFFCCF8091B5028093F1008091E80027
:105A70008E778093E8000C949C2F08959FB7F8943C
:105A8000109293029FBF9091F202943009F057C098
:105A90009091E9009F703091EC00232F217030FD30
:105AA00020E8922B23E02093E9002091EB0020FFD7
:105AB00043C02091EE0027FF3FC020918E02222399
:105AC00021F02091E80025FF37C010928E0226E0D9
:105AD0003091E80035FD15C03091F202343061F5A7
