:100000000C9448030C948F030C948F030C948F036F
:100010000C948F030C948F030C948F030C948F0318
:100020000C948F030C948F030C94E8250C94BA263F
:100030000C943C200C948F030C948F030C948F032E
:100040000C948F030C948F030C948F030C948F03E8
:100050000C948F030C9489200C948F030C948F03C1
:100060000C948F030C948F030C948F030C948F03C8
:100070000C948F030C948F030C948F030C948F03B8
:100080000C948F030C948F030C948F030C948F03A8
:100090000C948F030C948F030C948F030C948F0398
:1000A0000C948F030C948F030C948F03B30EB60E35
:1000B000BE0EC30EC80ECD0ED20ED70EDC0EE10E54
:1000C000E60EEB0EED0EF00EF30EF60EF90EFC0E34
:1000D000FE0E030FAA15AA15DC15DC1529165D17EF
:1000E0005D175D174716DC16ED16ED164D175D17FB
:1000F0005D175617F917F9170B180B1802180B187C
:100100000B180B18F917F91707180B180B18071805
:100110003B2131213E2186218A218A2186218A2183
:100120008A215F218A21692173218A218A218A21DA
:100130008A2186218A218A2186218A214C218A21AD
:100140008A21832183218321832183218321832188
:100150008321832188218A213B212E218A218A2102
:100160008A218A218A218A218A218A218A218A2137
:1001700088218A218A2186218A2181218121812148
:1001800081218121812181218121812188212727AC
:100190004E2746284E2746289A27BD27462814284A
:1001A000232835001E001F0020002100220023000C
:1001B00024002500260027002D002E0031002B00F2
:1001C00014001A000800150017001C0018000C008D
:1001D000120013002F0030004C00294204001600CA
:1001E000070009000A000B000D000E000F0033008D
:1001F000340000002A00E10000001D001B00060082
:100200001900050011001000360037003800E50025
:1002100028000000E200E300000000002C000000C5
:100220000000000000000000E700E6000151A5000A
:100230003A003B003C003D003E003F0040004100D2
:10024000420043004400450049003900C35CC45CDF
:10025000C55CC05CC15C010001004600470048006D
:10026000520001004C000100AA00A900A800B00043
:100270000100550054004A004B0050004F000000A0
:100280000100010000000100010001000100010067
:10029000570056004D004E0051000100580000006C
:1002A000010001000000000001000000000000004B
:1002B000000000000100010001000000000000003B
:1002C000000000000000000000000000000000002E
:1002D000000000000000000000000000000000001E
:1002E000000000000000000000000000000000000E
:1002F00000000100000000000000000000005000AD
:10030000510052004F0000000000000000000000FB
:1003100000000000000000000000000000000000DD
:1003200000000000000000000000000000000000CD
:1003300000000000000000000000000000000000BD
:1003400000000000000032190A00047F3F1F6432E1
:1003500014643214783C1E1E140A05222325262814
:10036000292A2C2D2F3032333536383A3B3D3E404A
:1003700042434547494A4C4E5051535557595A5C90
:100380005E6062646668696B6D6F71737577797BA7
:100390007D7F81838587898A8C8E90929496989AA6
:1003A0009C9E9FA1A3A5A7A8AAACAEAFB1B3B4B6BB
:1003B000B8B9BBBCBEBFC1C2C3C5C6C7C9CACBCC16
:1003C000CDCED0D1D2D2D3D4D5D6D7D7D8D9D9DAE9
:1003D000DADBDBDBDCDCDCDCDCDDDDDDDDDCDCDC5E
:1003E000DCDCDBDBDBDADAD9D9D8D7D7D6D5D4D386
:1003F000D2D2D1D0CECDCCCBCAC9C7C6C5C3C2C15B
:10040000BFBEBCBBB9B8B6B4B3B1AFAEACAAA8A7B7
:10041000A5A3A19F9E9C9A98969492908E8C8A896F
:10042000878583817F7D7B79777573716F6D6B694C
:1004300068666462605E5C5A5957555351504E4C21
:100440004A4947454342403E3D3B3A3836353332D0
:10045000302F2D2C2A292826252322FFAA7F55401C
:100460000001010101010101010102020202020277
:10047000020202030303030303030304040404044A
:100480000404050505050506060606060707070711
:100490000708080808090909090A0A0A0B0B0B0CC6
:1004A0000C0C0D0D0D0E0E0E0F0F0F101011111163
:1004B00012121313141415151616171718181919E4
:1004C0001A1A1B1B1C1D1D1E1E1F20202122222349
:1004D0002424252626272829292A2B2C2D2D2E2F8A
:1004E00030313232333435363738393A3B3C3D3EA1
:1004F0003F404142434445464748494A4C4D4E4F90
:1005000050515354555658595A5B5D5E5F61626451
:10051000656668696B6C6D6F7072737577787A7BDE
:100520007D7E8082838587888A8C8E8F9193959635
:10053000989A9C9EA0A2A3A5A7A9ABADAFB1B3B555
:10054000B7BABCBEC0C2C4C6C9CBCDCFD1D4D6D831
:10055000DBDDDFE2E4E7E9EBEEF0F3F5F8FAFDFFCF
:10056000100354006F006B0079006F0036003000FC
:1005700000001E0354006F006B0079006F00200024
:100580004B006500790062006F006100720064003A
:1005900000000403090409023B00020100A0320923
:1005A00004000001030101000921110100012240A2
:1005B000000705810308000A090401000103000087
:1005C00000092111010001226D00070582032000AE
:1005D0000A12011001000000083654606001000199
:1005E00002000105010980A101850319012AB70054
:1005F000150126B700950175108100C0050C090191
:10060000A101850419012AA002150126A002950165
:1006100075108100C005010906A1018505050719AE
:10062000E029E715002501950875018102050719E4
:100630000029EF1500250195F075018102050819C3
:10064000012905950575019102950175039101C078
:1006500005010906A101050719E029E71500250193
:10066000950875018102950175088101050719003A
:1006700029FF150026FF0095067508810005081959
:10068000012905950575019102950175039101C038
:1006900011241FBECFEFDAE0DEBFCDBF04B603FEEC
:1006A00027C080911D0390911E03A0911F03B0915C
:1006B00020038730904BA740B04BD1F410921D031C
:1006C00010921E0310921F031092200314BE84B7D1
:1006D000877F84BF0FB6F894A895809160008861E9
:1006E00080936000109260000FBEE0E0F8E309958F
:1006F00011E0A0E0B1E0EEEEF3E502C005900D924E
:10070000A43CB107D9F723E0A4ECB1E001C01D92ED
:10071000AD31B207E1F70E9428230C94F5290C941F
:1007200000000C9475060C94730681E0089581E036
:1007300008950C94970308950C949B031F93CF93F3
:10074000DF9300D000D01F92CDB7DEB749835A8324
:100750006B8330911A0289819A81311114C066230A
:1007600059F0222349F00E94321D182F682F8981E9
:100770009A810E94DB1C03C00E94061D182F69810C
:100780007A81812F04C00E94321D69817A810F9085
:100790000F900F900F900F90DF91CF911F910C94BD
:1007A0006004FC01262F4081518162817381848124
:1007B0000C949E03CF93DF93EC0160E00E94D10381
:1007C000BE01DF91CF910C949C030E94D5200E9422
:1007D0006A1E811102C00E941A1F0E9486100C948A
:1007E00091030C94930308950E94E7170E94F3036A
:1007F0002FEF84E39CE0215080409040E1F700C05F
:1008000000000C94AF200F931F93CF93DF93EC0164
:1008100061E00E94D1038C01BE010E9499038823EC
:10082000A9F1BE01C8010E94E70F882379F1BE013A
:10083000C8010E943411882349F1BE01C8010E94F9
:100840008611882319F1BE01C8010E94B1128823C4
:10085000E9F0BE01C8010E949C0E8823B9F08A818C
:10086000882369F001158CE5180731F00F3D1C4510
:1008700031F40E941A1F0AC00E94F40307C0CE017F
:10088000DF91CF911F910F910C94950380E0DF9140
:10089000CF911F910F91089508950C944C0481E01D
:1008A00008950C944F04CF93C82F0E944D048C2FB1
:1008B0000E945104CF91089580E090E0089508953A
:1008C00026E4829FC0011124FC012EE0729FE00DFE
:1008D000F11D1124E60FF11DEE0FFF1FEE55FE4F27
:1008E000859194910895880F991FFC01EA5BFC4F54
:1008F000859194910895CF93DF930E9460040E94A4
:100900008D05EC018115904508F043C0C11580E4C8
:10091000D80708F0CBC0C03ED10528F5C03CD105B2
:1009200008F0B3C0C83AD10578F4C53AD10508F04B
:10093000A4C0C130D10509F4ECC008F4E8C0C4304B
:10094000D10508F0E6C0E3C0CF3BD10508F0DFC019
:10095000C85AD0E0CC0FDD1FCC5DDE4F0990D881A6
:10096000C02DD464D6C0C11590E2D90750F4C1158A
:1009700021E0D20708F0CDC0C83ED10508F4C9C0B7
:10098000C6C0C11580E3D80708F086C0CE019F70AD
:100990007FC0C11595E5D90708F043C0C11524E50E
:1009A000D20708F09AC0C11582E5D80708F5C1152D
:1009B00091E5D90708F07DC0CE0174E09695879542
:1009C0007A95E1F783709C2F937021E030E002C0AC
:1009D000220F331F9A95E2F73C68382BCF70C695EB
:1009E000C69580E2C89FE0011124C22BD32B91C091
:1009F0009E01237033278C2F86958695C115D3458C
:100A000008F05CC0C1E0D0E002C0CC0FDD1F2A9529
:100A1000E2F720E2829FC0011124C82BD92BDC68A9
:100A200078C0C11529E5D207A0F4C11588E5D8071B
:100A300008F058C0C11596E5D90708F068C08C2F9A
:100A40000E9421068F71C82FD0E0DC2FCC27D06206
:100A500060C0C1152AE5D20708F449C0CE019056FE
:100A60008115904208F053C08D2F8F710E9421068E
:100A7000DD27D0628F71D82B4CC0C55AD0E0CE5A3A
:100A8000DE4FC881D0E0D06444C0CE01805C9109C3
:100A90000E947304EC013DC0CE019927D3FF03C02F
:100AA000EC01D86C36C0EC01D06C33C0DF70D06A7A
:100AB00030C0DC2FCC27C16FD06A2BC0C1E0D0E0A2
:100AC00002C0CC0FDD1F2A95E2F720E2829FC00111
:100AD0001124C82BD92BDA681CC0DC2FCC27C46F9B
:100AE000D06A17C0DC2FCC27C06FD06A12C08C2F01
:100AF0008F700E94210694E0D695C7959A95E1F7EC
:100B0000CF70D0E0DC2FCC27D069C82B02C0C0E06A
:100B1000D0E0CE01DF91CF9108958238910569F13F
:100B2000B0F48133910509F46DC048F48932910520
:100B300009F463C08A32910509F469C008958533C8
:100B4000910509F455C089339105B9F00895833EA4
:100B5000910569F138F4803E9105B1F0823E91052E
:100B600009F10895863E9105A9F1873E9105B9F1F5
:100B7000843E910509F064C023C020910E0320FD3E
:100B80004FC021FD4DC0089580910E0380FD44C0EB
:100B900080910F0380FF44C080910E0384FD42C00A
:100BA00083EE4DC080910E0382FF38C0F5CF809157
:100BB0000E0382FD33C080910F0380FD31C0ECCF66
:100BC00080910F0381FF32C080910E0384FD2AC003
:100BD00087EE35C080910E0383FF26C0F5CF80914C
:100BE0000E0383FD21C080910F0381FD1FC0ECCF58
:100BF00080910E0385FD1CC01DC080910E0385FDF4
:100C000019C016C080910E0386FD16C017C08091D2
:100C10000E0386FD13C010C089E311C082EE0FC021
:100C200080EE0DC080E00BC086EE09C084EE07C0E8
:100C300089E205C085E303C08AE201C081E390E058
:100C4000089590910E0392FF0DC0282F287128302F
:100C500019F4877F846006C0282F2471243011F492
:100C60008B7F886093FF0DC0282F2871283119F4DD
:100C7000877E846106C0282F2471243111F48B7E75
:100C8000886120910F0320FF0DC0382F3871383054
:100C900019F4877F816006C0382F3171313011F42B
:100CA0008E7F886021FF0DC0282F2871283119F40C
:100CB000877E816106C0282F2171213111F48E7E3B
:100CC000886194FD877E0895E82FF0E0EE0FFF1F06
:100CD000E452FD4F808191810895089580EA8A95BC
:100CE000F1F7089508950C9472060C947206F89426
:100CF000E82FE295EF70F0E031A1282F2F7081E00E
:100D000090E001C0880F2A95EAF7982F90959323D9
:100D100091A392A1892B82A3789408950F931F9396
:100D2000CF93DF93C5E5D1E003E611E089910E94FE
:100D300077060C171D07D1F780E90E94770681E935
:100D40000E94770682E90E94770683E90E9477066F
:100D500085E90E947706E2EDF2E0ACEDB2E0119297
:100D600011921D921D9282E0EC3DF807C1F785E0DB
:100D70000E945907DF91CF911F910F910C94E503C9
:100D80004F925F927F928F929F92AF92BF92CF923B
:100D9000DF92EF92FF920F931F93CF93DF9395E52E
:100DA000E92E91E0F92E00E010E0C0E0CC24C394DD
:100DB000D12C3CEDA32E32E0B32E4701D7018C910C
:100DC000F894E82FE295EF70F0E021A18F70A60172
:100DD00002C0440F551F8A95E2F7CA01922F982B43
:100DE00091A392A18095892382A378940E946E0694
:100DF000A601002E02C0440F551F0A94E2F7BA0163
:100E000060957095E2EDF2E083E6482E81E0582E81
:100E1000D0E020813181D2017D902D01872D8295F6
:100E20008F7090E0DC0190968C9190E0B72DBF70B0
:100E300002C095958795BA95E2F780FD04C0C90177
:100E4000842B952B03C0C9018623972328173907C4
:100E500019F091838083D1E03296AE16BF06C9F6B1
:100E6000EFEFEE1AFE0AD4018C910E947706CD2B8B
:100E70000F5F1F4F0E30110509F09FCF2C2F45E05B
:100E80006CED72E082ED92E00E945A070E94F1033D
:100E90008C2FDF91CF911F910F91FF90EF90DF90FA
:100EA000CF90BF90AF909F908F907F905F904F902A
:100EB00008950895FF920F931F93CF93DF93F82E19
:100EC000092F162FD72FC42F222349F081E08093BA
:100ED000C6010E946E209093C5018093C401809149
:100EE000C6018823D9F08091C4019091C5010E9468
:100EF0007A20069798F0EF2DF02FA12FBD2F80E0DC
:100F000090E04C2F50E08417950734F421913191F3
:100F10002D933D930196F7CF1092C601DF91CF91AB
:100F20001F910F91FF900895EF92FF920F931F93DF
:100F3000CF93DF938B01682F11110AC0442329F04E
:100F4000E82FF0E0E05AFB4F6491762F862F75C0B2
:100F5000212F30E0E82FF0E0442321F0E05AFB4F4E
:100F6000E491F0E046E0049FC0011124CFEFD0E00F
:100F7000BE010E94A4284BEA4603C001479F900D82
:100F80001124800F911D800F911D982F990F890FAB
:100F9000AE01421B530B4E9FD0014F9FB00D5E9F81
:100FA000B00D11249B2F189FA0011124452F552708
:100FB0008E01041B150B0E9FA0010F9F500D1E9F4D
:100FC000500D11247E01E81AF108E29E8001E39E93
:100FD000100DF29E100D1124212F3327C21BD30BAD
:100FE000CE9F9001CF9F300DDE9F300D11246230D7
:100FF0007105A9F048F46115710569F0613071055A
:10100000C9F48B2F752F0DC06430710581F058F035
:101010006630710579F47E2F8B2F932F0DC0832FAF
:101020007B2F9E2F09C08E2F7B2F952F05C08E2FD3
:10103000732F02C07E2F852F692FDF91CF911F91D3
:101040000F91FF90EF90089541E00E94940708955A
:1010500008950E9424080895CF93DF93762FE90125
:10106000682F842F0E942908798368838A83DF91FF
:10107000CF9108958091E602282F269530E0211522
:10108000310519F48170826005C02B32310524F0DE
:10109000817084658093E602089588E090E00C9466
:1010A0009629CF92DF92EF92FF926B017C010E9412
:1010B0003A08B701A60188E090E0FF90EF90DF903A
:1010C000CF900C94B429E6EEF2E083E080831182A5
:1010D0008FEF828383831482608171818281938107
:1010E0000C9451088091E60280FF02C08695089515
:1010F00080E008959091EA02933018F49F5F9093F6
:10110000EA02882351F06091E6027091E702809133
:10111000E8029091E9020C945108089581E00C9442
:101120007A089091EA02992319F091509093EA027B
:10113000882351F06091E6027091E7028091E80205
:101140009091E9020C945108089581E00C94910863
:1011500070E00C949610609108018091E60280FF87
:101160000AC08091070123E0829FC00111248551AC
:101170009D4F0C94A8088091090190910A0189174C
:1011800080F7E82FF0E09F01220F331FE20FF31FDB
:10119000E551FD4F1182108212828F5FF0CF909146
:1011A000E60290FF16C09091090120910A01921762
:1011B00070F4E92FF0E0DF01AA0FBB1FEA0FFB1F5D
:1011C000E551FD4F8183608342839F5FF0CF0C9494
:1011D000AB080895CF93DF9300D01F92CDB7DEB751
:1011E0009091E60290FF0AC09E012F5F3F4F0E9440
:1011F0002C084B8169818A810E94CF080F900F9043
:101200000F90DF91CF910895CF93DF93EC01EC81A4
:10121000F0E0E55AFC4F4491E6EEF2E06281818114
:101220000E94EA088C818F5F8C83DF91CF910895B3
:10123000CF93DF93EC01E6EEF2E0438162818C8193
:101240000E94EA088C818F5F8C83DF91CF91089593
:101250000F931F93CF93DF9300D01F92CDB7DEB7CC
:101260008C018091C70181110AC09E012F5F3F4F01
:101270004FEF6FEF0E942C088A818093C701F8011D
:101280008481813051F028F0823061F44091C701AF
:101290000AC08091C70140E007C06091C70140E0EB
:1012A00080E003C040E080E060E00E94CF08F801E9
:1012B000848190E0019663E070E00E94B828848306
:1012C0000F900F900F90DF91CF911F910F91089584
:1012D000AF92BF92CF92DF92EF92FF920F931F9344
:1012E000CF93DF9300D01F92CDB7DEB7182FF62E25
:1012F000042FE22E9091E60290FF6DC0E92FE69553
:10130000AE2FB0E0A859BE4F8C91809303029E7F10
:10131000923061F49E012F5F3F4F812F0E942C0875
:101320004B8169818A810E94CF0843C0823019F4C1
:101330000091E9023EC0863019F41091E70239C0ED
:101340008930D9F38931A9F5E9518E2F8170D82ED2
:10135000E695F0E0E55AFB4FA590B490C12CBB2474
:1013600060910B01C61618F52C2D30E0A29EC0012D
:10137000A39E900DB29E900D112470E00E94A428AF
:10138000812FD11002C0860F01C0861B90910901E8
:10139000290F311DA901440F551F240F351F255159
:1013A0003D4F402F6F2D0E942C08C394D9CF0E942F
:1013B000AB081093E702F092E8020093E902EE20F6
:1013C00051F06091E6027091E7028091E8029091FD
:1013D000E9020E9451080F900F900F90DF91CF917A
:1013E0001F910F91FF90EF90DF90CF90BF90AF9043
:1013F0000895E6EEF2E09181282F438162818CE02E
:10140000890F0C94680981E00C94F909E6EEF2E08A
:101410009181282F4381628184EF890F0C946809A0
:1014200081E00C94060AE6EEF2E062812CE0620FA5
:1014300008F46FEF282F438181810C94680981E0C3
:101440000C94130AE6EEF2E062812CE0621B08F4D1
:1014500060E0282F438181810C94680981E00C941D
:10146000220AE6EEF2E043812CE0420F08F44FEF4F
:10147000282F628181810C94680981E00C94310AE3
:10148000E6EEF2E043812CE0421B08F440E0282F16
:10149000628181810C94680981E00C94400A20E00B
:1014A0000C946809FF920F931F93CF93DF93EC0185
:1014B000F12C0FEF10E060910B01F616F0F4809123
:1014C00009012F2D30E0280F311DC901880F991F08
:1014D000280F391F25513D4F70E0C8010E94B828E0
:1014E000962F8C814091E9026091E802F99E800D6F
:1014F00011240E942C08F394DECF0E94AB089A813D
:101500008C8190FF02C08F5F01C081508C83DF917E
:10151000CF911F910F91FF900895AF92BF92CF92FC
:10152000DF92EF92FF920F931F93CF93DF93FC0113
:10153000828180FF02C00FEF01C001E010E04AE0AD
:10154000A42E80910B01181708F043C08091090167
:10155000C12ED12CE601C80FD11DCE01880F991FD5
:10156000C80FD91FC551DD4F198218821A8234E085
:10157000E32EF12CB12C8091C9018B0D8B302CF016
:101580006A2D0E949628892F05C087FF03C090917D
:101590000B01890F082E000C990BC816D90691F47F
:1015A0008091E9028E9DA0018F9D500D11245595CB
:1015B0004795559547959E016091E8028091E70215
:1015C0000E942C08B00EF1E0EF1AF108A1F61F5F9F
:1015D000B8CF0E94AB088091C901013031F481116C
:1015E00002C080910B01815007C090E0019660918C
:1015F0000B0170E00E94B8288093C901DF91CF9160
:101600001F910F91FF90EF90DF90CF90BF90AF9020
:101610000895CF938091090190910A01891770F480
:10162000E82FF0E09F01220F331FE20FF31FE55177
:10163000FD4F1182108212828F5FF0CFC0E0609167
:101640000B01C617C0F5EC2FF0E070E0CF010E944F
:10165000B82820910901820F2091C801022E000CA8
:10166000330B90E0E217F307CCF020910601022E35
:10167000000C330B2E173F078CF09C01220F331FF9
:10168000820F931F9C0125513D4F4091E9026091CB
:10169000E8028091E7020E942C080BC0FC01EE0FCB
:1016A000FF1F8E0F9F1FFC01E551FD4F118210821D
:1016B0001282CF5FC4CF0E94AB08209105018091B8
:1016C000C801820F8093C80190910601920F9093F8
:1016D000060119165CF4082E000C990B40910B01C1
:1016E00050E041505109841795071CF02195209333
:1016F0000501CF9108958F929F92AF92BF92CF92A2
:10170000DF92EF92FF920F931F93CF93DF938C01A1
:10171000FC014481C42FD0E09E01DE010E94FC2820
:101720009B01AC010E9412296B017C01E0E2F0E018
:10173000EC1BFD0BA5E5B0E09B01AC010E9412295A
:101740004B015C019F01DF010E94F4289B01AC0169
:101750000E941D299B01AC012C0D3D1D4E1D5F1DDE
:10176000C501B4010E94CC28C22FD22F2A3228F4FE
:10177000F3E02F9F900111240DC025E530E02C1BD4
:101780003109C901880F991F280F391F37FF02C07F
:101790002F5F3F4F35952795C22FC095F12C85E5DA
:1017A000E82EED1A80910B01F816C8F4F1FC02C086
:1017B0008E2D01C08D2F909109012F2D30E0290F22
:1017C000311DA901440F551F240F351F25513D4FD1
:1017D0004C2F6091E8020E942C08F394E3CF0E9402
:1017E000AB08F8018481811102C091E003C080320E
:1017F00019F49FEF9093040190910401890FF8016F
:101800008483DF91CF911F910F91FF90EF90DF9034
:10181000CF90BF90AF909F908F9008950F931F939C
:10182000CF93DF93EC0100E010E080910B01282FB3
:1018300030E00217130724F5909109019801290F50
:10184000311DA901440F551F240F351F25513D4F50
:10185000869590E04C81081719071CF4442331F059
:1018600002C0411103C04091E90201C040E0609113
:10187000E8028091E7020E942C080F5F1F4FD5CF2E
:101880000E94AB088C8190E00196817099278C832F
:10189000DF91CF911F910F9108958F929F92AF92F8
:1018A000BF92CF92DF92EF92FF920F931F93CF934D
:1018B000DF93FC01B280948081E0848300E015E036
:1018C0005BE4A52E88248394EE24EA94F12C7BE437
:1018D000C72ED12C80910B01081708F08FC0C02FA4
:1018E000D0E01C9FF0011D9FF00D1124E653FE4F28
:1018F000911003C01382128267C02381222389F1D1
:10190000215023833481332319F09A2D921B01C077
:10191000922F8091E9021C9FF0011D9FF00D112470
:10192000E653FE4F899FC0011124B6010E94A428EE
:101930006283211104C0332311F01482A38222E0B8
:101940002B1508F441C01C9FF0011D9FF00D1124C0
:10195000E653FE4F8091E70280838091E802818305
:1019600033C00E9471298230914074F582E08B155A
:1019700030F40E947129B7010E94B82802C08091FA
:10198000E7021C9FF0011D9FF00D1124E653FE4F4E
:10199000808322E02B1558F40E9471292091E802DF
:1019A0002695622F70E00E94B828820F02C08091B5
:1019B000E8021C9FF0011D9FF00D1124E653FE4F1D
:1019C00081831282A3828482809109019E01280F63
:1019D000311DC901880F991F280F391F25513D4F0F
:1019E0001C9FF0011D9FF00D1124E653FE4F428114
:1019F000618180810E942C080F5F6CCFDF91CF91B5
:101A00001F910F91FF90EF90DF90CF90BF90AF901C
:101A10009F908F900C94AB08E6EEF2E080818E7F71
:101A2000808360817181828193810E94510810922C
:101A300004022FEF80E792E0215080409040E1F7D0
:101A400000C000000C94AB086091E602669570E05F
:101A50004BE050E08CE091E00E948129892B19F441
:101A600081E0809304020E946E209093FD01809398
:101A7000FC0108959091E60290FF35C091708111AC
:101A800002C0926006C08B3210F0946502C0880FCD
:101A9000982B9093E602662351F06091E6027091D4
:101AA000E7028091E8029091E9020E94510860915A
:101AB000E602669570E04BE050E08CE091E00E9419
:101AC0008129892B19F01092040202C00E94240D72
:101AD00081E08093FF014091E9026091E8028091EA
:101AE000E7020C944F0A0895682F9091E6029695AC
:101AF00081E0890F8B3208F081E00C943A0D81E08F
:101B00000C94740D682F9091E60296958FEF890FD3
:101B100009F48AE20C943A0D81E00C94820D61E0A4
:101B20000C943A0DE6EEF2E0808181608083869528
:101B30000C948F0D8091E60280FD0C940C0D0C949A
:101B4000920D60E00C943A0D8091020281112EC03A
:101B50000E946A1E811104C00E941A1F0E9463081D
:101B60000E944D086093E6027093E7028093E802BA
:101B70009093E9026E7F61F40E9463080E944D0811
:101B80006093E6027093E7028093E8029093E90283
:101B90000E943A08109204028091E60280FF03C07E
:101BA00086950E94A10D81E08093020208950F9313
:101BB0001F93CF93DF9380910402882309F49CC084
:101BC00080910302E091E602E695E81BE093FE01B6
:101BD000823049F4F0E0E95AFC4FE491CE2FD0E096
:101BE00004E019E059C0863049F4F0E0EC5AFC4FAB
:101BF000E491CE2FD0E008E119E04EC0893051F4D5
:101C0000E695F0E0EF5AFC4FE491CE2FD0E002E5EC
:101C10001AE042C08F3051F4E695F0E0E25BFC4FF1
:101C2000E491CE2FD0E00DE81AE036C0853149F4BA
:101C3000F0E0E55BFC4FE491CE2FD0E009E01BE043
:101C40002BC08831D9F0833239F4E9E4F3E0C5914F
:101C5000D49108E219E020C08432A9F08532C1F4A1
:101C60008E2F63E00E948A28E92FF0E0EA5BFC4FA8
:101C7000E491CE2FD0E00DE41CE00EC0C8E2D0E02D
:101C80000BE71BE009C0C4EFD1E00EE01CE004C08C
:101C9000C0EDD7E008E218E08091FF01882389F0C9
:101CA0001092FF010E946E209E0120953095820FB8
:101CB000931F9093FD018093FC01109201021092FA
:101CC00000028091FC019091FD010E947A208C1706
:101CD0009D0790F0E091FC01F091FD01CE0FDF1F18
:101CE000D093FD01C093FC018CEF91E0F801DF91EE
:101CF000CF911F910F910994DF91CF911F910F9177
:101D00000895882311F0FA0101C0FB010994CF93D3
:101D1000DF93C82FD62F0E9472088C1740F00E94C4
:101D200072088D1720F4DF91CF910C947F0D8C2FCA
:101D3000DF91CF910C948F0D0F931F93CF93FB01E5
:101D4000C281CC2309F463C08C010E94B31D82724E
:101D5000F801E35CFC45E431F10508F059C0EA5AAA
:101D6000FF4F0C94EE280E949A0D06C04CE85DE0EF
:101D70006FE77DE00E94810EC0E04AC04FE75DE062
:101D80006CE87DE0F7CF40E15AE063E07AE0F2CF23
:101D900043E05AE060E17AE0EDCF4EE25AE06FE1D5
:101DA0007AE0E8CF4FE15AE06EE27AE0E3CF4CE42C
:101DB0005AE06DE37AE0DECF4DE35AE06CE47AE07E
:101DC000D9CF45EA58E06EE878E0D4CF4EE858E045
:101DD00065EA78E0CFCF81E017C065E082E010C00F
:101DE00068E086E00DC06EE089E00AC064E18FE043
:101DF00007C067E185E104C088E106C062E289E1CD
:101E00000E94870EB9CF83E20E948F0DB5CFC1E04B
:101E10008C2FCF911F910F9108950E946A1E8111FE
:101E200002C00E941A1F0E949B1E80930903282F44
:101E300026952695269530E02730310524F08770C9
:101E40008063809309038091090380FF04C0869515
:101E50008695869501C080E00C941C1020910903A2
:101E6000822F869586958695482F50E046305105FD
:101E700054F48F5F982F990F990F990F822F8770C5
:101E8000892B809309038091090381608093090362
:101E90000E949F1E809109038695869586950C94D5
:101EA0001C1080910903982F969596959695A1F010
:101EB000915E990F990F990F8770892B8093090371
:101EC000887F91E009F490E08091090390FB80F90C
:101ED000809309030E949F1E809109038695869531
:101EE00086950C941C108091090380FD13C08160BD
:101EF00080930903813019F489E08093090380916C
:101F000009030E949F1E80910903869586958695F8
:101F10000C941C1008958091090380FF08C08E7FE7
:101F2000809309030E949F1E80E00C941C1008956A
:101F30008091090380FD0C948B0F0C94730F90918A
:101F40000903892F8695869586958F5F8F71977087
:101F5000873038F4880F880F880F892B8093090306
:101F600002C09093090380910903887F91E009F4EE
:101F700090E08091090390FB80F9809309030E940F
:101F80009F1E809109038695869586950C941C105A
:101F9000873008F086E0909109039770282F220F70
:101FA000220F220F922B90930903987F21E009F4CE
:101FB00020E09091090320FB90F9909309030C9481
:101FC0001C100E94C80F809109030C949F1E9C0155
:101FD000FB018281882349F12E3BFCE53F07C9F0D4
:101FE00040F42C3BECE53E0769F02D3B3C4561F0AD
:101FF0000895203C9CE5390791F070F0213C3C4568
:1020000089F0089586E001C080E00E94E10F80E041
:1020100008950E94510FFBCF0E942E0FF8CF0E940F
:10202000980FF5CF0E949F0FF2CF81E00895279A75
:102030002F9808952F980895CF92DF92EF92FF92F4
:10204000CF93C82F873050F4811109C08091800050
:10205000877F809380000E941A1006C0C6E080919E
:1020600080008860809380002C2F30E0AFEFBFEFBE
:102070000E94FC2826E030E040E050E00E94CC289E
:10208000B42FA32F922F8827492F5A2F6B2F7727F2
:10209000CA014C3724E1520728F469E070E00E943D
:1020A000A42829C0DB01CA018A50974DAF4FBF4F0A
:1020B0006627782F892F9A2F25EF38E241E050E0EC
:1020C0000E94CC2869017A01CA01B9010E947A28CC
:1020D0009B01AC01C701B6010E947A28BB27A92F3A
:1020E000982F872F009721E0A207B10511F0BC01BE
:1020F00002C06FEF7FEF70938D0060938C00CF91E3
:10210000FF90EF90DF90CF90089508950E941710F0
:102110008AE08093800089E1809381008FEF9FEFB8
:1021200090938700809386000C940D0F879A21B3BB
:102130002F7731B330684FB7F894FC01CB01880F8B
:10214000991F680F791F6E0F7F1FE617F70789F039
:10215000819198E031BB000000C087FF21BB880F50
:10216000000000C000C000C021BB00C09A9591F7DC
:10217000ECCF4FBF8FE594E00197F1F700C000006E
:1021800008950F931F93CF93DF93C42FD22FFC0199
:1021900082818823C9F0409307020E946E209093A9
:1021A00006028093050280E28C0F883008F057C049
:1021B000C77081E001C0880FCA95EAF7DF91CF911F
:1021C0001F910F910C94661580910702481330C03F
:1021D00080910502909106020E947A20883C910528
:1021E00038F510E21D0FCD17B9F080E28C0F883062
:1021F00040F4C77081E001C0880FCA95EAF70E94D9
:102200006D15183028F581E09D2F977001C0880F5B
:102210009A95EAF70E946615802F0E945315183090
:10222000F0F4D77081E001C0880FDA95EAF70AC0B0
:1022300080E28C0F883098F4C77081E001C0880F6D
:10224000CA95EAF7DF91CF911F910F910C946D150C
:10225000802FDF91CF911F910F910C945315DF9137
:10226000CF911F910F9108950F939C01CB01243FB3
:102270004CE5340731F188F4293DFCE53F07D9F0FE
:102280002A3D4CE5340779F1283D3C45A9F506E2A5
:1022900021EE41EE68ED7CE52BC0263FFCE53F07D3
:1022A000E1F0A8F0273F3C4539F507E225EE46EE80
:1022B00067EF7CE51DC007E225EE45EE69ED7CE5A4
:1022C00017C006E221EE40EE64EF7CE511C007E2A4
:1022D00025EE44EE65EF7CE50BC006E221EE42EE12
:1022E00066EF7CE505C008E221E045EE6AED7CE59D
:1022F0000E94C11080E008C0FC018281882319F08F
:102300001092070201C081E00F910895CF93DF93EF
:10231000EC01FB018281882309F41FC1C230FCE576
:10232000DF0708F41BC1C6319CE5D90738F09E01D0
:102330002B5F3C452930310508F010C10E947D1EFD
:1023400090930F0380930E03C031ECE5DE0709F490
:10235000C3C008F041C0C8308CE5D80709F49AC062
:10236000F0F4C430ECE5DE0709F487C068F4C2304D
:102370008CE5D80709F477C0C330DC4509F0E3C029
:1023800080910E03826076C0C630ECE5DE0709F46A
:102390006EC008F07BC080910E0388606BC0CC30AB
:1023A0008CE5D80709F485C068F4CA30ECE5DE078F
:1023B00009F474C008F079C00E94E71780910E03F9
:1023C000806858C0CE308CE5D80709F476C008F094
:1023D0007FC080910E038BC0CC3FECE5DE0709F493
:1023E0004FC018F5C3318CE5D80709F47DC078F4E7
:1023F000C131ECE5DE0709F473C0C231DC4509F0F8
:10240000A2C00E94E71780910E038F7733C0C531B9
:102410008CE5D80709F472C008F486C0CB3FDC45D0
:1024200009F091C080910F033EC0C115FDE5DF07A3
:1024300009F45FC058F4CE3F9CE5D90709F444C0C5
:1024400008F43FC080910F0382602DC0C230FDE5CB
:10245000DF0709F475C008F45DC0C330DD4509F03D
:1024600072C080E06EC080910E03816003C08091D5
:102470000E03806180930E0366C080910E0311C02D
:1024800080910F03826080930F035DC080910E03E3
:102490008062F0CF80910E038064ECCF80910E03B8
:1024A00088608460E7CF8160EECF80910E038E7FDD
:1024B000E1CF80910E038D7FDDCF80910E03877F6A
:1024C000D9CF80910F0318C080910F038D7FDBCF90
:1024D00080910E038F7ECECF80910E038F7DCACF69
:1024E00080910E038F7BC6CF80910E03877F8B7FF9
:1024F000C1CF80910F038D7F8E7FC5CF80910E035A
:1025000082FB222720F991E0922790FB82F990FB31
:1025100083F9B0CF80910F03982F909591708E7FA3
:10252000892B90FB81F9AFCF0E94E71780910E03B2
:1025300087FB222720F991E0922790FB87F99ACF19
:1025400081E00E941C1F80910E0390910F030E9456
:102550008E1E0E94E71780E001C081E0DF91CF91DD
:102560000895CF93DF9386319C4541F5EB010E949E
:10257000B31D982F8A81209117013091180188236B
:1025800079F09A7A81E009F480E080930802911151
:1025900002C069E201C065E3C9010E94B71F0AC019
:1025A00080910802811102C069E201C065E3C9019E
:1025B0000E94C21F0E94011E80E001C081E0DF91E5
:1025C000CF91089590930E0280930D020895E091AB
:1025D0000D02F0910E02309721F00190F081E02D74
:1025E000099480E00895E0910D02F0910E02309779
:1025F00099F020912301222359F020910E0327FF07
:1026000007C0DC012C9111962C93119725E02C9397
:102610000280F381E02D0994089520910B023091FE
:102620000C022817390771F090930C0280930B026B
:10263000E0910D02F0910E02309721F00680F781B3
:10264000E02D099408952091090230910A0228177B
:10265000390771F090930A0280930902E0910D020C
:10266000F0910E02309721F00084F185E02D09945D
:10267000089585B7806885BF85B7806885BF089550
:1026800081E008950C94401308950C9444130C9425
:1026900044130C9447130C9444130C944B130C9454
:1026A00044130E9439130E944F130C944D130E943F
:1026B00065200E948E060E94E9200E940D0F0E9454
:1026C000A40D0C9449137F928F929F92AF92BF9268
:1026D000CF92DF92EF92FF920F931F93CF93DF93EE
:1026E000CDB7DEB72A970FB6F894DEBF0FBECDBFC9
:1026F0000E9445130E9444130E94C0060E94421388
:10270000811111C08FEF89838A831B820E946E2002
:102710008160782F9D838C8349815A816B818D8163
:102720000E9419144FC040E1A42E42E0B42E00E0F4
:1027300010E0702E802F0E9464066C01F5018190DC
:1027400091905F01882699268114910431F40F5FDE
:102750001F4F0530110569F7D5CF8091AD0281FD7E
:102760000E946D0680E0EE24E394F12C94012E216A
:102770003F21232B09F18E837F82CE20DF2081E051
:10278000CD2809F480E088870E946E208160782F30
:102790009A8789874E815F8168858A850E9419148E
:1027A000000F111FF801E05FFD4F80819181E82645
:1027B000F926F182E08206C08F5FEE0CFF1C8E309E
:1027C000A9F6C5CF0E94D70D0E9485100E94E7127E
:1027D00090910F028917C9F00E94E71280930F02AF
:1027E0002A960FB6F894DEBF0FBECDBFDF91CF9112
:1027F0001F910F91FF90EF90DF90CF90BF90AF901F
:102800009F908F907F900C9453042A960FB6F89463
:10281000DEBF0FBECDBFDF91CF911F910F91FF9013
:10282000EF90DF90CF90BF90AF909F908F907F9070
:102830000895CF93DF93CDB7DEB72B970FB6F894FB
:10284000DEBF0FBECDBF4F83588769877A878B87DE
:10285000DE01119686E0FD0111928A95E9F785E087
:10286000FE01379601900D928A95E1F749815A81D0
:102870006B817C818D819E810E94A01A2B960FB660
:10288000F894DEBF0FBECDBFDF91CF910895FC015C
:10289000808191810E94741D0895CF93882309F44B
:1028A000A1C0C82F8238C1F40E94E71281FD9AC0EE
:1028B00069E380911701909118010E94B71F0E944F
:1028C000011E2FEF81EE94E0215080409040E1F70F
:1028D00000C0000069E319C0833801F50E94E712C7
:1028E00080FD80C063E580911701909118010E94DE
:1028F000B71F0E94011E2FEF81EE94E0215080400F
:102900009040E1F700C0000063E5809117019091CD
:1029100018010E94C21FCF910C94011E8438C1F48B
:102920000E94E71282FD5EC067E4809117019091DA
:1029300018010E94B71F0E94011E2FEF81EE94E044
:10294000215080409040E1F700C0000067E4DDCFF7
:102950008CEF8C0F813AF8F48C2F0E94902181111A
:1029600041C06C2F80911701909118010E94371F70
:10297000882349F06C2F80911701909118010E94D3
:10298000C21F0E94011E6C2F8091170190911801A7
:102990000E94B71FC0CF80E28C0F883048F4C77008
:1029A00081E001C0880FCA95EAF70E94B61DB3CF37
:1029B000EBE5EC0FE33040F4F0E0EF53FE4F8081A5
:1029C00090E0CF910C940D13C85AC73158F4EC2FF6
:1029D000F0E0EE0FFF1FED56FE4F80819181CF9109
:1029E0000C942313CF910895882309F45BC0682FBA
:1029F000823879F40E94E71281FF54C069E3809124
:102A00001701909118010E94B71F0E94011E69E3EF
:102A100010C08338B1F40E94E71280FF43C063E521
:102A200080911701909118010E94B71F0E94011E0A
:102A300063E580911701909118010E94C21F0C94C8
:102A4000011E843879F40E94E71282FF2BC067E4EC
:102A500080911701909118010E94B71F0E94011EDA
:102A600067E4E7CF8CEF860F813A18F380E2860F98
:102A7000883048F4677081E001C0880F6A95EAF7F2
:102A80000E94BC1DDCCF8BE5860F833020F480E0F4
:102A900090E00C940D13685A673120F480E090E0C8
:102AA0000C9423130895CF93C82F0E944D14C9335B
:102AB00049F42FEF87EE93E0215080409040E1F7FA
:102AC00000C000008C2FCF910C94F414882321F0C7
:102AD0000E94B61D0C94011E0895882321F00E94C7
:102AE000BC1D0C94011E0895CF92DF92EF92FF92CD
:102AF0000F931F93CF93DF937C01062FC72FFC0109
:102B0000158112951F70D281D1110E94D31D0E9490
:102B1000AC1D882399F0DD2389F08C2F807F8034D1
:102B200021F080E2800F883048F082E00E944B1E46
:102B30000E94AC1D91E0D82ED92601C0D12CCC2EFC
:102B4000C2948FE0C8228C2D90E0FC01E659FF4F23
:102B50000C94EE288C2F807FCF70882311F0C295C3
:102B6000C07FDD2399F0CC2309F482C180E2800F7D
:102B7000883010F0011104C08C2F0E94B61D03C0D4
:102B80008C2F0E94C61D0E94011E72C1802F0E94C0
:102B9000F414CC2309F491C180E2800F883010F046
:102BA000011104C08C2F0E94BC1D03C08C2F0E94F9
:102BB000CC1D0E94011E81C18C2F807FCF7080327E
:102BC00011F0C295C07F002319F00130C9F022C076
:102BD000DD2371F0112341F0113031F40E94E61D24
:102BE0008C2B0E94EE1D69C10E94E61D8C2B1DC01E
:102BF000112319F0113009F460C10E94F71D25C09E
:102C0000DD2321F0163008F058C10EC0153008F051
:102C100054C11BC0DD2361F0112331F0F701858120
:102C200080FF26C18F7085838C2F0E94661545C159
:102C3000112359F0093309F02CC1FFEF27EE83E08F
:102C4000F15020408040E1F722C18C2F0E946D1589
:102C500034C18C2F86958695837019F0813061F090
:102C60002CC1DD2321F0802F9C2F937002C080E0C7
:102C700090E00E940D1329C1DD2321F0802F9C2FAD
:102C8000937002C080E090E00E9423131EC18C2F3D
:102C9000837009F045C0D11114C1402F429546956B
:102CA0004770440F440F602F6F70862F90E0A0E0B4
:102CB000B0E0042E04C0880F991FAA1FBB1F0A94FE
:102CC000D2F704FF10C00FE010E020E030E004C0B5
:102CD000000F111F221F331F4A95D2F70095109540
:102CE0002095309503C000E010E09801C695C69588
:102CF000C370BC01CD01602B712B822B932BC23092
:102D000049F058F4C13019F00E94F11BDAC00E945A
:102D1000DF1BD7C00E94031CD4C00E94DD1BD1C0A2
:102D2000DD2319F08C2F817001C08695882309F46A
:102D3000C8C0402F429546954770440F440F602FFE
:102D40006F70862F90E0A0E0B0E0042E04C0880FE2
:102D5000991FAA1FBB1F0A94D2F704FF10C00FE0EF
:102D600010E020E030E004C0000F111F221F331FCD
:102D70004A95D2F7009510952095309503C000E054
:102D800010E09801C695C695C370BC01CD01602BBB
:102D9000712B822B932BC23049F058F4C13019F0BB
:102DA0000E94B61C8EC00E94A41C8BC00E94C81C2E
:102DB00088C00E94171C85C0CF70DD2339F08C2F8E
:102DC0000E943D1C802F0E9466157BC0802F0E94B0
:102DD0006D158C2F0E945E1C74C0023F01F128F417
:102DE000003F41F0013FA1F03FC0033FF9F0043F35
:102DF00039F13AC0DD2341F0153008F05EC08C2F68
:102E00008F710E94831C59C0163008F056C0F7CF4E
:102E1000DD2339F08C2F8F710E943D1C4EC0DD23C5
:102E2000C9F38C2F8F710E945E1C47C0DD2329F0EF
:102E30008C2F8F710E94281C40C00E94231C3DC013
:102E4000DD2349F0CF718C2F0E943D1C63E08C2F55
:102E50000E94361E32C081E00E944B1E123068F183
:102E600082E00E944B1E29C0DD2331F0112391F234
:102E7000802F0E944D1421C0112399F2093349F487
:102E80009FEFE7EEF3E09150E040F040E1F700C043
:102E90000000802F0E94F41410C04C2F4F70602F40
:102EA000C7010E945C040E944E1B0FC04C2F4F7044
:102EB000602FC7010E945F0408C088EF8C0D84302A
:102EC00020F40E94E7120E945304DD20C9F00E9402
:102ED000A81D80FD15C0F70112820E94A21D0E944C
:102EE0003D1CC7010E94A1170E94A21DDF91CF9136
:102EF0001F910F91FF90EF90DF90CF900C945E1C8C
:102F0000DF91CF911F910F91FF90EF90DF90CF90C5
:102F100008950F931F93CF93DF93EC01688179811C
:102F20008A810E947F1D8C010E94DA1C0E94CB1BAB
:102F3000B801CE010E947415DF91CF911F910F91BE
:102F40000895CF93DF93EC01988189812B813C8197
:102F5000232B31F08F3F31F481E09F3F19F403C000
:102F600081E001C080E080FD19C0CE010E94030411
:102F700081110CC00E94AC1D882381F08A818823B6
:102F800069F082E0DF91CF910C944B1ECE010E943C
:102F90008917CE01DF91CF910C94DA03DF91CF91A5
:102FA00008950E94D31D0E94E31D0E94011E80E02F
:102FB00090E00E940D1380E090E00C942313809128
:102FC0001701909118010E94CD1F0C94D1170E94F7
:102FD000C31D0C94DF17E92FE295EF704E2F50E0E0
:102FE000FA013297EE30F105B0F4E658FF4F0C9439
:102FF000EE28803F91F018F4883E68F40EC0843FBC
:1030000051F40BC0883E48F0813F29F406C093FB81
:10301000882780F9089580E0089581E008950E944E
:10302000741D0E94EB170895CF93DF9300D000D05A
:103030001F92CDB7DEB70F900F900F900F900F90AB
:10304000DF91CF910895CF93DF9300D000D000D0CF
:10305000CDB7DEB726960FB6F894DEBF0FBECDBF54
:10306000DF91CF9108951F93CF93DF93C0911B02FF
:1030700016E080911C02C81799F0D0E01C9FF00167
:103080001D9FF00D1124E35EFD4F4081518162814F
:103090007381848195810E9423182196C770E9CF9E
:1030A000DF91CF911F91089540914D0250914E02B2
:1030B00060914F02709150028091510290915202A2
:1030C0000C9423180F931F93CF93DF938091520298
:1030D00082958F7009F05DC080914F02882309F4BA
:1030E00058C080911B0210911C0260914D0270919A
:1030F0004E02C0915002D091510291E06F3F09F011
:1031000090E0292F06E0811709F443C0209721F0B1
:103110007F3F21F030E003C031E001C0322F90E06A
:1031200030FD34C0089FF001099FF00D1124DF012C
:10313000A35EBD4F11963C911197371327C03C9168
:10314000361324C012963C91129731111FC013966A
:103150004D915C9114974C1B5D0B483C5105B0F4AC
:10316000809152028F70806180935202EE5DFD4F1C
:1031700080818F70806180838DE492E00E94A1172E
:10318000DF91CF911F910F910C94331801968770A6
:10319000BACFDF91CF911F910F9108959F92AF9277
:1031A000BF92CF92DF92EF92FF920F931F93CF9334
:1031B000DF93CDB7DEB761970FB6F894DEBF0FBED1
:1031C000CDBF8C0185E0F801DE011D9601900D92C6
:1031D0008A95E1F7F80140815181E28090914D029A
:1031E00060914E022091500230915102211531051B
:1031F00031F06F3F31F481E09F3F19F403C081E06B
:1032000001C080E0F82FF1709F2E80FD46C1F801CB
:10321000A380B4808DE4C82E82E0D82EF0904F02B7
:10322000F501E21BF30BFF2009F4DFC0809152028D
:10323000E83CF10508F09BC0282F207F09F052C020
:10324000561313C0491311C0FE2CE1100EC08F702D
:103250008061809352020E945418C6010E94A117F7
:1032600080915202F801858358C1AB2831F05F3F4D
:1032700031F481E04F3F19F403C081E001C080E0E8
:1032800080FD03C081E08E2502C080E090E0F82F31
:10329000F170FF2E80FF1CC080911B0220911C0248
:1032A00036E0821709F417C190E0389FF001399F8A
:1032B000F00D1124E35EFD4F6181561306C060815D
:1032C000461303C06281E61203C001968770E9CFFE
:1032D000FE2CEE2009F421C180915202816080937E
:1032E00052025AC0561306C0491304C0E11002C06E
:1032F000F8019FC04D875E878D859E850E940F18BF
:10330000882379F1EE2069F120915202822F829573
:103310008F7090E0029774F080914D0290914E0270
:1033200098878F831986BB86AA862C87CE0107963D
:103330000E94A11786E0F801ADE4B2E001900D9281
:103340008A95E1F70E9462180E9454180DC0561722
:1033500029F14D875E878D859E850E940F1881110A
:103360002CC0C8010E94A117FF24F394D6C0282FB7
:10337000207F69F77A2DB98AA88A6E2D89890E94E3
:1033800014188DE492E00E94A11786E0F6011192D4
:103390008A95E9F70E945418F12CBFC04913D9CF80
:1033A000E110D7CFF8018583C8010E94A11786E0FC
:1033B000F60111928A95E9F7B0C0EE2091F22091C2
:1033C0005202822F82958F7090E002970CF4B2CF58
:1033D00080914D0290914E029A8389831B82BD8217
:1033E000AC822E83CE010196A3CFE83CF10508F014
:1033F00047C0FE2CEE2009F4B4CF561330C0491359
:103400002EC02091520220FD21C0822F82958F7004
:10341000482F50E041155105C9F0F80125834F3080
:10342000510541F08F5F982F9295907F822F8F707A
:10343000892B8583C8010E94A11786E0F801ADE4BD
:10344000B2E001900D928A95E1F742C086E0F80162
:10345000ADE4B2E001900D928A95E1F75EC04D8730
:103460005E878D859E850E940F18811163CF8091A4
:103470005202816080935202C8010E94A1174DC080
:103480007A2DB98AA88A6E2D89890E94141886E03F
:10349000F60111928A95E9F71BC0EE2009F461CF7D
:1034A0004D875E878D859E850E940F18F82E882394
:1034B00009F457CF86E0F801ADE4B2E001900D9237
:1034C0008A95E1F78DE492E00E9447140E94621809
:1034D0000E94541822C04D875E878D859E850E946C
:1034E000741D292F22952F70223028F49F7039F0F7
:1034F000811105C00BC0243028F49F7049F4805E10
:10350000883020F0C8010E94A1179F2CF92C05C01B
:10351000F8019581907F99F7F9CF8F2D61960FB6BD
:10352000F894DEBF0FBECDBFDF91CF911F910F91F9
:10353000FF90EF90DF90CF90BF90AF909F90089555
:103540001F93CF93DF93CDB7DEB72C970FB6F894C8
:10355000DEBF0FBECDBF4F83588769877A878B87C1
:103560009C87CE0107960E94CE188823D1F09F81B8
:1035700088852A853B85232B31F08F3F31F481E00C
:103580009F3F19F403C081E001C080E080FD47C087
:103590004F81588569857A858B859C850E94231883
:1035A0003EC086E0FE013796DE01119601900D9235
:1035B0008A95E1F7FF81E8856A857B85611571054C
:1035C00031F0EF3F31F481E0FF3F19F403C081E0B7
:1035D00001C080E080FD23C020911C0230E0C901C1
:1035E00001968770992740911B0250E08417950738
:1035F000F1F1F983EA837D836C8396E0929FD00199
:10360000939FB00D1124A35EBD4FFE013196019032
:103610000D929A95E1F780931C020E94331816E0F0
:1036200080911B0290911C02891771F1189FC001B3
:103630001124835E9D4F0E94CE18882329F1E091CA
:103640001B021E9FF0011124E35EFD4F408151815A
:1036500062817381848195810E94231880911B026D
:1036600090E001968770992780931B02D9CF0E9422
:10367000E71710921C0210921B02EDE4F2E086E0C4
:10368000DF011D928A95E9F72C960FB6F894DEBFFC
:103690000FBECDBFDF91CF911F910895EF92FF92A2
:1036A0000F931F93CF93DF938C01892B09F46CC088
:1036B000F12CEE24E394E8012196F80184918437FB
:1036C00040F4843008F051C0813081F0823019F12B
:1036D0005BC0853709F444C0A8F19CE7980F903788
:1036E00008F052C08F770E94F41441C00E5F1F4F44
:1036F000FE01849190E2980F983050F48770FE2D6F
:1037000001C0FF0F8A95EAF78F2F0E94D61D14C0C3
:103710000E944D142DC00E5F1F4FFE01849190E258
:10372000980F983060F48770FE2D01C0FF0F8A95C6
:10373000EAF78F2F0E94DC1D0E94011E19C00E9413
:10374000F41416C00E5F1F4FFE01C491CC2381F00C
:103750008FE99FE00197F1F700C00000C150F6CF5C
:103760000E5F1F4FFE01F49003C00E944D148E01A6
:103770008F2D882309F49FCFEFE9FFE03197F1F710
:1037800000C000008150F5CFDF91CF911F910F91C4
:10379000FF90EF900895089508950C94CC1B0C941D
:1037A000CD1B0E94CF1B609384027093850280938F
:1037B0008602909387020C94D1170C94D11B0F931F
:1037C0001F9300918402109185022091860230910E
:1037D0008702602B712B822B932B1F910F910C94DE
:1037E000D11B0F931F9300918402109185022091A9
:1037F00086023091870260237123822393231F91D5
:103800000F910C94D11B0F931F9300918402109180
:1038100085022091860230918702602771278227D6
:1038200093271F910F910C94D11B0C94CC1B0E94D9
:10383000151C6093800270938102809382029093A2
:1038400083020C94D11760E070E0CB010C94171C3C
:103850000F931F9341E050E060E070E08A019B010C
:1038600004C0000F111F221F331F8A95D2F7C90110
:10387000B8011F910F910C94171C0F931F9341E0F7
:1038800050E060E070E004C0440F551F661F771FD2
:103890008A95D2F78091800290918102A091820254
:1038A000B09183028A019B01082B192B2A2B3B2BF9
:1038B000C901B8011F910F910C94171C0F931F930E
:1038C00041E050E060E070E004C0440F551F661F07
:1038D000771F8A95D2F740955095609570958091A5
:1038E000800290918102A0918202B09183028A01AC
:1038F0009B01082319232A233B23C901B8011F91E7
:103900000F910C94171C0F931F9341E050E060E05F
:1039100070E004C0440F551F661F771F8A95D2F7C9
:103920008091800290918102A0918202B0918302E5
:103930008A019B01082719272A273B27C901B801BB
:103940001F910F910C94171C0F931F9300918002ED
:10395000109181022091820230918302602B712BA1
:10396000822B932B1F910F910C94171C0F931F9375
:103970000091800210918102209182023091830295
:1039800060237123822393231F910F910C94171CA2
:103990000F931F9300918002109181022091820267
:1039A0003091830260277127822793271F910F91FF
:1039B0000C94171C08952EE0929F800D1124E82F7F
:1039C000E695E695E695877051E001C0550F8A951A
:1039D000EAF785E0E89FF0011124ED5AFD4F20E061
:1039E00030E070E04081CB01022E02C096958795B1
:1039F0000A94E2F781708195842785238427819337
:103A00002F5F3F4F2530310569F708952EE0929FD3
:103A1000800D1124682F669566956695982F97708E
:103A200085E0689FB001112440E050E080E0FB0198
:103A3000E40FF51FED5AFD4F208130E0092E02C042
:103A4000369527950A94E2F721703327042E01C09A
:103A5000220F0A94EAF7822B4F5F5F4F45305105E2
:103A600031F70895BF92CF92DF92EF92FF920F93BA
:103A70001F93CF93DF938C01C0908002D09081027E
:103A8000E0908202F09083028091840290918502FE
:103A9000A0918602B0918702C82AD92AEA2AFB2A75
:103AA000CFE1D0E0D701C6010C2E04C0B695A79592
:103AB000979587950A94D2F780FD04C0219790F7D7
:103AC000B12C07C0BC2EB8018C2F0E947B0401973B
:103AD000A9F38B2DDF91CF911F910F91FF90EF9064
:103AE000DF90CF90BF900895CF93DF93EC010E94B9
:103AF000321DBE010E947B04DF91CF9108951F9378
:103B0000CF93DF93EB0190911A02992321F0CB011F
:103B10000E94741D13C0882349F0CB010E94321DFE
:103B2000182F682FCE010E94DB1C04C0CB010E941D
:103B3000061D182FBE01812F0E947B04DF91CF91BB
:103B40001F910895809188028595859585950895A2
:103B5000809188028770089590918802977081E023
:103B600009F480E008958091AC0208959091AC0230
:103B7000892B8093AC02089580959091AC028923A3
:103B80008093AC0208951092AC0208959091AB021C
:103B9000892B8093AB02089580959091AB02892385
:103BA0008093AB0208951092AB0208959091AA02FF
:103BB000892B8093AA02089580959091AA02892367
:103BC0008093AA0208951092AA0208958091890212
:103BD000089508950C94E91D0C94EA1D90918902B2
:103BE000981721F0809389020C94EC1D0895809120
:103BF0008902882329F01092890280E00C94EC1D40
:103C00000895E0911701F09118018091AC02808332
:103C1000E0911701F091180190818091AB02892BFE
:103C20008083E0911701F091180190818091AA02A0
:103C3000892B808380918902882381F0E09117018C
:103C4000F09118019081892B8083809117019091C8
:103C500018010E94211F81110E94F71D80911701F8
:103C6000909118010C94F3120C94E91D98E0899F2F
:103C700090011124262B209388020E943D1C8091E4
:103C800088028595859585950C94341E109288023E
:103C900080E00C94341E20918802809582238093CA
:103CA0008802982F977079F430E0482F082E000C86
:103CB000550B2417350739F08595859585950E9414
:103CC0005E1C0C94461E08956FEF7FEF80E090E03D
:103CD0000C94C02980E090E00E949C2921E08C3E59
:103CE0009E4F09F020E0822F089582E090E00C942E
:103CF0008E2983E090E00C948E29CF9384E090E0AD
:103D00000E948E29C82F81E290E00E948E292C2FDC
:103D100030E0A901582BCA01CF910895CF93C92F44
:103D2000682F84E090E00E94A2296C2F81E290E04D
:103D3000CF910C94A22986E090E00C948E29682FF4
:103D400086E090E00C94A229AB01BC018FE090E0EA
:103D50000C94B429AB01BC0183E190E00C94B4292C
:103D600060E070E0CB010C94AA1E60E070E0CB0133
:103D70000E94A41E0C94B01E6CEE7EEF80E090E0DA
:103D80000E94C02960E082E090E00E94A22960E0E9
:103D900083E090E00E94A229109284021092850292
:103DA000109286021092870260E084E090E00E9408
:103DB000A22960E081E290E00E94A22960E085E013
:103DC00090E00E94A22960E086E090E00E94A22993
:103DD0006FEF87E090E00E94A22940E050E0BA0136
:103DE00088E090E00E94B42960E08DE090E00E94BD
:103DF000A22940E050E0BA0188E190E00E94B42995
:103E000060E087E190E00E94A22940E050E0BA0122
:103E10008CE190E00E94B42960E080E290E00E9492
:103E2000A22940E050E0BA0188E190E00E94B42964
:103E30000C94B51E0C94BC1E682F8EE090E00C9480
:103E4000A229FC01329680912301882331F08091D0
:103E50000E0387FF02C09EE101C096E080E0915012
:103E600028F021912223D9F38F5FF9CF089566239B
:103E700051F1209123012223E9F020910E0327FF25
:103E800019C0462F4695469546954E31E0F4677029
:103E900021E030E002C0220F331F6A95E2F7FC01F7
:103EA000E40FF11D828190E02823392381E0232B48
:103EB00069F409C0FC01329608962191621729F035
:103EC000E817F907D1F780E0089581E008959C0193
:103ED000FC0132969FEF80E04191461789F09F3FA9
:103EE00019F4411101C0982F8F5F8630A9F79F3FC9
:103EF00039F0F901E90FF11D97FDFA9562830895F4
:103F000008959C012A5F3F4FFC014281461301C086
:103F10001282019682179307B9F70895262F2695E6
:103F2000269526952E3168F4FC01E20FF11D67708D
:103F300021E030E001C0220F6A95EAF78281282B48
:103F400022830895262F2695269526952E3170F4E6
:103F5000FC01E20FF11D677021E030E001C0220F8B
:103F60006A95EAF72095828128232283089520917B
:103F70002301222329F020910E0327FD0C948E1F8C
:103F80000C94671F20912301222329F020910E0316
:103F900027FD0C94A21F0C94811F20912301FC018A
:103FA0003296222331F080910E0387FF02C08EE10A
:103FB00001C086E0DF011D928A95E9F70895089512
:103FC0000C94DF1F0C94DF1FCF930E94E21F0E940E
:103FD000C0060E94E01FC0E08C2F0E946406892B5F
:103FE00029F4CF5FC530C1F780E001C081E0CF91F7
:103FF00008950C94DF1F0C94F91F0E94FB1F809101
:104000001403843061F11092AE0220E488E190E064
:104010000FB6F894A895809360000FBE20936000BF
:1040200080E00E941C1080E00E9453040E94FB1F4D
:1040300083B7817F846083BF83B7816083BF7894B7
:10404000889583B78E7F83BF0FB6F894A89580912B
:104050006000886180936000109260000FBE089538
:104060000C94DF1F0E94E7170E940D0F0E94E712B9
:104070000E9453040C9430201F920F920FB60F929F
:1040800011248F939F93AF93BF938091AE028111C0
:1040900013C080910A0390910B03A0910C03B0917F
:1040A0000D034196A11DB11D80930A0390930B034C
:1040B000A0930C03B0930D03BF91AF919F918F918B
:1040C0000F900FBE0F901F90189582E084BD93E073
:1040D00095BD9AEF97BD80936E0008952FB7F89421
:1040E00080910A0390910B03A0910C03B0910D03F2
:1040F0002FBF08959C014FB7F89480910A039091C7
:104100000B03A0910C03B0910D034FBF821B930BC7
:10411000089578941F920F920FB60F9211248F93E7
:104120009F93AF93BF9380910A0390910B03A0914B
:104130000C03B0910D030196A11DB11D80930A03DC
:1041400090930B03A0930C03B0930D03BF91AF9119
:104150009F918F910F900FBE0F901F90189581E047
:104160008093E00080E28093D8001092C9008FE134
:104170009EE40197F1F700C0000087E090EBDC01BE
:1041800080931D0390931E03A0931F03B0932003FD
:104190009CE088E10FB6F894A895809360000FBE6C
:1041A00090936000FFCF0C94641E0E94C0068FE3C2
:1041B0009CE90197F1F700C000000E94C00680E072
:1041C0000E94640680FF04C00E94D3200C94AF209C
:1041D00008950E946A1E811102C00E941A1F0E9447
:1041E000751E8093AD020E947D1E90930F038093F5
:1041F0000E030E94791E682F70E080E090E00E941C
:10420000DD1B609180027091810280918202909109
:1042100083020C94151C0F931F9341E050E060E063
:1042200070E08A019B0104C0000F111F221F331F81
:104230008A95D2F7C901B8010E94DD1B1F910F9129
:104240000C94E717482F50E0FA013597EF33F1054A
:1042500008F060C0E857FF4F0C94EE280E941A1F28
:1042600055C08091AD02817F8E7F8093AD0281E049
:104270008093AF0208950E94F40348C08091AD027C
:10428000982F9095917090FB80F98093AD029111D9
:104290003DC0897F877F10C08091AD0281FB2227BE
:1042A00020F991E0922790FB81F98093AD02992348
:1042B00069F18091AD0281608093AD0227C0809149
:1042C000AD0282FB222720F991E0922790FB82F930
:1042D000ECCF8091AD0283FB222720F991E0922759
:1042E00090FB83F9E2CF0E94E71780910E0387FBD2
:1042F000222720F991E0922790FB87F980930E0303
:1043000005C0895301C08D510E940B2181E00895A1
:1043100080E0FACF80E0089580E008950C948C212D
:10432000CF93C82F8091AF02882319F0813031F0EC
:104330002BC00E94B31D823249F504C00E94B31DF8
:10434000823261F48C2F0E948E21811104C08C2F47
:104350000E94222117C081E090E014C08C2F0E949F
:104360008C2181110EC0C43149F018F4CB3049F0D2
:104370000FC0C93219F0C83321F00AC01092AF0241
:1043800007C081E0817006C01092AF0280E002C0D9
:1043900080E0F8CFCF9108958091D00208950895DC
:1043A000CF93DF9300D01F92CDB7DEB79091140367
:1043B000943019F589837B836A8382E08093E900D6
:1043C0008FEF9091E800815095FD06C095ED9A958C
:1043D000F1F700008111F5CF8091E80085FF0DC055
:1043E00040E050E063E070E0CE0101960E94DC23E3
:1043F0008091E8008E778093E8000F900F900F90E7
:10440000DF91CF910895BC0184E00C94D021BC01D0
:1044100083E00C94D021CF93DF93209123012223BA
:1044200039F020910E0327FF03C060E222E002C0B2
:1044300068E021E02093E9002FEF3091E80021505F
:1044400035FD06C035ED3A95F1F700002111F5CFA5
:104450002091E80025FF1DC0EC018091230181110E
:1044600005C040E050E068E070E003C070E040E06C
:1044700050E0CE010E94DC238091E8008E7780938B
:10448000E80080E2FE01A0EBB2E001900D928A9577
:10449000E1F7DF91CF91089580911303811109C055
:1044A0000E946D250E94CA258091E200846080935D
:1044B000E2000895109213030895089508950C944E
:1044C000322042E061EC81E00E94E62442E261ECAD
:1044D00082E00C94E62480911603833009F460C0D6
:1044E00030F4813071F0823009F499C008958A3037
:1044F00009F485C08B3009F46BC0893009F0A7C07E
:1045000020C080911503813A09F0A1C08091E80094
:10451000877F8093E8008091190390911A03892B7B
:1045200021F460E280EB92E003C060E080E090E084
:1045300070E00E9427248091E8008B778093E80048
:10454000089580911503813209F081C0809119038B
:1045500090911A03029708F07AC08091E800877F53
:104560008093E8008091E80082FD05C080911403EB
:104570008111F8CF6CC02091F3008091F20090E09F
:10458000922B029729F48091F1008B7F813021F4E6
:104590008091F1008093D0028091E8008B7753C026
:1045A00080911503813A09F052C0809119039091CE
:1045B0001A03892B09F04BC08091E800877F809314
:1045C000E8008091E80080FFFCCF8091230136C095
:1045D000809115038132D9F58091190390911A03C6
:1045E000892BA9F58091E800877F8093E8000E94DD
:1045F0001B2580911703809323010C94E71780916A
:104600001503813221F58091E800877F8093E800CF
:104610000E941B25809118038093D10208958091F8
:104620001503813AA1F48091E800877F8093E80028
:104630008091E80080FFFCCF8091D1028093F1004F
:104640008091E8008E778093E8000C941B250895F4
:1046500084B7877F84BF0FB6F894A89580916000D7
:10466000886180936000109260000FBE90E080E847
:104670000FB6F89480936100909361000FBE0E9482
:1046800051130E946D250E94CA258091E20084602A
:104690008093E20078940E945F280E94571389E17A
:1046A00091E00E94E21280911403853069F40E9427
:1046B000FD1F809112038823B1F30E94E41F882319
:1046C00091F30E94C623EFCF0E9463130E9445130B
:1046D0000E944413E8CF0C946D23292F33272330F5
:1046E0003105C9F060F42130310581F02230310507
:1046F00009F044C08BE390E026E935E043C0213265
:104700003105E1F02232310549F138C082E190E013
:1047100021ED35E037C099278130910549F028F027
:10472000029761F5E0E6F5E005C0E2E9F5E002C0D8
:10473000E2E7F5E0849190E09F0124C061157105E6
:1047400041F061307105D1F489E090E021EC35E071
:1047500019C089E090E028EA35E014C061157105C0
:1047600041F06130710551F48DE690E023EE35E0C3
:1047700009C080E490E020E536E004C080E090E0ED
:1047800020E030E0FA0131832083089580E189BD83
:1047900082E189BD09B400FEFDCF8091D8008F7DF4
:1047A0008093D8008091E00082608093E000809147
:1047B000E00081FDFCCF0895CF92DF92EF92FF924F
:1047C0000F931F93CF93DF93EC018B017A010E942B
:1047D0003A25811133C0E114F10439F0F7018081E9
:1047E0009181081B190BC80FD91FC12CD12C0115A1
:1047F000110519F18091E80085FD16C08091E8004F
:104800008E778093E800E114F10449F0F70180818C
:104810009181C80ED91ED182C08285E00FC00E944E
:104820003A25882321F30AC089918093F100015031
:104830001109FFEFCF1ADF0ADACF80E0DF91CF91C5
:104840001F910F91FF90EF90DF90CF9008952091EE
:104850001B0330911C032617370748F061157105BB
:1048600039F42091E8002E772093E80001C0B901C7
:10487000FC0120E06115710579F180911403882312
:10488000F1F18530F1F18091E80083FD3CC0809129
:10489000E80082FD2EC08091E80080FFEBCF2091E0
:1048A000F3008091F20090E0922B6115710551F0B8
:1048B0008830910538F421912093F10061507109FD
:1048C0000196F3CF21E0089709F020E08091E800FD
:1048D0008E778093E800CECF2111CFCF0AC0809190
:1048E0001403882361F0853061F08091E80083FD36
:1048F0000AC08091E80082FFF2CF80E0089582E054
:10490000089583E0089581E0089520911B0330917C
:104910001C032617370748F06115710539F42091FB
:10492000E8002E772093E80001C0B901FC0120E0E7
:104930006115710591F180911403882309F440C039
:10494000853009F43FC08091E80083FD3DC080912F
:10495000E80082FD2FC08091E80080FFE9CF209120
:10496000F3008091F20090E0922B6115710559F0EF
:104970008830910540F424912093F10031966150E4
:1049800071090196F2CF21E0089709F020E08091AB
:10499000E8008E778093E800CBCF2111CCCF0AC0FE
:1049A00080911403882361F0853061F08091E800E4
:1049B00083FD0AC08091E80082FFF2CF80E0089575
:1049C00082E0089583E0089581E00895982F97305C
:1049D00068F59093E900981739F07091EC002091F8
:1049E000ED005091F00003C0242F762F50E021FD00
:1049F00002C09F5FECCF3091EB003E7F3093EB0025
:104A00003091ED003D7F3093ED003091EB0031604F
:104A10003093EB007093EC002093ED005093F00086
:104A20002091EE0027FDE5CF80E008958F70809300
:104A3000E90081E008958091150387FF11C08091FE
:104A4000E80082FD05C0809114038111F8CF11C0E8
:104A50008091E8008B770BC080911403882349F084
:104A60008091E80080FFF8CF8091E8008E778093F6
:104A7000E80008952091E4003091E50095E640912A
:104A8000EC00842F817040FF23C08091E80080FDFE
:104A90001DC080911403882399F0853099F080918E
:104AA000EB0085FD11C04091E4005091E500241712
:104AB000350729F3915011F09A01E1CF84E0089570
:104AC00082E0089583E0089581E0089580E00895EC
:104AD0004091E80042FFDDCF08950E94DB250E944F
:104AE000E325E0EEF0E0808181608083E8EDF0E096
:104AF00080818F77808319BCA7EDB0E08C918E7F89
:104B00008C9380818F7E80831092130308950F937E
:104B10001F93CF93DF930E94DB250E94E325C8ED0E
:104B2000D0E088818F7788838881806888838881B6
:104B30008F7D888319BC1092140310921003109279
:104B400012031092110300EE10E0F80180818B7FB8
:104B5000808388818160888342E060E080E00E94F9
:104B6000E624E1EEF0E080818E7F8083E2EEF0E0EB
:104B7000808181608083808188608083F80180816A
:104B80008E7F8083888180618883DF91CF911F91A0
:104B90000F910895E8EDF0E080818F7E8083E7ED4E
:104BA000F0E080818160808384E082BF81E0809337
:104BB00013030C948725E8EDF0E080818E7F8083DD
:104BC0001092E20008951092DA001092E100089528
:104BD0001F920F920FB60F9211242F933F934F9372
:104BE0005F936F937F938F939F93AF93BF93EF9355
:104BF000FF938091E10082FF0BC08091E20082FF71
:104C000007C08091E1008B7F8093E1000E945E28C5
:104C10008091DA0080FF1FC08091D80080FF1BC008
:104C20008091DA008E7F8093DA008091D90080FF36
:104C30000DC080E189BD82E189BD09B400FEFDCFD0
:104C400081E0809314030E944C2205C019BC10928D
:104C500014030E945A228091E10080FF19C08091C4
:104C6000E20080FF15C08091E2008E7F8093E20019
:104C70008091E20080618093E2008091D8008062A0
:104C80008093D80019BC85E0809314030E945E22B3
:104C90008091E10084FF30C08091E20084FF2CC04D
:104CA00080E189BD82E189BD09B400FEFDCF80911C
:104CB000D8008F7D8093D8008091E1008F7E809313
:104CC000E1008091E2008F7E8093E2008091E2001B
:104CD00081608093E20080911003882311F084E0CA
:104CE00007C08091E30087FD02C081E001C083E03E
:104CF000809314030E945F228091E10083FF29C00A
:104D00008091E20083FF25C08091E100877F80933E
:104D1000E10082E080931403109210038091E1007F
:104D20008E7F8093E1008091E2008E7F8093E2008D
:104D30008091E20080618093E20042E060E080E0E8
:104D40000E94E6248091F00088608093F0000E9429
:104D50005D22FF91EF91BF91AF919F918F917F91D4
:104D60006F915F914F913F912F910F900FBE0F90D8
:104D70001F9018951F920F920FB60F9211242F9328
:104D80003F934F935F936F937F938F939F93AF93D3
:104D9000BF93CF93DF93EF93FF93C091E900CF7060
:104DA0008091EC00D82FD17080FDD0E81092E900FE
:104DB0008091F000877F8093F00078940E94FE2617
:104DC0001092E9008091F00088608093F000CD2B74
:104DD000CF70C093E900FF91EF91DF91CF91BF9128
:104DE000AF919F918F917F916F915F914F913F9183
:104DF0002F910F900FBE0F901F9018951F93CF9378
:104E0000DF93CDB7DEB7AA970FB6F894DEBF0FBE1B
:104E1000CDBFE5E1F3E08091F100819323E0ED3136
:104E2000F207C9F70E946B228091E80083FF2EC130
:104E30008091150390911603492F50E04A30510597
:104E400008F024C1FA01E953FF4F0C94EE28803892
:104E500021F0823809F01AC108C0809111039091A5
:104E60001203992389F082600FC0809119038F701B
:104E7000873008F00BC18093E9008091EB0085FB3F
:104E8000882780F91092E9009091E800977F90932D
:104E9000E8008093F1001092F100D1C0282F2D7FFF
:104EA00009F0F4C0882319F0823061F0EFC08091DE
:104EB0001703813009F0EAC0933009F080E0809355
:104EC00012032EC08091170381112AC0809119030B
:104ED0008F702FEF280F263008F0D8C08093E9009C
:104EE0002091EB0020FF1CC0933021F48091EB0057
:104EF000806214C09091EB0090619093EB0021E0F0
:104F000030E0A90102C0440F551F8A95E2F7409393
:104F1000EA001092EA008091EB0088608093EB0039
:104F20001092E9008091E800877F8093E8000E945A
:104F30001B25ACC08111AAC0109117031F77809167
:104F4000E3008078812B8093E3008091E800877FE5
:104F50008093E8000E941B258091E80080FFFCCF31
:104F60008091E30080688093E300111102C082E029
:104F700001C083E08093140389C08058823008F018
:104F800085C080911703909118038C3D53E09507DD
:104F900079F583E08A838AE289834FB7F894DE014A
:104FA000139620E03EE051E2E32FF0E050935700EB
:104FB000E49120FF03C0E295EF703F5FEF708E2F0A
:104FC00090E0EA3010F0C79601C0C0968D939D9393
:104FD0002F5F243149F74FBF8091E800877F80938E
:104FE000E8006AE270E0CE0101960E94272416C014
:104FF0006091190370911A03AE014F5F5F4F0E94D9
:105000006B23BC01892B09F441C09091E800977F84
:105010009093E80089819A810E9485248091E8001C
:105020008B778093E80032C0803881F58091E8006A
:10503000877F8093E800809110038093F100809136
:10504000E8008E7772CF811121C080911703909173
:10505000180399270297D4F48091E800877F809302
:10506000E80080911703809310030E941B25809114
:105070001003811106C08091E30087FD02C081E02A
:1050800001C084E0809314030E9461228091E800B3
:1050900083FF0AC08091E800877F8093E8008091B9
:1050A000EB0080628093EB00AA960FB6F894DEBF07
:1050B0000FBECDBFDF91CF911F9108950895CF937B
:1050C000809114038823A1F0C091E900CF709091E2
:1050D000EC00892F817090FD80E8C82B1092E900C8
:1050E0008091E80083FD0E94FE26CF70C093E90006
:1050F000CF910895DB018F939F930E941229BF9156
:10510000AF91A29F800D911DA39F900DB29F900D16
:1051100011240895991B79E004C0991F961708F08F
:10512000961B881F7A95C9F78095089587FB082EEE
:10513000062687FD819567FD61950E948A280EF4F9
:10514000919507FC81950895AA1BBB1B51E107C0EF
:10515000AA1FBB1FA617B70710F0A61BB70B881F07
:10516000991F5A95A9F780959095BC01CD01089596
:1051700097FB072E16F4009407D077FD09D00E9404
:10518000A42807FC05D03EF4909581959F4F089583
:10519000709561957F4F0895A1E21A2EAA1BBB1B43
:1051A000FD010DC0AA1FBB1FEE1FFF1FA217B307F3
:1051B000E407F50720F0A21BB30BE40BF50B661F09
:1051C000771F881F991F1A9469F7609570958095CD
:1051D00090959B01AC01BD01CF010895EE0FFF1F1B
:1051E0000590F491E02D09940E94FC28332312F4D9
:1051F0008A1B9B0B0C940D29A29FB001B39FC00189
:10520000A39F700D811D1124911DB29F700D811DF2
:105210001124911D08950E94FC28B7FF0895821B58
:10522000930B08950E94FC28A59F900DB49F900DAC
:10523000A49F800D911D11240895B7FF0C9412298D
:105240000E941229821B930B08958F929F92AF9216
:10525000BF92CF92DF92EF92FF92CF93DF93EC0158
:10526000688179818A819B8161157105810591052C
:1052700021F464E279ED8BE597E02DE133EF41E035
:1052800050E00E94D62949015A019B01AC01A7EACE
:10529000B1E40E9412296B017C01ACEEB4EFA501D0
:1052A00094010E942029DC01CB018C0D9D1DAE1DB7
:1052B000BF1DB7FF03C00197A109B0488883998338
:1052C000AA83BB839F77DF91CF91FF90EF90DF9010
:1052D000CF90BF90AF909F908F9008950E94252906
:1052E000089580E091E00E9425290895A0E0B0E0B3
:1052F0008093000190930101A0930201B0930301F8
:105300000895FC014150504030F001900616D1F74D
:105310003197CF010895882799270895F999FECFED
:1053200092BD81BDF89A992780B50895A6E1B0E0B5
:1053300044E050E00C94C829A8E1B0E042E050E01D
:105340000C94C829262FF999FECF92BD81BDF89AF9
:10535000019700B4021639F01FBA20BD0FB6F894B9
:10536000FA9AF99A0FBE08950396272F0E94A3294F
:105370000E94A229252F0E94A329242F0C94A3293F
:105380000196272F0E94A3290C94A229DC01CB01AE
:10539000FC01F999FECF06C0F2BDE1BDF89A319645
:1053A00000B40D9241505040B8F70895052E97FB78
:1053B0001EF400940E94ED2957FD07D00E94CC28CE
:1053C00007FC03D04EF40C94ED2950954095309590
:1053D00021953F4F4F4F5F4F089590958095709561
:0E53E00061957F4F8F4F9F4F0895F894FFCF38
:1053EE0001000000010102000A000A0A01191A1B3D
:1053FE001C1D1E1F2021228A02CC210B22CF210729
:10540E0022032201E200E900EA00B500B600B7006F
:10541E00CD008301CC008A01920194012102230266
:10542E0024022502260227022A02B300B4006F00CE
:10543E007000818283F0F1C667663694313235345E
:10544E0097963390919293950001020202020606FE
:10545E00060909090909090F0F0F0F0F0F15151569
:10546E001819191919191919191919232425252566
:10547E00252525E200E900EA00B500B600B700CD0B
:10548E00008301CC008A019201940121022302249F
:10549E00022502260227022A02B300B4006F007012
:0454AE000081828374
:00000001FF
