:100000000C9433030C947A030C947A030C947A03C3
:100010000C947A030C947A030C947A030C947A036C
:100020000C947A030C947A030C9443260C941527B1
:100030000C9485210C947A030C947A030C947A0323
:100040000C947A030C947A030C947A030C947A033C
:100050000C947A030C94DE210C947A030C947A03AA
:100060000C947A030C947A030C947A030C947A031C
:100070000C947A030C947A030C947A030C947A030C
:100080000C947A030C947A030C947A030C947A03FC
:100090000C947A030C947A030C947A030C947A03EC
:1000A0000C947A030C947A030C947A0310061006CD
:1000B000420642068F06C307C307C307AD064207C1
:1000C00053075307B307C307C307BC075F085F089D
:1000D0007108710868087108710871085F085F0885
:1000E0006D08710871086D0896148C149914E11448
:1000F000E514E514E114E514E514BA14E514C41488
:10010000CE14E514E514E514E514E114E514E51442
:10011000E114E514A714E514E514DE14DE14DE146E
:10012000DE14DE14DE14DE14DE14DE14E314E51433
:1001300096148914E514E514E514E514E514E514A2
:10014000E514E514E514E514E314E514E514E114ED
:10015000E514DC14DC14DC14DC14DC14DC14DC1416
:10016000DC14DC14E3148227A927A128A927A128DD
:10017000F5271828A1286F287E28E3001E001F00FD
:100180002000210022002300240025002600270053
:100190002D002E0031002B0014001A00080015005D
:1001A00017001C0018000C00120013002F00300074
:1001B0003500296104001600070009000A000B0041
:1001C0000D000E000F003300340000002A00E10093
:1001D00000001D001B0006001900050011001000A2
:1001E000360037003800E50028000000E200E30098
:1001F000000000002C410000000000000000000092
:10020000E700E6000051A5003A003B003C003D003D
:100210003E003F00400041004200430044004500D2
:1002200049000100C35CC45CC55CC05CC15C0100EA
:100230000100010001000100010001004C00390033
:10024000AA00A90001000100010050005100520065
:100250004F0001000100000001000100000001004A
:100260000100010001000100010001000100010086
:100270000100010058000000010001000000000022
:10028000010000000000000000000000010001006B
:10029000010000000000000000000000000000005D
:1002A000000000000000000000000000000000004E
:1002B000000000000000000000000000000000003E
:1002C000000000000000000000000100000000002D
:1002D0000000000000005000510052004F000000DC
:1002E000000000000000000000000000000000000E
:1002F00000000000000000000000000000000000FE
:1003000000000000000000000000000000000000ED
:1003100000000000000000000000000000000004D9
:100320007F3F1F643214643214783C1E1E140A0589
:100330002223252628292A2C2D2F303233353638F2
:100340003A3B3D3E4042434547494A4C4E5051534B
:100350005557595A5C5E6062646668696B6D6F716F
:10036000737577797B7D7F81838587898A8C8E9071
:10037000929496989A9C9E9FA1A3A5A7A8AAACAE7A
:10038000AFB1B3B4B6B8B9BBBCBEBFC1C2C3C5C6BA
:10039000C7C9CACBCCCDCED0D1D2D2D3D4D5D6D763
:1003A000D7D8D9D9DADADBDBDBDCDCDCDCDCDDDDA1
:1003B000DDDDDCDCDCDCDCDBDBDBDADAD9D9D8D791
:1003C000D7D6D5D4D3D2D2D1D0CECDCCCBCAC9C733
:1003D000C6C5C3C2C1BFBEBCBBB9B8B6B4B3B1AF6A
:1003E000AEACAAA8A7A5A3A19F9E9C9A989694920A
:1003F000908E8C8A89878583817F7D7B79777573E1
:10040000716F6D6B6968666462605E5C5A595755BE
:100410005351504E4C4A4947454342403E3D3B3A7A
:100420003836353332302F2D2C2A29282625232201
:10043000FFAA7F55400001010101010101010102F4
:100440000202020202020202030303030303030384
:10045000040404040404040505050505060606064F
:1004600006070707070708080808090909090A0A0B
:100470000A0B0B0B0C0C0C0D0D0D0E0E0E0F0F0FAF
:10048000101011111112121313141415151616173A
:1004900017181819191A1A1B1B1C1D1D1E1E1F20A8
:1004A00020212222232424252626272829292A2BF5
:1004B0002C2D2D2E2F30313232333435363738391A
:1004C0003A3B3C3D3E3F4041424344454647484914
:1004D0004A4C4D4E4F50515354555658595A5B5DE6
:1004E0005E5F616264656668696B6C6D6F70727384
:1004F0007577787A7B7D7E8082838587888A8C8EEB
:100500008F91939596989A9C9EA0A2A3A5A7A9AB1C
:10051000ADAFB1B3B5B7BABCBEC0C2C4C6C9CBCD0E
:10052000CFD1D4D6D8DBDDDFE2E4E7E9EBEEF0F3C0
:10053000F5F8FAFDFF100354006F006B0079006FAF
:10054000003600300000001E0354006F006B00797D
:10055000006F0020004B006500790062006F0061B1
:10056000007200640000000403090409023B000259
:100570000100A0320904000001030101000921115A
:100580000100012240000705810308000A09040157
:10059000000103000000092111010001226D000784
:1005A00005820320000A12010002000000083654F0
:1005B000606001000102000105010980A1018503BD
:1005C00019012AB700150126B700950175108100A1
:1005D000C0050C0901A101850419012AA002150119
:1005E00026A002950175108100C005010906A10130
:1005F0008505050719E029E715002501950875010E
:1006000081020507190029EF1500250195F07501F4
:1006100081020508190129059505750191029501C9
:1006200075039101C005010906A101050719E0291B
:10063000E71500250195087501810295017508816E
:10064000010507190029FF150026FF00950675080A
:10065000810005081901290595057501910295018B
:1006600075039101C00011241FBECFEFDAE0DEBF99
:10067000CDBF04B603FE27C08091EE029091EF0239
:10068000A091F002B091F1028730904BA740B04B9F
:10069000D1F41092EE021092EF021092F00210923A
:1006A000F10214BE84B7877F84BF0FB6F894A89573
:1006B00080916000886180936000109260000FBE9E
:1006C000E0E0F8E3099511E0A0E0B1E0E8ECF3E543
:1006D00002C005900D92AA3BB107D9F722E0AAEB20
:1006E000B1E001C01D92AE3EB207E1F70E945B147B
:1006F0000C94E2290C94000081E0089581E00895B3
:100700000C947E0308950C9482031F93CF93DF9380
:1007100000D000D01F92CDB7DEB749835A836B83D8
:100720003091BC0189819A81311114C0662359F03E
:10073000222349F00E94030A182F682F89819A8189
:100740000E94AC0903C00E94D709182F69817A81E1
:10075000812F04C00E94030A69817A810F900F9053
:100760000F900F900F90DF91CF911F910C94A410D8
:10077000FC01262F408151816281738184810C9418
:10078000850381E00895CF93DF93EC0160E00E9440
:10079000B803BE01DF91CF910C9483030E94CA126B
:1007A0000E944F040E94B11D0C9407130C94031374
:1007B00008950E944D080E94D8032FEF84E39CE027
:1007C000215080409040E1F700C000000C940422CA
:1007D0000F931F93CF93DF938C0161E00E94B803C6
:1007E000EC01B8010E948003882309F44BC0B801D2
:1007F000CE010E94121D882309F444C0B801CE0125
:100800000E945F1E8823F1F1B801CE010E94B11E43
:100810008823C1F1B801CE010E94E31F882391F122
:10082000B801CE010E94591B882361F1F801828131
:10083000882309F1CB358DE5D807C1F050F4C115F7
:10084000FCE5DF0781F0CF3DDC45A9F40E949E0F57
:1008500019C0CC35EDE5DE0761F0CD35DD4559F445
:100860000E94220E08C00E94D9030CC00E942B0EC9
:1008700002C00E942E0EC801DF91CF911F910F91EF
:100880000C947C0380E0DF91CF911F910F9108952C
:1008900008950C94480481E008950C944B04089545
:1008A000CF93C82F0E9449048C2F0E944D04CF91F2
:1008B0000895CF93DF93CDB7DEB72B970FB6F8949B
:1008C000DEBF0FBECDBF4F83588769877A878B877E
:1008D00061110E94510E9E012F5F3F4F86E0F9018A
:1008E00011928A95E9F785E0FE013796D9010190CA
:1008F0000D928A95E1F789819A814C815D81452B22
:1009000031F09F3F31F491E08F3F19F403C091E043
:1009100001C090E090FF09C049815A816B817C81C0
:100920008D819E810E94510D05C0C9010E94C103A5
:100930008111F2CF2B960FB6F894DEBF0FBECDBF5C
:10094000DF91CF910895FC01808191810E94450A39
:100950000895CF93882309F4A1C0C82F8238C1F429
:100960000E94192081FD9AC069E380910001909155
:1009700001010E9401210E94830E2FEF81EE94E07D
:10098000215080409040E1F700C0000069E319C0A9
:10099000833801F50E94192080FD80C063E58091B5
:1009A0000001909101010E9401210E94830E2FEF0E
:1009B00081EE94E0215080409040E1F700C00000BB
:1009C00063E580910001909101010E940C21CF917B
:1009D0000C94830E8438C1F40E94192082FD5EC0FD
:1009E00067E480910001909101010E9401210E9421
:1009F000830E2FEF81EE94E0215080409040E1F78C
:100A000000C0000067E4DDCF8CEF8C0F813AF8F472
:100A10008C2F0E94EB14811141C06C2F809100013A
:100A2000909101010E948120882349F06C2F8091D0
:100A30000001909101010E940C210E94830E6C2FF5
:100A400080910001909101010E940121C0CF80E2BC
:100A50008C0F883048F4C77081E001C0880FCA95B8
:100A6000EAF70E94340EB3CFEBE5EC0FE33040F42D
:100A7000F0E0E25BFE4F808190E0CF910C943F204C
:100A8000C85AC73158F4EC2FF0E0EE0FFF1FE05EBC
:100A9000FE4F80819181CF910C945520CF91089584
:100AA000882309F45BC0682F823879F40E941920EA
:100AB00081FF54C069E380910001909101010E947F
:100AC00001210E94830E69E310C08338B1F40E94B3
:100AD000192080FF43C063E58091000190910101DE
:100AE0000E9401210E94830E63E580910001909194
:100AF00001010E940C210C94830E843879F40E9429
:100B0000192082FF2BC067E48091000190910101C0
:100B10000E9401210E94830E67E4E7CF8CEF860FCD
:100B2000813A18F380E2860F883048F4677081E0DC
:100B300001C0880F6A95EAF70E943A0EDCCF8BE578
:100B4000860F833020F480E090E00C943F20685AB8
:100B5000673120F480E090E00C94552008951F93B5
:100B6000CF93DF93182FEB010E94A904209741F047
:100B70008FE99FE00197F1F700C000002197F6CFC1
:100B8000812FDF91CF911F910C945005893319F07B
:100B900060E070E002C060E570E00C94AF0588236F
:100BA00021F00E94340E0C94830E0895882321F0C6
:100BB0000E943A0E0C94830E0895CF92DF92EF922A
:100BC000FF920F931F93CF93DF937C01062FC72FC4
:100BD000FC01D281158112951F700E94090E882395
:100BE00099F0DD2389F08C2F807F803421F080E222
:100BF000800F883048F082E00E94D30E0E94090ED8
:100C000091E0D82ED92601C0D12CCC2EC2948FE0F1
:100C1000C8228C2D90E0FC01EA5AFF4F0C943D292C
:100C20008C2F807FCF70882311F0C295C07FDD2389
:100C300099F0CC2309F482C180E2800F883010F053
:100C4000011104C08C2F0E94340E03C08C2F0E940F
:100C5000440E0E94830E72C1802F0E945005CC2347
:100C600009F491C180E2800F883010F0011104C0B6
:100C70008C2F0E943A0E03C08C2F0E944A0E0E94B5
:100C8000830E81C18C2F807FCF70803211F0C2958E
:100C9000C07F002319F00130C9F022C0DD2371F0BC
:100CA000112341F0113031F40E94640E8C2B0E940C
:100CB0006C0E69C10E94640E8C2B1DC0112319F0AB
:100CC000113009F460C10E94790E25C0DD2321F0A6
:100CD000163008F058C10EC0153008F054C11BC0C2
:100CE000DD2361F0112331F0F701858180FF26C1FA
:100CF0008F7085838C2F0E94CF0545C1112359F039
:100D0000093309F02CC1FFEF27EE83E0F1502040BA
:100D10008040E1F722C18C2F0E94D60534C18C2F70
:100D200086958695837019F0813061F02CC1DD23A2
:100D300021F0802F9C2F937002C080E090E00E94F1
:100D40003F2029C1DD2321F0802F9C2F937002C00A
:100D500080E090E00E9455201EC18C2F837009F026
:100D600045C0D11114C1402F429546954770440F9C
:100D7000440F602F6F70862F90E0A0E0B0E0042E4B
:100D800004C0880F991FAA1FBB1F0A94D2F704FF43
:100D900010C00FE010E020E030E004C0000F111F91
:100DA000221F331F4A95D2F7009510952095309554
:100DB00003C000E010E09801C695C695C370BC0161
:100DC000CD01602B712B822B932BC23049F058F44C
:100DD000C13019F00E94C208DAC00E94B008D7C022
:100DE0000E94D408D4C00E94AE08D1C0DD2319F0FF
:100DF0008C2F817001C08695882309F4C8C0402FCC
:100E0000429546954770440F440F602F6F70862FB0
:100E100090E0A0E0B0E0042E04C0880F991FAA1F44
:100E2000BB1F0A94D2F704FF10C00FE010E020E0CF
:100E300030E004C0000F111F221F331F4A95D2F764
:100E4000009510952095309503C000E010E09801C2
:100E5000C695C695C370BC01CD01602B712B822B4A
:100E6000932BC23049F058F4C13019F00E94870921
:100E70008EC00E9475098BC00E94990988C00E948B
:100E8000E80885C0CF70DD2339F08C2F0E940E0951
:100E9000802F0E94CF057BC0802F0E94D6058C2F0B
:100EA0000E942F0974C0023F01F128F4003F41F075
:100EB000013FA1F03FC0033FF9F0043F39F13AC0D0
:100EC000DD2341F0153008F05EC08C2F8F710E9439
:100ED000540959C0163008F056C0F7CFDD2339F059
:100EE0008C2F8F710E940E094EC0DD23C9F38C2F09
:100EF0008F710E942F0947C0DD2329F08C2F8F713D
:100F00000E94F90840C00E94F4083DC0DD2349F06A
:100F1000CF718C2F0E940E0963E08C2F0E94B80EB7
:100F200032C081E00E94D30E123068F182E00E944C
:100F3000D30E29C0DD2331F0112391F2802F0E94BE
:100F4000A90421C0112399F2093349F49FEFE7EE78
:100F5000F3E09150E040F040E1F700C00000802F46
:100F60000E94500510C04C2F4F70602FC7010E9487
:100F7000A0100E94730A0FC04C2F4F70602FC70142
:100F80000E94A31008C088EF8C0D843020F40E94CA
:100F900019200E945004DD20C9F00E94050E80FD3A
:100FA00015C0F70112820E94FF0D0E940E09C701B1
:100FB0000E9407080E94FF0DDF91CF911F910F91B2
:100FC000FF90EF90DF90CF900C942F09DF91CF919D
:100FD0001F910F91FF90EF90DF90CF9008950F93A6
:100FE0001F93CF93DF93EC01688179818A810E94FE
:100FF000500A8C010E94AB090E949C08B801CE01E6
:101000000E94DD05DF91CF911F910F910895CF933D
:10101000DF93EC01988189812B813C81232B31F076
:101020008F3F31F481E09F3F19F403C081E001C09C
:1010300080E080FD19C0CE010E94E80381110CC040
:101040000E94090E882381F08A81882369F082E05A
:10105000DF91CF910C94D30ECE010E94EF07CE0109
:10106000DF91CF910C94C303DF91CF91089580E07D
:1010700090E00E943F2080E090E00E9455200E9476
:10108000510E0E94610E0C94830E8091000190918C
:1010900001010E9417210C9437080E94410E0C9404
:1010A0004508E92FE295EF704E2F50E0FA01329794
:1010B000EE30F105B0F4EA59FF4F0C943D29803F22
:1010C00091F018F4883E68F40EC0843F51F40BC0D0
:1010D000883E48F0813F29F406C093FB882780F9B9
:1010E000089580E0089581E00895FC018081918158
:1010F0000E94450A0E9451080895CF93DF9300D0C3
:1011000000D01F92CDB7DEB70F900F900F900F90C9
:101110000F90DF91CF910895CF93DF9300D000D04F
:1011200000D0CDB7DEB726960FB6F894DEBF0FBE5F
:10113000CDBFDF91CF910895089508950C949D0837
:101140000C949E080E94A0086093EE017093EF013A
:101150008093F0019093F1010C9437080C94A2084D
:101160000F931F930091EE011091EF012091F00178
:101170003091F101602B712B822B932B1F910F91DA
:101180000C94A2080F931F930091EE011091EF01B0
:101190002091F0013091F101602371238223932388
:1011A0001F910F910C94A2080F931F930091EE01D1
:1011B0001091EF012091F0013091F101602771272A
:1011C000822793271F910F910C94A2080C949D08DD
:1011D0000E94E6086093EA017093EB018093EC01B2
:1011E0009093ED010C94370860E070E0CB010C9413
:1011F000E8080F931F9341E050E060E070E08A013F
:101200009B0104C0000F111F221F331F8A95D2F7C4
:10121000C901B8011F910F910C94E8080F931F9317
:1012200041E050E060E070E004C0440F551F661FCD
:10123000771F8A95D2F78091EA019091EB01A091F6
:10124000EC01B091ED018A019B01082B192B2A2B8F
:101250003B2BC901B8011F910F910C94E8080F9323
:101260001F9341E050E060E070E004C0440F551F60
:10127000661F771F8A95D2F74095509560957095B7
:101280008091EA019091EB01A091EC01B091ED0108
:101290008A019B01082319232A233B23C901B80192
:1012A0001F910F910C94E8080F931F9341E050E0B9
:1012B00060E070E004C0440F551F661F771F8A95D9
:1012C000D2F78091EA019091EB01A091EC01B091ED
:1012D000ED018A019B01082719272A273B27C9010D
:1012E000B8011F910F910C94E8080F931F93009180
:1012F000EA011091EB012091EC013091ED01602B9E
:10130000712B822B932B1F910F910C94E8080F9354
:101310001F930091EA011091EB012091EC013091B3
:10132000ED0160237123822393231F910F910C946D
:10133000E8080F931F930091EA011091EB012091AF
:10134000EC013091ED0160277127822793271F91CF
:101350000F910C94E80808952EE0929F800D1124BF
:10136000E82FE695E695E695877051E001C0550FA8
:101370008A95EAF785E0E89FF0011124E354FE4FD7
:1013800020E030E070E04081CB01022E02C0969553
:1013900087950A94E2F781708195842785238427B5
:1013A00081932F5F3F4F2530310569F708952EE077
:1013B000929F800D1124682F669566956695982FEB
:1013C000977085E0689FB001112440E050E080E014
:1013D000FB01E40FF51FE354FE4F208130E0092E9E
:1013E00002C0369527950A94E2F721703327042E20
:1013F00001C0220F0A94EAF7822B4F5F5F4F4530FE
:10140000510531F70895BF92CF92DF92EF92FF928C
:101410000F931F93CF93DF938C01C090EA01D0907C
:10142000EB01E090EC01F090ED018091EE019091E4
:10143000EF01A091F001B091F101C82AD92AEA2A5E
:10144000FB2ACFE1D0E0D701C6010C2E04C0B6952F
:10145000A795979587950A94D2F780FD04C02197A8
:1014600090F7B12C07C0BC2EB8018C2F0E94D4116C
:101470000197A9F38B2DDF91CF911F910F91FF90D1
:10148000EF90DF90CF90BF900895CF93DF93EC0162
:101490000E94030ABE010E94D411DF91CF910895EA
:1014A0001F93CF93DF93EB019091BC01992321F01F
:1014B000CB010E94450A13C0882349F0CB010E944A
:1014C000030A182F682FCE010E94AC0904C0CB017B
:1014D0000E94D709182FBE01812F0E94D411DF91DD
:1014E000CF911F910895EF92FF920F931F93CF9387
:1014F000DF938C01892B09F46CC0F12CEE24E3946A
:10150000E8012196F8018491843740F4843008F092
:1015100051C0813081F0823019F15BC0853709F408
:1015200044C0A8F19CE7980F903708F052C08F771D
:101530000E94500541C00E5F1F4FFE01849190E252
:10154000980F983050F48770FE2D01C0FF0F8A95D8
:10155000EAF78F2F0E94540E14C00E94A9042DC0D8
:101560000E5F1F4FFE01849190E2980F983060F457
:101570008770FE2D01C0FF0F8A95EAF78F2F0E941A
:101580005A0E0E94830E19C00E94500516C00E5FAD
:101590001F4FFE01C491CC2381F08FE99FE001979A
:1015A000F1F700C00000C150F6CF0E5F1F4FFE01E3
:1015B000F49003C00E94A9048E018F2D882309F4A2
:1015C0009FCFEFE9FFE03197F1F700C000008150B5
:1015D000F5CFDF91CF911F910F91FF90EF9008957C
:1015E0001F93CF93DF93C091F20116E08091F30136
:1015F000C81799F0D0E01C9FF0011D9FF00D112439
:10160000EC50FE4F408151816281738184819581CC
:101610000E948C082196C770E9CFDF91CF911F916E
:101620000895409124025091250260912602709104
:10163000270280912802909129020C948C080F9324
:101640001F93CF93DF938091290282958F7009F0C9
:101650005DC080912602882309F458C08091F20170
:101660001091F3016091240270912502C09127022C
:10167000D091280291E06F3F09F090E0292F06E019
:10168000811709F443C0209721F07F3F21F030E01B
:1016900003C031E001C0322F90E030FD34C0089F1C
:1016A000F001099FF00D1124DF01AC50BE4F1196DF
:1016B0003C911197371327C03C91361324C01296E2
:1016C0003C91129731111FC013964D915C91149764
:1016D0004C1B5D0B483C5105B0F4809129028F7082
:1016E000806180932902E750FE4F80818F70806176
:1016F000808384E292E00E940708DF91CF911F91DE
:101700000F910C94F00A01968770BACFDF91CF91B8
:101710001F910F9108959F92AF92BF92CF92DF9247
:10172000EF92FF920F931F93CF93DF93CDB7DEB766
:1017300061970FB6F894DEBF0FBECDBF8C0185E078
:10174000F801DE011D9601900D928A95E1F7F801EE
:10175000E28090912402609125022091270230912D
:1017600028022115310531F06F3F31F481E09F3FB0
:1017700019F403C081E001C080E0F82FF1709F2EC2
:1017800080FD3FC1F80140815181A380B48084E293
:10179000C82E82E0D82EF0902602F501E21BF30B52
:1017A000FF2009F4D9C080912902E83CF10508F036
:1017B00095C0282F207F09F052C0561313C049133B
:1017C00011C0FE2CE1100EC08F7080618093290241
:1017D0000E94110BC6010E94070880912902F8019E
:1017E00085834CC1AB2831F05F3F31F481E04F3F3E
:1017F00019F403C081E001C080E080FD03C081E0F6
:101800008E2502C080E090E0F82FF170FF2E80FF5F
:101810001CC08091F2012091F30136E0821709F497
:101820000BC190E0389FF001399FF00D1124EC506E
:10183000FE4F6181561306C06081461303C062816A
:10184000E61203C001968770E9CFFE2CEE2009F462
:1018500015C18091290281608093290254C05613DA
:1018600006C0491304C0E11002C0F80199C0C801C4
:101870000E947508882361F1EE2051F12091290220
:10188000822F82958F7090E0029774F080912402ED
:101890009091250298878F831986BB86AA862C870C
:1018A000CE0107960E94070886E0F801A4E2B2E0A4
:1018B00001900D928A95E1F70E941F0B0E94110B77
:1018C0000AC0561711F1C8010E94750881112CC079
:1018D000C8010E940708FF24F394D0C0282F207F5E
:1018E00081F77A2DB98AA88A6E2D89890E947D0890
:1018F00084E292E00E94070886E0F60111928A9540
:10190000E9F70E94110BF12CB9C04913DCCFE110AB
:10191000DACFF8018583C8010E94070886E0F60146
:1019200011928A95E9F7AAC0EE2091F2209129023E
:10193000822F82958F7090E002970CF4B5CF809142
:101940002402909125029A8389831B82BD82AC82F6
:101950002E83CE010196A6CFE83CF10508F044C0E5
:10196000FE2CEE2009F4B4CF561330C049132EC01C
:101970002091290220FD21C0822F82958F70482F4F
:1019800050E041155105C9F0F80125834F3051054C
:1019900041F08F5F982F9295907F822F8F70892BC7
:1019A0008583C8010E94070886E0F801A4E2B2E03E
:1019B00001900D928A95E1F73CC086E0F801A4E21F
:1019C000B2E001900D928A95E1F758C0C8010E94DB
:1019D0007508811169CF8091290281608093290265
:1019E000C8010E9407084AC07A2DB98AA88A6E2DBC
:1019F00089890E947D0886E0F60111928A95E9F7AF
:101A000018C0EE2009F464CFC8010E947508F82EB2
:101A1000882309F45DCF86E0F801A4E2B2E00190EA
:101A20000D928A95E1F784E292E00E94A3040E945D
:101A30001F0B0E94110B22C04D875E878D859E85EE
:101A40000E94450A292F22952F70223028F49F707A
:101A500039F0811105C00BC0243028F49F7049F47F
:101A6000805E883020F0C8010E9407089F2CF92C66
:101A700005C0F8019581907F99F7F9CF8F2D619678
:101A80000FB6F894DEBF0FBECDBFDF91CF911F918F
:101A90000F91FF90EF90DF90CF90BF90AF909F900D
:101AA00008951F93CF93DF93CDB7DEB72C970FB672
:101AB000F894DEBF0FBECDBF4F83588769877A8702
:101AC0008B879C87CE0107960E948B0B8823D1F0D1
:101AD0009F8188852A853B85232B31F08F3F31F408
:101AE00081E09F3F19F403C081E001C080E080FDE8
:101AF00047C04F81588569857A858B859C850E9472
:101B00008C083EC086E0FE013796DE0111960190FA
:101B10000D928A95E1F7FF81E8856A857B856115DD
:101B2000710531F0EF3F31F481E0FF3F19F403C05C
:101B300081E001C080E080FD23C02091F30130E00E
:101B4000C9010196877099274091F20150E08417EE
:101B50009507F1F1F983EA837D836C8396E0929F88
:101B6000D001939FB00D1124AC50BE4FFE013196B1
:101B700001900D929A95E1F78093F3010E94F00A8B
:101B800016E08091F2019091F301891771F1189F8D
:101B9000C00111248C509E4F0E948B0B882329F189
:101BA000E091F2011E9FF0011124EC50FE4F4081A4
:101BB000518162817381848195810E948C0880911A
:101BC000F20190E00196877099278093F201D9CFB6
:101BD0000E944D081092F3011092F201E4E2F2E04B
:101BE00086E0DF011D928A95E9F72C960FB6F894EE
:101BF000DEBF0FBECDBFDF91CF911F9108958091C1
:101C00002A02859585958595089580912A02877089
:101C1000089590912A02977081E009F480E0089578
:101C20009091A40292FB222720F9281751F080FB03
:101C300092F99093A4028091A3029091A4020C9433
:101C40001A0F08958091A40282FB882780F991E001
:101C500089270C94100E81E00C94100E80E00C94F7
:101C6000100E80914E02089590914E02892B809320
:101C70004E020895809590914E02892380934E02E2
:101C8000089510924E02089590914D02892B8093F1
:101C90004D020895809590914D02892380934D02C5
:101CA000089510924D02089590914C02892B8093D3
:101CB0004C020895809590914C02892380934C02A8
:101CC000089510924C02089580912B020895089572
:101CD0000C94670E0C94680E9091A40292FD08C0BB
:101CE00090912B02981721F080932B020C946A0E8E
:101CF000089580912B02882329F010922B0280E016
:101D00000C946A0E0895E0910001F0910101809118
:101D10004E028083E0910001F09101019081809159
:101D20004D02892B8083E0910001F09101019081A7
:101D300080914C02892B808380912B02882381F033
:101D4000E0910001F09101019081892B80838091C5
:101D50000001909101010E946B2081110E94790E77
:101D600080910001909101010C9425200C94670E44
:101D70009091A40292FD10C098E0899F90011124D7
:101D8000262B20932A020E940E0980912A02859513
:101D9000859585950C94B60E0C940E0910922A0226
:101DA00080E00C94B60E20912A02809582238093C5
:101DB0002A02982F977041F430E0482F082E000C2B
:101DC000550B2417350721F49091A40292FF07C008
:101DD0008595859585950E942F090C94CE0E0895C2
:101DE0006FEF7FEF80E090E00C94CC2980E090E0F2
:101DF0000E94A82921E0893E9E4F09F020E0822F11
:101E0000089582E090E00C949A2983E090E00C948D
:101E10009A29CF9384E090E00E949A29C82F82E209
:101E200090E00E949A292C2F30E0A901582BCA017A
:101E3000CF910895CF93C92F682F84E090E00E943E
:101E4000AE296C2F82E290E0CF910C94AE29AB01C9
:101E5000BC018FE090E00C94C029AB01BC0183E190
:101E600090E00C94C02960E070E0CB010C942D0F41
:101E700060E070E0CB010E94270F0C94330F69EEF5
:101E80007EEF80E090E00E94CC2960E082E090E06C
:101E90000E94AE2960E083E090E00E94AE2910929B
:101EA000EE011092EF011092F0011092F10160E04A
:101EB00084E090E00E94AE2960E082E290E00E941F
:101EC000AE2960E085E090E00E94AE2960E086E007
:101ED00090E00E94AE296FEF87E090E00E94AE296B
:101EE00040E050E0BA0188E090E00E94C02960E044
:101EF0008DE090E00E94AE2940E050E0BA0188E118
:101F000090E00E94C02960E087E190E00E94AE2945
:101F100040E050E0BA018CE190E00E94C02960E00E
:101F200070E080E290E00E94CC2940E050E0BA01ED
:101F300088E190E00E94C0290C94380F0C943F0F68
:101F4000682F8EE090E00C94AE290E94C32160932C
:101F50005E0270935F0280936002909361026093CF
:101F60005A0270935B0280935C0290935D02089525
:101F700085B7806885BF85B7806885BF089581E093
:101F800008950C94BF0F08950C94C30F0C94C30FC5
:101F90000C94C60F0C94C30F0C94CA0F0C94C30F6F
:101FA0000E94B80F80EB92E10E9428220E94CE0F7F
:101FB0000C94CC0F0E94C40F0C94C30F0E94AE214E
:101FC0000E94C2130E94361C0E94781A0C94C80FFB
:101FD0006F927F928F929F92AF92BF92CF92DF9239
:101FE000EF92FF920F931F93CF93DF93CDB7DEB79E
:101FF0002A970FB6F894DEBF0FBECDBF0E94D5134F
:1020000081110E94A50F30E5832E32E0932E00E06F
:1020100010E0C02E802F0E94EE125C01F40161904E
:1020200071904F016826792661147104B1F40F5F35
:102030001F4F0530110569F78FEF89838A831B8253
:102040000E94B7218160782F9D838C8349815A81BA
:102050006B818D810E9459043AC08091620281FD9A
:102060000E94F712D12CEE24E394F12CC3018E21AF
:102070009F21892B29F10E94C10F8823A9F0DE82BC
:10208000CF82AE20BF2081E0AB2809F480E08887B2
:102090000E94B7218160782F9A8789874E815F815E
:1020A00068858A850E945904000F111FF801E05BC2
:1020B000FD4F80819181E826F926F182E08207C0F8
:1020C000D394EE0CFF1CFEE0DF12D0CFB0CF0E9405
:1020D000AB1A0E94B01D0E94192090914F028917DF
:1020E000D1F00E94192080934F022A960FB6F894DF
:1020F000DEBF0FBECDBFDF91CF911F910F91FF903B
:10210000EF90DF90CF90BF90AF909F908F907F9097
:102110006F900C9450042A960FB6F894DEBF0FBE51
:10212000CDBFDF91CF911F910F91FF90EF90DF9086
:10213000CF90BF90AF909F908F907F906F900895B9
:1021400080E090E00895089526E4829FC001112464
:10215000FC012EE0729FE00DF11D1124E60FF11D30
:10216000EE0FFF1FE658FE4F859194910895880F5A
:10217000991FFC01E25EFC4F859194910895CF93E5
:10218000DF930E94D911EC01811520E5920708F038
:1021900041C0811540E4940708F0CBC0803E910512
:1021A00020F5803C910508F0B8C0883A910570F49C
:1021B000853A910508F0A8C08130910509F4A1C0C5
:1021C00008F4EBC0049708F0EBC0E7C08F3B910523
:1021D00008F0E3C0885AC82FD0E0CC0FDD1FCF5ADB
:1021E000DE4F888199819464DCC0811550E29507A7
:1021F00050F4C11581E0D80708F0D2C0C83ED1051F
:1022000008F4CEC0CAC0811520E3920708F08AC046
:102210009F7085C0811545E5940708F046C081157B
:1022200054E5950708F09DC0C11582E5D80718F55B
:10223000C11521E5D20708F07FC0CE01F4E09695E4
:102240008795FA95E1F7282F23703C2F337081E0B2
:1022500090E002C0880F991F3A95E2F79C68922B94
:102260002C2F2F702695269540E2249F9001112453
:10227000822B932B96C09E01237033279C2F96951B
:102280009695C115D34508F05CC041E050E002C00E
:10229000440F551F2A95E2F780E2989F9001112480
:1022A000CA01822B932B9C687CC0811559E5950748
:1022B00098F4C11588E5D80708F058C0C11526E57F
:1022C000D20708F06AC08C2F0E946D128F7190E0C7
:1022D000982F8827906265C081154AE5940708F415
:1022E0004AC090568115904208F057C08D2F8F71CB
:1022F0000E946D129E01332730628F71A901582B05
:102300004AC081E090E04DC0855AC82FD0E0C15846
:10231000DE4F888190E0906444C0805C91090E9407
:10232000B7103FC09927D3FF02C0986C3AC0906C99
:1023300038C09F70906A35C09C2F8827816F906A43
:1023400030C041E050E002C0440F551F2A95E2F72B
:1023500080E2989F90011124CA01822B932B9A68E6
:1023600020C0982F8827846F906A1BC09C2F8827D5
:10237000806F906A16C08F700E946D129E0194E06B
:10238000369527959A95E1F72F7030E0322F222766
:102390003069A901482BCA0104C080E090E001C067
:1023A000CE01DF91CF9108950E94A4100E94BF102A
:1023B00008958238910569F1B0F48133910509F4EB
:1023C0006DC048F48932910509F463C08A329105E1
:1023D00009F469C008958533910509F455C089331E
:1023E0009105B9F00895833E910569F138F4803E76
:1023F0009105B1F0823E910509F10895863E91055F
:10240000A9F1873E9105B9F1843E910509F064C0B8
:1024100023C02091A30220FD4FC021FD4DC008958F
:102420008091A30280FD44C08091A40280FF44C03B
:102430008091A30284FD42C083EE4DC08091A3022F
:1024400082FF38C0F5CF8091A30282FD33C0809116
:10245000A40280FD31C0ECCF8091A40281FF32C084
:102460008091A30284FD2AC087EE35C08091A3022B
:1024700083FF26C0F5CF8091A30283FD21C0809108
:10248000A40281FD1FC0ECCF8091A30285FD1CC07A
:102490001DC08091A30285FD19C016C08091A302C2
:1024A00086FD16C017C08091A30286FD13C010C020
:1024B00089E311C082EE0FC080EE0DC080E00BC03A
:1024C00086EE09C084EE07C089E205C085E303C03B
:1024D0008AE201C081E390E008959091A30292FF07
:1024E0000DC0282F2871283019F4877F846006C01A
:1024F000282F2471243011F48B7F886093FF0DC046
:10250000282F2871283119F4877E846106C0282F6E
:102510002471243111F48B7E88612091A40220FF64
:102520000DC0382F3871383019F4877F816006C0AC
:10253000382F3171313011F48E7F886021FF0DC04A
:10254000282F2871283119F4877E816106C0282F31
:102550002171213111F48E7E886194FD877E08956A
:1025600080E008950C94F00E0E94D5138FE39CE94F
:102570000197F1F700C000000E94D51380E00E948F
:10258000EE1280FF04C00E94B2120C94042208953F
:102590000C94B4120E94F60E811102C00E949E0F8C
:1025A0000E94010F809362020E94090F9093A4027F
:1025B0008093A3020E94C8120E94050F682F70E04A
:1025C00080E090E00E94AE086091EA017091EB011A
:1025D0008091EC019091ED010C94E608E82FF0E079
:1025E000EE0FFF1FE155FD4F808191810895089501
:1025F00080EA8A95F1F7089500C008950C94F812C6
:1026000008950C9400130C9401130C9400130C9473
:102610000513F894E82FE295EF70F0E031A1282F30
:102620002F7081E090E001C0880F2A95EAF7982F7B
:102630009095932391A392A1892B82A378940895D6
:102640000F931F93CF93DF93C2E8D1E089918F3F1F
:1026500011F00E94091381E0C039D807B9F7C0E929
:10266000D1E005E911E089918F3F11F00E94091333
:102670000C171D07C1F7DF91CF911F910F9108959E
:10268000CF92DF92FF920F931F93CF93DF93062F8A
:1026900010E00E571E4FD8012C912F3F09F46AC04D
:1026A000C62FD92FF82EF894E22FE295EF70F0E0C4
:1026B00031A12F70CC24C394D12CC60101C0880F46
:1026C0002A95EAF7932F982B91A392A180958923BD
:1026D00082A378940E94FC1296010C2E02C0220F55
:1026E000331F0A94E2F7B9016095709590E9C92EFD
:1026F00091E0D92EEF2DFD2FAF01465F5F4FD0E067
:10270000D601FD906D01BFEFFB16C9F08F2D8295AC
:102710008F7090E0DC0190968C9190E0BF2DBF709F
:1027200002C095958795BA95E2F780FD08C0808133
:102730009181822B932B91838083D1E006C080818D
:10274000918186239723918380833296E417F5073E
:10275000B9F6F80180818F3F11F00E9409136D2FA7
:102760008C2FDF91CF911F910F91FF90DF90CF9031
:102770000C94FE12DF91CF911F910F91FF90DF908B
:10278000CF9008950E942013E5EAF2E0AFEAB2E0AC
:10279000119211921D921D9282E0EF3AF807C1F753
:1027A00085E00E9420140C94CE03FF920F931F9398
:1027B000CF93DF93CDB7DEB72A970FB6F894DEBF7D
:1027C0000FBECDBF8E010F5F1F4F8AE0F80111923F
:1027D0008A95E9F7F12C6F2DC8010E944013F394FC
:1027E000FEE0FF12F8CF4AE050E0B80185EA92E03F
:1027F0000E948D29FF24F394009709F4F12C892B72
:1028000041F08AE0F801A5EAB2E001900D928A95C4
:10281000E1F72F2D45E06FEA72E085EA92E00E9431
:1028200021140E94D6038F2D2A960FB6F894DEBF8E
:102830000FBECDBFDF91CF911F910F91FF900895F3
:102840000895FF920F931F93CF93DF93F82E092FD4
:10285000162FD72FC42F222349F081E080936502E1
:102860000E94B72190936402809363028091650275
:102870008823D9F080916302909164020E94CF2155
:10288000059798F0EF2DF02FA12FBD2F80E090E05D
:102890004C2F50E08417950734F4219131912D93FA
:1028A0003D930196F7CF10926502DF91CF911F9172
:1028B0000F91FF9008950E9429210E9480230E9479
:1028C00099230E94AB230E94DA0FFBCF0F931F9333
:1028D00041E050E060E070E08A019B0104C0000F1D
:1028E000111F221F331F8A95D2F7C901B8010E9418
:1028F000AE081F910F910C944D08482F50E0FA013B
:102900003597EF33F10508F060C0EC58FF4F0C9499
:102910003D290E949E0F55C080916202817F8E7F6B
:102920008093620281E08093660208950E94D90339
:1029300048C080916202982F9095917090FB80F929
:102940008093620291113DC0897F877F10C0809182
:10295000620281FB222720F991E0922790FB81F906
:1029600080936202992369F1809162028160809371
:10297000620227C08091620282FB222720F991E047
:10298000922790FB82F9ECCF8091620283FB222791
:1029900020F991E0922790FB83F9E2CF0E944D0845
:1029A0008091A30287FB222720F991E0922790FBD8
:1029B00087F98093A30205C0895301C08D510E94FD
:1029C000661481E0089580E0FACF80E0089580E009
:1029D00008950C94E714CF93C82F80916602882342
:1029E00019F0813031F02BC00E94310E823249F54E
:1029F00004C00E94310E823261F48C2F0E94E914CF
:102A0000811104C08C2F0E947D1417C081E090E0DA
:102A100014C08C2F0E94E71481110EC0C43149F0FC
:102A200018F4CB3049F00FC0C93219F0C83321F087
:102A30000AC01092660207C081E0817006C0109241
:102A4000660280E002C080E0F8CFCF910895EF9257
:102A5000FF920F931F93CF93DF938B01682F111178
:102A60000AC0442329F0E82FF0E0EB5CFB4F6491AF
:102A7000762F862F75C0212F30E0E82FF0E0442319
:102A800021F0EB5CFB4FE491F0E046E0049FC001D5
:102A90001124CFEFD0E0BE010E94F3284BEA460399
:102AA000C001479F900D1124800F911D800F911D33
:102AB000982F990F890FAE01421B530B4E9FD001E7
:102AC0004F9FB00D5E9FB00D11249B2F189FA0014A
:102AD0001124452F55278E01041B150B0E9FA001B5
:102AE0000F9F500D1E9F500D11247E01E81AF10812
:102AF000E29E8001E39E100DF29E100D1124212F05
:102B00003327C21BD30BCE9F9001CF9F300DDE9F8A
:102B1000300D112462307105A9F048F4611571057A
:102B200069F061307105C9F48B2F752F0DC06430C9
:102B3000710581F058F06630710579F47E2F8B2F86
:102B4000932F0DC0832F7B2F9E2F09C08E2F7B2F9D
:102B5000952F05C08E2F732F02C07E2F852F692FD2
:102B6000DF91CF911F910F91FF90EF90089541E079
:102B70000E942715089508950E94B7150895CF93D0
:102B8000DF93762FE901682F842F0E94BC1579838B
:102B900068838A83DF91CF9108958091B902282FAD
:102BA000269530E02115310519F48170826005C049
:102BB0002532310524F0817088648093B90208952C
:102BC00088E090E00C94A229CF92DF92EF92FF92DE
:102BD0006B017C010E94CD15B701A60188E090E051
:102BE000FF90EF90DF90CF900C94C029E9EBF2E0DA
:102BF00083E0808311828FEF8283838314826081DC
:102C00007181828193810C94E4158091B90280FFD7
:102C100002C08695089580E008959091BD0293309A
:102C200018F49F5F9093BD02882351F06091B90220
:102C30007091BA028091BB029091BC020C94E41591
:102C4000089581E00C940D169091BD02992319F01E
:102C500091509093BD02882351F06091B902709118
:102C6000BA028091BB029091BC020C94E4150895C5
:102C700081E00C94241670E00C94C11D6091060153
:102C80008091B90280FF0AC08091050123E0829FF4
:102C9000C001112482549D4F0C943B168091070172
:102CA00090910801891780F7E82FF0E09F01220F2B
:102CB000331FE20FF31FE254FD4F11821082128284
:102CC0008F5FF0CF9091B90290FF16C090910701ED
:102CD00020910801921770F4E92FF0E0DF01AA0FAC
:102CE000BB1FEA0FFB1FE254FD4F818360834283C9
:102CF0009F5FF0CF0C943E160895CF93DF9300D0E2
:102D00001F92CDB7DEB79091B90290FF0AC09E0125
:102D10002F5F3F4F0E94BF154B8169818A810E94BE
:102D200062160F900F900F90DF91CF910895CF937F
:102D3000DF93EC01EC81F0E0E05DFC4F4491E9EBC6
:102D4000F2E0628181810E947D168C818F5F8C838D
:102D5000DF91CF910895CF93DF93EC01E9EBF2E09F
:102D6000438162818C810E947D168C818F5F8C8370
:102D7000DF91CF9108950F931F93CF93DF9300D0EE
:102D80001F92CDB7DEB78C018091670281110AC016
:102D90009E012F5F3F4F4FEF6FEF0E94BF158A815B
:102DA00080936702F8018481813051F028F08230ED
:102DB00061F4409167020AC08091670240E007C059
:102DC0006091670240E080E003C040E080E060E0A6
:102DD0000E946216F801848190E0019663E070E041
:102DE0000E94072984830F900F900F90DF91CF915D
:102DF0001F910F910895AF92BF92CF92DF92EF9201
:102E0000FF920F931F93CF93DF9300D01F92CDB704
:102E1000DEB7182FF62E042FE22E9091B90290FF04
:102E20006DC0E92FE695AE2FB0E0AB56BE4F8C914A
:102E3000809371029E7F923061F49E012F5F3F4F1D
:102E4000812F0E94BF154B8169818A810E94621681
:102E500043C0823019F40091BC023EC0863019F4A0
:102E60001091BA0239C08930D9F38931A9F5E951F5
:102E70008E2F8170D82EE695F0E0E05DFB4FA59097
:102E8000B490C12CBB2460910901C61618F52C2DF5
:102E900030E0A29EC001A39E900DB29E900D112421
:102EA00070E00E94F328812FD11002C0860F01C06C
:102EB000861B90910701290F311DA901440F551F51
:102EC000240F351F22543D4F402F6F2D0E94BF15F8
:102ED000C394D9CF0E943E161093BA02F092BB025F
:102EE0000093BC02EE2051F06091B9027091BA02D9
:102EF0008091BB029091BC020E94E4150F900F904C
:102F00000F90DF91CF911F910F91FF90EF90DF9085
:102F1000CF90BF90AF900895E9EBF2E09181282F18
:102F2000438162818CE0890F0C94FB1681E00C9444
:102F30008C17E9EBF2E09181282F4381628184EFC5
:102F4000890F0C94FB1681E00C949917E9EBF2E0E1
:102F500062812CE0620F08F46FEF282F438181819A
:102F60000C94FB1681E00C94A617E9EBF2E0628169
:102F70002CE0621B08F460E0282F438181810C94CF
:102F8000FB1681E00C94B517E9EBF2E043812CE0ED
:102F9000420F08F44FEF282F628181810C94FB16B9
:102FA00081E00C94C417E9EBF2E043812CE0421B72
:102FB00008F440E0282F628181810C94FB1681E0A7
:102FC0000C94D31720E00C94FB16FF920F931F93E1
:102FD000CF93DF93EC01F12C0FEF10E0609109012A
:102FE000F616F0F4809107012F2D30E0280F311DE7
:102FF000C901880F991F280F391F22543D4F70E0D7
:10300000C8010E940729962F8C814091BC026091D3
:10301000BB02F99E800D11240E94BF15F394DECFF0
:103020000E943E169A818C8190FF02C08F5F01C082
:1030300081508C83DF91CF911F910F91FF90089564
:10304000AF92BF92CF92DF92EF92FF920F931F93B6
:10305000CF93DF93FC01828180FF02C00FEF01C09C
:1030600001E010E04AE0A42E80910901181708F051
:1030700043C080910701C12ED12CE601C80FD11D9C
:10308000CE01880F991FC80FD91FC254DD4F198276
:1030900018821A8234E0E32EF12CB12C809169025F
:1030A0008B0D8B302CF06A2D0E94E528892F05C0EE
:1030B00087FF03C090910901890F082E000C990B1E
:1030C000C816D90691F48091BC028E9DA0018F9DF7
:1030D000500D112455954795559547959E01609142
:1030E000BB028091BA020E94BF15B00EF1E0EF1A48
:1030F000F108A1F61F5FB8CF0E943E1680916902C9
:10310000013031F4811102C080910901815007C062
:1031100090E001966091090170E00E940729809378
:103120006902DF91CF911F910F91FF90EF90DF9097
:10313000CF90BF90AF900895CF9380910701909169
:103140000801891770F4E82FF0E09F01220F331F68
:10315000E20FF31FE254FD4F1182108212828F5F43
:10316000F0CFC0E060910901C617C0F5EC2FF0E088
:1031700070E0CF010E94072920910701820F209162
:103180006802022E000C330B90E0E217F307CCF03C
:1031900020910401022E000C330B2E173F078CF0F8
:1031A0009C01220F331F820F931F9C0122543D4F1D
:1031B0004091BC026091BB028091BA020E94BF158F
:1031C0000BC0FC01EE0FFF1F8E0F9F1FFC01E2548E
:1031D000FD4F118210821282CF5FC4CF0E943E1633
:1031E0002091030180916802820F80936802909180
:1031F0000401920F9093040119165CF4082E000C40
:10320000990B4091090150E04150510984179507ED
:103210001CF0219520930301CF9108958F929F92E6
:10322000AF92BF92CF92DF92EF92FF920F931F93D4
:10323000CF93DF938C01FC014481C42FD0E09E0129
:10324000DE010E944B299B01AC010E9461296B01A8
:103250007C01E0E2F0E0EC1BFD0BA5E5B0E09B019A
:10326000AC010E9461294B015C019F01DF010E94BA
:1032700043299B01AC010E946C299B01AC012C0DE0
:103280003D1D4E1D5F1DC501B4010E941B29C22FAB
:10329000D22F2A3228F4F3E02F9F900111240DC081
:1032A00025E530E02C1B3109C901880F991F280F33
:1032B000391F37FF02C02F5F3F4F35952795C22F2B
:1032C000C095F12C85E5E82EED1A80910901F816DC
:1032D000C8F4F1FC02C08E2D01C08D2F9091070122
:1032E0002F2D30E0290F311DA901440F551F240F48
:1032F000351F22543D4F4C2F6091BB020E94BF15D9
:10330000F394E3CF0E943E16F8018481811102C03C
:1033100091E003C0803219F49FEF909302019091E5
:103320000201890FF8018483DF91CF911F910F91E2
:10333000FF90EF90DF90CF90BF90AF909F908F90D5
:1033400008950F931F93CF93DF93EC0100E010E0FB
:1033500080910901282F30E00217130724F590917E
:1033600007019801290F311DA901440F551F240F92
:10337000351F22543D4F869590E04C810817190760
:103380001CF4442331F002C0411103C04091BC023F
:1033900001C040E06091BB028091BA020E94BF155B
:1033A0000F5F1F4FD5CF0E943E168C8190E0019693
:1033B000817099278C83DF91CF911F910F91089590
:1033C000E9EBF2E080818E7F808360817181828170
:1033D00093810E94E415109272022FEF80E792E031
:1033E000215080409040E1F700C000000C943E1650
:1033F0006091B902669570E04BE050E08AE091E0A0
:103400000E948029892B19F481E0809372020E9426
:10341000B72190936B0280936A0208959091B9024C
:1034200090FF35C09170811102C0926006C0853254
:1034300010F0986402C0880F982B9093B90266230D
:1034400051F06091B9027091BA028091BB029091E3
:10345000BC020E94E4156091B902669570E04BE0F1
:1034600050E08AE091E00E948029892B19F01092A7
:10347000720202C00E94F81981E080936D024091AF
:10348000BC026091BB028091BA020C94E2170895CD
:10349000682F9091B902969581E0890F853208F0E6
:1034A00081E00C940E1A81E00C94481A682F9091D8
:1034B000B90296958FEF890F09F484E20C940E1AE5
:1034C00081E00C94561A61E00C940E1AE9EBF2E0DC
:1034D00080818160808386950C94631A8091B90203
:1034E00080FD0C94E0190C94661A60E00C940E1A9E
:1034F0008091700281112EC00E94F60E811104C0CD
:103500000E949E0F0E94F6150E94E0156093B9027A
:103510007093BA028093BB029093BC026E7F61F4F9
:103520000E94F6150E94E0156093B9027093BA02EA
:103530008093BB029093BC020E94CD151092720240
:103540008091B90280FF03C086950E94751A81E0C0
:103550008093700208950F931F93CF93DF93809110
:103560007202882309F485C080917102E091B9024A
:10357000E695E81BE0936C02823049F4F0E0E45DEC
:10358000FC4FE491CE2FD0E007E916E149C0863028
:1035900049F4F0E0E75DFC4FE491CE2FD0E00BEA78
:1035A00016E13EC0893051F4E695F0E0EA5DFC4F4B
:1035B000E491CE2FD0E005EE17E132C08F3051F408
:1035C000E695F0E0ED5DFC4FE491CE2FD0E000E217
:1035D00018E126C0853149F4F0E0E05EFC4FE4914B
:1035E000CE2FD0E00CE918E11BC0883181F0833286
:1035F00039F4EEE1F3E0C591D4910BEB16E110C084
:10360000843251F4C4EFD1E001EA19E109C0C8E203
:10361000D0E00EE019E104C0C0EDD7E00BEB15E1FE
:1036200080916D02882361F010926D020E94B72193
:1036300090936B0280936A0210926F0210926E0256
:103640000E94B721E0916A02F0916B028E1B9F0BE2
:103650008F3F9F4770F4EC0FFD1FF0936B02E093D8
:103660006A028AE692E0F801DF91CF911F910F91F3
:103670000994DF91CF911F910F910895882311F044
:10368000FA0101C0FB010994CF93DF93C82FD62F15
:103690000E9405168C1740F00E9405168D1720F425
:1036A000DF91CF910C94531A8C2FDF91CF910C9412
:1036B000631A1F93CF93DF93FB011281112309F447
:1036C000BCC0EC010E94310E8272CD3CFCE5DF07EC
:1036D00009F497C008F043C0C73CECE5DE0709F4E5
:1036E0007CC0D8F4C43C9CE5D90709F46AC038F41E
:1036F000C33CDC4509F0A4C00E946E1AA0C0C53CC2
:103700009CE5D90709F462C0C63CDC4509F098C0C5
:1037100043EA57E166E977E15DC0CA3CFCE5DF07B3
:1037200009F465C070F4C83CECE5DE0709F45AC042
:10373000C93CDC4509F084C042EB57E161EC77E11C
:1037400049C0CB3C9CE5D90709F456C0CC3CDC45CC
:1037500009F076C048E356E161E276E13BC0C23D44
:10376000FCE5DF0709F45AC098F4CF3C9CE5D90783
:1037700009F44EC008F44AC0C03DFCE5DF0709F477
:103780004AC0C13DDC4509F05BC06EE089E04EC037
:10379000C53D9CE5D90709F447C050F4C33DFCE59D
:1037A000DF07F9F1C43DDC4509F04AC088E142C0B9
:1037B000C63D9CE5D907E9F1CE35DD4509F43FC0AA
:1037C0003FC040E65AE163E57AE104C043E55AE1CF
:1037D00060E67AE10E943E1B32C046E957E163EAA7
:1037E00077E1F8CF41EC57E162EB77E1F3CF4FEDB2
:1037F00057E160ED77E1EECF40ED57E16FED77E116
:10380000E9CF41E256E168E376E1E4CF81E012C01E
:1038100065E082E00BC068E086E008C064E18FE00C
:1038200005C067E185E102C062E289E10E94441BB4
:1038300006C083E20E94631A02C011E001C010E0DA
:10384000812FDF91CF911F91089586E090E00C9435
:103850009A29682F86E090E00C94AE298091DC02D2
:10386000847081638093DC020C94291C0E94F60E04
:10387000811104C00E949E0F0E942E1C0E94251CD4
:103880008093DC02282F26952695269530E0273058
:10389000310524F0877080638093DC028091DC0224
:1038A00080FF04C086958695869501C080E00C94C3
:1038B000471D2091DC02822F869586958695482F9C
:1038C00050E04630510554F48F5F982F990F990FAF
:1038D000990F822F8770892B8093DC028091DC0204
:1038E00081608093DC020E94291C8091DC02869515
:1038F000869586950C94471D8091DC02982F9695AD
:1039000096959695A1F0915E990F990F990F8770F2
:10391000892B8093DC02887F91E009F490E080910C
:10392000DC0290FB80F98093DC020E94291C8091CC
:10393000DC028695869586950C94471D8091DC0265
:1039400080FD13C081608093DC02813019F489E02E
:103950008093DC028091DC020E94291C8091DC02B1
:103960008695869586950C94471D08958091DC0276
:1039700080FF08C08E7F8093DC020E94291C80E0BB
:103980000C94471D08958091DC0280FD0C94B61CB8
:103990000C949E1C9091DC02892F869586958695C5
:1039A0008F5F8F719770873038F4880F880F880F7A
:1039B000892B8093DC0202C09093DC028091DC02B0
:1039C000887F91E009F490E08091DC0290FB80F91F
:1039D0008093DC020E94291C8091DC0286958695EA
:1039E00086950C94471D873008F086E09091DC02A4
:1039F0009770282F220F220F220F922B9093DC0218
:103A0000987F21E009F420E09091DC0220FB90F9FE
:103A10009093DC020C94471D0E94F31C8091DC0201
:103A20000C94291C9C01FB018281882349F12E3BC7
:103A3000FCE53F07C9F040F42C3BECE53E0769F09C
:103A40002D3B3C4561F00895203C9CE5390791F001
:103A500070F0213C3C4589F0089586E001C080E08B
:103A60000E940C1D80E008950E947C1CFBCF0E94E8
:103A7000591CF8CF0E94C31CF5CF0E94CA1CF2CF7C
:103A800081E00895279A2F9808952F980895CF924E
:103A9000DF92EF92FF92CF93C82F873050F48111BD
:103AA00009C080918000877F809380000E94451D1F
:103AB00006C0C6E0809180008860809380002C2F33
:103AC00030E0AFEFBFEF0E944B2926E030E040E04E
:103AD00050E00E941B29B42FA32F922F8827492F33
:103AE0005A2F6B2F7727CA014C3724E1520728F44D
:103AF00069E070E00E94F32829C0DB01CA018A5006
:103B0000974DAF4FBF4F6627782F892F9A2F25EFFC
:103B100038E241E050E00E941B2969017A01CA01A4
:103B2000B9010E94D5289B01AC01C701B6010E94D2
:103B3000D528BB27A92F982F872F009721E0A20710
:103B4000B10511F0BC0102C06FEF7FEF70938D00E3
:103B500060938C00CF91FF90EF90DF90CF9008950D
:103B600008950E94421D8AE08093800089E180933D
:103B700081008FEF9FEF90938700809386000C94D5
:103B8000361C879A21B32F7731B330684FB7F8943A
:103B9000FC01CB01880F991F680F791F6E0F7F1FE3
:103BA000E617F70789F0819198E031BB000000C06B
:103BB00087FF21BB880F000000C000C000C021BBF0
:103BC00000C09A9591F7ECCF4FBF8FE594E0019735
:103BD000F1F700C0000008950F931F93CF93DF9378
:103BE000C42FD22FFC0182818823C9F04093750233
:103BF0000E94B721909374028093730280E28C0F2D
:103C0000883008F057C0C77081E001C0880FCA959E
:103C1000EAF7DF91CF911F910F910C94CF0580911E
:103C20007502481330C080917302909174020E9413
:103C3000CF21883C910538F510E21D0FCD17B9F062
:103C400080E28C0F883040F4C77081E001C0880F9B
:103C5000CA95EAF70E94D605183028F581E09D2F15
:103C6000977001C0880F9A95EAF70E94CF05802FC0
:103C70000E94C6051830F0F4D77081E001C0880FAB
:103C8000DA95EAF70AC080E28C0F883098F4C770A2
:103C900081E001C0880FCA95EAF7DF91CF911F91AB
:103CA0000F910C94D605802FDF91CF911F910F912A
:103CB0000C94C605DF91CF911F910F9108950F933A
:103CC0009C01CB01243F4CE5340731F188F4293DB8
:103CD000FCE53F07D9F02A3D4CE5340779F1283D52
:103CE0003C45A9F506E221EE41EE68ED7CE52BC0EE
:103CF000263FFCE53F07E1F0A8F0273F3C4539F5BA
:103D000007E225EE46EE67EF7CE51DC007E225EEF3
:103D100045EE69ED7CE517C006E221EE40EE64EF6A
:103D20007CE511C007E225EE44EE65EF7CE50BC0B3
:103D300006E221EE42EE66EF7CE505C008E221E0F6
:103D400045EE6AED7CE50E94EC1D80E008C0FC01B8
:103D50008281882319F01092750201C081E00F91D1
:103D60000895CF93DF93EC01FB018281882309F44E
:103D700026C1C430FDE5DF0760F4CB3F9CE5D907E1
:103D800068F49E0122503C452431310508F018C1E9
:103D900005C0C236EDE5DE0709F012C10E94090F29
:103DA0009093A4028093A302C031FCE5DF0709F4DD
:103DB000CAC008F041C0C8309CE5D90709F4A4C0C6
:103DC000F0F4C430FCE5DF0709F48CC068F4C230BD
:103DD0009CE5D90709F482C0C330DC4509F0E5C091
:103DE0008091A3028260DFC0C630FCE5DF0709F4E2
:103DF00083C008F085C08091A3028860D4C0CC3015
:103E00009CE5D90709F490C068F4CA30FCE5DF07E7
:103E100009F47EC008F084C00E944D088091A3027E
:103E20008068C1C0CE309CE5D90709F481C008F094
:103E300086C08091A30294C0CD3FFCE5DF0709F462
:103E40007BC038F5C4319CE5D90709F49AC058F411
:103E5000C231FCE5DF0709F47AC008F07EC080912A
:103E6000A3028F7BA0C0CB3F9CE5D907F1F108F0FE
:103E70003FC0C531DC4509F098C08091A30282FBA8
:103E8000222720F991E0922790FB82F990FB83F999
:103E90008AC0C1308DE5D80709F467C050F480911D
:103EA000A402CF3FECE5DE07C1F108F05BC08D7FD7
:103EB00065C0C3308DE5D80709F471C008F46DC042
:103EC000C236DD4509F071C08091A30284FB222730
:103ED00020F991E0922790FB84F965C08091A302BC
:103EE000816061C08091A30216C08091A40216C0B7
:103EF0008091A402826042C08091A302806153C07D
:103F00008091A30280624FC08091A30280644BC065
:103F10008091A3028860846046C0826081602EC068
:103F20008091A3028E7F3FC08091A3028D7F3BC012
:103F30008091A302877F37C08091A40214C0809132
:103F4000A3028F7E30C08091A3028F7D2CC00E947F
:103F50004D088091A3028F7726C08091A302877FAE
:103F60008B7F21C08D7F8E7F09C08091A402982F06
:103F7000909591708E7F892B90FB81F98093A4029C
:103F800014C00E944D088091A30287FB222720F9CC
:103F900091E0922790FB87F906C081E001C080E0A4
:103FA0000E94A00F02C08093A3028091A30290916F
:103FB000A4020E941A0F0E944D0880E001C081E017
:103FC000DF91CF910895CF93DF9386319C4541F5E2
:103FD000EB010E94310E982F8A81209100013091CF
:103FE0000101882379F09A7A81E009F480E08093D6
:103FF0007602911102C069E201C065E3C9010E9425
:1040000001210AC080917602811102C069E201C0DB
:1040100065E3C9010E940C210E94830E80E001C06B
:1040200081E0DF91CF91089590937C0280937B0291
:104030000895E0917B02F0917C02309721F001908D
:10404000F081E02D099480E00895E0917B02F091E9
:104050007C02309799F020911F01222359F0209182
:10406000A30227FF07C0DC012C9111962C93119716
:1040700025E02C930280F381E02D0994089520918E
:10408000790230917A022817390771F090937A02F9
:1040900080937902E0917B02F0917C02309721F0CD
:1040A0000680F781E02D09940895209177023091E0
:1040B00078022817390771F090937802809377027D
:1040C000E0917B02F0917C02309721F00084F18531
:1040D000E02D09940895FC01329680911F018823F8
:1040E00031F08091A30287FF02C09EE101C096E0FB
:1040F00080E0915028F021912223D9F38F5FF9CFEE
:104100000895662351F120911F012223E9F02091A7
:10411000A30227FF19C0462F4695469546954E3176
:10412000E0F4677021E030E002C0220F331F6A958F
:10413000E2F7FC01E40FF11D828190E0282339238E
:1041400081E0232B69F409C0FC0132960896219185
:10415000621729F0E817F907D1F780E0089581E0A8
:1041600008959C01FC0132969FEF80E04191461733
:1041700089F09F3F19F4411101C0982F8F5F86305D
:10418000A9F79F3F39F0F901E90FF11D97FDFA9565
:104190006283089508959C012A5F3F4FFC0142818C
:1041A000461301C01282019682179307B9F708954A
:1041B000262F2695269526952E3168F4FC01E20FD0
:1041C000F11D677021E030E001C0220F6A95EAF727
:1041D0008281282B22830895262F269526952695C1
:1041E0002E3170F4FC01E20FF11D677021E030E028
:1041F00001C0220F6A95EAF7209582812823228345
:10420000089520911F01222329F02091A30227FD68
:104210000C94D8200C94B12020911F01222329F066
:104220002091A30227FD0C94EC200C94CB2020912C
:104230001F01FC013296222331F08091A30287FFF7
:1042400002C08EE101C086E0DF011D928A95E9F788
:104250000895089508950C942A210C942A21CF934F
:104260000E942D210E94D5130E942B21C0E08C2F8B
:104270000E94EE12892B29F4CF5FC530C1F780E090
:1042800001C081E0CF9108950C942A210C9444211F
:104290008091E502843061F10E94462180E00E9415
:1042A000471D80E00E94500410927D0220E488E1C6
:1042B00090E00FB6F894A895809360000FBE20930D
:1042C000600083B7817F846083BF83B7816083BFD1
:1042D0007894889583B78E7F83BF0FB6F894A8959E
:1042E00080916000886180936000109260000FBE32
:1042F00008950C942A210E944D080E94361C0E94A9
:1043000019200E9450040C9479211F920F920FB62D
:104310000F9211248F939F93AF93BF9380917D024F
:10432000811113C08091DD029091DE02A091DF0225
:10433000B091E0024196A11DB11D8093DD029093E2
:10434000DE02A093DF02B093E002BF91AF919F9194
:104350008F910F900FBE0F901F90189582E084BD33
:1043600093E095BD9AEF97BD80936E0008952FB7A7
:10437000F8948091DD029091DE02A091DF02B0916D
:10438000E0022FBF08952FB7F8946091DD0270917D
:10439000DE028091DF029091E0022FBF08959C0120
:1043A0004FB7F8948091DD029091DE02A091DF0278
:1043B000B091E0024FBF821B930B089578941F9237
:1043C0000F920FB60F9211248F939F93AF93BF93C9
:1043D0008091DD029091DE02A091DF02B091E002B7
:1043E0000196A11DB11D8093DD029093DE02A09382
:1043F000DF02B093E002BF91AF919F918F910F9038
:104400000FBE0F901F90189581E08093E00080E22E
:104410008093D8001092C9008FE19EE40197F1F7D4
:1044200000C0000087E090EBDC018093EE029093E7
:10443000EF02A093F002B093F1029CE088E10FB686
:10444000F894A895809360000FBE90936000FFCF12
:104450009093BB018093BA0108958091A1020895C1
:104460009091E502943031F580937E027093800242
:1044700060937F0282E08093E9008FEF9091E800E3
:10448000815095FD06C095ED9A95F1F700008111D8
:10449000F5CF8091E80085FF0DC040E050E063E07B
:1044A00070E08EE792E00E9437248091E8008E77DA
:1044B0008093E8000895BC0184E00C943022BC0194
:1044C00083E00C943022CF93DF9320911F012223AD
:1044D00039F02091A30227FF03C060E222E002C06E
:1044E00068E021E02093E9002FEF3091E8002150AF
:1044F00035FD06C035ED3A95F1F700002111F5CFF5
:104500002091E80025FF1DC0EC0180911F01811161
:1045100005C040E050E068E070E003C070E040E0BB
:1045200050E0CE010E9437248091E8008E7780937E
:10453000E80080E2FE01A1E8B2E001900D928A95C8
:10454000E1F7DF91CF91089508958091E402811100
:1045500009C00E94C8250E9425268091E20084603F
:104560008093E20008951092E4020895089508955A
:10457000089542E061EC81E00E94412542E261EC55
:1045800082E00C9441258091E702833009F460C0F9
:1045900030F4813071F0823009F499C008958A3086
:1045A00009F485C08B3009F46BC0893009F0A7C0CD
:1045B00020C08091E602813A09F0A1C08091E80014
:1045C000877F8093E8008091EA029091EB02892B2B
:1045D00021F460E281E892E003C060E080E090E0D6
:1045E00070E00E9482248091E8008B778093E8003D
:1045F00008958091E602813209F081C08091EA023B
:104600009091EB02029708F07AC08091E800877FD2
:104610008093E8008091E80082FD05C08091E5026A
:104620008111F8CF6CC02091F3008091F20090E0EE
:10463000922B029729F48091F1008B7F813021F435
:104640008091F1008093A1028091E8008B7753C0A4
:104650008091E602813A09F052C08091EA0290917D
:10466000EB02892B09F04BC08091E800877F809393
:10467000E8008091E80080FFFCCF80911F0136C0E8
:104680008091E6028132D9F58091EA029091EB02A5
:10469000892BA9F58091E800877F8093E8000E942C
:1046A00076258091E80280931F010C944D0880913B
:1046B000E602813221F58091E800877F8093E8004F
:1046C0000E9476258091E9028093A202089580914C
:1046D000E602813AA1F48091E800877F8093E800A8
:1046E0008091E80080FFFCCF8091A2028093F100CE
:1046F0008091E8008E778093E8000C9476250895E9
:1047000084B7877F84BF0FB6F894A8958091600026
:10471000886180936000109260000FBE90E080E896
:104720000FB6F89480936100909361000FBE0C94D3
:10473000D00F0E94C8250E942526E2EEF0E080817D
:104740008460808378940E94BA280E94DE0F85E1FD
:1047500091E00C9414208091E5028530A9F48091B9
:10476000E502853079F40E9448218091E302882394
:10477000B1F30E942F21882391F30E9421240E94EB
:104780004D08EDCF0E947B210C94E80F0C94C823B8
:10479000292F332723303105C9F060F4213031054A
:1047A00081F02230310509F044C08BE390E02BE624
:1047B00035E043C021323105E1F02232310549F1C3
:1047C00038C082E190E026EA35E037C09927813091
:1047D000910549F028F0029761F5E5E3F5E005C0A1
:1047E000E7E6F5E002C0E7E4F5E0849190E09F01A0
:1047F00024C06115710541F061307105D1F489E083
:1048000090E026E935E019C089E090E02DE735E039
:1048100014C06115710541F06130710551F48DE6E8
:1048200090E028EB35E009C080E490E025E236E036
:1048300004C080E090E020E030E0FA013183208382
:10484000089580E189BD82E189BD09B400FEFDCFF4
:104850008091D8008F7D8093D8008091E0008260A5
:104860008093E0008091E00081FDFCCF0895CF921D
:10487000DF92EF92FF920F931F93CF93DF93EC01A0
:104880008B017A010E949525811133C0E114F10456
:1048900039F0F70180819181081B190BC80FD91FCE
:1048A000C12CD12C0115110519F18091E80085FD6D
:1048B00016C08091E8008E778093E800E114F1043F
:1048C00049F0F70180819181C80ED91ED182C08242
:1048D00085E00FC00E949525882321F30AC08991A5
:1048E0008093F10001501109FFEFCF1ADF0ADACFF0
:1048F00080E0DF91CF911F910F91FF90EF90DF90BB
:10490000CF9008952091EC023091ED0226173707E1
:1049100048F06115710539F42091E8002E77209355
:10492000E80001C0B901FC0120E06115710579F1D1
:104930008091E5028823F1F18530F1F18091E80062
:1049400083FD3CC08091E80082FD2EC08091E8008C
:1049500080FFEBCF2091F3008091F20090E0922B4A
:104960006115710551F08830910538F4219120933B
:10497000F100615071090196F3CF21E0089709F029
:1049800020E08091E8008E778093E800CECF21115F
:10499000CFCF0AC08091E502882361F0853061F0B5
:1049A0008091E80083FD0AC08091E80082FFF2CF89
:1049B00080E0089582E0089583E0089581E00895FD
:1049C0002091EC023091ED022617370748F061156F
:1049D000710539F42091E8002E772093E80001C09A
:1049E000B901FC0120E06115710591F18091E502AA
:1049F000882309F440C0853009F43FC08091E80065
:104A000083FD3DC08091E80082FD2FC08091E800C9
:104A100080FFE9CF2091F3008091F20090E0922B8B
:104A20006115710559F08830910540F42491209367
:104A3000F1003196615071090196F2CF21E008979B
:104A400009F020E08091E8008E778093E800CBCFDA
:104A50002111CCCF0AC08091E502882361F0853016
:104A600061F08091E80083FD0AC08091E80082FF38
:104A7000F2CF80E0089582E0089583E0089581E018
:104A80000895982F973068F59093E900981739F0BA
:104A90007091EC002091ED005091F00003C0242FA4
:104AA000762F50E021FD02C09F5FECCF3091EB00EC
:104AB0003E7F3093EB003091ED003D7F3093ED0071
:104AC0003091EB0031603093EB007093EC00209359
:104AD000ED005093F0002091EE0027FDE5CF80E03F
:104AE00008958F708093E90081E008958091E60237
:104AF00087FF11C08091E80082FD05C08091E5022A
:104B00008111F8CF11C08091E8008B770BC08091A4
:104B1000E502882349F08091E80080FFF8CF80917A
:104B2000E8008E778093E80008952091E4003091AA
:104B3000E50095E64091EC00842F817040FF23C092
:104B40008091E80080FD1DC08091E502882399F0E6
:104B5000853099F08091EB0085FD11C04091E40013
:104B60005091E5002417350729F3915011F09A016F
:104B7000E1CF84E0089582E0089583E0089581E024
:104B8000089580E008954091E80042FFDDCF089548
:104B90000E9436260E943E26E0EEF0E08081816091
:104BA0008083E8EDF0E080818F77808319BCA7EDEA
:104BB000B0E08C918E7F8C9380818F7E8083109269
:104BC000E40208950F931F93CF93DF930E9436263C
:104BD0000E943E26C8EDD0E088818F778883888147
:104BE0008068888388818F7D888319BC1092E50254
:104BF0001092E1021092E3021092E20200EE10E045
:104C0000F80180818B7F808388818160888342E086
:104C100060E080E00E944125E1EEF0E080818E7F3F
:104C20008083E2EEF0E08081816080838081886013
:104C30008083F80180818E7F808388818061888372
:104C4000DF91CF911F910F910895E8EDF0E0808101
:104C50008F7E8083E7EDF0E080818160808384E057
:104C600082BF81E08093E4020C94E225E8EDF0E05D
:104C700080818E7F80831092E20008951092DA0086
:104C80001092E10008951F920F920FB60F92112417
:104C90002F933F934F935F936F937F938F939F9344
:104CA000AF93BF93EF93FF938091E10082FF0BC01E
:104CB0008091E20082FF07C08091E1008B7F8093AA
:104CC000E1000E94B9288091DA0080FF1FC0809126
:104CD000D80080FF1BC08091DA008E7F8093DA00BD
:104CE0008091D90080FF0DC080E189BD82E189BD3E
:104CF00009B400FEFDCF81E08093E5020E94A52269
:104D000005C019BC1092E5020E94B3228091E10017
:104D100080FF19C08091E20080FF15C08091E20001
:104D20008E7F8093E2008091E20080618093E200B8
:104D30008091D80080628093D80019BC85E0809370
:104D4000E5020E94B7228091E10084FF30C080918B
:104D5000E20084FF2CC080E189BD82E189BD09B4F5
:104D600000FEFDCF8091D8008F7D8093D800809188
:104D7000E1008F7E8093E1008091E2008F7E80933E
:104D8000E2008091E20081608093E2008091E10284
:104D9000882311F084E007C08091E30087FD02C002
:104DA00081E001C083E08093E5020E94B8228091F7
:104DB000E10083FF29C08091E20083FF25C080913C
:104DC000E100877F8093E10082E08093E50210920A
:104DD000E1028091E1008E7F8093E1008091E2000A
:104DE0008E7F8093E2008091E20080618093E200F8
:104DF00042E060E080E00E9441258091F000886000
:104E00008093F0000E94B622FF91EF91BF91AF9185
:104E10009F918F917F916F915F914F913F912F91D2
:104E20000F900FBE0F901F9018951F920F920FB604
:104E30000F9211242F933F934F935F936F937F9320
:104E40008F939F93AF93BF93CF93DF93EF93FF9392
:104E5000C091E900CF708091EC00D82FD17080FD17
:104E6000D0E81092E9008091F000877F8093F000F5
:104E700078940E9459271092E9008091F000886090
:104E80008093F000CD2BCF70C093E900FF91EF919C
:104E9000DF91CF91BF91AF919F918F917F916F9152
:104EA0005F914F913F912F910F900FBE0F901F90E8
:104EB00018951F93CF93DF93CDB7DEB7AA970FB6A0
:104EC000F894DEBF0FBECDBFE6EEF2E08091F100B8
:104ED000819322E0EE3EF207C9F70E94C32280913F
:104EE000E80083FF2EC18091E6029091E702492FEE
:104EF00050E04A30510508F024C1FA01ED54FF4F4B
:104F00000C943D29803821F0823809F01AC108C07C
:104F10008091E2029091E302992389F082600FC0B0
:104F20008091EA028F70873008F00BC18093E9000E
:104F30008091EB0085FB882780F91092E900909121
:104F4000E800977F9093E8008093F1001092F100C1
:104F5000D1C0282F2D7F09F0F4C0882319F08230AA
:104F600061F0EFC08091E802813009F0EAC093302F
:104F700009F080E08093E3022EC08091E802811165
:104F80002AC08091EA028F702FEF280F263008F098
:104F9000D8C08093E9002091EB0020FF1CC0933023
:104FA00021F48091EB00806214C09091EB0090613D
:104FB0009093EB0021E030E0A90102C0440F551F9F
:104FC0008A95E2F74093EA001092EA008091EB00A4
:104FD00088608093EB001092E9008091E800877F61
:104FE0008093E8000E947625ACC08111AAC0109180
:104FF000E8021F778091E3008078812B8093E300A3
:105000008091E800877F8093E8000E947625809158
:10501000E80080FFFCCF8091E30080688093E3008C
:10502000111102C082E001C083E08093E50289C0D3
:105030008058823008F085C08091E8029091E902A2
:105040008C3D53E0950779F583E08A838AE2898372
:105050004FB7F894DE01139620E03EE051E2E32FD3
:10506000F0E050935700E49120FF03C0E295EF7009
:105070003F5FEF708E2F90E0EA3010F0C79601C0CE
:10508000C0968D939D932F5F243149F74FBF809138
:10509000E800877F8093E8006AE270E0CE01019625
:1050A0000E94822416C06091EA027091EB02AE0168
:1050B0004F5F5F4F0E94C623BC01892B09F441C09A
:1050C0009091E800977F9093E80089819A810E94EF
:1050D000E0248091E8008B778093E80032C080382C
:1050E00081F58091E800877F8093E8008091E1025C
:1050F0008093F1008091E8008E7772CF811121C0FA
:105100008091E8029091E90299270297D4F4809166
:10511000E800877F8093E8008091E8028093E102B5
:105120000E9476258091E102811106C08091E30002
:1051300087FD02C081E001C084E08093E5020E9407
:10514000B9228091E80083FF0AC08091E800877F40
:105150008093E8008091EB0080628093EB00AA9638
:105160000FB6F894DEBF0FBECDBFDF91CF911F9178
:1051700008950895CF938091E5028823A1F0C0910E
:10518000E900CF709091EC00892F817090FD80E84C
:10519000C82B1092E9008091E80083FD0E945927F6
:1051A000CF70C093E900CF910895DB018F939F9357
:1051B0000E946129BF91AF91A29F800D911DA39F75
:1051C000900DB29F900D1124089587FB082E06269E
:1051D00087FD819567FD61950E9474290EF4919574
:1051E00007FC81950895AA1BBB1B51E107C0AA1FAC
:1051F000BB1FA617B70710F0A61BB70B881F991F78
:105200005A95A9F780959095BC01CD01089597FB1B
:10521000072E16F4009407D077FD09D00E94F328DA
:1052200007FC05D03EF4909581959F4F08957095A9
:1052300061957F4F0895A1E21A2EAA1BBB1BFD01A9
:105240000DC0AA1FBB1FEE1FFF1FA217B307E40765
:10525000F50720F0A21BB30BE40BF50B661F771FBD
:10526000881F991F1A9469F760957095809590959D
:105270009B01AC01BD01CF010895EE0FFF1F05900A
:10528000F491E02D09940E944B29332312F48A1BD8
:105290009B0B0C945C29A29FB001B39FC001A39FFC
:1052A000700D811D1124911DB29F700D811D11245F
:1052B000911D08950E944B29B7FF0895821B930BFF
:1052C00008950E944B29A59F900DB49F900DA49F17
:1052D000800D911D11240895B7FF0C9461290E943F
:1052E0006129821B930B0895991B79E004C0991FD3
:1052F000961708F0961B881F7A95C9F78095089530
:10530000FC014150504030F001900616D1F7319722
:10531000CF010895882799270895FB01DC0104C077
:105320008D910190801921F441505040C8F7881B9D
:10533000990B0895F999FECF92BD81BDF89A9927EE
:1053400080B50895A6E1B0E044E050E00C94D42983
:10535000A8E1B0E042E050E00C94D429262FF9995E
:10536000FECF92BD81BDF89A019700B4021639F0C4
:105370001FBA20BD0FB6F894FA9AF99A0FBE089595
:105380000396272F0E94AF290E94AE29252F0E9445
:10539000AF29242F0C94AF290196272F0E94AF2903
:1053A0000C94AE29DC01CB01FC01F999FECF06C0BB
:1053B000F2BDE1BDF89A319600B40D9241505040D3
:0853C000B8F70895F894FFCF3F
:1053C8002C02010102000A000A0A01191A1B1C1DFD
:1053D8001E1F2021222D226322A4225F225B22018C
:1053E800E200E900EA00B500B600B700CD0083018D
:1053F800CC008A0192019401210223022402250291
:10540800260227022A02B300B4006F0070008182CE
:1054180083E200E900EA00B500B600B700CD0083DA
:1054280001CC008A01920194012102230224022561
:1054380002260227022A02B300B4006F007000811E
:105448008283F0F1C66766369431323534979633E5
:10545800909192939500010202020206060609093C
:10546800090909090F0F0F0F0F0F1515151819192D
:0A547800191919191919191923241B
:00000001FF
