:100000000C9448030C948F030C948F030C948F036F
:100010000C948F030C948F030C948F030C948F0318
:100020000C948F030C948F030C9446260C94182781
:100030000C9443210C948F030C948F030C948F0326
:100040000C948F030C948F030C948F030C948F03E8
:100050000C948F030C949C210C948F030C948F03AD
:100060000C948F030C948F030C948F030C948F03C8
:100070000C948F030C948F030C948F030C948F03B8
:100080000C948F030C948F030C948F030C948F03A8
:100090000C948F030C948F030C948F030C948F0398
:1000A0000C948F030C948F030C948F03CC07C2071E
:1000B000CF0717081B081B0817081B081B08F007A9
:1000C0001B08FA0704081B081B081B081B08170855
:1000D0001B081B0817081B08DD071B081B08140852
:1000E0001408140814081408140814081408140830
:1000F00019081B08CC07BF071B081B081B081B0897
:100100001B081B081B081B081B081B0819081B08D9
:100110001B0817081B0812081208120812081208F8
:10012000120812081208120819088D0F900F980F64
:100130009D0FA20FA70FAC0FB10FB60FBB0FC00FD3
:10014000C50FC70FCA0FCD0FD00FD30FD60FD80FC3
:10015000DD0FB116B116E316E316301764186418F4
:1001600064184E17E317F417F4175418641864183A
:100170005D1800190019121912190919121912190A
:100180001219001900190E19121912190E198527C2
:10019000AC27A428AC27A428F8271B28A428722859
:1001A000812829001E001F002000210022002300BA
:1001B00024002500260027002D002E0031002B00F2
:1001C00014001A000800150017001C0018000C008D
:1001D000120013002F0030003500E000040016006C
:1001E000070009000A000B000D000E000F0033008D
:1001F000340000002A00E10000001D001B00060082
:100200001900050011001000360037003800E50025
:1002100028000000E200E300000000002C41000084
:100220000000000000000000E700E6000051A5000B
:100230003A003B003C003D003E003F0040004100D2
:10024000420043004400450049000100C35CC45C17
:10025000C55CC05CC15C010001000100010001003F
:10026000010001004C003900AA00A90001000100B2
:1002700001005000510052004F0001000100000039
:100280000100010000000100010001000100010067
:100290000100010001000100010001005800000000
:1002A000010001000000000001000000000000004B
:1002B000000000000100010001000000000000003B
:1002C000000000000000000000000000000000002E
:1002D000000000000000000000000000000000001E
:1002E000000000000000000000000000000000000E
:1002F00000000100000000000000000000005000AD
:10030000510052004F0000000000000000000000FB
:1003100000000000000000000000000000000000DD
:1003200000000000000000000000000000000000CD
:1003300000000000000000000000000000000000BD
:100340000000000000001E0F0500047F3F1F643204
:1003500014643214783C1E1E140A05222325262814
:10036000292A2C2D2F3032333536383A3B3D3E404A
:1003700042434547494A4C4E5051535557595A5C90
:100380005E6062646668696B6D6F71737577797BA7
:100390007D7F81838587898A8C8E90929496989AA6
:1003A0009C9E9FA1A3A5A7A8AAACAEAFB1B3B4B6BB
:1003B000B8B9BBBCBEBFC1C2C3C5C6C7C9CACBCC16
:1003C000CDCED0D1D2D2D3D4D5D6D7D7D8D9D9DAE9
:1003D000DADBDBDBDCDCDCDCDCDDDDDDDDDCDCDC5E
:1003E000DCDCDBDBDBDADAD9D9D8D7D7D6D5D4D386
:1003F000D2D2D1D0CECDCCCBCAC9C7C6C5C3C2C15B
:10040000BFBEBCBBB9B8B6B4B3B1AFAEACAAA8A7B7
:10041000A5A3A19F9E9C9A98969492908E8C8A896F
:10042000878583817F7D7B79777573716F6D6B694C
:1004300068666462605E5C5A5957555351504E4C21
:100440004A4947454342403E3D3B3A3836353332D0
:10045000302F2D2C2A292826252322FFAA7F55401C
:100460000001010101010101010102020202020277
:10047000020202030303030303030304040404044A
:100480000404050505050506060606060707070711
:100490000708080808090909090A0A0A0B0B0B0CC6
:1004A0000C0C0D0D0D0E0E0E0F0F0F101011111163
:1004B00012121313141415151616171718181919E4
:1004C0001A1A1B1B1C1D1D1E1E1F20202122222349
:1004D0002424252626272829292A2B2C2D2D2E2F8A
:1004E00030313232333435363738393A3B3C3D3EA1
:1004F0003F404142434445464748494A4C4D4E4F90
:1005000050515354555658595A5B5D5E5F61626451
:10051000656668696B6C6D6F7072737577787A7BDE
:100520007D7E8082838587888A8C8E8F9193959635
:10053000989A9C9EA0A2A3A5A7A9ABADAFB1B3B555
:10054000B7BABCBEC0C2C4C6C9CBCDCFD1D4D6D831
:10055000DBDDDFE2E4E7E9EBEEF0F3F5F8FAFDFFCF
:10056000100354006F006B0079006F0036003000FC
:1005700000001E0354006F006B0079006F00200024
:100580004B006500790062006F006100720064003A
:1005900000000403090409023B00020100A0320923
:1005A00004000001030101000921110100012240A2
:1005B000000705810308000A090401000103000087
:1005C00000092111010001226D00070582032000AE
:1005D0000A12011001000000083654606001000199
:1005E00002000105010980A101850319012AB70054
:1005F000150126B700950175108100C0050C090191
:10060000A101850419012AA002150126A002950165
:1006100075108100C005010906A1018505050719AE
:10062000E029E715002501950875018102050719E4
:100630000029EF1500250195F075018102050819C3
:10064000012905950575019102950175039101C078
:1006500005010906A101050719E029E71500250193
:10066000950875018102950175088101050719003A
:1006700029FF150026FF0095067508810005081959
:10068000012905950575019102950175039101C038
:1006900011241FBECFEFDAE0DEBFCDBF04B603FEEC
:1006A00027C08091270390912803A0912903B0913E
:1006B0002A038730904BA740B04BD1F41092270308
:1006C000109228031092290310922A0314BE84B7B3
:1006D000877F84BF0FB6F894A895809160008861E9
:1006E00080936000109260000FBEE0E0F8E309958F
:1006F00011E0A0E0B1E0EAEAF4E502C005900D9255
:10070000A43CB107D9F723E0A4ECB1E001C01D92ED
:10071000A732B207E1F70E947E230C94532A0C946F
:1007200000000C9479060C94770681E0089581E02E
:1007300008950C94970308950C949B031F93CF93F3
:10074000DF9300D000D01F92CDB7DEB749835A8324
:100750006B833091250289819A81311114C06623FF
:1007600059F0222349F00E94391E182F682F8981E1
:100770009A810E94E21D03C00E940D1E182F6981FC
:100780007A81812F04C00E94391E69817A810F907D
:100790000F900F900F900F90DF91CF911F910C94BD
:1007A0006004FC01262F4081518162817381848124
:1007B0000C949E03CF93DF93EC0160E00E94D10381
:1007C000BE01DF91CF910C949C030E94ED210E9409
:1007D000731F811102C00E9423200E9460110C949B
:1007E00091030C94930308950E94EE180E94F30362
:1007F0002FEF84E39CE0215080409040E1F700C05F
:1008000000000C94C2210F931F93CF93DF93EC0150
:1008100061E00E94D1038C01BE010E9499038823EC
:10082000A9F1BE01C8010E94C110882379F1BE015F
:10083000C8010E940E12882349F1BE01C8010E941E
:100840006012882319F1BE01C8010E948B1388230E
:10085000E9F0BE01C8010E94760F8823B9F08A81B1
:10086000882369F001158CE5180731F00F3D1C4510
:1008700031F40E9423200AC00E94F40307C0CE0175
:10088000DF91CF911F910F910C94950380E0DF9140
:10089000CF911F910F91089508950C944C0481E01D
:1008A00008950C944F04CF93C82F0E944D048C2FB1
:1008B0000E945104CF91089580E090E0089508953A
:1008C00026E4829FC0011124FC012EE0729FE00DFE
:1008D000F11D1124E60FF11DEE0FFF1FEE55FE4F27
:1008E000859194910895880F991FFC01EA5BFC4F54
:1008F000859194910895CF93DF930E9460040E94A4
:100900008D05EC018115904508F043C0C11580E4C8
:10091000D80708F0CBC0C03ED10528F5C03CD105B2
:1009200008F0B3C0C83AD10578F4C53AD10508F04B
:10093000A4C0C130D10509F4ECC008F4E8C0C4304B
:10094000D10508F0E6C0E3C0CF3BD10508F0DFC019
:10095000C85AD0E0CC0FDD1FCC5DDE4F0990D881A6
:10096000C02DD464D6C0C11590E2D90750F4C1158A
:1009700021E0D20708F0CDC0C83ED10508F4C9C0B7
:10098000C6C0C11580E3D80708F086C0CE019F70AD
:100990007FC0C11595E5D90708F043C0C11524E50E
:1009A000D20708F09AC0C11582E5D80708F5C1152D
:1009B00091E5D90708F07DC0CE0174E09695879542
:1009C0007A95E1F783709C2F937021E030E002C0AC
:1009D000220F331F9A95E2F73C68382BCF70C695EB
:1009E000C69580E2C89FE0011124C22BD32B91C091
:1009F0009E01237033278C2F86958695C115D3458C
:100A000008F05CC0C1E0D0E002C0CC0FDD1F2A9529
:100A1000E2F720E2829FC0011124C82BD92BDC68A9
:100A200078C0C11529E5D207A0F4C11588E5D8071B
:100A300008F058C0C11596E5D90708F068C08C2F9A
:100A40000E9421068F71C82FD0E0DC2FCC27D06206
:100A500060C0C1152AE5D20708F449C0CE019056FE
:100A60008115904208F053C08D2F8F710E9421068E
:100A7000DD27D0628F71D82B4CC0C55AD0E0CE5A3A
:100A8000DE4FC881D0E0D06444C0CE01805C9109C3
:100A90000E947304EC013DC0CE019927D3FF03C02F
:100AA000EC01D86C36C0EC01D06C33C0DF70D06A7A
:100AB00030C0DC2FCC27C16FD06A2BC0C1E0D0E0A2
:100AC00002C0CC0FDD1F2A95E2F720E2829FC00111
:100AD0001124C82BD92BDA681CC0DC2FCC27C46F9B
:100AE000D06A17C0DC2FCC27C06FD06A12C08C2F01
:100AF0008F700E94210694E0D695C7959A95E1F7EC
:100B0000CF70D0E0DC2FCC27D069C82B02C0C0E06A
:100B1000D0E0CE01DF91CF9108958238910569F13F
:100B2000B0F48133910509F46DC048F48932910520
:100B300009F463C08A32910509F469C008958533C8
:100B4000910509F455C089339105B9F00895833EA4
:100B5000910569F138F4803E9105B1F0823E91052E
:100B600009F10895863E9105A9F1873E9105B9F1F5
:100B7000843E910509F064C023C02091180320FD34
:100B80004FC021FD4DC008958091180380FD44C0E1
:100B90008091190380FF44C08091180384FD42C0F6
:100BA00083EE4DC08091180382FF38C0F5CF80914D
:100BB000180382FD33C08091190380FD31C0ECCF52
:100BC0008091190381FF32C08091180384FD2AC0EF
:100BD00087EE35C08091180383FF26C0F5CF809142
:100BE000180383FD21C08091190381FD1FC0ECCF44
:100BF0008091180385FD1CC01DC08091180385FDE0
:100C000019C016C08091180386FD16C017C08091C8
:100C1000180386FD13C010C089E311C082EE0FC017
:100C200080EE0DC080E00BC086EE09C084EE07C0E8
:100C300089E205C085E303C08AE201C081E390E058
:100C400008959091180392FF0DC0282F2871283025
:100C500019F4877F846006C0282F2471243011F492
:100C60008B7F886093FF0DC0282F2871283119F4DD
:100C7000877E846106C0282F2471243111F48B7E75
:100C800088612091190320FF0DC0382F387138304A
:100C900019F4877F816006C0382F3171313011F42B
:100CA0008E7F886021FF0DC0282F2871283119F40C
:100CB000877E816106C0282F2171213111F48E7E3B
:100CC000886194FD877E0895E82FF0E0EE0FFF1F06
:100CD000EA51FD4F808191810895089580EA8A95B7
:100CE000F1F7089500C008950C946E0608950C94D1
:100CF00076060C947606F894E82FE295EF70F0E013
:100D000031A1282F2F7081E090E001C0880F2A9533
:100D1000EAF7982F9095932391A392A1892B82A310
:100D2000789408950F931F93CF93DF93C5E5D1E097
:100D300003E611E089910E947B060C171D07D1F78D
:100D400080E90E947B0681E90E947B0682E90E947D
:100D50007B0683E90E947B0685E90E947B06ECED19
:100D6000F2E0A6EEB2E0119211921D921D9282E085
:100D7000E63EF807C1F785E00E946107DF91CF9159
:100D80001F910F910C94E5034F925F927F928F9287
:100D90009F92AF92BF92CF92DF92EF92FF920F930A
:100DA0001F93CF93DF9395E5E92E91E0F92EC0E0F4
:100DB000D0E010E0CC24C394D12C36EE832E32E068
:100DC000932E5701D7018C91F894E82FE295EF709C
:100DD000F0E021A18F70A60102C0440F551F8A9533
:100DE000E2F7CA01922F982B91A392A180958923B3
:100DF00082A378940E947206A6010C2E02C0440FB2
:100E0000551F0A94E2F7BA0160957095ECEDF2E097
:100E100083E6482E81E0582E00E020813181D20106
:100E20007D902D01872D82958F7090E0DC0190964A
:100E30008C9190E0B72DBF7002C095958795BA95BB
:100E4000E2F780FD04C0C901842B952B03C0C901C2
:100E5000862397232817390719F09183808301E0AF
:100E600032968E169F06C9F6EFEFEE1AFE0AD501EE
:100E70008C910E947B06CD30D10511F00E94740642
:100E8000102B2196CE30D10509F09BCF212F45E0C4
:100E900066EE72E08CED92E00E9462070E94F10320
:100EA000812FDF91CF911F910F91FF90EF90DF90F5
:100EB000CF90BF90AF909F908F907F905F904F901A
:100EC00008950895FF920F931F93CF93DF93F82E09
:100ED000092F162FD72FC42F222349F081E08093AA
:100EE000C8010E9475219093C7018093C60180912B
:100EF000C8018823D9F08091C6019091C7010E9452
:100F00008D21069798F0EF2DF02FA12FBD2F80E0B7
:100F100090E04C2F50E08417950734F421913191E3
:100F20002D933D930196F7CF1092C801DF91CF9199
:100F30001F910F91FF9008950F931F9341E050E090
:100F400060E070E08A019B0104C0000F111F221FA6
:100F5000331F8A95D2F7C901B8010E94E41C1F9182
:100F60000F910C94EE18482F50E0FA013597EF33AB
:100F7000F10508F060C0EA5AFF4F0C944C290E941A
:100F8000232055C08091B802817F8E7F8093B80264
:100F900081E08093C90108950E94F40348C08091C4
:100FA000B802982F9095917090FB80F98093B802C9
:100FB00091113DC0897F877F10C08091B80281FB6D
:100FC000222720F991E0922790FB81F98093B802C3
:100FD000992369F18091B80281608093B80227C09B
:100FE0008091B80282FB222720F991E0922790FBA2
:100FF00082F9ECCF8091B80283FB222720F991E09F
:10100000922790FB83F9E2CF0E94EE18809118039B
:1010100087FB222720F991E0922790FB87F98093A4
:10102000180305C0895301C08D510E949C0781E0BF
:10103000089580E0FACF80E0089580E008950C9450
:101040001D08CF93C82F8091C901882319F08130E2
:1010500031F02BC00E94BA1E823249F504C00E94B2
:10106000BA1E823261F48C2F0E941F08811104C0C5
:101070008C2F0E94B30717C081E090E014C08C2F22
:101080000E941D0881110EC0C43149F018F4CB3004
:1010900049F00FC0C93219F0C83321F00AC01092CC
:1010A000C90107C081E0817006C01092C90180E0CB
:1010B00002C080E0F8CFCF910895EF92FF920F9396
:1010C0001F93CF93DF938B01682F11110AC0442324
:1010D00029F0E82FF0E0E05AFB4F6491762F862F3D
:1010E00075C0212F30E0E82FF0E0442321F0E05AD2
:1010F000FB4FE491F0E046E0049FC0011124CFEFE4
:10110000D0E0BE010E9402294BEA4603C001479F7E
:10111000900D1124800F911D800F911D982F990F14
:10112000890FAE01421B530B4E9FD0014F9FB00D54
:101130005E9FB00D11249B2F189FA0011124452FF5
:1011400055278E01041B150B0E9FA0010F9F500DFC
:101150001E9F500D11247E01E81AF108E29E8001C5
:10116000E39E100DF29E100D1124212F3327C21B78
:10117000D30BCE9F9001CF9F300DDE9F300D1124F9
:1011800062307105A9F048F46115710569F06130AC
:101190007105C9F48B2F752F0DC06430710581F076
:1011A00058F06630710579F47E2F8B2F932F0DC088
:1011B000832F7B2F9E2F09C08E2F7B2F952F05C04D
:1011C0008E2F732F02C07E2F852F692FDF91CF9135
:1011D0001F910F91FF90EF90089541E00E945D08EC
:1011E000089508950E94ED080895CF93DF93762F18
:1011F000E901682F842F0E94F208798368838A832B
:10120000DF91CF9108958091F002282F269530E04C
:101210002115310519F48170826005C02B3231052A
:1012200024F0817084658093F002089588E090E056
:101230000C94F429CF92DF92EF92FF926B017C0124
:101240000E940309B701A60188E090E0FF90EF90AB
:10125000DF90CF900C94122AE0EFF2E083E08083DD
:1012600011828FEF828383831482608171818281F6
:1012700093810C941A098091F00280FF02C0869538
:10128000089580E008959091F402933018F49F5FE0
:101290009093F402882351F06091F0027091F10272
:1012A0008091F2029091F3020C941A09089581E062
:1012B0000C9443099091F402992319F09150909362
:1012C000F402882351F06091F0027091F102809154
:1012D000F2029091F3020C941A09089581E00C94A3
:1012E0005A0970E00C947011609108018091F0022D
:1012F00080FF0AC08091070123E0829FC001112472
:101300008B509D4F0C9471098091090190910A01B5
:10131000891780F7E82FF0E09F01220F331FE20FBB
:10132000F31FEB50FD4F1182108212828F5FF0CFBE
:101330009091F00290FF16C09091090120910A014E
:10134000921770F4E92FF0E0DF01AA0FBB1FEA0F3C
:10135000FB1FEB50FD4F8183608342839F5FF0CF83
:101360000C9474090895CF93DF9300D01F92CDB7EA
:10137000DEB79091F00290FF0AC09E012F5F3F4FB1
:101380000E94F5084B8169818A810E9498090F901B
:101390000F900F90DF91CF910895CF93DF93EC01E1
:1013A000EC81F0E0E55AFC4F4491E0EFF2E062811D
:1013B00081810E94B3098C818F5F8C83DF91CF91F3
:1013C0000895CF93DF93EC01E0EFF2E04381628177
:1013D0008C810E94B3098C818F5F8C83DF91CF91C8
:1013E00008950F931F93CF93DF9300D01F92CDB733
:1013F000DEB78C018091CA0181110AC09E012F5F66
:101400003F4F4FEF6FEF0E94F5088A818093CA012A
:10141000F8018481813051F028F0823061F44091EC
:10142000CA010AC08091CA0140E007C06091CA01A8
:1014300040E080E003C040E080E060E00E94980966
:10144000F801848190E0019663E070E00E94162923
:1014500084830F900F900F90DF91CF911F910F9188
:101460000895AF92BF92CF92DF92EF92FF920F93C7
:101470001F93CF93DF9300D01F92CDB7DEB7182F05
:10148000F62E042FE22E9091F00290FF6DC0E92F0E
:10149000E695AE2FB0E0A859BE4F8C91809306021E
:1014A0009E7F923061F49E012F5F3F4F812F0E94FB
:1014B000F5084B8169818A810E94980943C0823076
:1014C00019F40091F3023EC0863019F41091F10234
:1014D00039C08930D9F38931A9F5E9518E2F81704E
:1014E000D82EE695F0E0E55AFB4FA590B490C12CBC
:1014F000BB2460910B01C61618F52C2D30E0A29E7E
:10150000C001A39E900DB29E900D112470E00E9428
:101510000229812FD11002C0860F01C0861B909135
:101520000901290F311DA901440F551F240F351F33
:101530002B503D4F402F6F2D0E94F508C394D9CFFB
:101540000E9474091093F102F092F2020093F302E8
:10155000EE2051F06091F0027091F1028091F20260
:101560009091F3020E941A090F900F900F90DF9153
:10157000CF911F910F91FF90EF90DF90CF90BF9090
:10158000AF900895E0EFF2E09181282F43816281CE
:101590008CE0890F0C94310A81E00C94C20AE0EFD0
:1015A000F2E09181282F4381628184EF890F0C94AE
:1015B000310A81E00C94CF0AE0EFF2E062812CE086
:1015C000620F08F46FEF282F438181810C94310A58
:1015D00081E00C94DC0AE0EFF2E062812CE0621B17
:1015E00008F460E0282F438181810C94310A81E066
:1015F0000C94EB0AE0EFF2E043812CE0420F08F498
:101600004FEF282F628181810C94310A81E00C9484
:10161000FA0AE0EFF2E043812CE0421B08F440E0DC
:10162000282F628181810C94310A81E00C94090B8E
:1016300020E00C94310AFF920F931F93CF93DF9316
:10164000EC01F12C0FEF10E060910B01F616F0F4B5
:10165000809109012F2D30E0280F311DC901880F1D
:10166000991F280F391F2B503D4F70E0C8010E9471
:101670001629962F8C814091F3026091F202F99E17
:10168000800D11240E94F508F394DECF0E947409A6
:101690009A818C8190FF02C08F5F01C081508C8342
:1016A000DF91CF911F910F91FF900895AF92BF925C
:1016B000CF92DF92EF92FF920F931F93CF93DF931E
:1016C000FC01828180FF02C00FEF01C001E010E049
:1016D0004AE0A42E80910B01181708F043C08091B6
:1016E0000901C12ED12CE601C80FD11DCE01880FF2
:1016F000991FC80FD91FCB50DD4F198218821A824B
:1017000034E0E32EF12CB12C8091CC018B0D8B3089
:101710002CF06A2D0E94F428892F05C087FF03C092
:1017200090910B01890F082E000C990BC816D90651
:1017300091F48091F3028E9DA0018F9D500D112494
:1017400055954795559547959E016091F202809178
:10175000F1020E94F508B00EF1E0EF1AF108A1F6CF
:101760001F5FB8CF0E9474098091CC01013031F421
:10177000811102C080910B01815007C090E0019659
:1017800060910B0170E00E9416298093CC01DF91DB
:10179000CF911F910F91FF90EF90DF90CF90BF906E
:1017A000AF900895CF938091090190910A01891714
:1017B00070F4E82FF0E09F01220F331FE20FF31FB8
:1017C000EB50FD4F1182108212828F5FF0CFC0E08C
:1017D00060910B01C617C0F5EC2FF0E070E0CF016F
:1017E0000E94162920910901820F2091CB01022E1F
:1017F000000C330B90E0E217F307CCF020910601C8
:10180000022E000C330B2E173F078CF09C01220F89
:10181000331F820F931F9C012B503D4F4091F302C9
:101820006091F2028091F1020E94F5080BC0FC0168
:10183000EE0FFF1F8E0F9F1FFC01EB50FD4F11821B
:1018400010821282CF5FC4CF0E94740920910501DB
:101850008091CB01820F8093CB0190910601920F72
:101860009093060119165CF4082E000C990B409118
:101870000B0150E041505109841795071CF0219548
:1018800020930501CF9108958F929F92AF92BF92BE
:10189000CF92DF92EF92FF920F931F93CF93DF933C
:1018A0008C01FC014481C42FD0E09E01DE010E9426
:1018B0005A299B01AC010E9470296B017C01E0E276
:1018C000F0E0EC1BFD0BA5E5B0E09B01AC010E9434
:1018D00070294B015C019F01DF010E9452299B018D
:1018E000AC010E947B299B01AC012C0D3D1D4E1DBE
:1018F0005F1DC501B4010E942A29C22FD22F2A32AE
:1019000028F4F3E02F9F900111240DC025E530E06D
:101910002C1B3109C901880F991F280F391F37FF68
:1019200002C02F5F3F4F35952795C22FC095F12CF0
:1019300085E5E82EED1A80910B01F816C8F4F1FC4C
:1019400002C08E2D01C08D2F909109012F2D30E006
:10195000290F311DA901440F551F240F351F2B508E
:101960003D4F4C2F6091F2020E94F508F394E3CFB3
:101970000E947409F8018481811102C091E003C0C2
:10198000803219F49FEF9093040190910401890F24
:10199000F8018483DF91CF911F910F91FF90EF9019
:1019A000DF90CF90BF90AF909F908F9008950F934E
:1019B0001F93CF93DF93EC0100E010E080910B01C7
:1019C000282F30E00217130724F5909109019801A0
:1019D000290F311DA901440F551F240F351F2B500E
:1019E0003D4F869590E04C81081719071CF444235D
:1019F00031F002C0411103C04091F30201C040E048
:101A00006091F2028091F1020E94F5080F5F1F4F72
:101A1000D5CF0E9474098C8190E00196817099273E
:101A20008C83DF91CF911F910F9108957F928F92B8
:101A30009F92AF92BF92CF92DF92EF92FF920F935D
:101A40001F93CF93DF93FC018280748081E08483B5
:101A5000EBE5F3E09490EAEDF3E0E491A12CF5E0FE
:101A6000BF2ECC24CA94D12CE9190E2F10E08091FE
:101A70000B01A81608F0A2C0EA2CF12C22E02815D0
:101A800068F0BE9CF001BF9CF00D1124E353FE4FA3
:101A90008091F10280838091F202818371100AC0EB
:101AA000BE9CF001BF9CF00D1124E353FE4F138246
:101AB00012826AC0BE9CE001BF9CD00D1124C353AA
:101AC000DE4F8B818823F9F081508B832FEF829F2B
:101AD000C00111246C8170E00E940229FB01FF27E4
:101AE000E55AFC4F8491E82FE9192FEFE29FC001DE
:101AF0001124B8010E9402298091F302689FB0016D
:101B000011247A8341C00E94CF292091F3022695A7
:101B1000215830E0A901440F551F322F2227240FEE
:101B2000351F232F33278217930774F582E088151A
:101B300088F40E94CF29B6010E94162988830E944A
:101B4000CF292091F2022695622F70E00E9416297B
:101B5000280F2983BE9CF001BF9CF00D1124E35394
:101B6000FE4F12828091F302843120F0893C18F0FC
:101B700088EC01C084E1BE9CF001BF9CF00D1124F3
:101B8000E353FE4F84838383809109019701280FDB
:101B9000311DC901880F991F280F391F2B503D4F48
:101BA000BE9CF001BF9CF00D1124E353FE4F428117
:101BB000618180810E94F508A39459CFDF91CF9174
:101BC0001F910F91FF90EF90DF90CF90BF90AF905B
:101BD0009F908F907F900C947409E0EFF2E08081E9
:101BE0008E7F808360817181828193810E941A0936
:101BF000109207022FEF80E792E021508040904042
:101C0000E1F700C000000C9474096091F002669541
:101C100070E04BE050E08CE091E00E94DF29892BDE
:101C200019F481E0809307020E94752190930002CD
:101C30008093FF0108959091F00290FF35C091705C
:101C4000811102C0926006C08B3210F0946502C010
:101C5000880F982B9093F002662351F06091F00268
:101C60007091F1028091F2029091F3020E941A09A0
:101C70006091F002669570E04BE050E08CE091E0FE
:101C80000E94DF29892B19F01092070202C00E94DE
:101C9000050E81E0809302024091F3026091F2020E
:101CA0008091F1020C94180B0895682F9091F00226
:101CB000969581E0890F8B3208F081E00C941B0E21
:101CC00081E00C94550E682F9091F00296958FEF5D
:101CD000890F09F48AE20C941B0E81E00C94630EC8
:101CE00061E00C941B0EE0EFF2E080818160808364
:101CF00086950C94700E8091F00280FD0C94ED0D91
:101D00000C94730E60E00C941B0E809105028111FF
:101D10002EC00E94731F811104C00E9423200E94C4
:101D20002C090E9416096093F0027093F1028093CF
:101D3000F2029093F3026E7F61F40E942C090E94DC
:101D400016096093F0027093F1028093F20290936F
:101D5000F3020E940309109207028091F00280FFB3
:101D600003C086950E94820E81E08093050208954B
:101D70000F931F93CF93DF9380910702882309F479
:101D800095C080910602E091F002E695E81BE09391
:101D90000102823049F4F0E0E95AFC4FE491CE2F81
:101DA000D0E00DEC19E059C0863049F4F0E0EC5A6F
:101DB000FC4FE491CE2FD0E001EE19E04EC0893007
:101DC00051F4E695F0E0EF5AFC4FE491CE2FD0E0CD
:101DD0000BE11BE042C08F3051F4E695F0E0E25B8E
:101DE000FC4FE491CE2FD0E006E51BE036C08531F4
:101DF00049F4F0E0E55BFC4FE491CE2FD0E002ED3A
:101E00001BE02BC08831D9F0833239F4E9E4F3E0E8
:101E1000C591D49101EF19E020C08432A9F0853238
:101E2000C1F48E2F63E00E94E828E92FF0E0EA5B1E
:101E3000FC4FE491CE2FD0E006E11DE00EC0C8E2D9
:101E4000D0E004E41CE009C0C4EFD1E007ED1CE0E1
:101E500004C0C0EDD7E001EF18E0809102028823B2
:101E600061F0109202020E9475219093000280930B
:101E7000FF0110920402109203020E947521E0916A
:101E8000FF01F09100028E1B9F0B8F3F9F4770F464
:101E9000EC0FFD1FF0930002E093FF018FEF91E044
:101EA000F801DF91CF911F910F910994DF91CF91AC
:101EB0001F910F910895882311F0FA0101C0FB01D1
:101EC0000994CF93DF93C82FD62F0E943B098C171C
:101ED00040F00E943B098D1720F4DF91CF910C94C4
:101EE000600E8C2FDF91CF910C94700E0F931F9387
:101EF000CF93FB01C281CC2309F463C08C010E9403
:101F0000BA1E8272F801E35CFC45E431F10508F089
:101F100059C0EB56FF4F0C944C290E947B0E06C013
:101F20004DE65EE060E67EE00E945B0FC0E04AC0E6
:101F300040E65EE06DE67EE0F7CF49ED5AE06CECFE
:101F40007AE0F2CF4CEC5AE069ED7AE0EDCF47EF62
:101F50005AE068EE7AE0E8CF48EE5AE067EF7AE0C0
:101F6000E3CF45E15BE066E07BE0DECF46E05BE0AF
:101F700065E17BE0D9CF4EE659E067E579E0D4CF63
:101F800047E559E06EE679E0CFCF81E017C065E024
:101F900082E010C068E086E00DC06EE089E00AC013
:101FA00064E18FE007C067E185E104C088E106C015
:101FB00062E289E10E94610FB9CF83E20E94700E54
:101FC000B5CFC1E08C2FCF911F910F9108950E9442
:101FD000731F811102C00E9423200E94A41F8093BE
:101FE0001303282F26952695269530E027303105B6
:101FF00024F087708063809313038091130380FF24
:1020000004C086958695869501C080E00C94F610F4
:1020100020911303822F869586958695482F50E050
:102020004630510554F48F5F982F990F990F990FEF
:10203000822F8770892B8093130380911303816013
:10204000809313030E94A81F8091130386958695A1
:1020500086950C94F61080911303982F969596957B
:102060009695A1F0915E990F990F990F8770892B22
:1020700080931303887F91E009F490E0809113032B
:1020800090FB80F9809313030E94A81F8091130393
:102090008695869586950C94F6108091130380FDA5
:1020A00013C0816080931303813019F489E0809319
:1020B0001303809113030E94A81F80911303869538
:1020C000869586950C94F61008958091130380FFF1
:1020D00008C08E7F809313030E94A81F80E00C9499
:1020E000F61008958091130380FD0C9465100C94F4
:1020F0004D1090911303892F8695869586958F5F55
:102100008F719770873038F4880F880F880F892B6C
:102110008093130302C09093130380911303887F6D
:1021200091E009F490E08091130390FB80F9809393
:1021300013030E94A81F80911303869586958695A8
:102140000C94F610873008F086E090911303977096
:10215000282F220F220F220F922B90931303987F88
:1021600021E009F420E09091130320FB90F9909373
:1021700013030C94F6100E94A210809113030C9488
:10218000A81F9C01FB018281882349F12E3BFCE5BD
:102190003F07C9F040F42C3BECE53E0769F02D3BCE
:1021A0003C4561F00895203C9CE5390791F070F0C2
:1021B000213C3C4589F0089586E001C080E00E9402
:1021C000BB1080E008950E942B10FBCF0E940810E6
:1021D000F8CF0E947210F5CF0E947910F2CF81E003
:1021E0000895279A2F9808952F980895CF92DF92F7
:1021F000EF92FF92CF93C82F873050F4811109C01E
:1022000080918000877F809380000E94F41006C038
:10221000C6E0809180008860809380002C2F30E0A1
:10222000AFEFBFEF0E945A2926E030E040E050E0D7
:102230000E942A29B42FA32F922F8827492F5A2F83
:102240006B2F7727CA014C3724E1520728F469E045
:1022500070E00E94022929C0DB01CA018A50974D13
:10226000AF4FBF4F6627782F892F9A2F25EF38E27F
:1022700041E050E00E942A2969017A01CA01B901AE
:102280000E94D8289B01AC01C701B6010E94D82842
:10229000BB27A92F982F872F009721E0A207B10510
:1022A00011F0BC0102C06FEF7FEF70938D0060935F
:1022B0008C00CF91FF90EF90DF90CF90089508951C
:1022C0000E94F1108AE08093800089E18093810070
:1022D0008FEF9FEF90938700809386000C94E70F19
:1022E000879A21B32F7731B330684FB7F894FC0148
:1022F000CB01880F991F680F791F6E0F7F1FE6179C
:10230000F70789F0819198E031BB000000C087FF9A
:1023100021BB880F000000C000C000C021BB00C06E
:102320009A9591F7ECCF4FBF8FE594E00197F1F7C5
:1023300000C0000008950F931F93CF93DF93C42F25
:10234000D22FFC0182818823C9F040930A020E94A7
:102350007521909309028093080280E28C0F8830E7
:1023600008F057C0C77081E001C0880FCA95EAF72E
:10237000DF91CF911F910F910C94701680910A02FA
:10238000481330C080910802909109020E948D216B
:10239000883C910538F510E21D0FCD17B9F080E2A9
:1023A0008C0F883040F4C77081E001C0880FCA9557
:1023B000EAF70E947716183028F581E09D2F977074
:1023C00001C0880F9A95EAF70E947016802F0E942C
:1023D00067161830F0F4D77081E001C0880FDA95E5
:1023E000EAF70AC080E28C0F883098F4C77081E069
:1023F00001C0880FCA95EAF7DF91CF911F910F9125
:102400000C947716802FDF91CF911F910F910C9430
:102410006716DF91CF911F910F9108950F939C0143
:10242000CB01243F4CE5340731F188F4293DFCE52C
:102430003F07D9F02A3D4CE5340779F1283D3C456A
:10244000A9F506E221EE41EE68ED7CE52BC0263FC2
:10245000FCE53F07E1F0A8F0273F3C4539F507E2EE
:1024600025EE46EE67EF7CE51DC007E225EE45EE62
:1024700069ED7CE517C006E221EE40EE64EF7CE5F5
:1024800011C007E225EE44EE65EF7CE50BC006E2E5
:1024900021EE42EE66EF7CE505C008E221E045EE64
:1024A0006AED7CE50E949B1180E008C0FC018281FE
:1024B000882319F010920A0201C081E00F9108955B
:1024C000CF93DF93EC01FB018281882309F41FC1C4
:1024D000C230FCE5DF0708F41BC1C6319CE5D90713
:1024E00038F09E012B5F3C452930310508F010C1C2
:1024F0000E94861F9093190380931803C031ECE566
:10250000DE0709F4C3C008F041C0C8308CE5D80725
:1025100009F49AC0F0F4C430ECE5DE0709F487C092
:1025200068F4C2308CE5D80709F477C0C330DC45C5
:1025300009F0E3C080911803826076C0C630ECE5F4
:10254000DE0709F46EC008F07BC080911803886034
:102550006BC0CC308CE5D80709F485C068F4CA306C
:10256000ECE5DE0709F474C008F079C00E94EE18AB
:1025700080911803806858C0CE308CE5D80709F4E4
:1025800076C008F07FC0809118038BC0CC3FECE58B
:10259000DE0709F44FC018F5C3318CE5D80709F4FC
:1025A0007DC078F4C131ECE5DE0709F473C0C231B7
:1025B000DC4509F0A2C00E94EE18809118038F77C5
:1025C00033C0C5318CE5D80709F472C008F486C061
:1025D000CB3FDC4509F091C0809119033EC0C11585
:1025E000FDE5DF0709F45FC058F4CE3F9CE5D9074D
:1025F00009F444C008F43FC08091190382602DC0E3
:10260000C230FDE5DF0709F475C008F45DC0C330D2
:10261000DD4509F072C080E06EC0809118038160D2
:1026200003C08091180380618093180366C0809175
:10263000180311C0809119038260809319035DC053
:10264000809118038062F0CF809118038064ECCFF2
:102650008091180388608460E7CF8160EECF80911D
:1026600018038E7FE1CF809118038D7FDDCF80919D
:102670001803877FD9CF8091190318C0809119035F
:102680008D7FDBCF809118038F7ECECF8091180392
:102690008F7DCACF809118038F7BC6CF809118039E
:1026A000877F8B7FC1CF809119038D7F8E7FC5CFB0
:1026B0008091180382FB222720F991E0922790FB5A
:1026C00082F990FB83F9B0CF80911903982F9095F0
:1026D00091708E7F892B90FB81F9AFCF0E94EE180D
:1026E0008091180387FB222720F991E0922790FB25
:1026F00087F99ACF81E00E9425208091180390915C
:1027000019030E94971F0E94EE1880E001C081E02B
:10271000DF91CF910895CF93DF9386319C4541F5AA
:10272000EB010E94BA1E982F8A81209117013091E7
:102730001801882379F09A7A81E009F480E0809387
:102740000B02911102C069E201C065E3C9010E9458
:10275000C0200AC080910B02811102C069E201C051
:1027600065E3C9010E94CB200E94081F80E001C0E0
:1027700081E0DF91CF910895909311028093100230
:102780000895E0911002F0911102309721F001902C
:10279000F081E02D099480E00895E0911002F0911D
:1027A0001102309799F020912301222359F02091B2
:1027B000180327FF07C0DC012C9111962C93119769
:1027C00025E02C930280F381E02D09940895209157
:1027D0000E0230910F022817390771F090930F0203
:1027E00080930E02E0911002F0911102309721F0D7
:1027F0000680F781E02D0994089520910C02309114
:102800000D022817390771F090930D0280930C0286
:10281000E0911002F0911102309721F00084F185CF
:10282000E02D099408950E94812160932102709304
:102830002202809323029093240260931D027093DE
:102840001E0280931F0290932002089585B780682E
:1028500085BF85B7806885BF089581E008950C9491
:102860002D1408950C9431140C9431140C943414D8
:102870000C9431140C9438140C9431140E942614C6
:102880008BE69FE10E94E6210E943C140C943A14CE
:102890000E946C210E9492060E9401220E94E70F72
:1028A0000E94850E0C9436146F927F928F929F92A5
:1028B000AF92BF92CF92DF92EF92FF920F931F934E
:1028C000CF93DF93CDB7DEB72A970FB6F894DEBF6C
:1028D0000FBECDBF0E9432140E9431140E94C40664
:1028E00081110E94131433E1832E32E0932E00E015
:1028F00010E0C02E802F0E9464065C01F4016190FC
:1029000071904F016826792661147104B1F40F5F4C
:102910001F4F0530110569F78FEF89838A831B826A
:102920000E9475218160782F9D838C8349815A8113
:102930006B818D810E9410153AC08091B80281FD93
:102940000E946D06D12CEE24E394F12CC3018E215C
:102950009F21892B29F10E942F148823A9F0DE8260
:10296000CF82AE20BF2081E0AB2809F480E08887C9
:102970000E9475218160782F9A8789874E815F81B7
:1029800068858A850E941015000F111FF801ED5E01
:10299000FD4F80819181E826F926F182E08207C00F
:1029A000D394EE0CFF1CFEE0DF12D0CFB0CF0E941C
:1029B000B80E0E945F110E94C113909112028917F4
:1029C000D1F00E94C113809312022A960FB6F89498
:1029D000DEBF0FBECDBFDF91CF911F910F91FF9052
:1029E000EF90DF90CF90BF90AF909F908F907F90AF
:1029F0006F900C9453042A960FB6F894DEBF0FBE66
:102A0000CDBFDF91CF911F910F91FF90EF90DF909D
:102A1000CF90BF90AF909F908F907F906F900895D0
:102A2000DF92EF92FF920F931F93CF93DF93CDB777
:102A3000DEB72B970FB6F894DEBF0FBECDBFF42ED6
:102A4000052F162FE72ED82E61110E94DA1EFE01E7
:102A5000319686E0DF011D928A95E9F77E2D4F2D94
:102A6000502F612F8D2D9E810E94A71B2B960FB694
:102A7000F894DEBF0FBECDBFDF91CF911F910F91B4
:102A8000FF90EF90DF900895FC01808191810E947A
:102A90007B1E0895CF93882309F4A1C0C82F8238E4
:102AA000C1F40E94C11381FD9AC069E380911701AE
:102AB000909118010E94C0200E94081F2FEF81EE04
:102AC00094E0215080409040E1F700C0000069E3AD
:102AD00019C0833801F50E94C11380FD80C063E5F1
:102AE00080911701909118010E94C0200E94081F38
:102AF0002FEF81EE94E0215080409040E1F700C03C
:102B0000000063E580911701909118010E94CB208D
:102B1000CF910C94081F8438C1F40E94C11382FD28
:102B20005EC067E480911701909118010E94C02057
:102B30000E94081F2FEF81EE94E0215080409040CA
:102B4000E1F700C0000067E4DDCF8CEF8C0F813A25
:102B5000F8F48C2F0E942108811141C06C2F8091C4
:102B60001701909118010E944020882349F06C2F92
:102B700080911701909118010E94CB200E94081F9C
:102B80006C2F80911701909118010E94C020C0CF36
:102B900080E28C0F883048F4C77081E001C0880F54
:102BA000CA95EAF70E94BD1EB3CFEBE5EC0FE33008
:102BB00040F4F0E0EF53FE4F808190E0CF910C9411
:102BC000E713C85AC73158F4EC2FF0E0EE0FFF1F9F
:102BD000ED56FE4F80819181CF910C94FD13CF91E2
:102BE0000895882309F45BC0682F823879F40E9425
:102BF000C11381FF54C069E38091170190911801BE
:102C00000E94C0200E94081F69E310C08338B1F4FD
:102C10000E94C11380FF43C063E58091170190912A
:102C200018010E94C0200E94081F63E580911701CF
:102C3000909118010E94CB200C94081F843879F4DD
:102C40000E94C11382FF2BC067E48091170190910D
:102C500018010E94C0200E94081F67E4E7CF8CEF94
:102C6000860F813A18F380E2860F883048F4677047
:102C700081E001C0880F6A95EAF70E94C31EDCCF8D
:102C80008BE5860F833020F480E090E00C94E7130E
:102C9000685A673120F480E090E00C94FD130895A9
:102CA0001F93CF93DF93182FEB010E944A152097B3
:102CB00041F08FE99FE00197F1F700C000002197F4
:102CC000F6CF812FDF91CF911F910C94F1158933AD
:102CD00019F060E070E002C060E570E00C945016FE
:102CE000882321F00E94BD1E0C94081F089588239C
:102CF00021F00E94C31E0C94081F0895CF92DF920A
:102D0000EF92FF920F931F93CF93DF937C01062FD7
:102D1000C72FFC01D281158112951F700E94B31E2E
:102D2000882399F0DD2389F08C2F807F803421F077
:102D300080E2800F883048F082E00E94521F0E949B
:102D4000B31E91E0D82ED92601C0D12CCC2EC2942E
:102D50008FE0C8228C2D90E0FC01E755FF4F0C94CA
:102D60004C298C2F807FCF70882311F0C295C07FB3
:102D7000DD2399F0CC2309F482C180E2800F8830F2
:102D800010F0011104C08C2F0E94BD1E03C08C2FB7
:102D90000E94CD1E0E94081F72C1802F0E94F11553
:102DA000CC2309F491C180E2800F883010F001112A
:102DB00004C08C2F0E94C31E03C08C2F0E94D31E00
:102DC0000E94081F81C18C2F807FCF70803211F04C
:102DD000C295C07F002319F00130C9F022C0DD2365
:102DE00071F0112341F0113031F40E94ED1E8C2B53
:102DF0000E94F51E69C10E94ED1E8C2B1DC011237F
:102E000019F0113009F460C10E94FE1E25C0DD23B7
:102E100021F0163008F058C10EC0153008F054C12A
:102E20001BC0DD2361F0112331F0F701858180FFA4
:102E300026C18F7085838C2F0E94701645C1112387
:102E400059F0093309F02CC1FFEF27EE83E0F15070
:102E500020408040E1F722C18C2F0E94771634C1B8
:102E60008C2F86958695837019F0813061F02CC186
:102E7000DD2321F0802F9C2F937002C080E090E032
:102E80000E94E71329C1DD2321F0802F9C2F93702E
:102E900002C080E090E00E94FD131EC18C2F837061
:102EA00009F045C0D11114C1402F42954695477095
:102EB000440F440F602F6F70862F90E0A0E0B0E0C9
:102EC000042E04C0880F991FAA1FBB1F0A94D2F7B3
:102ED00004FF10C00FE010E020E030E004C0000F5D
:102EE000111F221F331F4A95D2F700951095209588
:102EF000309503C000E010E09801C695C695C370F8
:102F0000BC01CD01602B712B822B932BC23049F079
:102F100058F4C13019F00E94F81CDAC00E94E61C77
:102F2000D7C00E940A1DD4C00E94E41CD1C0DD237A
:102F300019F08C2F817001C08695882309F4C8C0D0
:102F4000402F429546954770440F440F602F6F7095
:102F5000862F90E0A0E0B0E0042E04C0880F991FF7
:102F6000AA1FBB1F0A94D2F704FF10C00FE010E0A5
:102F700020E030E004C0000F111F221F331F4A95CC
:102F8000D2F7009510952095309503C000E010E031
:102F90009801C695C695C370BC01CD01602B712BFD
:102FA000822B932BC23049F058F4C13019F00E94A3
:102FB000BD1D8EC00E94AB1D8BC00E94CF1D88C05E
:102FC0000E941E1D85C0CF70DD2339F08C2F0E941A
:102FD000441D802F0E9470167BC0802F0E947716A0
:102FE0008C2F0E94651D74C0023F01F128F4003F40
:102FF00041F0013FA1F03FC0033FF9F0043F39F138
:103000003AC0DD2341F0153008F05EC08C2F8F717F
:103010000E948A1D59C0163008F056C0F7CFDD2334
:1030200039F08C2F8F710E94441D4EC0DD23C9F3EF
:103030008C2F8F710E94651D47C0DD2329F08C2FD6
:103040008F710E942F1D40C00E942A1D3DC0DD23AC
:1030500049F0CF718C2F0E94441D63E08C2F0E9499
:103060003D1F32C081E00E94521F123068F182E0A1
:103070000E94521F29C0DD2331F0112391F2802FCD
:103080000E944A1521C0112399F2093349F49FEF98
:10309000E7EEF3E09150E040F040E1F700C00000BF
:1030A000802F0E94F11510C04C2F4F70602FC70168
:1030B0000E945C040E94551C0FC04C2F4F70602F63
:1030C000C7010E945F0408C088EF8C0D843020F493
:1030D0000E94C1130E945304DD20C9F00E94AF1E5C
:1030E00080FD15C0F70112820E94A91E0E94441D96
:1030F000C7010E94A8180E94A91EDF91CF911F91BD
:103100000F91FF90EF90DF90CF900C94651DDF91B1
:10311000CF911F910F91FF90EF90DF90CF90089586
:103120000F931F93CF93DF93EC01688179818A819C
:103130000E94861E8C010E94E11D0E94D21CB801D3
:10314000CE010E947E16DF91CF911F910F910895BD
:10315000CF93DF93EC01988189812B813C81232BD4
:1031600031F08F3F31F481E09F3F19F403C081E0DB
:1031700001C080E080FD19C0CE010E9403048111CE
:103180000CC00E94B31E882381F08A81882369F0D5
:1031900082E0DF91CF910C94521FCE010E949018D3
:1031A000CE01DF91CF910C94DA03DF91CF91089596
:1031B00080E090E00E94E71380E090E00E94FD1321
:1031C0000E94DA1E0E94EA1E0C94081F80911701CB
:1031D000909118010E94D6200C94D8180E94CA1E03
:1031E0000C94E618E92FE295EF704E2F50E0FA01AB
:1031F0003297EE30F105B0F4E754FF4F0C944C29B0
:10320000803F91F018F4883E68F40EC0843F51F47A
:103210000BC0883E48F0813F29F406C093FB882705
:1032200080F9089580E0089581E008950E947B1E52
:103230000E94F2180895CF93DF9300D000D01F9220
:10324000CDB7DEB70F900F900F900F900F90DF91DA
:10325000CF910895CF93DF9300D000D000D0CDB7A9
:10326000DEB726960FB6F894DEBF0FBECDBFDF9156
:10327000CF9108951F93CF93DF93C091260216E05C
:1032800080912702C81799F0D0E01C9FF0011D9F84
:10329000F00D1124E85DFD4F408151816281738101
:1032A000848195810E942A192196C770E9CFDF9108
:1032B000CF911F9108954091580250915902609109
:1032C0005A0270915B0280915C0290915D020C94B5
:1032D0002A190F931F93CF93DF9380915D028295FC
:1032E0008F7009F05DC080915A02882309F458C09C
:1032F0008091260210912702609158027091590224
:10330000C0915B02D0915C0291E06F3F09F090E0C8
:10331000292F06E0811709F443C0209721F07F3F51
:1033200021F030E003C031E001C0322F90E030FDE9
:1033300034C0089FF001099FF00D1124DF01A85D42
:10334000BD4F11963C911197371327C03C9136130E
:1033500024C012963C91129731111FC013964D91C3
:103360005C9114974C1B5D0B483C5105B0F4809167
:103370005D028F70806180935D02E35DFD4F80810F
:103380008F708061808388E592E00E94A818DF91A9
:10339000CF911F910F910C943A1901968770BACF73
:1033A000DF91CF911F910F9108959F92AF92BF929D
:1033B000CF92DF92EF92FF920F931F93CF93DF9301
:1033C000CDB7DEB761970FB6F894DEBF0FBECDBFA5
:1033D0008C0185E0F801DE011D9601900D928A9521
:1033E000E1F7F80140815181E280909158026091AB
:1033F000590220915B0230915C022115310531F0B8
:103400006F3F31F481E09F3F19F403C081E001C0B8
:1034100080E0F82FF1709F2E80FD46C1F801A38057
:10342000B48088E5C82E82E0D82EF0905A02F501CB
:10343000E21BF30BFF2009F4DFC080915D02E83C42
:10344000F10508F09BC0282F207F09F052C05613C9
:1034500013C0491311C0FE2CE1100EC08F708061A3
:1034600080935D020E945B19C6010E94A81880919A
:103470005D02F801858358C1AB2831F05F3F31F41C
:1034800081E04F3F19F403C081E001C080E080FD7E
:1034900003C081E08E2502C080E090E0F82FF1703B
:1034A000FF2E80FF1CC0809126022091270236E06B
:1034B000821709F417C190E0389FF001399FF00D91
:1034C0001124E85DFD4F6181561306C060814613EB
:1034D00003C06281E61203C001968770E9CFFE2C1B
:1034E000EE2009F421C180915D02816080935D022C
:1034F0005AC0561306C0491304C0E11002C0F801B7
:103500009FC04D875E878D859E850E9416198823F2
:1035100079F1EE2069F120915D02822F82958F7002
:1035200090E0029774F08091580290915902988728
:103530008F831986BB86AA862C87CE0107960E94A8
:10354000A81886E0F801A8E5B2E001900D928A95EE
:10355000E1F70E9469190E945B190DC0561729F105
:103560004D875E878D859E850E94161981112CC01E
:10357000C8010E94A818FF24F394D6C0282F207FEA
:1035800069F77A2DB98AA88A6E2D89890E941B193C
:1035900088E592E00E94A81886E0F60111928A95CB
:1035A000E9F70E945B19F12CBFC04913D9CFE11094
:1035B000D7CFF8018583C8010E94A81886E0F601DC
:1035C00011928A95E9F7B0C0EE2091F220915D0248
:1035D000822F82958F7090E002970CF4B2CF809189
:1035E0005802909159029A8389831B82BD82AC82D2
:1035F0002E83CE010196A3CFE83CF10508F047C029
:10360000FE2CEE2009F4B4CF561330C049132EC05F
:1036100020915D0220FD21C0822F82958F70482F5E
:1036200050E041155105C9F0F80125834F3051058F
:1036300041F08F5F982F9295907F822F8F70892B0A
:103640008583C8010E94A81886E0F801A8E5B2E0C9
:1036500001900D928A95E1F742C086E0F801A8E555
:10366000B2E001900D928A95E1F75EC04D875E87CA
:103670008D859E850E941619811163CF80915D0210
:10368000816080935D02C8010E94A8184DC07A2D08
:10369000B98AA88A6E2D89890E941B1986E0F601D5
:1036A00011928A95E9F71BC0EE2009F461CF4D878E
:1036B0005E878D859E850E941619F82E882309F451
:1036C00057CF86E0F801A8E5B2E001900D928A9507
:1036D000E1F788E592E00E9444150E9469190E9472
:1036E0005B1922C04D875E878D859E850E947B1E5B
:1036F000292F22952F70223028F49F7039F08111E4
:1037000005C00BC0243028F49F7049F4805E8830D7
:1037100020F0C8010E94A8189F2CF92C05C0F801C0
:103720009581907F99F7F9CF8F2D61960FB6F89418
:10373000DEBF0FBECDBFDF91CF911F910F91FF90E4
:10374000EF90DF90CF90BF90AF909F9008951F9320
:10375000CF93DF93CDB7DEB72C970FB6F894DEBFCB
:103760000FBECDBF4F83588769877A878B879C8729
:10377000CE0107960E94D5198823D1F09F818885B4
:103780002A853B85232B31F08F3F31F481E09F3F29
:1037900019F403C081E001C080E080FD47C04F8183
:1037A000588569857A858B859C850E942A193EC03B
:1037B00086E0FE013796DE01119601900D928A9502
:1037C000E1F7FF81E8856A857B856115710531F038
:1037D000EF3F31F481E0FF3F19F403C081E001C005
:1037E00080E080FD23C02091270230E0C9010196CE
:1037F000877099274091260250E084179507F1F1D0
:10380000F983EA837D836C8396E0929FD001939F36
:10381000B00D1124A85DBD4FFE01319601900D92AF
:103820009A95E1F7809327020E943A1916E0809159
:10383000260290912702891771F1189FC001112467
:10384000885D9D4F0E94D519882329F1E0912602B9
:103850001E9FF0011124E85DFD4F4081518162817E
:103860007381848195810E942A198091260290E0BB
:1038700001968770992780932602D9CF0E94EE186F
:103880001092270210922602E8E5F2E086E0DF01BE
:103890001D928A95E9F72C960FB6F894DEBF0FBEFD
:1038A000CDBFDF91CF911F910895EF92FF920F93BB
:1038B0001F93CF93DF938C01892B09F46CC0F12CFB
:1038C000EE24E394E8012196F8018491843740F4D2
:1038D000843008F051C0813081F0823019F15BC032
:1038E000853709F444C0A8F19CE7980F903708F099
:1038F00052C08F770E94F11541C00E5F1F4FFE012D
:10390000849190E2980F983050F48770FE2D01C09A
:10391000FF0F8A95EAF78F2F0E94DD1E14C00E94C8
:103920004A152DC00E5F1F4FFE01849190E2980F43
:10393000983060F48770FE2D01C0FF0F8A95EAF77A
:103940008F2F0E94E31E0E94081F19C00E94F115CC
:1039500016C00E5F1F4FFE01C491CC2381F08FE98A
:103960009FE00197F1F700C00000C150F6CF0E5F55
:103970001F4FFE01F49003C00E944A158E018F2D47
:10398000882309F49FCFEFE9FFE03197F1F700C0FA
:1039900000008150F5CFDF91CF911F910F91FF90E3
:1039A000EF900895089508950C94D31C0C94D41CA2
:1039B0000E94D61C60938F027093900280939102B4
:1039C000909392020C94D8180C94D81C0F931F93C8
:1039D00000918F02109190022091910230919202F9
:1039E000602B712B822B932B1F910F910C94D81C61
:1039F0000F931F9300918F021091900220919102DA
:103A00003091920260237123822393231F910F919F
:103A10000C94D81C0F931F9300918F021091900269
:103A2000209191023091920260277127822793277B
:103A30001F910F910C94D81C0C94D31C0E941C1D38
:103A400060938B0270938C0280938D0290938E0210
:103A50000C94D81860E070E0CB010C941E1D0F93FD
:103A60001F9341E050E060E070E08A019B0104C0D8
:103A7000000F111F221F331F8A95D2F7C901B80109
:103A80001F910F910C941E1D0F931F9341E050E066
:103A900060E070E004C0440F551F661F771F8A95D1
:103AA000D2F780918B0290918C02A0918D02B091FF
:103AB0008E028A019B01082B192B2A2B3B2BC90153
:103AC000B8011F910F910C941E1D0F931F9341E09D
:103AD00050E060E070E004C0440F551F661F771F80
:103AE0008A95D2F7409550956095709580918B029C
:103AF00090918C02A0918D02B0918E028A019B015F
:103B0000082319232A233B23C901B8011F910F91D0
:103B10000C941E1D0F931F9341E050E060E070E095
:103B200004C0440F551F661F771F8A95D2F78091F6
:103B30008B0290918C02A0918D02B0918E028A012D
:103B40009B01082719272A273B27C901B8011F9184
:103B50000F910C941E1D0F931F9300918B021091D7
:103B60008C0220918D0230918E02602B712B822B62
:103B7000932B1F910F910C941E1D0F931F93009177
:103B80008B0210918C0220918D0230918E02602365
:103B90007123822393231F910F910C941E1D0F9369
:103BA0001F9300918B0210918C0220918D02309115
:103BB0008E0260277127822793271F910F910C9403
:103BC0001E1D08952EE0929F800D1124E82FE6958A
:103BD000E695E695877051E001C0550F8A95EAF7A2
:103BE00085E0E89FF0011124E25AFD4F20E030E02B
:103BF00070E04081CB01022E02C0969587950A9411
:103C0000E2F78170819584278523842781932F5F34
:103C10003F4F2530310569F708952EE0929F800DC2
:103C20001124682F669566956695982F977085E0A4
:103C3000689FB001112440E050E080E0FB01E40FF8
:103C4000F51FE25AFD4F208130E0092E02C0369563
:103C500027950A94E2F721703327042E01C0220F22
:103C60000A94EAF7822B4F5F5F4F4530510531F7D9
:103C70000895BF92CF92DF92EF92FF920F931F931E
:103C8000CF93DF938C01C0908B02D0908C02E09098
:103C90008D02F0908E0280918F0290919002A091FF
:103CA0009102B0919202C82AD92AEA2AFB2ACFE1CE
:103CB000D0E0D701C6010C2E04C0B695A795979504
:103CC00087950A94D2F780FD04C0219790F7B12C14
:103CD00007C0BC2EB8018C2F0E947B040197A9F36A
:103CE0008B2DDF91CF911F910F91FF90EF90DF907F
:103CF000CF90BF900895CF93DF93EC010E94391EBF
:103D0000BE010E947B04DF91CF9108951F93CF9352
:103D1000DF93EB0190912502992321F0CB010E94C2
:103D20007B1E13C0882349F0CB010E94391E182F37
:103D3000682FCE010E94E21D04C0CB010E940D1E1F
:103D4000182FBE01812F0E947B04DF91CF911F911C
:103D50000895809193028595859585950895809124
:103D600093028770089590919302977081E009F40F
:103D700080E008958091B70208959091B702892B51
:103D80008093B702089580959091B702892380931C
:103D9000B70208951092B70208959091B602892B48
:103DA0008093B602089580959091B60289238093FE
:103DB000B60208951092B60208959091B502892B2B
:103DC0008093B502089580959091B50289238093E0
:103DD000B50208951092B502089580919402089555
:103DE00008950C94F01E0C94F11E90919402981773
:103DF00021F0809394020C94F31E08958091940214
:103E0000882329F01092940280E00C94F31E089508
:103E1000E0911701F09118018091B7028083E09141
:103E20001701F091180190818091B602892B80834F
:103E3000E0911701F091180190818091B502892BD2
:103E4000808380919402882381F0E0911701F091A2
:103E500018019081892B808380911701909118011E
:103E60000E942A2081110E94FE1E809117019091CC
:103E700018010C94CD130C94F01E98E0899F9001CA
:103E80001124262B209393020E94441D80919302BB
:103E90008595859585950C943B1F1092930280E043
:103EA0000C943B1F20919302809582238093930270
:103EB000982F977079F430E0482F082E000C550B9E
:103EC0002417350739F08595859585950E94651DE0
:103ED0000C944D1F089580E008956FEF7FEF80E010
:103EE00090E00C941E2A80E090E00E94FA2921E0E4
:103EF0008B3E9E4F09F020E0822F089582E090E0F3
:103F00000C94EC2983E090E00C94EC29CF9384E0AE
:103F100090E00E94EC29C82F81E290E00E94EC29F9
:103F20002C2F30E0A901582BCA01CF910895CF93CF
:103F3000C92F682F84E090E00E94002A6C2F81E254
:103F400090E0CF910C94002A86E090E00C94EC294C
:103F5000682F86E090E00C94002AAB01BC018FE052
:103F600090E00C94122AAB01BC0183E190E00C9428
:103F7000122A60E070E0CB010C94B31F60E070E0A7
:103F8000CB010E94AD1F0C94B91F6BEE7EEF80E059
:103F900090E00E941E2A60E082E090E00E94002AE9
:103FA00060E083E090E00E94002A10928F0210925D
:103FB0009002109291021092920260E084E090E0F0
:103FC0000E94002A60E081E290E00E94002A60E006
:103FD00085E090E00E94002A60E086E090E00E9488
:103FE000002A6FEF87E090E00E94002A40E050E056
:103FF000BA0188E090E00E94122A60E08DE090E033
:104000000E94002A40E050E0BA0188E190E00E945E
:10401000122A60E087E190E00E94002A40E050E030
:10402000BA018CE190E00E94122A60E080E290E008
:104030000E94002A40E050E0BA0188E190E00E942E
:10404000122A0C94BE1F0C94C51F682F8EE090E0BE
:104050000C94002AFC01329680912301882331F0D0
:104060008091180387FF02C09EE101C096E080E0C6
:10407000915028F021912223D9F38F5FF9CF089531
:10408000662351F1209123012223E9F020911803A6
:1040900027FF19C0462F4695469546954E31E0F4C8
:1040A000677021E030E002C0220F331F6A95E2F70B
:1040B000FC01E40FF11D828190E02823392381E087
:1040C000232B69F409C0FC013296089621916217EE
:1040D00029F0E817F907D1F780E0089581E0089505
:1040E0009C01FC0132969FEF80E04191461789F0D8
:1040F0009F3F19F4411101C0982F8F5F8630A9F7B7
:104100009F3F39F0F901E90FF11D97FDFA956283A0
:10411000089508959C012A5F3F4FFC014281461398
:1041200001C01282019682179307B9F70895262FCE
:104130002695269526952E3168F4FC01E20FF11D97
:10414000677021E030E001C0220F6A95EAF78281B2
:10415000282B22830895262F2695269526952E31E5
:1041600070F4FC01E20FF11D677021E030E001C046
:10417000220F6A95EAF720958281282322830895E9
:1041800020912301222329F02091180327FD0C946C
:1041900097200C94702020912301222329F0209154
:1041A000180327FD0C94AB200C948A202091230146
:1041B000FC013296222331F08091180387FF02C060
:1041C0008EE101C086E0DF011D928A95E9F708952E
:1041D00008950C94E8200C94E820CF930E94EB20E3
:1041E0000E94C4060E94E920C0E08C2F0E94640651
:1041F000892B29F4CF5FC530C1F780E001C081E091
:10420000CF9108950C94E8200C94022180911E0314
:10421000843061F10E94042180E00E94F61080E069
:104220000E9453041092B90220E488E190E00FB696
:10423000F894A895809360000FBE2093600083B728
:10424000817F846083BF83B7816083BF78948895C2
:1042500083B78E7F83BF0FB6F894A89580916000D6
:10426000886180936000109260000FBE08950C94E6
:10427000E8200E94EE180E94E70F0E94C1130E94DE
:1042800053040C9437211F920F920FB60F921124F2
:104290008F939F93AF93BF938091B902811113C005
:1042A0008091140390911503A0911603B091170308
:1042B0004196A11DB11D8093140390931503A09303
:1042C0001603B0931703BF91AF919F918F910F90F9
:1042D0000FBE0F901F90189582E084BD93E095BDAE
:1042E0009AEF97BD80936E0008952FB7F894809150
:1042F000140390911503A0911603B09117032FBFDB
:1043000008952FB7F894609114037091150380916C
:104310001603909117032FBF08959C014FB7F8948F
:104320008091140390911503A0911603B091170387
:104330004FBF821B930B089578941F920F920FB674
:104340000F9211248F939F93AF93BF938091140387
:1043500090911503A0911603B09117030196A11D2A
:10436000B11D8093140390931503A0931603B0938B
:104370001703BF91AF919F918F910F900FBE0F9038
:104380001F90189581E08093E00080E28093D80030
:104390001092C9008FE19EE40197F1F700C0000080
:1043A00087E090EBDC018093270390932803A09390
:1043B0002903B0932A039CE088E10FB6F894A895EE
:1043C000809360000FBE90936000FFCF9093C50173
:1043D0008093C40108950C946D1F0E94C4068FE35E
:1043E0009CE90197F1F700C000000E94C40680E03C
:1043F0000E94640680FF04C00E94EB210C94C2213D
:1044000008950E94731F811102C00E9423200E9400
:104410007E1F8093B8020E94861F90931903809399
:1044200018030E94821F682F70E080E090E00E94D5
:10443000E41C60918B0270918C0280918D029091AE
:104440008E020C941C1D8091DA0208950895CF937A
:10445000DF9300D01F92CDB7DEB790911E0394304A
:1044600019F589837B836A8382E08093E9008FEF6B
:104470009091E800815095FD06C095ED9A95F1F771
:1044800000008111F5CF8091E80085FF0DC040E06C
:1044900050E063E070E0CE0101960E943A248091E2
:1044A000E8008E778093E8000F900F900F90DF91D7
:1044B000CF910895BC0184E00C942722BC0183E0D5
:1044C0000C942722CF93DF9320912301222339F0EC
:1044D0002091180327FF03C060E222E002C068E0D9
:1044E00021E02093E9002FEF3091E800215035FDC5
:1044F00006C035ED3A95F1F700002111F5CF209176
:10450000E80025FF1DC0EC0180912301811105C049
:1045100040E050E068E070E003C070E040E050E050
:10452000CE010E943A248091E8008E778093E800C3
:1045300080E2FE01AAEBB2E001900D928A95E1F7CC
:10454000DF91CF91089580911D03811109C00E94D0
:10455000CB250E9428268091E20084608093E200AF
:10456000089510921D03089508950895089542E056
:1045700061EC81E00E94442542E261EC82E00C940F
:10458000442580912003833009F460C030F48130E9
:1045900071F0823009F499C008958A3009F485C019
:1045A0008B3009F46BC0893009F0A7C020C080911E
:1045B0001F03813A09F0A1C08091E800877F8093B2
:1045C000E8008091230390912403892B21F460E279
:1045D0008AEB92E003C060E080E090E070E00E942F
:1045E00085248091E8008B778093E800089580917E
:1045F0001F03813209F081C080912303909124032D
:10460000029708F07AC08091E800877F8093E800E5
:104610008091E80082FD05C080911E038111F8CFD2
:104620006CC02091F3008091F20090E0922B0297F1
:1046300029F48091F1008B7F813021F48091F10089
:104640008093DA028091E8008B7753C080911F033A
:10465000813A09F052C08091230390912403892B61
:1046600009F04BC08091E800877F8093E80080913B
:10467000E80080FFFCCF8091230136C080911F03AA
:104680008132D9F58091230390912403892BA9F5D8
:104690008091E800877F8093E8000E9479258091CF
:1046A0002103809323010C94EE1880911F03813223
:1046B00021F58091E800877F8093E8000E947925AA
:1046C000809122038093DB02089580911F03813A39
:1046D000A1F48091E800877F8093E8008091E80052
:1046E00080FFFCCF8091DB028093F1008091E80095
:1046F0008E778093E8000C947925089584B7877F9E
:1047000084BF0FB6F894A89580916000886180936B
:104710006000109260000FBE90E080E80FB6F89441
:1047200080936100909361000FBE0E943E140E942E
:10473000CB250E9428268091E20084608093E200CD
:1047400078940E94BD280E94481489E191E00E945B
:10475000BC1380911E038530A9F480911E0385301F
:1047600079F40E94062180911C038823B1F30E94F2
:10477000ED20882391F30E9424240E94EE18EDCFAF
:104780000E9439210E9454140E9432140E94311454
:10479000E0CF0C94CB23292F332723303105C9F0E8
:1047A00060F42130310581F02230310509F044C038
:1047B0008BE390E026E935E043C021323105E1F09A
:1047C0002232310549F138C082E190E021ED35E037
:1047D00037C099278130910549F028F0029761F59B
:1047E000E0E6F5E005C0E2E9F5E002C0E2E7F5E069
:1047F000849190E09F0124C06115710541F0613002
:104800007105D1F489E090E021EC35E019C089E030
:1048100090E028EA35E014C06115710541F061307F
:10482000710551F48DE690E023EE35E009C080E497
:1048300090E020E536E004C080E090E020E030E049
:10484000FA0131832083089580E189BD82E189BD29
:1048500009B400FEFDCF8091D8008F7D8093D800F1
:104860008091E00082608093E0008091E00081FD13
:10487000FCCF0895CF92DF92EF92FF920F931F9398
:10488000CF93DF93EC018B017A010E94982581116F
:1048900033C0E114F10439F0F70180819181081BE4
:1048A000190BC80FD91FC12CD12C0115110519F1F5
:1048B0008091E80085FD16C08091E8008E77809396
:1048C000E800E114F10449F0F70180819181C80EFC
:1048D000D91ED182C08285E00FC00E94982588230E
:1048E00021F30AC089918093F10001501109FFEF73
:1048F000CF1ADF0ADACF80E0DF91CF911F910F91BD
:10490000FF90EF90DF90CF90089520912503309194
:1049100026032617370748F06115710539F42091F1
:10492000E8002E772093E80001C0B901FC0120E0E7
:104930006115710579F180911E038823F1F18530AD
:10494000F1F18091E80083FD3CC08091E80082FD98
:104950002EC08091E80080FFEBCF2091F300809182
:10496000F20090E0922B6115710551F088309105AD
:1049700038F421912093F100615071090196F3CF31
:1049800021E0089709F020E08091E8008E7780937D
:10499000E800CECF2111CFCF0AC080911E0388231B
:1049A00061F0853061F08091E80083FD0AC080915C
:1049B000E80082FFF2CF80E0089582E0089583E06E
:1049C000089581E00895209125033091260326174C
:1049D000370748F06115710539F42091E8002E770A
:1049E0002093E80001C0B901FC0120E061157105C8
:1049F00091F180911E03882309F440C0853009F4A9
:104A00003FC08091E80083FD3DC08091E80082FDB9
:104A10002FC08091E80080FFE9CF2091F3008091C2
:104A2000F20090E0922B6115710559F088309105E4
:104A300040F424912093F100319661507109019660
:104A4000F2CF21E0089709F020E08091E8008E770E
:104A50008093E800CBCF2111CCCF0AC080911E03F8
:104A6000882361F0853061F08091E80083FD0AC001
:104A70008091E80082FFF2CF80E0089582E00895FF
:104A800083E0089581E00895982F973068F590931A
:104A9000E900981739F07091EC002091ED005091E9
:104AA000F00003C0242F762F50E021FD02C09F5F4D
:104AB000ECCF3091EB003E7F3093EB003091ED0076
:104AC0003D7F3093ED003091EB0031603093EB008F
:104AD0007093EC002093ED005093F0002091EE00D5
:104AE00027FDE5CF80E008958F708093E90081E095
:104AF000089580911F0387FF11C08091E80082FD17
:104B000005C080911E038111F8CF11C08091E8008B
:104B10008B770BC080911E03882349F08091E800B9
:104B200080FFF8CF8091E8008E778093E8000895A9
:104B30002091E4003091E50095E64091EC00842F4F
:104B4000817040FF23C08091E80080FD1DC08091EE
:104B50001E03882399F0853099F08091EB0085FD44
:104B600011C04091E4005091E5002417350729F366
:104B7000915011F09A01E1CF84E0089582E0089508
:104B800083E0089581E0089580E008954091E80071
:104B900042FFDDCF08950E9439260E944126E0EEB3
:104BA000F0E0808181608083E8EDF0E080818F77A4
:104BB000808319BCA7EDB0E08C918E7F8C938081AF
:104BC0008F7E808310921D0308950F931F93CF93C0
:104BD000DF930E9439260E944126C8EDD0E08881EB
:104BE0008F77888388818068888388818F7D888398
:104BF00019BC10921E0310921A0310921C031092FB
:104C00001B0300EE10E0F80180818B7F8083888198
:104C10008160888342E060E080E00E944425E1EE0C
:104C2000F0E080818E7F8083E2EEF0E08081816021
:104C30008083808188608083F80180818E7F80837B
:104C4000888180618883DF91CF911F910F910895B2
:104C5000E8EDF0E080818F7E8083E7EDF0E08081F9
:104C60008160808384E082BF81E080931D030C9487
:104C7000E525E8EDF0E080818E7F80831092E200F0
:104C800008951092DA001092E10008951F920F9299
:104C90000FB60F9211242F933F934F935F936F930F
:104CA0007F938F939F93AF93BF93EF93FF938091E5
:104CB000E10082FF0BC08091E20082FF07C080917B
:104CC000E1008B7F8093E1000E94BC288091DA0094
:104CD00080FF1FC08091D80080FF1BC08091DA0048
:104CE0008E7F8093DA008091D90080FF0DC080E133
:104CF00089BD82E189BD09B400FEFDCF81E08093CA
:104D00001E030E94A32205C019BC10921E030E941C
:104D1000B1228091E10080FF19C08091E20080FF04
:104D200015C08091E2008E7F8093E2008091E200C6
:104D300080618093E2008091D80080628093D800E7
:104D400019BC85E080931E030E94B5228091E1008A
:104D500084FF30C08091E20084FF2CC080E189BDD7
:104D600082E189BD09B400FEFDCF8091D8008F7D1E
:104D70008093D8008091E1008F7E8093E100809144
:104D8000E2008F7E8093E2008091E2008160809358
:104D9000E20080911A03882311F084E007C080911B
:104DA000E30087FD02C081E001C083E080931E0321
:104DB0000E94B6228091E10083FF29C08091E20029
:104DC00083FF25C08091E100877F8093E10082E02E
:104DD00080931E0310921A038091E1008E7F8093CE
:104DE000E1008091E2008E7F8093E2008091E200FA
:104DF00080618093E20042E060E080E00E94442510
:104E00008091F00088608093F0000E94B422FF91AE
:104E1000EF91BF91AF919F918F917F916F915F9132
:104E20004F913F912F910F900FBE0F901F901895AB
:104E30001F920F920FB60F9211242F933F934F930F
:104E40005F936F937F938F939F93AF93BF93CF9312
:104E5000DF93EF93FF93C091E900CF708091EC0056
:104E6000D82FD17080FDD0E81092E9008091F00039
:104E7000877F8093F00078940E945C271092E9006D
:104E80008091F00088608093F000CD2BCF70C093AC
:104E9000E900FF91EF91DF91CF91BF91AF919F9189
:104EA0008F917F916F915F914F913F912F910F90D3
:104EB0000FBE0F901F9018951F93CF93DF93CDB720
:104EC000DEB7AA970FB6F894DEBF0FBECDBFEFE1F5
:104ED000F3E08091F100819323E0E732F207C9F714
:104EE0000E94C1228091E80083FF2EC180911F03A0
:104EF00090912003492F50E04A30510508F024C119
:104F0000FA01E953FF4F0C944C29803821F0823884
:104F100009F01AC108C080911B0390911C039923CA
:104F200089F082600FC0809123038F70873008F072
:104F30000BC18093E9008091EB0085FB882780F905
:104F40001092E9009091E800977F9093E800809399
:104F5000F1001092F100D1C0282F2D7F09F0F4C08C
:104F6000882319F0823061F0EFC0809121038130F5
:104F700009F0EAC0933009F080E080931C032EC052
:104F80008091210381112AC0809123038F702FEF1C
:104F9000280F263008F0D8C08093E9002091EB005C
:104FA00020FF1CC0933021F48091EB00806214C07C
:104FB0009091EB0090619093EB0021E030E0A9012B
:104FC00002C0440F551F8A95E2F74093EA00109201
:104FD000EA008091EB0088608093EB001092E9007A
:104FE0008091E800877F8093E8000E947925ACC01B
:104FF0008111AAC0109121031F778091E30080786E
:10500000812B8093E3008091E800877F8093E80004
:105010000E9479258091E80080FFFCCF8091E30019
:1050200080688093E300111102C082E001C083E038
:1050300080931E0389C08058823008F085C080911B
:105040002103909122038C3D53E0950779F583E08D
:105050008A838AE289834FB7F894DE01139620E0B1
:105060003EE051E2E32FF0E050935700E49120FF3F
:1050700003C0E295EF703F5FEF708E2F90E0EA3053
:1050800010F0C79601C0C0968D939D932F5F243179
:1050900049F74FBF8091E800877F8093E8006AE27C
:1050A00070E0CE0101960E94852416C06091230312
:1050B00070912403AE014F5F5F4F0E94C923BC0172
:1050C000892B09F441C09091E800977F9093E80004
:1050D00089819A810E94E3248091E8008B778093F4
:1050E000E80032C0803881F58091E800877F8093A6
:1050F000E80080911A038093F1008091E8008E7798
:1051000072CF811121C080912103909122039927B0
:105110000297D4F48091E800877F8093E800809123
:10512000210380931A030E94792580911A0381112B
:1051300006C08091E30087FD02C081E001C084E0E9
:1051400080931E030E94B7228091E80083FF0AC06B
:105150008091E800877F8093E8008091EB00806277
:105160008093EB00AA960FB6F894DEBF0FBECDBFBA
:10517000DF91CF911F9108950895CF9380911E03E1
:105180008823A1F0C091E900CF709091EC00892FA5
:10519000817090FD80E8C82B1092E9008091E800B2
:1051A00083FD0E945C27CF70C093E900CF910895E2
:1051B000DB018F939F930E947029BF91AF91A29FB3
:1051C000800D911DA39F900DB29F900D1124089505
:1051D000991B79E004C0991F961708F0961B881F49
:1051E0007A95C9F78095089587FB082E062687FDD6
:1051F000819567FD61950E94E8280EF4919507FC62
:1052000081950895AA1BBB1B51E107C0AA1FBB1FB4
:10521000A617B70710F0A61BB70B881F991F5A9542
:10522000A9F780959095BC01CD01089597FB072EB5
:1052300016F4009407D077FD09D00E94022907FCDC
:1052400005D03EF4909581959F4F08957095619596
:105250007F4F0895A1E21A2EAA1BBB1BFD010DC0B2
:10526000AA1FBB1FEE1FFF1FA217B307E407F50716
:1052700020F0A21BB30BE40BF50B661F771F881FF2
:10528000991F1A9469F760957095809590959B0188
:10529000AC01BD01CF010895EE0FFF1F0590F49101
:1052A000E02D09940E945A29332312F48A1B9B0B88
:1052B0000C946B29A29FB001B39FC001A39F700DF6
:1052C000811D1124911DB29F700D811D1124911D0E
:1052D00008950E945A29B7FF0895821B930B0895E1
:1052E0000E945A29A59F900DB49F900DA49F800DF8
:1052F000911D11240895B7FF0C9470290E94702904
:10530000821B930B08958F929F92AF92BF92CF9280
:10531000DF92EF92FF92CF93DF93EC016881798166
:105320008A819B81611571058105910521F464E2F3
:1053300079ED8BE597E02DE133EF41E050E00E94FD
:10534000342A49015A019B01AC01A7EAB1E40E9449
:1053500070296B017C01ACEEB4EFA50194010E94B1
:105360007E29DC01CB018C0D9D1DAE1DBF1DB7FF3D
:1053700003C00197A109B04888839983AA83BB839E
:105380009F77DF91CF91FF90EF90DF90CF90BF900C
:10539000AF909F908F9008950E948329089580E098
:1053A00091E00E9483290895A0E0B0E0809300017D
:1053B00090930101A0930201B09303010895FC01B1
:1053C0004150504030F001900616D1F73197CF018F
:1053D0000895882799270895F999FECF92BD81BD38
:1053E000F89A992780B50895A6E1B0E044E050E02E
:1053F0000C94262AA8E1B0E042E050E00C94262A62
:10540000262FF999FECF92BD81BDF89A019700B47D
:10541000021639F01FBA20BD0FB6F894FA9AF99A1D
:105420000FBE08950396272F0E94012A0E94002A8A
:10543000252F0E94012A242F0C94012A0196272F40
:105440000E94012A0C94002ADC01CB01FC01F9998D
:10545000FECF06C0F2BDE1BDF89A319600B40D92C0
:1054600041505040B8F70895052E97FB1EF4009464
:105470000E944B2A57FD07D00E942A2907FC03D01F
:105480004EF40C944B2A50954095309521953F4F02
:105490004F4F5F4F089590958095709561957F4F20
:0A54A0008F4F9F4F0895F894FFCF3F
:1054AA0001000000010102000A000A0A01191A1B80
:1054BA001C1D1E1F20212295022322622226225E03
:1054CA00225A2201E200E900EA00B500B600B7005C
:1054DA00CD008301CC008A019201940121022302AA
:1054EA0024022502260227022A02B300B4006F0012
:1054FA007000818283F0F1C66766369431323534A2
:10550A009796339091929395000102020202060641
:10551A00060909090909090F0F0F0F0F0F151515AC
:10552A0018191919191919191919192324252525A9
:10553A00252525E200E900EA00B500B600B700CD4E
:10554A00008301CC008A01920194012102230224E2
:10555A00022502260227022A02B300B4006F007055
:04556A0000818283B7
:00000001FF
